{
  "contractName": "GameItemsSell",
  "abi": [
    {
      "inputs": [
        {
          "internalType": "string",
          "name": "_username",
          "type": "string"
        }
      ],
      "stateMutability": "payable",
      "type": "constructor"
    },
    {
      "anonymous": false,
      "inputs": [
        {
          "indexed": true,
          "internalType": "address",
          "name": "owner",
          "type": "address"
        },
        {
          "indexed": true,
          "internalType": "address",
          "name": "approved",
          "type": "address"
        },
        {
          "indexed": true,
          "internalType": "uint256",
          "name": "tokenId",
          "type": "uint256"
        }
      ],
      "name": "Approval",
      "type": "event"
    },
    {
      "anonymous": false,
      "inputs": [
        {
          "indexed": true,
          "internalType": "address",
          "name": "owner",
          "type": "address"
        },
        {
          "indexed": true,
          "internalType": "address",
          "name": "operator",
          "type": "address"
        },
        {
          "indexed": false,
          "internalType": "bool",
          "name": "approved",
          "type": "bool"
        }
      ],
      "name": "ApprovalForAll",
      "type": "event"
    },
    {
      "anonymous": false,
      "inputs": [
        {
          "indexed": true,
          "internalType": "address",
          "name": "from",
          "type": "address"
        },
        {
          "indexed": true,
          "internalType": "address",
          "name": "to",
          "type": "address"
        },
        {
          "indexed": true,
          "internalType": "uint256",
          "name": "tokenId",
          "type": "uint256"
        }
      ],
      "name": "Transfer",
      "type": "event"
    },
    {
      "inputs": [
        {
          "internalType": "address",
          "name": "to",
          "type": "address"
        },
        {
          "internalType": "uint256",
          "name": "tokenId",
          "type": "uint256"
        }
      ],
      "name": "approve",
      "outputs": [],
      "stateMutability": "nonpayable",
      "type": "function"
    },
    {
      "inputs": [
        {
          "internalType": "address",
          "name": "owner",
          "type": "address"
        }
      ],
      "name": "balanceOf",
      "outputs": [
        {
          "internalType": "uint256",
          "name": "",
          "type": "uint256"
        }
      ],
      "stateMutability": "view",
      "type": "function"
    },
    {
      "inputs": [
        {
          "internalType": "uint256",
          "name": "tokenId",
          "type": "uint256"
        }
      ],
      "name": "getApproved",
      "outputs": [
        {
          "internalType": "address",
          "name": "",
          "type": "address"
        }
      ],
      "stateMutability": "view",
      "type": "function"
    },
    {
      "inputs": [
        {
          "internalType": "address",
          "name": "owner",
          "type": "address"
        },
        {
          "internalType": "address",
          "name": "operator",
          "type": "address"
        }
      ],
      "name": "isApprovedForAll",
      "outputs": [
        {
          "internalType": "bool",
          "name": "",
          "type": "bool"
        }
      ],
      "stateMutability": "view",
      "type": "function"
    },
    {
      "inputs": [
        {
          "internalType": "uint256",
          "name": "",
          "type": "uint256"
        }
      ],
      "name": "items",
      "outputs": [
        {
          "internalType": "uint256",
          "name": "itemId",
          "type": "uint256"
        },
        {
          "internalType": "string",
          "name": "name",
          "type": "string"
        },
        {
          "internalType": "string",
          "name": "description",
          "type": "string"
        },
        {
          "internalType": "bool",
          "name": "isAvailableForRent",
          "type": "bool"
        },
        {
          "internalType": "bool",
          "name": "isAvailableForSale",
          "type": "bool"
        },
        {
          "internalType": "uint256",
          "name": "price",
          "type": "uint256"
        },
        {
          "internalType": "address",
          "name": "owner",
          "type": "address"
        }
      ],
      "stateMutability": "view",
      "type": "function"
    },
    {
      "inputs": [
        {
          "internalType": "uint256",
          "name": "",
          "type": "uint256"
        }
      ],
      "name": "listings",
      "outputs": [
        {
          "internalType": "uint256",
          "name": "itemId",
          "type": "uint256"
        },
        {
          "internalType": "address",
          "name": "seller",
          "type": "address"
        },
        {
          "internalType": "uint256",
          "name": "price",
          "type": "uint256"
        }
      ],
      "stateMutability": "view",
      "type": "function"
    },
    {
      "inputs": [],
      "name": "name",
      "outputs": [
        {
          "internalType": "string",
          "name": "",
          "type": "string"
        }
      ],
      "stateMutability": "view",
      "type": "function"
    },
    {
      "inputs": [
        {
          "internalType": "uint256",
          "name": "tokenId",
          "type": "uint256"
        }
      ],
      "name": "ownerOf",
      "outputs": [
        {
          "internalType": "address",
          "name": "",
          "type": "address"
        }
      ],
      "stateMutability": "view",
      "type": "function"
    },
    {
      "inputs": [
        {
          "internalType": "uint256",
          "name": "",
          "type": "uint256"
        }
      ],
      "name": "rentListings",
      "outputs": [
        {
          "internalType": "uint256",
          "name": "itemId",
          "type": "uint256"
        },
        {
          "internalType": "address",
          "name": "owner",
          "type": "address"
        },
        {
          "internalType": "uint256",
          "name": "gameRentPrice",
          "type": "uint256"
        }
      ],
      "stateMutability": "view",
      "type": "function"
    },
    {
      "inputs": [
        {
          "internalType": "address",
          "name": "from",
          "type": "address"
        },
        {
          "internalType": "address",
          "name": "to",
          "type": "address"
        },
        {
          "internalType": "uint256",
          "name": "tokenId",
          "type": "uint256"
        }
      ],
      "name": "safeTransferFrom",
      "outputs": [],
      "stateMutability": "nonpayable",
      "type": "function"
    },
    {
      "inputs": [
        {
          "internalType": "address",
          "name": "from",
          "type": "address"
        },
        {
          "internalType": "address",
          "name": "to",
          "type": "address"
        },
        {
          "internalType": "uint256",
          "name": "tokenId",
          "type": "uint256"
        },
        {
          "internalType": "bytes",
          "name": "data",
          "type": "bytes"
        }
      ],
      "name": "safeTransferFrom",
      "outputs": [],
      "stateMutability": "nonpayable",
      "type": "function"
    },
    {
      "inputs": [
        {
          "internalType": "address",
          "name": "operator",
          "type": "address"
        },
        {
          "internalType": "bool",
          "name": "approved",
          "type": "bool"
        }
      ],
      "name": "setApprovalForAll",
      "outputs": [],
      "stateMutability": "nonpayable",
      "type": "function"
    },
    {
      "inputs": [
        {
          "internalType": "bytes4",
          "name": "interfaceId",
          "type": "bytes4"
        }
      ],
      "name": "supportsInterface",
      "outputs": [
        {
          "internalType": "bool",
          "name": "",
          "type": "bool"
        }
      ],
      "stateMutability": "view",
      "type": "function"
    },
    {
      "inputs": [],
      "name": "symbol",
      "outputs": [
        {
          "internalType": "string",
          "name": "",
          "type": "string"
        }
      ],
      "stateMutability": "view",
      "type": "function"
    },
    {
      "inputs": [
        {
          "internalType": "uint256",
          "name": "tokenId",
          "type": "uint256"
        }
      ],
      "name": "tokenURI",
      "outputs": [
        {
          "internalType": "string",
          "name": "",
          "type": "string"
        }
      ],
      "stateMutability": "view",
      "type": "function"
    },
    {
      "inputs": [
        {
          "internalType": "address",
          "name": "from",
          "type": "address"
        },
        {
          "internalType": "address",
          "name": "to",
          "type": "address"
        },
        {
          "internalType": "uint256",
          "name": "tokenId",
          "type": "uint256"
        }
      ],
      "name": "transferFrom",
      "outputs": [],
      "stateMutability": "nonpayable",
      "type": "function"
    },
    {
      "inputs": [
        {
          "internalType": "address",
          "name": "",
          "type": "address"
        }
      ],
      "name": "users",
      "outputs": [
        {
          "internalType": "address",
          "name": "walletAddress",
          "type": "address"
        },
        {
          "internalType": "string",
          "name": "username",
          "type": "string"
        },
        {
          "internalType": "uint256",
          "name": "balance",
          "type": "uint256"
        }
      ],
      "stateMutability": "view",
      "type": "function"
    },
    {
      "inputs": [
        {
          "internalType": "address",
          "name": "useraddr",
          "type": "address"
        }
      ],
      "name": "getUser",
      "outputs": [
        {
          "internalType": "string",
          "name": "",
          "type": "string"
        }
      ],
      "stateMutability": "nonpayable",
      "type": "function"
    },
    {
      "inputs": [],
      "name": "getItemsByUser",
      "outputs": [
        {
          "components": [
            {
              "internalType": "uint256",
              "name": "itemId",
              "type": "uint256"
            },
            {
              "internalType": "string",
              "name": "name",
              "type": "string"
            },
            {
              "internalType": "string",
              "name": "description",
              "type": "string"
            },
            {
              "internalType": "bool",
              "name": "isAvailableForRent",
              "type": "bool"
            },
            {
              "internalType": "bool",
              "name": "isAvailableForSale",
              "type": "bool"
            },
            {
              "internalType": "uint256",
              "name": "price",
              "type": "uint256"
            },
            {
              "internalType": "address",
              "name": "owner",
              "type": "address"
            }
          ],
          "internalType": "struct GameItemsSell.Item[]",
          "name": "",
          "type": "tuple[]"
        }
      ],
      "stateMutability": "nonpayable",
      "type": "function"
    },
    {
      "inputs": [],
      "name": "getAllItems",
      "outputs": [
        {
          "components": [
            {
              "internalType": "uint256",
              "name": "itemId",
              "type": "uint256"
            },
            {
              "internalType": "string",
              "name": "name",
              "type": "string"
            },
            {
              "internalType": "string",
              "name": "description",
              "type": "string"
            },
            {
              "internalType": "bool",
              "name": "isAvailableForRent",
              "type": "bool"
            },
            {
              "internalType": "bool",
              "name": "isAvailableForSale",
              "type": "bool"
            },
            {
              "internalType": "uint256",
              "name": "price",
              "type": "uint256"
            },
            {
              "internalType": "address",
              "name": "owner",
              "type": "address"
            }
          ],
          "internalType": "struct GameItemsSell.Item[]",
          "name": "",
          "type": "tuple[]"
        }
      ],
      "stateMutability": "nonpayable",
      "type": "function"
    },
    {
      "inputs": [
        {
          "internalType": "string",
          "name": "_username",
          "type": "string"
        }
      ],
      "name": "registerUser",
      "outputs": [],
      "stateMutability": "payable",
      "type": "function"
    },
    {
      "inputs": [
        {
          "internalType": "string",
          "name": "_name",
          "type": "string"
        },
        {
          "internalType": "uint256",
          "name": "price",
          "type": "uint256"
        },
        {
          "internalType": "string",
          "name": "_description",
          "type": "string"
        }
      ],
      "name": "addItem",
      "outputs": [
        {
          "internalType": "uint256",
          "name": "",
          "type": "uint256"
        }
      ],
      "stateMutability": "nonpayable",
      "type": "function"
    },
    {
      "inputs": [
        {
          "internalType": "uint256",
          "name": "_itemId",
          "type": "uint256"
        }
      ],
      "name": "listItemForSale",
      "outputs": [
        {
          "internalType": "bool",
          "name": "",
          "type": "bool"
        }
      ],
      "stateMutability": "nonpayable",
      "type": "function"
    },
    {
      "inputs": [
        {
          "internalType": "uint256",
          "name": "_itemId",
          "type": "uint256"
        }
      ],
      "name": "isItemForSale",
      "outputs": [
        {
          "internalType": "bool",
          "name": "",
          "type": "bool"
        }
      ],
      "stateMutability": "view",
      "type": "function"
    },
    {
      "inputs": [
        {
          "internalType": "uint256",
          "name": "_itemId",
          "type": "uint256"
        }
      ],
      "name": "buyItem",
      "outputs": [],
      "stateMutability": "payable",
      "type": "function"
    },
    {
      "inputs": [
        {
          "internalType": "uint256",
          "name": "_itemId",
          "type": "uint256"
        }
      ],
      "name": "cancelListing",
      "outputs": [],
      "stateMutability": "nonpayable",
      "type": "function"
    },
    {
      "inputs": [
        {
          "internalType": "uint256",
          "name": "_itemId",
          "type": "uint256"
        }
      ],
      "name": "listItemForRent",
      "outputs": [],
      "stateMutability": "nonpayable",
      "type": "function"
    },
    {
      "inputs": [
        {
          "internalType": "uint256",
          "name": "_itemId",
          "type": "uint256"
        }
      ],
      "name": "isItemForRent",
      "outputs": [
        {
          "internalType": "bool",
          "name": "",
          "type": "bool"
        }
      ],
      "stateMutability": "view",
      "type": "function"
    },
    {
      "inputs": [
        {
          "internalType": "uint256",
          "name": "_itemId",
          "type": "uint256"
        }
      ],
      "name": "rentItem",
      "outputs": [],
      "stateMutability": "payable",
      "type": "function"
    },
    {
      "inputs": [
        {
          "internalType": "uint256",
          "name": "_itemId",
          "type": "uint256"
        }
      ],
      "name": "playGame",
      "outputs": [],
      "stateMutability": "nonpayable",
      "type": "function"
    },
    {
      "inputs": [
        {
          "internalType": "uint256",
          "name": "_itemId",
          "type": "uint256"
        }
      ],
      "name": "returnRentedItem",
      "outputs": [],
      "stateMutability": "nonpayable",
      "type": "function"
    },
    {
      "inputs": [],
      "name": "close",
      "outputs": [],
      "stateMutability": "nonpayable",
      "type": "function"
    }
  ],
  "bytecode": "0x6080604052604051620067b2380380620067b28339818101604052810190620000299190620004c7565b6040518060400160405280600981526020017f47616d654974656d7300000000000000000000000000000000000000000000008152506040518060400160405280600281526020017f47490000000000000000000000000000000000000000000000000000000000008152508160009081620000a6919062000763565b508060019081620000b8919062000763565b50505033600760006101000a81548173ffffffffffffffffffffffffffffffffffffffff021916908373ffffffffffffffffffffffffffffffffffffffff1602179055506040518060a001604052803373ffffffffffffffffffffffffffffffffffffffff168152602001828152602001348152602001600067ffffffffffffffff8111156200014d576200014c62000363565b5b6040519080825280602002602001820160405280156200017c5781602001602082028036833780820191505090505b508152602001600067ffffffffffffffff811115620001a0576200019f62000363565b5b604051908082528060200260200182016040528015620001cf5781602001602082028036833780820191505090505b50815250600860003373ffffffffffffffffffffffffffffffffffffffff1673ffffffffffffffffffffffffffffffffffffffff16815260200190815260200160002060008201518160000160006101000a81548173ffffffffffffffffffffffffffffffffffffffff021916908373ffffffffffffffffffffffffffffffffffffffff160217905550602082015181600101908162000270919062000763565b5060408201518160020155606082015181600301908051906020019062000299929190620002c3565b506080820151816004019080519060200190620002b8929190620002c3565b50905050506200084a565b82805482825590600052602060002090810192821562000302579160200282015b8281111562000301578251825591602001919060010190620002e4565b5b50905062000311919062000315565b5090565b5b808211156200033057600081600090555060010162000316565b5090565b6000604051905090565b600080fd5b600080fd5b600080fd5b600080fd5b6000601f19601f8301169050919050565b7f4e487b7100000000000000000000000000000000000000000000000000000000600052604160045260246000fd5b6200039d8262000352565b810181811067ffffffffffffffff82111715620003bf57620003be62000363565b5b80604052505050565b6000620003d462000334565b9050620003e2828262000392565b919050565b600067ffffffffffffffff82111562000405576200040462000363565b5b620004108262000352565b9050602081019050919050565b60005b838110156200043d57808201518184015260208101905062000420565b60008484015250505050565b6000620004606200045a84620003e7565b620003c8565b9050828152602081018484840111156200047f576200047e6200034d565b5b6200048c8482856200041d565b509392505050565b600082601f830112620004ac57620004ab62000348565b5b8151620004be84826020860162000449565b91505092915050565b600060208284031215620004e057620004df6200033e565b5b600082015167ffffffffffffffff81111562000501576200050062000343565b5b6200050f8482850162000494565b91505092915050565b600081519050919050565b7f4e487b7100000000000000000000000000000000000000000000000000000000600052602260045260246000fd5b600060028204905060018216806200056b57607f821691505b60208210810362000581576200058062000523565b5b50919050565b60008190508160005260206000209050919050565b60006020601f8301049050919050565b600082821b905092915050565b600060088302620005eb7fffffffffffffffffffffffffffffffffffffffffffffffffffffffffffffffff82620005ac565b620005f78683620005ac565b95508019841693508086168417925050509392505050565b6000819050919050565b6000819050919050565b6000620006446200063e62000638846200060f565b62000619565b6200060f565b9050919050565b6000819050919050565b620006608362000623565b620006786200066f826200064b565b848454620005b9565b825550505050565b600090565b6200068f62000680565b6200069c81848462000655565b505050565b5b81811015620006c457620006b860008262000685565b600181019050620006a2565b5050565b601f8211156200071357620006dd8162000587565b620006e8846200059c565b81016020851015620006f8578190505b6200071062000707856200059c565b830182620006a1565b50505b505050565b600082821c905092915050565b6000620007386000198460080262000718565b1980831691505092915050565b600062000753838362000725565b9150826002028217905092915050565b6200076e8262000518565b67ffffffffffffffff8111156200078a576200078962000363565b5b62000796825462000552565b620007a3828285620006c8565b600060209050601f831160018114620007db5760008415620007c6578287015190505b620007d2858262000745565b86555062000842565b601f198416620007eb8662000587565b60005b828110156200081557848901518255600182019150602085019450602081019050620007ee565b8683101562000835578489015162000831601f89168262000725565b8355505b6001600288020188555050505b505050505050565b615f58806200085a6000396000f3fe6080604052600436106101e35760003560e01c8063a22cb46511610102578063cdf2722311610095578063de74e57b11610064578063de74e57b1461073a578063e7846b6614610779578063e7fb74c7146107b6578063e985e9c5146107d2576101e3565b8063cdf2722314610665578063ce0958c4146106a4578063d78d3852146106e1578063d92ed60b146106fd576101e3565b8063b36d8d8b116100d1578063b36d8d8b14610593578063b88d4fde146105bc578063bfb231d2146105e5578063c87b56dd14610628576101e3565b8063a22cb465146104c5578063a3e54b3e146104ee578063a87430ba1461052b578063a8cffa221461056a576101e3565b806343d726d61161017a5780636f77926b116101495780636f77926b14610404578063704f1b941461044157806370a082311461045d57806395d89b411461049a576101e3565b806343d726d61461035c5780634ba1d6aa146103735780635873533d1461039e5780636352211e146103c7576101e3565b806323b872dd116101b657806323b872dd146102b6578063305a67a8146102df5780633923f5901461030857806342842e0e14610333576101e3565b806301ffc9a7146101e857806306fdde0314610225578063081812fc14610250578063095ea7b31461028d575b600080fd5b3480156101f457600080fd5b5061020f600480360381019061020a91906144b1565b61080f565b60405161021c91906144f9565b60405180910390f35b34801561023157600080fd5b5061023a6108f1565b60405161024791906145a4565b60405180910390f35b34801561025c57600080fd5b50610277600480360381019061027291906145fc565b610983565b604051610284919061466a565b60405180910390f35b34801561029957600080fd5b506102b460048036038101906102af91906146b1565b6109c9565b005b3480156102c257600080fd5b506102dd60048036038101906102d891906146f1565b610ae0565b005b3480156102eb57600080fd5b50610306600480360381019061030191906145fc565b610b40565b005b34801561031457600080fd5b5061031d610c7c565b60405161032a9190614920565b60405180910390f35b34801561033f57600080fd5b5061035a600480360381019061035591906146f1565b61108d565b005b34801561036857600080fd5b506103716110ad565b005b34801561037f57600080fd5b50610388611156565b6040516103959190614920565b60405180910390f35b3480156103aa57600080fd5b506103c560048036038101906103c091906145fc565b6114c7565b005b3480156103d357600080fd5b506103ee60048036038101906103e991906145fc565b61163b565b6040516103fb919061466a565b60405180910390f35b34801561041057600080fd5b5061042b60048036038101906104269190614942565b6116c1565b60405161043891906145a4565b60405180910390f35b61045b60048036038101906104569190614aa4565b61186c565b005b34801561046957600080fd5b50610484600480360381019061047f9190614942565b611af2565b6040516104919190614afc565b60405180910390f35b3480156104a657600080fd5b506104af611ba9565b6040516104bc91906145a4565b60405180910390f35b3480156104d157600080fd5b506104ec60048036038101906104e79190614b43565b611c3b565b005b3480156104fa57600080fd5b5061051560048036038101906105109190614b83565b611c51565b6040516105229190614afc565b60405180910390f35b34801561053757600080fd5b50610552600480360381019061054d9190614942565b611ee5565b60405161056193929190614c0e565b60405180910390f35b34801561057657600080fd5b50610591600480360381019061058c91906145fc565b611fb7565b005b34801561059f57600080fd5b506105ba60048036038101906105b591906145fc565b61224b565b005b3480156105c857600080fd5b506105e360048036038101906105de9190614ced565b612412565b005b3480156105f157600080fd5b5061060c600480360381019061060791906145fc565b612474565b60405161061f9796959493929190614d70565b60405180910390f35b34801561063457600080fd5b5061064f600480360381019061064a91906145fc565b612600565b60405161065c91906145a4565b60405180910390f35b34801561067157600080fd5b5061068c600480360381019061068791906145fc565b612668565b60405161069b93929190614ded565b60405180910390f35b3480156106b057600080fd5b506106cb60048036038101906106c691906145fc565b6126b2565b6040516106d891906144f9565b60405180910390f35b6106fb60048036038101906106f691906145fc565b612744565b005b34801561070957600080fd5b50610724600480360381019061071f91906145fc565b612b18565b60405161073191906144f9565b60405180910390f35b34801561074657600080fd5b50610761600480360381019061075c91906145fc565b612cd1565b60405161077093929190614ded565b60405180910390f35b34801561078557600080fd5b506107a0600480360381019061079b91906145fc565b612d1b565b6040516107ad91906144f9565b60405180910390f35b6107d060048036038101906107cb91906145fc565b612dad565b005b3480156107de57600080fd5b506107f960048036038101906107f49190614e24565b613494565b60405161080691906144f9565b60405180910390f35b60007f80ac58cd000000000000000000000000000000000000000000000000000000007bffffffffffffffffffffffffffffffffffffffffffffffffffffffff1916827bffffffffffffffffffffffffffffffffffffffffffffffffffffffff191614806108da57507f5b5e139f000000000000000000000000000000000000000000000000000000007bffffffffffffffffffffffffffffffffffffffffffffffffffffffff1916827bffffffffffffffffffffffffffffffffffffffffffffffffffffffff1916145b806108ea57506108e982613528565b5b9050919050565b60606000805461090090614e93565b80601f016020809104026020016040519081016040528092919081815260200182805461092c90614e93565b80156109795780601f1061094e57610100808354040283529160200191610979565b820191906000526020600020905b81548152906001019060200180831161095c57829003601f168201915b5050505050905090565b600061098e82613592565b6004600083815260200190815260200160002060009054906101000a900473ffffffffffffffffffffffffffffffffffffffff169050919050565b60006109d48261163b565b90508073ffffffffffffffffffffffffffffffffffffffff168373ffffffffffffffffffffffffffffffffffffffff1603610a44576040517f08c379a0000000000000000000000000000000000000000000000000000000008152600401610a3b90614f36565b60405180910390fd5b8073ffffffffffffffffffffffffffffffffffffffff16610a636135dd565b73ffffffffffffffffffffffffffffffffffffffff161480610a925750610a9181610a8c6135dd565b613494565b5b610ad1576040517f08c379a0000000000000000000000000000000000000000000000000000000008152600401610ac890614fc8565b60405180910390fd5b610adb83836135e5565b505050565b610af1610aeb6135dd565b8261369e565b610b30576040517f08c379a0000000000000000000000000000000000000000000000000000000008152600401610b279061505a565b60405180910390fd5b610b3b838383613733565b505050565b610b4981612d1b565b610b88576040517f08c379a0000000000000000000000000000000000000000000000000000000008152600401610b7f906150c6565b60405180910390fd5b3373ffffffffffffffffffffffffffffffffffffffff16600a600083815260200190815260200160002060010160009054906101000a900473ffffffffffffffffffffffffffffffffffffffff1673ffffffffffffffffffffffffffffffffffffffff1614610c2c576040517f08c379a0000000000000000000000000000000000000000000000000000000008152600401610c2390615132565b60405180910390fd5b600a60008281526020019081526020016000206000808201600090556001820160006101000a81549073ffffffffffffffffffffffffffffffffffffffff02191690556002820160009055505050565b6060600073ffffffffffffffffffffffffffffffffffffffff16600860003373ffffffffffffffffffffffffffffffffffffffff1673ffffffffffffffffffffffffffffffffffffffff16815260200190815260200160002060000160009054906101000a900473ffffffffffffffffffffffffffffffffffffffff1673ffffffffffffffffffffffffffffffffffffffff1603610d4f576040517f08c379a0000000000000000000000000000000000000000000000000000000008152600401610d469061519e565b60405180910390fd5b6000600860003373ffffffffffffffffffffffffffffffffffffffff1673ffffffffffffffffffffffffffffffffffffffff168152602001908152602001600020600301805480602002602001604051908101604052809291908181526020018280548015610ddd57602002820191906000526020600020905b815481526020019060010190808311610dc9575b50505050509050600080825167ffffffffffffffff811115610e0257610e01614979565b5b604051908082528060200260200182016040528015610e3b57816020015b610e28614384565b815260200190600190039081610e205790505b50905060005b83518110156110835760096000858381518110610e6157610e606151be565b5b602002602001015181526020019081526020016000206040518060e001604052908160008201548152602001600182018054610e9c90614e93565b80601f0160208091040260200160405190810160405280929190818152602001828054610ec890614e93565b8015610f155780601f10610eea57610100808354040283529160200191610f15565b820191906000526020600020905b815481529060010190602001808311610ef857829003601f168201915b50505050508152602001600282018054610f2e90614e93565b80601f0160208091040260200160405190810160405280929190818152602001828054610f5a90614e93565b8015610fa75780601f10610f7c57610100808354040283529160200191610fa7565b820191906000526020600020905b815481529060010190602001808311610f8a57829003601f168201915b505050505081526020016003820160009054906101000a900460ff161515151581526020016003820160019054906101000a900460ff16151515158152602001600482015481526020016005820160009054906101000a900473ffffffffffffffffffffffffffffffffffffffff1673ffffffffffffffffffffffffffffffffffffffff1673ffffffffffffffffffffffffffffffffffffffff16815250508284806110529061521c565b955081518110611065576110646151be565b5b6020026020010181905250808061107b9061521c565b915050610e41565b5080935050505090565b6110a883838360405180602001604052806000815250612412565b505050565b3373ffffffffffffffffffffffffffffffffffffffff16600760009054906101000a900473ffffffffffffffffffffffffffffffffffffffff1673ffffffffffffffffffffffffffffffffffffffff161461113d576040517f08c379a0000000000000000000000000000000000000000000000000000000008152600401611134906152b0565b60405180910390fd5b3373ffffffffffffffffffffffffffffffffffffffff16ff5b6060600073ffffffffffffffffffffffffffffffffffffffff16600860003373ffffffffffffffffffffffffffffffffffffffff1673ffffffffffffffffffffffffffffffffffffffff16815260200190815260200160002060000160009054906101000a900473ffffffffffffffffffffffffffffffffffffffff1673ffffffffffffffffffffffffffffffffffffffff1603611229576040517f08c379a00000000000000000000000000000000000000000000000000000000081526004016112209061519e565b60405180910390fd5b6000806112366006613a2c565b905060008167ffffffffffffffff81111561125457611253614979565b5b60405190808252806020026020018201604052801561128d57816020015b61127a614384565b8152602001906001900390816112725790505b5090506000600190505b8281116114bd57600960008281526020019081526020016000206040518060e0016040529081600082015481526020016001820180546112d690614e93565b80601f016020809104026020016040519081016040528092919081815260200182805461130290614e93565b801561134f5780601f106113245761010080835404028352916020019161134f565b820191906000526020600020905b81548152906001019060200180831161133257829003601f168201915b5050505050815260200160028201805461136890614e93565b80601f016020809104026020016040519081016040528092919081815260200182805461139490614e93565b80156113e15780601f106113b6576101008083540402835291602001916113e1565b820191906000526020600020905b8154815290600101906020018083116113c457829003601f168201915b505050505081526020016003820160009054906101000a900460ff161515151581526020016003820160019054906101000a900460ff16151515158152602001600482015481526020016005820160009054906101000a900473ffffffffffffffffffffffffffffffffffffffff1673ffffffffffffffffffffffffffffffffffffffff1673ffffffffffffffffffffffffffffffffffffffff168152505082858061148c9061521c565b96508151811061149f5761149e6151be565b5b602002602001018190525080806114b59061521c565b915050611297565b5080935050505090565b6114d13382613a3a565b611510576040517f08c379a00000000000000000000000000000000000000000000000000000000081526004016115079061531c565b60405180910390fd5b611519816126b2565b15611559576040517f08c379a000000000000000000000000000000000000000000000000000000000815260040161155090615388565b60405180910390fd5b6000600a6002600960008581526020019081526020016000206004015461158091906153a8565b61158a9190615419565b905060405180606001604052808381526020013373ffffffffffffffffffffffffffffffffffffffff16815260200182815250600b60008481526020019081526020016000206000820151816000015560208201518160010160006101000a81548173ffffffffffffffffffffffffffffffffffffffff021916908373ffffffffffffffffffffffffffffffffffffffff1602179055506040820151816002015590505061163782611fb7565b5050565b60008061164783613b1d565b9050600073ffffffffffffffffffffffffffffffffffffffff168173ffffffffffffffffffffffffffffffffffffffff16036116b8576040517f08c379a00000000000000000000000000000000000000000000000000000000081526004016116af90615496565b60405180910390fd5b80915050919050565b6060600073ffffffffffffffffffffffffffffffffffffffff16600860008473ffffffffffffffffffffffffffffffffffffffff1673ffffffffffffffffffffffffffffffffffffffff16815260200190815260200160002060000160009054906101000a900473ffffffffffffffffffffffffffffffffffffffff1673ffffffffffffffffffffffffffffffffffffffff1603611794576040517f08c379a000000000000000000000000000000000000000000000000000000000815260040161178b9061519e565b60405180910390fd5b6000600860008473ffffffffffffffffffffffffffffffffffffffff1673ffffffffffffffffffffffffffffffffffffffff16815260200190815260200160002060010180546117e390614e93565b80601f016020809104026020016040519081016040528092919081815260200182805461180f90614e93565b801561185c5780601f106118315761010080835404028352916020019161185c565b820191906000526020600020905b81548152906001019060200180831161183f57829003601f168201915b5050505050905080915050919050565b600073ffffffffffffffffffffffffffffffffffffffff16600860003373ffffffffffffffffffffffffffffffffffffffff1673ffffffffffffffffffffffffffffffffffffffff16815260200190815260200160002060000160009054906101000a900473ffffffffffffffffffffffffffffffffffffffff1673ffffffffffffffffffffffffffffffffffffffff161461193d576040517f08c379a000000000000000000000000000000000000000000000000000000000815260040161193490615502565b60405180910390fd5b6040518060a001604052803373ffffffffffffffffffffffffffffffffffffffff168152602001828152602001348152602001600067ffffffffffffffff81111561198b5761198a614979565b5b6040519080825280602002602001820160405280156119b95781602001602082028036833780820191505090505b508152602001600067ffffffffffffffff8111156119da576119d9614979565b5b604051908082528060200260200182016040528015611a085781602001602082028036833780820191505090505b50815250600860003373ffffffffffffffffffffffffffffffffffffffff1673ffffffffffffffffffffffffffffffffffffffff16815260200190815260200160002060008201518160000160006101000a81548173ffffffffffffffffffffffffffffffffffffffff021916908373ffffffffffffffffffffffffffffffffffffffff1602179055506020820151816001019081611aa791906156ce565b50604082015181600201556060820151816003019080519060200190611ace9291906143db565b506080820151816004019080519060200190611aeb9291906143db565b5090505050565b60008073ffffffffffffffffffffffffffffffffffffffff168273ffffffffffffffffffffffffffffffffffffffff1603611b62576040517f08c379a0000000000000000000000000000000000000000000000000000000008152600401611b5990615812565b60405180910390fd5b600360008373ffffffffffffffffffffffffffffffffffffffff1673ffffffffffffffffffffffffffffffffffffffff168152602001908152602001600020549050919050565b606060018054611bb890614e93565b80601f0160208091040260200160405190810160405280929190818152602001828054611be490614e93565b8015611c315780601f10611c0657610100808354040283529160200191611c31565b820191906000526020600020905b815481529060010190602001808311611c1457829003601f168201915b5050505050905090565b611c4d611c466135dd565b8383613b5a565b5050565b60008073ffffffffffffffffffffffffffffffffffffffff16600860003373ffffffffffffffffffffffffffffffffffffffff1673ffffffffffffffffffffffffffffffffffffffff16815260200190815260200160002060000160009054906101000a900473ffffffffffffffffffffffffffffffffffffffff1673ffffffffffffffffffffffffffffffffffffffff1603611d23576040517f08c379a0000000000000000000000000000000000000000000000000000000008152600401611d1a9061519e565b60405180910390fd5b611d2d6006613cc6565b6000611d396006613a2c565b9050611d453382613cdc565b6040518060e001604052808281526020018681526020018481526020016000151581526020016000151581526020018581526020013373ffffffffffffffffffffffffffffffffffffffff1681525060096000838152602001908152602001600020600082015181600001556020820151816001019081611dc691906156ce565b506040820151816002019081611ddc91906156ce565b5060608201518160030160006101000a81548160ff02191690831515021790555060808201518160030160016101000a81548160ff02191690831515021790555060a0820151816004015560c08201518160050160006101000a81548173ffffffffffffffffffffffffffffffffffffffff021916908373ffffffffffffffffffffffffffffffffffffffff160217905550905050600860003373ffffffffffffffffffffffffffffffffffffffff1673ffffffffffffffffffffffffffffffffffffffff168152602001908152602001600020600301819080600181540180825580915050600190039060005260206000200160009091909190915055809150509392505050565b60086020528060005260406000206000915090508060000160009054906101000a900473ffffffffffffffffffffffffffffffffffffffff1690806001018054611f2e90614e93565b80601f0160208091040260200160405190810160405280929190818152602001828054611f5a90614e93565b8015611fa75780601f10611f7c57610100808354040283529160200191611fa7565b820191906000526020600020905b815481529060010190602001808311611f8a57829003601f168201915b5050505050908060020154905083565b611fc13382613a3a565b612000576040517f08c379a0000000000000000000000000000000000000000000000000000000008152600401611ff79061531c565b60405180910390fd5b60005b600860003373ffffffffffffffffffffffffffffffffffffffff1673ffffffffffffffffffffffffffffffffffffffff168152602001908152602001600020600401805490508110156122475781600860003373ffffffffffffffffffffffffffffffffffffffff1673ffffffffffffffffffffffffffffffffffffffff16815260200190815260200160002060040182815481106120a5576120a46151be565b5b90600052602060002001540361223457600860003373ffffffffffffffffffffffffffffffffffffffff1673ffffffffffffffffffffffffffffffffffffffff1681526020019081526020016000206004016001600860003373ffffffffffffffffffffffffffffffffffffffff1673ffffffffffffffffffffffffffffffffffffffff168152602001908152602001600020600401805490506121499190615832565b8154811061215a576121596151be565b5b9060005260206000200154600860003373ffffffffffffffffffffffffffffffffffffffff1673ffffffffffffffffffffffffffffffffffffffff16815260200190815260200160002060040182815481106121b9576121b86151be565b5b9060005260206000200181905550600860003373ffffffffffffffffffffffffffffffffffffffff1673ffffffffffffffffffffffffffffffffffffffff16815260200190815260200160002060040180548061221957612218615866565b5b60019003818190600052602060002001600090559055612247565b808061223f9061521c565b915050612003565b5050565b3373ffffffffffffffffffffffffffffffffffffffff1661226b8261163b565b73ffffffffffffffffffffffffffffffffffffffff16146122c1576040517f08c379a00000000000000000000000000000000000000000000000000000000081526004016122b890615132565b60405180910390fd5b6122ca816126b2565b1561230a576040517f08c379a000000000000000000000000000000000000000000000000000000000815260040161230190615388565b60405180910390fd5b6000600a6002600960008581526020019081526020016000206004015461233191906153a8565b61233b9190615419565b905060405180606001604052808381526020013373ffffffffffffffffffffffffffffffffffffffff16815260200182815250600b60008481526020019081526020016000206000820151816000015560208201518160010160006101000a81548173ffffffffffffffffffffffffffffffffffffffff021916908373ffffffffffffffffffffffffffffffffffffffff1602179055506040820151816002015590505060016009600084815260200190815260200160002060030160006101000a81548160ff0219169083151502179055505050565b61242361241d6135dd565b8361369e565b612462576040517f08c379a00000000000000000000000000000000000000000000000000000000081526004016124599061505a565b60405180910390fd5b61246e84848484613ef9565b50505050565b600960205280600052604060002060009150905080600001549080600101805461249d90614e93565b80601f01602080910402602001604051908101604052809291908181526020018280546124c990614e93565b80156125165780601f106124eb57610100808354040283529160200191612516565b820191906000526020600020905b8154815290600101906020018083116124f957829003601f168201915b50505050509080600201805461252b90614e93565b80601f016020809104026020016040519081016040528092919081815260200182805461255790614e93565b80156125a45780601f10612579576101008083540402835291602001916125a4565b820191906000526020600020905b81548152906001019060200180831161258757829003601f168201915b5050505050908060030160009054906101000a900460ff16908060030160019054906101000a900460ff16908060040154908060050160009054906101000a900473ffffffffffffffffffffffffffffffffffffffff16905087565b606061260b82613592565b6000612615613f55565b905060008151116126355760405180602001604052806000815250612660565b8061263f84613f6c565b6040516020016126509291906158d1565b6040516020818303038152906040525b915050919050565b600b6020528060005260406000206000915090508060000154908060010160009054906101000a900473ffffffffffffffffffffffffffffffffffffffff16908060020154905083565b600080600b6000848152602001908152602001600020600001541415801561273d5750600073ffffffffffffffffffffffffffffffffffffffff16600b600084815260200190815260200160002060010160009054906101000a900473ffffffffffffffffffffffffffffffffffffffff1673ffffffffffffffffffffffffffffffffffffffff1614155b9050919050565b61274d816126b2565b61278c576040517f08c379a000000000000000000000000000000000000000000000000000000000815260040161278390615941565b60405180910390fd5b6000600b6000838152602001908152602001600020600201549050803410156127ea576040517f08c379a00000000000000000000000000000000000000000000000000000000081526004016127e1906159ad565b60405180910390fd5b6000600b600084815260200190815260200160002060010160009054906101000a900473ffffffffffffffffffffffffffffffffffffffff1690503373ffffffffffffffffffffffffffffffffffffffff168173ffffffffffffffffffffffffffffffffffffffff1603612893576040517f08c379a000000000000000000000000000000000000000000000000000000000815260040161288a90615a19565b60405180910390fd5b600073ffffffffffffffffffffffffffffffffffffffff16600860003373ffffffffffffffffffffffffffffffffffffffff1673ffffffffffffffffffffffffffffffffffffffff16815260200190815260200160002060000160009054906101000a900473ffffffffffffffffffffffffffffffffffffffff1673ffffffffffffffffffffffffffffffffffffffff1603612964576040517f08c379a000000000000000000000000000000000000000000000000000000000815260040161295b9061519e565b60405180910390fd5b600860003373ffffffffffffffffffffffffffffffffffffffff1673ffffffffffffffffffffffffffffffffffffffff16815260200190815260200160002060040183908060018154018082558091505060019003906000526020600020016000909190919091505581600860008373ffffffffffffffffffffffffffffffffffffffff1673ffffffffffffffffffffffffffffffffffffffff1681526020019081526020016000206002016000828254612a1f9190615a39565b9250508190555081600860003373ffffffffffffffffffffffffffffffffffffffff1673ffffffffffffffffffffffffffffffffffffffff1681526020019081526020016000206002016000828254612a789190615832565b925050819055508073ffffffffffffffffffffffffffffffffffffffff166108fc839081150290604051600060405180830381858888f19350505050158015612ac5573d6000803e3d6000fd5b50600b60008481526020019081526020016000206000808201600090556001820160006101000a81549073ffffffffffffffffffffffffffffffffffffffff021916905560028201600090555050505050565b6000813373ffffffffffffffffffffffffffffffffffffffff16612b3b8261163b565b73ffffffffffffffffffffffffffffffffffffffff1614612b91576040517f08c379a0000000000000000000000000000000000000000000000000000000008152600401612b8890615132565b60405180910390fd5b612b9a83612d1b565b15612bda576040517f08c379a0000000000000000000000000000000000000000000000000000000008152600401612bd190615ab9565b60405180910390fd5b60006009600085815260200190815260200160002060040154905060405180606001604052808581526020013373ffffffffffffffffffffffffffffffffffffffff16815260200182815250600a60008681526020019081526020016000206000820151816000015560208201518160010160006101000a81548173ffffffffffffffffffffffffffffffffffffffff021916908373ffffffffffffffffffffffffffffffffffffffff1602179055506040820151816002015590505060016009600086815260200190815260200160002060030160016101000a81548160ff021916908315150217905550600192505050919050565b600a6020528060005260406000206000915090508060000154908060010160009054906101000a900473ffffffffffffffffffffffffffffffffffffffff16908060020154905083565b600080600a60008481526020019081526020016000206000015414158015612da65750600073ffffffffffffffffffffffffffffffffffffffff16600a600084815260200190815260200160002060010160009054906101000a900473ffffffffffffffffffffffffffffffffffffffff1673ffffffffffffffffffffffffffffffffffffffff1614155b9050919050565b612db681612d1b565b612df5576040517f08c379a0000000000000000000000000000000000000000000000000000000008152600401612dec906150c6565b60405180910390fd5b600a600082815260200190815260200160002060020154341015612e4e576040517f08c379a0000000000000000000000000000000000000000000000000000000008152600401612e45906159ad565b60405180910390fd5b6000600a600083815260200190815260200160002060010160009054906101000a900473ffffffffffffffffffffffffffffffffffffffff1690503373ffffffffffffffffffffffffffffffffffffffff168173ffffffffffffffffffffffffffffffffffffffff1603612ef7576040517f08c379a0000000000000000000000000000000000000000000000000000000008152600401612eee90615b25565b60405180910390fd5b600073ffffffffffffffffffffffffffffffffffffffff16600860003373ffffffffffffffffffffffffffffffffffffffff1673ffffffffffffffffffffffffffffffffffffffff16815260200190815260200160002060000160009054906101000a900473ffffffffffffffffffffffffffffffffffffffff1673ffffffffffffffffffffffffffffffffffffffff1603612fc8576040517f08c379a0000000000000000000000000000000000000000000000000000000008152600401612fbf9061519e565b60405180910390fd5b612fd3813384613733565b600860003373ffffffffffffffffffffffffffffffffffffffff1673ffffffffffffffffffffffffffffffffffffffff16815260200190815260200160002060030182908060018154018082558091505060019003906000526020600020016000909190919091505560005b600860008373ffffffffffffffffffffffffffffffffffffffff1673ffffffffffffffffffffffffffffffffffffffff168152602001908152602001600020600301805490508110156132835782600860008473ffffffffffffffffffffffffffffffffffffffff1673ffffffffffffffffffffffffffffffffffffffff16815260200190815260200160002060030182815481106130e1576130e06151be565b5b90600052602060002001540361327057600860008373ffffffffffffffffffffffffffffffffffffffff1673ffffffffffffffffffffffffffffffffffffffff1681526020019081526020016000206003016001600860008573ffffffffffffffffffffffffffffffffffffffff1673ffffffffffffffffffffffffffffffffffffffff168152602001908152602001600020600301805490506131859190615832565b81548110613196576131956151be565b5b9060005260206000200154600860008473ffffffffffffffffffffffffffffffffffffffff1673ffffffffffffffffffffffffffffffffffffffff16815260200190815260200160002060030182815481106131f5576131f46151be565b5b9060005260206000200181905550600860008373ffffffffffffffffffffffffffffffffffffffff1673ffffffffffffffffffffffffffffffffffffffff16815260200190815260200160002060030180548061325557613254615866565b5b60019003818190600052602060002001600090559055613283565b808061327b9061521c565b91505061303f565b50336009600084815260200190815260200160002060050160006101000a81548173ffffffffffffffffffffffffffffffffffffffff021916908373ffffffffffffffffffffffffffffffffffffffff16021790555060006009600084815260200190815260200160002060030160016101000a81548160ff021916908315150217905550600a600083815260200190815260200160002060020154600860008373ffffffffffffffffffffffffffffffffffffffff1673ffffffffffffffffffffffffffffffffffffffff16815260200190815260200160002060020160008282546133709190615a39565b92505081905550600a600083815260200190815260200160002060020154600860003373ffffffffffffffffffffffffffffffffffffffff1673ffffffffffffffffffffffffffffffffffffffff16815260200190815260200160002060020160008282546133df9190615832565b925050819055508073ffffffffffffffffffffffffffffffffffffffff166108fc600a6000858152602001908152602001600020600201549081150290604051600060405180830381858888f19350505050158015613442573d6000803e3d6000fd5b50600a60008381526020019081526020016000206000808201600090556001820160006101000a81549073ffffffffffffffffffffffffffffffffffffffff0219169055600282016000905550505050565b6000600560008473ffffffffffffffffffffffffffffffffffffffff1673ffffffffffffffffffffffffffffffffffffffff16815260200190815260200160002060008373ffffffffffffffffffffffffffffffffffffffff1673ffffffffffffffffffffffffffffffffffffffff16815260200190815260200160002060009054906101000a900460ff16905092915050565b60007f01ffc9a7000000000000000000000000000000000000000000000000000000007bffffffffffffffffffffffffffffffffffffffffffffffffffffffff1916827bffffffffffffffffffffffffffffffffffffffffffffffffffffffff1916149050919050565b61359b8161403a565b6135da576040517f08c379a00000000000000000000000000000000000000000000000000000000081526004016135d190615496565b60405180910390fd5b50565b600033905090565b816004600083815260200190815260200160002060006101000a81548173ffffffffffffffffffffffffffffffffffffffff021916908373ffffffffffffffffffffffffffffffffffffffff160217905550808273ffffffffffffffffffffffffffffffffffffffff166136588361163b565b73ffffffffffffffffffffffffffffffffffffffff167f8c5be1e5ebec7d5bd14f71427d1e84f3dd0314c0f7b2291e5b200ac8c7c3b92560405160405180910390a45050565b6000806136aa8361163b565b90508073ffffffffffffffffffffffffffffffffffffffff168473ffffffffffffffffffffffffffffffffffffffff1614806136ec57506136eb8185613494565b5b8061372a57508373ffffffffffffffffffffffffffffffffffffffff1661371284610983565b73ffffffffffffffffffffffffffffffffffffffff16145b91505092915050565b8273ffffffffffffffffffffffffffffffffffffffff166137538261163b565b73ffffffffffffffffffffffffffffffffffffffff16146137a9576040517f08c379a00000000000000000000000000000000000000000000000000000000081526004016137a090615bb7565b60405180910390fd5b600073ffffffffffffffffffffffffffffffffffffffff168273ffffffffffffffffffffffffffffffffffffffff1603613818576040517f08c379a000000000000000000000000000000000000000000000000000000000815260040161380f90615c49565b60405180910390fd5b613825838383600161407b565b8273ffffffffffffffffffffffffffffffffffffffff166138458261163b565b73ffffffffffffffffffffffffffffffffffffffff161461389b576040517f08c379a000000000000000000000000000000000000000000000000000000000815260040161389290615bb7565b60405180910390fd5b6004600082815260200190815260200160002060006101000a81549073ffffffffffffffffffffffffffffffffffffffff02191690556001600360008573ffffffffffffffffffffffffffffffffffffffff1673ffffffffffffffffffffffffffffffffffffffff168152602001908152602001600020600082825403925050819055506001600360008473ffffffffffffffffffffffffffffffffffffffff1673ffffffffffffffffffffffffffffffffffffffff16815260200190815260200160002060008282540192505081905550816002600083815260200190815260200160002060006101000a81548173ffffffffffffffffffffffffffffffffffffffff021916908373ffffffffffffffffffffffffffffffffffffffff160217905550808273ffffffffffffffffffffffffffffffffffffffff168473ffffffffffffffffffffffffffffffffffffffff167fddf252ad1be2c89b69c2b068fc378daa952ba7f163c4a11628f55a4df523b3ef60405160405180910390a4613a278383836001614081565b505050565b600081600001549050919050565b600080600090505b600860008573ffffffffffffffffffffffffffffffffffffffff1673ffffffffffffffffffffffffffffffffffffffff16815260200190815260200160002060040180549050811015613b115782600860008673ffffffffffffffffffffffffffffffffffffffff1673ffffffffffffffffffffffffffffffffffffffff1681526020019081526020016000206004018281548110613ae457613ae36151be565b5b906000526020600020015403613afe576001915050613b17565b8080613b099061521c565b915050613a42565b50600090505b92915050565b60006002600083815260200190815260200160002060009054906101000a900473ffffffffffffffffffffffffffffffffffffffff169050919050565b8173ffffffffffffffffffffffffffffffffffffffff168373ffffffffffffffffffffffffffffffffffffffff1603613bc8576040517f08c379a0000000000000000000000000000000000000000000000000000000008152600401613bbf90615cb5565b60405180910390fd5b80600560008573ffffffffffffffffffffffffffffffffffffffff1673ffffffffffffffffffffffffffffffffffffffff16815260200190815260200160002060008473ffffffffffffffffffffffffffffffffffffffff1673ffffffffffffffffffffffffffffffffffffffff16815260200190815260200160002060006101000a81548160ff0219169083151502179055508173ffffffffffffffffffffffffffffffffffffffff168373ffffffffffffffffffffffffffffffffffffffff167f17307eab39ab6107e8899845ad3d59bd9653f200f220920489ca2b5937696c3183604051613cb991906144f9565b60405180910390a3505050565b6001816000016000828254019250508190555050565b600073ffffffffffffffffffffffffffffffffffffffff168273ffffffffffffffffffffffffffffffffffffffff1603613d4b576040517f08c379a0000000000000000000000000000000000000000000000000000000008152600401613d4290615d21565b60405180910390fd5b613d548161403a565b15613d94576040517f08c379a0000000000000000000000000000000000000000000000000000000008152600401613d8b90615d8d565b60405180910390fd5b613da260008383600161407b565b613dab8161403a565b15613deb576040517f08c379a0000000000000000000000000000000000000000000000000000000008152600401613de290615d8d565b60405180910390fd5b6001600360008473ffffffffffffffffffffffffffffffffffffffff1673ffffffffffffffffffffffffffffffffffffffff16815260200190815260200160002060008282540192505081905550816002600083815260200190815260200160002060006101000a81548173ffffffffffffffffffffffffffffffffffffffff021916908373ffffffffffffffffffffffffffffffffffffffff160217905550808273ffffffffffffffffffffffffffffffffffffffff16600073ffffffffffffffffffffffffffffffffffffffff167fddf252ad1be2c89b69c2b068fc378daa952ba7f163c4a11628f55a4df523b3ef60405160405180910390a4613ef5600083836001614081565b5050565b613f04848484613733565b613f1084848484614087565b613f4f576040517f08c379a0000000000000000000000000000000000000000000000000000000008152600401613f4690615e1f565b60405180910390fd5b50505050565b606060405180602001604052806000815250905090565b606060006001613f7b8461420e565b01905060008167ffffffffffffffff811115613f9a57613f99614979565b5b6040519080825280601f01601f191660200182016040528015613fcc5781602001600182028036833780820191505090505b509050600082602001820190505b60011561402f578080600190039150507f3031323334353637383961626364656600000000000000000000000000000000600a86061a8153600a8581614023576140226153ea565b5b04945060008503613fda575b819350505050919050565b60008073ffffffffffffffffffffffffffffffffffffffff1661405c83613b1d565b73ffffffffffffffffffffffffffffffffffffffff1614159050919050565b50505050565b50505050565b60006140a88473ffffffffffffffffffffffffffffffffffffffff16614361565b15614201578373ffffffffffffffffffffffffffffffffffffffff1663150b7a026140d16135dd565b8786866040518563ffffffff1660e01b81526004016140f39493929190615e94565b6020604051808303816000875af192505050801561412f57506040513d601f19601f8201168201806040525081019061412c9190615ef5565b60015b6141b1573d806000811461415f576040519150601f19603f3d011682016040523d82523d6000602084013e614164565b606091505b5060008151036141a9576040517f08c379a00000000000000000000000000000000000000000000000000000000081526004016141a090615e1f565b60405180910390fd5b805181602001fd5b63150b7a0260e01b7bffffffffffffffffffffffffffffffffffffffffffffffffffffffff1916817bffffffffffffffffffffffffffffffffffffffffffffffffffffffff191614915050614206565b600190505b949350505050565b600080600090507a184f03e93ff9f4daa797ed6e38ed64bf6a1f010000000000000000831061426c577a184f03e93ff9f4daa797ed6e38ed64bf6a1f0100000000000000008381614262576142616153ea565b5b0492506040810190505b6d04ee2d6d415b85acef810000000083106142a9576d04ee2d6d415b85acef8100000000838161429f5761429e6153ea565b5b0492506020810190505b662386f26fc1000083106142d857662386f26fc1000083816142ce576142cd6153ea565b5b0492506010810190505b6305f5e1008310614301576305f5e10083816142f7576142f66153ea565b5b0492506008810190505b612710831061432657612710838161431c5761431b6153ea565b5b0492506004810190505b60648310614349576064838161433f5761433e6153ea565b5b0492506002810190505b600a8310614358576001810190505b80915050919050565b6000808273ffffffffffffffffffffffffffffffffffffffff163b119050919050565b6040518060e0016040528060008152602001606081526020016060815260200160001515815260200160001515815260200160008152602001600073ffffffffffffffffffffffffffffffffffffffff1681525090565b828054828255906000526020600020908101928215614417579160200282015b828111156144165782518255916020019190600101906143fb565b5b5090506144249190614428565b5090565b5b80821115614441576000816000905550600101614429565b5090565b6000604051905090565b600080fd5b600080fd5b60007fffffffff0000000000000000000000000000000000000000000000000000000082169050919050565b61448e81614459565b811461449957600080fd5b50565b6000813590506144ab81614485565b92915050565b6000602082840312156144c7576144c661444f565b5b60006144d58482850161449c565b91505092915050565b60008115159050919050565b6144f3816144de565b82525050565b600060208201905061450e60008301846144ea565b92915050565b600081519050919050565b600082825260208201905092915050565b60005b8381101561454e578082015181840152602081019050614533565b60008484015250505050565b6000601f19601f8301169050919050565b600061457682614514565b614580818561451f565b9350614590818560208601614530565b6145998161455a565b840191505092915050565b600060208201905081810360008301526145be818461456b565b905092915050565b6000819050919050565b6145d9816145c6565b81146145e457600080fd5b50565b6000813590506145f6816145d0565b92915050565b6000602082840312156146125761461161444f565b5b6000614620848285016145e7565b91505092915050565b600073ffffffffffffffffffffffffffffffffffffffff82169050919050565b600061465482614629565b9050919050565b61466481614649565b82525050565b600060208201905061467f600083018461465b565b92915050565b61468e81614649565b811461469957600080fd5b50565b6000813590506146ab81614685565b92915050565b600080604083850312156146c8576146c761444f565b5b60006146d68582860161469c565b92505060206146e7858286016145e7565b9150509250929050565b60008060006060848603121561470a5761470961444f565b5b60006147188682870161469c565b93505060206147298682870161469c565b925050604061473a868287016145e7565b9150509250925092565b600081519050919050565b600082825260208201905092915050565b6000819050602082019050919050565b614779816145c6565b82525050565b600082825260208201905092915050565b600061479b82614514565b6147a5818561477f565b93506147b5818560208601614530565b6147be8161455a565b840191505092915050565b6147d2816144de565b82525050565b6147e181614649565b82525050565b600060e0830160008301516147ff6000860182614770565b50602083015184820360208601526148178282614790565b915050604083015184820360408601526148318282614790565b915050606083015161484660608601826147c9565b50608083015161485960808601826147c9565b5060a083015161486c60a0860182614770565b5060c083015161487f60c08601826147d8565b508091505092915050565b600061489683836147e7565b905092915050565b6000602082019050919050565b60006148b682614744565b6148c0818561474f565b9350836020820285016148d285614760565b8060005b8581101561490e57848403895281516148ef858261488a565b94506148fa8361489e565b925060208a019950506001810190506148d6565b50829750879550505050505092915050565b6000602082019050818103600083015261493a81846148ab565b905092915050565b6000602082840312156149585761495761444f565b5b60006149668482850161469c565b91505092915050565b600080fd5b600080fd5b7f4e487b7100000000000000000000000000000000000000000000000000000000600052604160045260246000fd5b6149b18261455a565b810181811067ffffffffffffffff821117156149d0576149cf614979565b5b80604052505050565b60006149e3614445565b90506149ef82826149a8565b919050565b600067ffffffffffffffff821115614a0f57614a0e614979565b5b614a188261455a565b9050602081019050919050565b82818337600083830152505050565b6000614a47614a42846149f4565b6149d9565b905082815260208101848484011115614a6357614a62614974565b5b614a6e848285614a25565b509392505050565b600082601f830112614a8b57614a8a61496f565b5b8135614a9b848260208601614a34565b91505092915050565b600060208284031215614aba57614ab961444f565b5b600082013567ffffffffffffffff811115614ad857614ad7614454565b5b614ae484828501614a76565b91505092915050565b614af6816145c6565b82525050565b6000602082019050614b116000830184614aed565b92915050565b614b20816144de565b8114614b2b57600080fd5b50565b600081359050614b3d81614b17565b92915050565b60008060408385031215614b5a57614b5961444f565b5b6000614b688582860161469c565b9250506020614b7985828601614b2e565b9150509250929050565b600080600060608486031215614b9c57614b9b61444f565b5b600084013567ffffffffffffffff811115614bba57614bb9614454565b5b614bc686828701614a76565b9350506020614bd7868287016145e7565b925050604084013567ffffffffffffffff811115614bf857614bf7614454565b5b614c0486828701614a76565b9150509250925092565b6000606082019050614c23600083018661465b565b8181036020830152614c35818561456b565b9050614c446040830184614aed565b949350505050565b600067ffffffffffffffff821115614c6757614c66614979565b5b614c708261455a565b9050602081019050919050565b6000614c90614c8b84614c4c565b6149d9565b905082815260208101848484011115614cac57614cab614974565b5b614cb7848285614a25565b509392505050565b600082601f830112614cd457614cd361496f565b5b8135614ce4848260208601614c7d565b91505092915050565b60008060008060808587031215614d0757614d0661444f565b5b6000614d158782880161469c565b9450506020614d268782880161469c565b9350506040614d37878288016145e7565b925050606085013567ffffffffffffffff811115614d5857614d57614454565b5b614d6487828801614cbf565b91505092959194509250565b600060e082019050614d85600083018a614aed565b8181036020830152614d97818961456b565b90508181036040830152614dab818861456b565b9050614dba60608301876144ea565b614dc760808301866144ea565b614dd460a0830185614aed565b614de160c083018461465b565b98975050505050505050565b6000606082019050614e026000830186614aed565b614e0f602083018561465b565b614e1c6040830184614aed565b949350505050565b60008060408385031215614e3b57614e3a61444f565b5b6000614e498582860161469c565b9250506020614e5a8582860161469c565b9150509250929050565b7f4e487b7100000000000000000000000000000000000000000000000000000000600052602260045260246000fd5b60006002820490506001821680614eab57607f821691505b602082108103614ebe57614ebd614e64565b5b50919050565b7f4552433732313a20617070726f76616c20746f2063757272656e74206f776e6560008201527f7200000000000000000000000000000000000000000000000000000000000000602082015250565b6000614f2060218361451f565b9150614f2b82614ec4565b604082019050919050565b60006020820190508181036000830152614f4f81614f13565b9050919050565b7f4552433732313a20617070726f76652063616c6c6572206973206e6f7420746f60008201527f6b656e206f776e6572206f7220617070726f76656420666f7220616c6c000000602082015250565b6000614fb2603d8361451f565b9150614fbd82614f56565b604082019050919050565b60006020820190508181036000830152614fe181614fa5565b9050919050565b7f4552433732313a2063616c6c6572206973206e6f7420746f6b656e206f776e6560008201527f72206f7220617070726f76656400000000000000000000000000000000000000602082015250565b6000615044602d8361451f565b915061504f82614fe8565b604082019050919050565b6000602082019050818103600083015261507381615037565b9050919050565b7f4974656d206e6f74206c697374656420666f722073616c652e00000000000000600082015250565b60006150b060198361451f565b91506150bb8261507a565b602082019050919050565b600060208201905081810360008301526150df816150a3565b9050919050565b7f4e6f7420746865206f776e6572206f6620746865206974656d2e000000000000600082015250565b600061511c601a8361451f565b9150615127826150e6565b602082019050919050565b6000602082019050818103600083015261514b8161510f565b9050919050565b7f55736572206e6f7420726567697374657265642e000000000000000000000000600082015250565b600061518860148361451f565b915061519382615152565b602082019050919050565b600060208201905081810360008301526151b78161517b565b9050919050565b7f4e487b7100000000000000000000000000000000000000000000000000000000600052603260045260246000fd5b7f4e487b7100000000000000000000000000000000000000000000000000000000600052601160045260246000fd5b6000615227826145c6565b91507fffffffffffffffffffffffffffffffffffffffffffffffffffffffffffffffff8203615259576152586151ed565b5b600182019050919050565b7f4f6e6c792041646d696e206f7065726174696f6e730000000000000000000000600082015250565b600061529a60158361451f565b91506152a582615264565b602082019050919050565b600060208201905081810360008301526152c98161528d565b9050919050565b7f4e6f74207468652072656e746572206f6620746865206974656d2e0000000000600082015250565b6000615306601b8361451f565b9150615311826152d0565b602082019050919050565b60006020820190508181036000830152615335816152f9565b9050919050565b7f4974656d20616c7265616479206c697374656420666f722072656e742e000000600082015250565b6000615372601d8361451f565b915061537d8261533c565b602082019050919050565b600060208201905081810360008301526153a181615365565b9050919050565b60006153b3826145c6565b91506153be836145c6565b92508282026153cc816145c6565b915082820484148315176153e3576153e26151ed565b5b5092915050565b7f4e487b7100000000000000000000000000000000000000000000000000000000600052601260045260246000fd5b6000615424826145c6565b915061542f836145c6565b92508261543f5761543e6153ea565b5b828204905092915050565b7f4552433732313a20696e76616c696420746f6b656e2049440000000000000000600082015250565b600061548060188361451f565b915061548b8261544a565b602082019050919050565b600060208201905081810360008301526154af81615473565b9050919050565b7f5573657220616c726561647920726567697374657265642e0000000000000000600082015250565b60006154ec60188361451f565b91506154f7826154b6565b602082019050919050565b6000602082019050818103600083015261551b816154df565b9050919050565b60008190508160005260206000209050919050565b60006020601f8301049050919050565b600082821b905092915050565b6000600883026155847fffffffffffffffffffffffffffffffffffffffffffffffffffffffffffffffff82615547565b61558e8683615547565b95508019841693508086168417925050509392505050565b6000819050919050565b60006155cb6155c66155c1846145c6565b6155a6565b6145c6565b9050919050565b6000819050919050565b6155e5836155b0565b6155f96155f1826155d2565b848454615554565b825550505050565b600090565b61560e615601565b6156198184846155dc565b505050565b5b8181101561563d57615632600082615606565b60018101905061561f565b5050565b601f8211156156825761565381615522565b61565c84615537565b8101602085101561566b578190505b61567f61567785615537565b83018261561e565b50505b505050565b600082821c905092915050565b60006156a560001984600802615687565b1980831691505092915050565b60006156be8383615694565b9150826002028217905092915050565b6156d782614514565b67ffffffffffffffff8111156156f0576156ef614979565b5b6156fa8254614e93565b615705828285615641565b600060209050601f8311600181146157385760008415615726578287015190505b61573085826156b2565b865550615798565b601f19841661574686615522565b60005b8281101561576e57848901518255600182019150602085019450602081019050615749565b8683101561578b5784890151615787601f891682615694565b8355505b6001600288020188555050505b505050505050565b7f4552433732313a2061646472657373207a65726f206973206e6f74206120766160008201527f6c6964206f776e65720000000000000000000000000000000000000000000000602082015250565b60006157fc60298361451f565b9150615807826157a0565b604082019050919050565b6000602082019050818103600083015261582b816157ef565b9050919050565b600061583d826145c6565b9150615848836145c6565b92508282039050818111156158605761585f6151ed565b5b92915050565b7f4e487b7100000000000000000000000000000000000000000000000000000000600052603160045260246000fd5b600081905092915050565b60006158ab82614514565b6158b58185615895565b93506158c5818560208601614530565b80840191505092915050565b60006158dd82856158a0565b91506158e982846158a0565b91508190509392505050565b7f4974656d206e6f74206c697374656420666f722072656e742e00000000000000600082015250565b600061592b60198361451f565b9150615936826158f5565b602082019050919050565b6000602082019050818103600083015261595a8161591e565b9050919050565b7f496e73756666696369656e742066756e64732e00000000000000000000000000600082015250565b600061599760138361451f565b91506159a282615961565b602082019050919050565b600060208201905081810360008301526159c68161598a565b9050919050565b7f43616e6e6f742072656e74206f776e206974656d2e0000000000000000000000600082015250565b6000615a0360158361451f565b9150615a0e826159cd565b602082019050919050565b60006020820190508181036000830152615a32816159f6565b9050919050565b6000615a44826145c6565b9150615a4f836145c6565b9250828201905080821115615a6757615a666151ed565b5b92915050565b7f4974656d20616c7265616479206c697374656420666f722073616c652e000000600082015250565b6000615aa3601d8361451f565b9150615aae82615a6d565b602082019050919050565b60006020820190508181036000830152615ad281615a96565b9050919050565b7f43616e6e6f7420627579206f776e206974656d2e000000000000000000000000600082015250565b6000615b0f60148361451f565b9150615b1a82615ad9565b602082019050919050565b60006020820190508181036000830152615b3e81615b02565b9050919050565b7f4552433732313a207472616e736665722066726f6d20696e636f72726563742060008201527f6f776e6572000000000000000000000000000000000000000000000000000000602082015250565b6000615ba160258361451f565b9150615bac82615b45565b604082019050919050565b60006020820190508181036000830152615bd081615b94565b9050919050565b7f4552433732313a207472616e7366657220746f20746865207a65726f2061646460008201527f7265737300000000000000000000000000000000000000000000000000000000602082015250565b6000615c3360248361451f565b9150615c3e82615bd7565b604082019050919050565b60006020820190508181036000830152615c6281615c26565b9050919050565b7f4552433732313a20617070726f766520746f2063616c6c657200000000000000600082015250565b6000615c9f60198361451f565b9150615caa82615c69565b602082019050919050565b60006020820190508181036000830152615cce81615c92565b9050919050565b7f4552433732313a206d696e7420746f20746865207a65726f2061646472657373600082015250565b6000615d0b60208361451f565b9150615d1682615cd5565b602082019050919050565b60006020820190508181036000830152615d3a81615cfe565b9050919050565b7f4552433732313a20746f6b656e20616c7265616479206d696e74656400000000600082015250565b6000615d77601c8361451f565b9150615d8282615d41565b602082019050919050565b60006020820190508181036000830152615da681615d6a565b9050919050565b7f4552433732313a207472616e7366657220746f206e6f6e20455243373231526560008201527f63656976657220696d706c656d656e7465720000000000000000000000000000602082015250565b6000615e0960328361451f565b9150615e1482615dad565b604082019050919050565b60006020820190508181036000830152615e3881615dfc565b9050919050565b600081519050919050565b600082825260208201905092915050565b6000615e6682615e3f565b615e708185615e4a565b9350615e80818560208601614530565b615e898161455a565b840191505092915050565b6000608082019050615ea9600083018761465b565b615eb6602083018661465b565b615ec36040830185614aed565b8181036060830152615ed58184615e5b565b905095945050505050565b600081519050615eef81614485565b92915050565b600060208284031215615f0b57615f0a61444f565b5b6000615f1984828501615ee0565b9150509291505056fea264697066735822122062539629ddb29ab2c8e81546e415cc739c21da0bb2d71b19a148015b83d540b764736f6c63430008130033",
  "immutableReferences": {},
  "source": "// SPDX-License-Identifier: MIT\npragma solidity ^0.8.0;\n\nimport \"@openzeppelin/contracts/token/ERC721/ERC721.sol\";\nimport \"@openzeppelin/contracts/utils/Counters.sol\";\n\n\ncontract GameItemsSell is ERC721 {\n    using Counters for Counters.Counter;\n    Counters.Counter private _tokenIds;\n\n    address admin;\n\n    struct User {\n        address walletAddress;\n        string username;\n        uint256 balance;\n        uint256[] ownedItemIds;\n        uint256[] rentedItemIds;\n    }\n\n    struct Item {\n        uint256 itemId;\n        string name;\n        string description;\n        bool isAvailableForRent;\n        bool isAvailableForSale;\n        uint256 price;\n        address owner;\n    }\n\n    struct SaleListing {\n        uint256 itemId;\n        address seller;\n        uint256 price;\n    }\n\n    struct RentListing {\n        uint256 itemId;\n        address owner;\n        uint256 gameRentPrice;\n    }\n\n    mapping(address => User) public users;\n    mapping(uint256 => Item) public items;\n    mapping(uint256 => SaleListing) public listings;\n    mapping(uint256 => RentListing) public rentListings;\n\n\n\n    constructor(string memory _username) ERC721(\"GameItems\", \"GI\") payable {\n        admin = msg.sender;\n        users[msg.sender] = User(msg.sender, _username, msg.value, new uint256[](0), new uint256[](0));\n    }\n\n    modifier onlyRegistered() {\n        require(users[msg.sender].walletAddress != address(0),\"User not registered.\");\n        _;\n    }\n\n    modifier onlyOwner(uint256 _itemId) {\n        require(ownerOf(_itemId) == msg.sender, \"Not the owner of the item.\");\n        _;\n    }\n\n    modifier onlyAdmin() {\n        require(admin==msg.sender,\"Only Admin operations\");\n        _;\n    }\n\n    function getUser(address useraddr) public returns  (string memory){\n        require(users[useraddr].walletAddress != address(0), \"User not registered.\");\n        string memory userA = users[useraddr].username;\n        return userA;\n    }\n\n    function getItemsByUser() public onlyRegistered returns (Item[] memory) {\n        uint256[] memory itemslist = users[msg.sender].ownedItemIds;\n        uint256 index=0;\n        Item[] memory result = new Item[](itemslist.length);\n        for (uint i=0; i<itemslist.length; i++) {\n            result[index++] = items[itemslist[i]];\n        }\n        return result;\n    }\n\n    function getAllItems() public onlyRegistered returns (Item[] memory){\n        uint256 index=0;\n        uint itemC = _tokenIds.current();\n\n        Item[] memory result = new Item[](itemC);\n        for (uint i=1; i<=itemC; i++) {\n            result[index++] = items[i];\n        }\n        return result;\n    }\n    // function getCanBuyItems() public view onlyRegistered returns (Item[] memory) {\n    //     // uint256[] memory itemslist = users[msg.sender].ownedItemIds;\n    //     uint256 itemC=_tokenIds.current();\n    //     uint cnt=0;\n    //     for(uint i=1;i<=itemC;i++){\n    //         if(items[i].isAvailableForSale == false && items[i].owner != msg.sender){\n    //             cnt+=1;\n    //         }\n    //     }\n\n    //     Item[] memory result = new Item[](cnt);\n    //     uint index=0;\n    //     for(uint i=1;i<=itemC;i++){\n    //         if(items[i].isAvailableForSale == false && items[i].owner != msg.sender){\n    //             result[index] = items[i];\n    //             index++;\n    //         }\n    //     }\n    //     return  result;\n    // }\n    function registerUser(string memory _username) public payable {\n        require(users[msg.sender].walletAddress == address(0), \"User already registered.\");\n        users[msg.sender] = User(msg.sender, _username, msg.value, new uint256[](0), new uint256[](0));\n    }\n\n    function addItem(string memory _name,uint256 price, string memory _description) public onlyRegistered returns (uint256) {\n        _tokenIds.increment();\n        uint256 newItemId = _tokenIds.current();\n        _mint(msg.sender, newItemId);\n        items[newItemId] = Item(newItemId,_name,_description,false,false,price,msg.sender);\n        users[msg.sender].ownedItemIds.push(newItemId);\n        return newItemId;\n    }\n\n\n    // Sale related functions\n\n    function listItemForSale(uint256 _itemId) public onlyOwner(_itemId) returns (bool){\n        // require(ownerOf(_itemId) == msg.sender, \"Not the owner of the item.\");\n        require(!isItemForSale(_itemId), \"Item already listed for sale.\");\n        uint256 _price = items[_itemId].price;\n        listings[_itemId] = SaleListing(_itemId, msg.sender, _price);\n        items[_itemId].isAvailableForSale = true;\n        return true;\n    }\n\n    function isItemForSale(uint256 _itemId) public view returns (bool) {\n        return listings[_itemId].itemId != 0 && listings[_itemId].seller != address(0);\n    }\n\n    function buyItem(uint256 _itemId) public payable {\n        require(isItemForSale(_itemId), \"Item not listed for sale.\");\n        require(msg.value >= listings[_itemId].price, \"Insufficient funds.\");\n        address seller = listings[_itemId].seller;\n        require(seller != msg.sender, \"Cannot buy own item.\");\n        require(users[msg.sender].walletAddress != address(0),\"User not registered.\");\n\n        _transfer(seller, msg.sender, _itemId);\n        users[msg.sender].ownedItemIds.push(_itemId);\n\n        for (uint i = 0; i < users[seller].ownedItemIds.length; i++) {\n            if (users[seller].ownedItemIds[i] == _itemId) {\n                users[seller].ownedItemIds[i] = users[seller].ownedItemIds[users[seller].ownedItemIds.length - 1];\n                users[seller].ownedItemIds.pop();\n                break;\n            }\n        }\n\n        items[_itemId].owner = msg.sender;\n        items[_itemId].isAvailableForSale = false;\n        users[seller].balance += listings[_itemId].price;\n        users[msg.sender].balance -= listings[_itemId].price;\n        payable(seller).transfer(listings[_itemId].price);\n        delete listings[_itemId];\n    }\n\n    function cancelListing(uint256 _itemId) public {\n        require(isItemForSale(_itemId), \"Item not listed for sale.\");\n        require(listings[_itemId].seller == msg.sender, \"Not the owner of the item.\");\n        delete listings[_itemId];\n    }\n\n    // function changeSaleState(uint256 _itemId) public {\n    //     require(ownerOf(_itemId) == msg.sender, \"Not the owner of the item.\");\n    //     require(isItemForSale(_itemId), \"Item not listed for sale.\");\n\n    //     rentListings[_itemId] = RentListing(_itemId,msg.sender,items[_itemId].price*2/10);\n        \n    //     delete listings[_itemId];\n    // } \n    // rent related functions\n\n    function listItemForRent(uint256 _itemId) public {\n        require(ownerOf(_itemId) == msg.sender, \"Not the owner of the item.\");\n        require(!isItemForRent(_itemId), \"Item already listed for rent.\");\n        uint256 _gameRentPrice = items[_itemId].price * 2 / 10;\n        rentListings[_itemId] = RentListing(_itemId, msg.sender, _gameRentPrice);\n        items[_itemId].isAvailableForRent = true;\n    }\n\n    function isItemForRent(uint256 _itemId) public view returns (bool) {\n        return rentListings[_itemId].itemId != 0 && rentListings[_itemId].owner != address(0);\n    }\n\n\n    function rentItem(uint256 _itemId) public payable {\n        require(isItemForRent(_itemId), \"Item not listed for rent.\");\n        uint256 totalRentPrice = rentListings[_itemId].gameRentPrice;\n        require(msg.value >= totalRentPrice, \"Insufficient funds.\");\n\n        address owner = rentListings[_itemId].owner;\n        require(owner != msg.sender, \"Cannot rent own item.\");\n        require(users[msg.sender].walletAddress != address(0),\"User not registered.\");\n        // users[msg.sender].rentedItemIds.push(_itemId)\n        // items[_itemId].renter = msg.sender;\n        users[msg.sender].rentedItemIds.push(_itemId);\n        users[owner].balance += totalRentPrice;\n        users[msg.sender].balance -= totalRentPrice;\n        payable(owner).transfer(totalRentPrice);\n        delete rentListings[_itemId];\n    }\n\n    function isUserRentingItem(address user, uint256 _itemId) internal view returns (bool) {\n        for (uint i = 0; i < users[user].rentedItemIds.length; i++) {\n            if (users[user].rentedItemIds[i] == _itemId) {\n                return true;\n            }\n        }\n        return false;\n    }\n\n\n    function playGame(uint256 _itemId) public {\n        require(isUserRentingItem(msg.sender,_itemId),\"Not the renter of the item.\");\n        // require(items[_itemId].renter != msg.sender, \"Not the renter of the item.\");\n        // require(ownerOf(_itemId) == msg.sender, \"Not the owner of the item.\");\n        require(!isItemForRent(_itemId), \"Item already listed for rent.\");\n\n        uint256 _gameRentPrice = items[_itemId].price * 2 / 10;\n\n        rentListings[_itemId] = RentListing(_itemId, msg.sender, _gameRentPrice);\n\n        returnRentedItem(_itemId);\n        // cancelRentListing(_itemId);\n    }\n\n    function returnRentedItem(uint256 _itemId) public {\n        require(isUserRentingItem(msg.sender,_itemId), \"Not the renter of the item.\");\n\n        for (uint i = 0; i < users[msg.sender].rentedItemIds.length; i++) {\n            if (users[msg.sender].rentedItemIds[i] == _itemId) {\n                users[msg.sender].rentedItemIds[i] = users[msg.sender].rentedItemIds[users[msg.sender].rentedItemIds.length - 1];\n                users[msg.sender].rentedItemIds.pop();\n                break;\n            }\n        }\n    }\n    // function cancelRentListing(uint256 _itemId) public {\n    //     require(isItemForRent(_itemId), \"Item not listed for rent.\");\n    //     require(rentListings[_itemId].owner == msg.sender, \"Not the owner of the item.\");\n    //     delete rentListings[_itemId];\n    // }\n\n    // function changeRentState(uint256 _itemId) public {\n    //     require(ownerOf(_itemId) == msg.sender, \"Not the owner of the item.\");\n    //     require(isItemForRent(_itemId), \"Item not listed for sale.\");\n\n    //     listings[_itemId] = SaleListing(_itemId,msg.sender,items[_itemId].price);\n\n    //     delete rentListings[_itemId];\n    // } \n\n    function close() public onlyAdmin {\n        selfdestruct(payable(msg.sender));   \n    }\n}",
  "sourcePath": "/home/ganesh/Desktop/bloackchain-dapp/App-contract/contracts/Games.sol",
  "compiler": {
    "name": "solc",
    "version": "0.8.19+commit.7dd6d404.Emscripten.clang"
  },
  "schemaVersion": "3.4.13",
  "updatedAt": "2023-04-25T06:37:25.441Z",
  "devdoc": {
    "events": {
      "Approval(address,address,uint256)": {
        "details": "Emitted when `owner` enables `approved` to manage the `tokenId` token."
      },
      "ApprovalForAll(address,address,bool)": {
        "details": "Emitted when `owner` enables or disables (`approved`) `operator` to manage all of its assets."
      },
      "Transfer(address,address,uint256)": {
        "details": "Emitted when `tokenId` token is transferred from `from` to `to`."
      }
    },
    "kind": "dev",
    "methods": {
      "approve(address,uint256)": {
        "details": "See {IERC721-approve}."
      },
      "balanceOf(address)": {
        "details": "See {IERC721-balanceOf}."
      },
      "getApproved(uint256)": {
        "details": "See {IERC721-getApproved}."
      },
      "isApprovedForAll(address,address)": {
        "details": "See {IERC721-isApprovedForAll}."
      },
      "name()": {
        "details": "See {IERC721Metadata-name}."
      },
      "ownerOf(uint256)": {
        "details": "See {IERC721-ownerOf}."
      },
      "safeTransferFrom(address,address,uint256)": {
        "details": "See {IERC721-safeTransferFrom}."
      },
      "safeTransferFrom(address,address,uint256,bytes)": {
        "details": "See {IERC721-safeTransferFrom}."
      },
      "setApprovalForAll(address,bool)": {
        "details": "See {IERC721-setApprovalForAll}."
      },
      "supportsInterface(bytes4)": {
        "details": "See {IERC165-supportsInterface}."
      },
      "symbol()": {
        "details": "See {IERC721Metadata-symbol}."
      },
      "tokenURI(uint256)": {
        "details": "See {IERC721Metadata-tokenURI}."
      },
      "transferFrom(address,address,uint256)": {
        "details": "See {IERC721-transferFrom}."
      }
    },
    "version": 1
  },
  "userdoc": {
    "kind": "user",
    "methods": {},
    "version": 1
  }
}