{
  "contractName": "GameItems",
  "abi": [
    {
      "inputs": [
        {
          "internalType": "string",
          "name": "_username",
          "type": "string"
        }
      ],
      "stateMutability": "payable",
      "type": "constructor",
      "payable": true
    },
    {
      "anonymous": false,
      "inputs": [
        {
          "indexed": true,
          "internalType": "address",
          "name": "owner",
          "type": "address"
        },
        {
          "indexed": true,
          "internalType": "address",
          "name": "approved",
          "type": "address"
        },
        {
          "indexed": true,
          "internalType": "uint256",
          "name": "tokenId",
          "type": "uint256"
        }
      ],
      "name": "Approval",
      "type": "event"
    },
    {
      "anonymous": false,
      "inputs": [
        {
          "indexed": true,
          "internalType": "address",
          "name": "owner",
          "type": "address"
        },
        {
          "indexed": true,
          "internalType": "address",
          "name": "operator",
          "type": "address"
        },
        {
          "indexed": false,
          "internalType": "bool",
          "name": "approved",
          "type": "bool"
        }
      ],
      "name": "ApprovalForAll",
      "type": "event"
    },
    {
      "anonymous": false,
      "inputs": [
        {
          "indexed": true,
          "internalType": "address",
          "name": "from",
          "type": "address"
        },
        {
          "indexed": true,
          "internalType": "address",
          "name": "to",
          "type": "address"
        },
        {
          "indexed": true,
          "internalType": "uint256",
          "name": "tokenId",
          "type": "uint256"
        }
      ],
      "name": "Transfer",
      "type": "event"
    },
    {
      "inputs": [
        {
          "internalType": "address",
          "name": "to",
          "type": "address"
        },
        {
          "internalType": "uint256",
          "name": "tokenId",
          "type": "uint256"
        }
      ],
      "name": "approve",
      "outputs": [],
      "stateMutability": "nonpayable",
      "type": "function"
    },
    {
      "inputs": [
        {
          "internalType": "address",
          "name": "owner",
          "type": "address"
        }
      ],
      "name": "balanceOf",
      "outputs": [
        {
          "internalType": "uint256",
          "name": "",
          "type": "uint256"
        }
      ],
      "stateMutability": "view",
      "type": "function",
      "constant": true
    },
    {
      "inputs": [
        {
          "internalType": "uint256",
          "name": "tokenId",
          "type": "uint256"
        }
      ],
      "name": "getApproved",
      "outputs": [
        {
          "internalType": "address",
          "name": "",
          "type": "address"
        }
      ],
      "stateMutability": "view",
      "type": "function",
      "constant": true
    },
    {
      "inputs": [
        {
          "internalType": "address",
          "name": "owner",
          "type": "address"
        },
        {
          "internalType": "address",
          "name": "operator",
          "type": "address"
        }
      ],
      "name": "isApprovedForAll",
      "outputs": [
        {
          "internalType": "bool",
          "name": "",
          "type": "bool"
        }
      ],
      "stateMutability": "view",
      "type": "function",
      "constant": true
    },
    {
      "inputs": [
        {
          "internalType": "uint256",
          "name": "",
          "type": "uint256"
        }
      ],
      "name": "items",
      "outputs": [
        {
          "internalType": "uint256",
          "name": "itemId",
          "type": "uint256"
        },
        {
          "internalType": "string",
          "name": "name",
          "type": "string"
        },
        {
          "internalType": "string",
          "name": "description",
          "type": "string"
        },
        {
          "internalType": "bool",
          "name": "isAvailableForRent",
          "type": "bool"
        },
        {
          "internalType": "bool",
          "name": "isAvailableForSale",
          "type": "bool"
        },
        {
          "internalType": "uint256",
          "name": "price",
          "type": "uint256"
        },
        {
          "internalType": "address",
          "name": "owner",
          "type": "address"
        }
      ],
      "stateMutability": "view",
      "type": "function",
      "constant": true
    },
    {
      "inputs": [
        {
          "internalType": "uint256",
          "name": "",
          "type": "uint256"
        }
      ],
      "name": "listings",
      "outputs": [
        {
          "internalType": "uint256",
          "name": "itemId",
          "type": "uint256"
        },
        {
          "internalType": "address",
          "name": "seller",
          "type": "address"
        },
        {
          "internalType": "uint256",
          "name": "price",
          "type": "uint256"
        }
      ],
      "stateMutability": "view",
      "type": "function",
      "constant": true
    },
    {
      "inputs": [],
      "name": "name",
      "outputs": [
        {
          "internalType": "string",
          "name": "",
          "type": "string"
        }
      ],
      "stateMutability": "view",
      "type": "function",
      "constant": true
    },
    {
      "inputs": [
        {
          "internalType": "uint256",
          "name": "tokenId",
          "type": "uint256"
        }
      ],
      "name": "ownerOf",
      "outputs": [
        {
          "internalType": "address",
          "name": "",
          "type": "address"
        }
      ],
      "stateMutability": "view",
      "type": "function",
      "constant": true
    },
    {
      "inputs": [
        {
          "internalType": "uint256",
          "name": "",
          "type": "uint256"
        }
      ],
      "name": "rentListings",
      "outputs": [
        {
          "internalType": "uint256",
          "name": "itemId",
          "type": "uint256"
        },
        {
          "internalType": "address",
          "name": "owner",
          "type": "address"
        },
        {
          "internalType": "uint256",
          "name": "gameRentPrice",
          "type": "uint256"
        }
      ],
      "stateMutability": "view",
      "type": "function",
      "constant": true
    },
    {
      "inputs": [
        {
          "internalType": "address",
          "name": "from",
          "type": "address"
        },
        {
          "internalType": "address",
          "name": "to",
          "type": "address"
        },
        {
          "internalType": "uint256",
          "name": "tokenId",
          "type": "uint256"
        }
      ],
      "name": "safeTransferFrom",
      "outputs": [],
      "stateMutability": "nonpayable",
      "type": "function"
    },
    {
      "inputs": [
        {
          "internalType": "address",
          "name": "from",
          "type": "address"
        },
        {
          "internalType": "address",
          "name": "to",
          "type": "address"
        },
        {
          "internalType": "uint256",
          "name": "tokenId",
          "type": "uint256"
        },
        {
          "internalType": "bytes",
          "name": "data",
          "type": "bytes"
        }
      ],
      "name": "safeTransferFrom",
      "outputs": [],
      "stateMutability": "nonpayable",
      "type": "function"
    },
    {
      "inputs": [
        {
          "internalType": "address",
          "name": "operator",
          "type": "address"
        },
        {
          "internalType": "bool",
          "name": "approved",
          "type": "bool"
        }
      ],
      "name": "setApprovalForAll",
      "outputs": [],
      "stateMutability": "nonpayable",
      "type": "function"
    },
    {
      "inputs": [
        {
          "internalType": "bytes4",
          "name": "interfaceId",
          "type": "bytes4"
        }
      ],
      "name": "supportsInterface",
      "outputs": [
        {
          "internalType": "bool",
          "name": "",
          "type": "bool"
        }
      ],
      "stateMutability": "view",
      "type": "function",
      "constant": true
    },
    {
      "inputs": [],
      "name": "symbol",
      "outputs": [
        {
          "internalType": "string",
          "name": "",
          "type": "string"
        }
      ],
      "stateMutability": "view",
      "type": "function",
      "constant": true
    },
    {
      "inputs": [
        {
          "internalType": "uint256",
          "name": "tokenId",
          "type": "uint256"
        }
      ],
      "name": "tokenURI",
      "outputs": [
        {
          "internalType": "string",
          "name": "",
          "type": "string"
        }
      ],
      "stateMutability": "view",
      "type": "function",
      "constant": true
    },
    {
      "inputs": [
        {
          "internalType": "address",
          "name": "from",
          "type": "address"
        },
        {
          "internalType": "address",
          "name": "to",
          "type": "address"
        },
        {
          "internalType": "uint256",
          "name": "tokenId",
          "type": "uint256"
        }
      ],
      "name": "transferFrom",
      "outputs": [],
      "stateMutability": "nonpayable",
      "type": "function"
    },
    {
      "inputs": [
        {
          "internalType": "address",
          "name": "",
          "type": "address"
        }
      ],
      "name": "users",
      "outputs": [
        {
          "internalType": "address",
          "name": "walletAddress",
          "type": "address"
        },
        {
          "internalType": "string",
          "name": "username",
          "type": "string"
        },
        {
          "internalType": "uint256",
          "name": "balance",
          "type": "uint256"
        }
      ],
      "stateMutability": "view",
      "type": "function",
      "constant": true
    },
    {
      "inputs": [
        {
          "internalType": "address",
          "name": "useraddr",
          "type": "address"
        }
      ],
      "name": "getUser",
      "outputs": [
        {
          "internalType": "string",
          "name": "",
          "type": "string"
        }
      ],
      "stateMutability": "nonpayable",
      "type": "function"
    },
    {
      "inputs": [],
      "name": "getItemsByUser",
      "outputs": [
        {
          "components": [
            {
              "internalType": "uint256",
              "name": "itemId",
              "type": "uint256"
            },
            {
              "internalType": "string",
              "name": "name",
              "type": "string"
            },
            {
              "internalType": "string",
              "name": "description",
              "type": "string"
            },
            {
              "internalType": "bool",
              "name": "isAvailableForRent",
              "type": "bool"
            },
            {
              "internalType": "bool",
              "name": "isAvailableForSale",
              "type": "bool"
            },
            {
              "internalType": "uint256",
              "name": "price",
              "type": "uint256"
            },
            {
              "internalType": "address",
              "name": "owner",
              "type": "address"
            }
          ],
          "internalType": "struct GameItems.Item[]",
          "name": "",
          "type": "tuple[]"
        }
      ],
      "stateMutability": "nonpayable",
      "type": "function"
    },
    {
      "inputs": [
        {
          "internalType": "string",
          "name": "_username",
          "type": "string"
        }
      ],
      "name": "registerUser",
      "outputs": [],
      "stateMutability": "payable",
      "type": "function",
      "payable": true
    },
    {
      "inputs": [
        {
          "internalType": "string",
          "name": "_name",
          "type": "string"
        },
        {
          "internalType": "uint256",
          "name": "price",
          "type": "uint256"
        },
        {
          "internalType": "string",
          "name": "_description",
          "type": "string"
        }
      ],
      "name": "addItem",
      "outputs": [
        {
          "internalType": "uint256",
          "name": "",
          "type": "uint256"
        }
      ],
      "stateMutability": "nonpayable",
      "type": "function"
    },
    {
      "inputs": [
        {
          "internalType": "uint256",
          "name": "_itemId",
          "type": "uint256"
        }
      ],
      "name": "listItemForSale",
      "outputs": [
        {
          "internalType": "bool",
          "name": "",
          "type": "bool"
        }
      ],
      "stateMutability": "nonpayable",
      "type": "function"
    },
    {
      "inputs": [
        {
          "internalType": "uint256",
          "name": "_itemId",
          "type": "uint256"
        }
      ],
      "name": "isItemForSale",
      "outputs": [
        {
          "internalType": "bool",
          "name": "",
          "type": "bool"
        }
      ],
      "stateMutability": "view",
      "type": "function",
      "constant": true
    },
    {
      "inputs": [
        {
          "internalType": "uint256",
          "name": "_itemId",
          "type": "uint256"
        }
      ],
      "name": "buyItem",
      "outputs": [],
      "stateMutability": "payable",
      "type": "function",
      "payable": true
    },
    {
      "inputs": [
        {
          "internalType": "uint256",
          "name": "_itemId",
          "type": "uint256"
        }
      ],
      "name": "cancelListing",
      "outputs": [],
      "stateMutability": "nonpayable",
      "type": "function"
    },
    {
      "inputs": [
        {
          "internalType": "uint256",
          "name": "_itemId",
          "type": "uint256"
        }
      ],
      "name": "listItemForRent",
      "outputs": [],
      "stateMutability": "nonpayable",
      "type": "function"
    },
    {
      "inputs": [
        {
          "internalType": "uint256",
          "name": "_itemId",
          "type": "uint256"
        }
      ],
      "name": "isItemForRent",
      "outputs": [
        {
          "internalType": "bool",
          "name": "",
          "type": "bool"
        }
      ],
      "stateMutability": "view",
      "type": "function",
      "constant": true
    },
    {
      "inputs": [
        {
          "internalType": "uint256",
          "name": "_itemId",
          "type": "uint256"
        }
      ],
      "name": "rentItem",
      "outputs": [],
      "stateMutability": "payable",
      "type": "function",
      "payable": true
    },
    {
      "inputs": [
        {
          "internalType": "uint256",
          "name": "_itemId",
          "type": "uint256"
        }
      ],
      "name": "playGame",
      "outputs": [],
      "stateMutability": "nonpayable",
      "type": "function"
    },
    {
      "inputs": [
        {
          "internalType": "uint256",
          "name": "_itemId",
          "type": "uint256"
        }
      ],
      "name": "returnRentedItem",
      "outputs": [],
      "stateMutability": "nonpayable",
      "type": "function"
    },
    {
      "inputs": [
        {
          "internalType": "uint256",
          "name": "_itemId",
          "type": "uint256"
        }
      ],
      "name": "cancelRentListing",
      "outputs": [],
      "stateMutability": "nonpayable",
      "type": "function"
    },
    {
      "inputs": [
        {
          "internalType": "uint256",
          "name": "_itemId",
          "type": "uint256"
        }
      ],
      "name": "changeRentState",
      "outputs": [],
      "stateMutability": "nonpayable",
      "type": "function"
    },
    {
      "inputs": [],
      "name": "close",
      "outputs": [],
      "stateMutability": "nonpayable",
      "type": "function"
    }
  ],
  "bytecode": "0x608060405260405162006652380380620066528339818101604052810190620000299190620004c7565b6040518060400160405280600981526020017f47616d654974656d7300000000000000000000000000000000000000000000008152506040518060400160405280600281526020017f47490000000000000000000000000000000000000000000000000000000000008152508160009081620000a6919062000763565b508060019081620000b8919062000763565b50505033600760006101000a81548173ffffffffffffffffffffffffffffffffffffffff021916908373ffffffffffffffffffffffffffffffffffffffff1602179055506040518060a001604052803373ffffffffffffffffffffffffffffffffffffffff168152602001828152602001348152602001600067ffffffffffffffff8111156200014d576200014c62000363565b5b6040519080825280602002602001820160405280156200017c5781602001602082028036833780820191505090505b508152602001600067ffffffffffffffff811115620001a0576200019f62000363565b5b604051908082528060200260200182016040528015620001cf5781602001602082028036833780820191505090505b50815250600860003373ffffffffffffffffffffffffffffffffffffffff1673ffffffffffffffffffffffffffffffffffffffff16815260200190815260200160002060008201518160000160006101000a81548173ffffffffffffffffffffffffffffffffffffffff021916908373ffffffffffffffffffffffffffffffffffffffff160217905550602082015181600101908162000270919062000763565b5060408201518160020155606082015181600301908051906020019062000299929190620002c3565b506080820151816004019080519060200190620002b8929190620002c3565b50905050506200084a565b82805482825590600052602060002090810192821562000302579160200282015b8281111562000301578251825591602001919060010190620002e4565b5b50905062000311919062000315565b5090565b5b808211156200033057600081600090555060010162000316565b5090565b6000604051905090565b600080fd5b600080fd5b600080fd5b600080fd5b6000601f19601f8301169050919050565b7f4e487b7100000000000000000000000000000000000000000000000000000000600052604160045260246000fd5b6200039d8262000352565b810181811067ffffffffffffffff82111715620003bf57620003be62000363565b5b80604052505050565b6000620003d462000334565b9050620003e2828262000392565b919050565b600067ffffffffffffffff82111562000405576200040462000363565b5b620004108262000352565b9050602081019050919050565b60005b838110156200043d57808201518184015260208101905062000420565b60008484015250505050565b6000620004606200045a84620003e7565b620003c8565b9050828152602081018484840111156200047f576200047e6200034d565b5b6200048c8482856200041d565b509392505050565b600082601f830112620004ac57620004ab62000348565b5b8151620004be84826020860162000449565b91505092915050565b600060208284031215620004e057620004df6200033e565b5b600082015167ffffffffffffffff81111562000501576200050062000343565b5b6200050f8482850162000494565b91505092915050565b600081519050919050565b7f4e487b7100000000000000000000000000000000000000000000000000000000600052602260045260246000fd5b600060028204905060018216806200056b57607f821691505b60208210810362000581576200058062000523565b5b50919050565b60008190508160005260206000209050919050565b60006020601f8301049050919050565b600082821b905092915050565b600060088302620005eb7fffffffffffffffffffffffffffffffffffffffffffffffffffffffffffffffff82620005ac565b620005f78683620005ac565b95508019841693508086168417925050509392505050565b6000819050919050565b6000819050919050565b6000620006446200063e62000638846200060f565b62000619565b6200060f565b9050919050565b6000819050919050565b620006608362000623565b620006786200066f826200064b565b848454620005b9565b825550505050565b600090565b6200068f62000680565b6200069c81848462000655565b505050565b5b81811015620006c457620006b860008262000685565b600181019050620006a2565b5050565b601f8211156200071357620006dd8162000587565b620006e8846200059c565b81016020851015620006f8578190505b6200071062000707856200059c565b830182620006a1565b50505b505050565b600082821c905092915050565b6000620007386000198460080262000718565b1980831691505092915050565b600062000753838362000725565b9150826002028217905092915050565b6200076e8262000518565b67ffffffffffffffff8111156200078a576200078962000363565b5b62000796825462000552565b620007a3828285620006c8565b600060209050601f831160018114620007db5760008415620007c6578287015190505b620007d2858262000745565b86555062000842565b601f198416620007eb8662000587565b60005b828110156200081557848901518255600182019150602085019450602081019050620007ee565b8683101562000835578489015162000831601f89168262000725565b8355505b6001600288020188555050505b505050505050565b615df8806200085a6000396000f3fe6080604052600436106101ee5760003560e01c806398bbfd951161010d578063c87b56dd116100a0578063d92ed60b1161006f578063d92ed60b1461072f578063de74e57b1461076c578063e7846b66146107ab578063e7fb74c7146107e8578063e985e9c514610804576101ee565b8063c87b56dd1461065a578063cdf2722314610697578063ce0958c4146106d6578063d78d385214610713576101ee565b8063a8cffa22116100dc578063a8cffa221461059c578063b36d8d8b146105c5578063b88d4fde146105ee578063bfb231d214610617576101ee565b806398bbfd95146104ce578063a22cb465146104f7578063a3e54b3e14610520578063a87430ba1461055d576101ee565b806342842e0e116101855780636f77926b116101545780636f77926b1461040d578063704f1b941461044a57806370a082311461046657806395d89b41146104a3576101ee565b806342842e0e1461036757806343d726d6146103905780635873533d146103a75780636352211e146103d0576101ee565b80631dad6161116101c15780631dad6161146102c157806323b872dd146102ea578063305a67a8146103135780633923f5901461033c576101ee565b806301ffc9a7146101f357806306fdde0314610230578063081812fc1461025b578063095ea7b314610298575b600080fd5b3480156101ff57600080fd5b5061021a60048036038101906102159190614351565b610841565b6040516102279190614399565b60405180910390f35b34801561023c57600080fd5b50610245610923565b6040516102529190614444565b60405180910390f35b34801561026757600080fd5b50610282600480360381019061027d919061449c565b6109b5565b60405161028f919061450a565b60405180910390f35b3480156102a457600080fd5b506102bf60048036038101906102ba9190614551565b6109fb565b005b3480156102cd57600080fd5b506102e860048036038101906102e3919061449c565b610b12565b005b3480156102f657600080fd5b50610311600480360381019061030c9190614591565b610c4e565b005b34801561031f57600080fd5b5061033a6004803603810190610335919061449c565b610cae565b005b34801561034857600080fd5b50610351610dea565b60405161035e91906147c0565b60405180910390f35b34801561037357600080fd5b5061038e60048036038101906103899190614591565b611136565b005b34801561039c57600080fd5b506103a5611156565b005b3480156103b357600080fd5b506103ce60048036038101906103c9919061449c565b6111ff565b005b3480156103dc57600080fd5b506103f760048036038101906103f2919061449c565b611373565b604051610404919061450a565b60405180910390f35b34801561041957600080fd5b50610434600480360381019061042f91906147e2565b6113f9565b6040516104419190614444565b60405180910390f35b610464600480360381019061045f9190614944565b6115a4565b005b34801561047257600080fd5b5061048d600480360381019061048891906147e2565b61182a565b60405161049a919061499c565b60405180910390f35b3480156104af57600080fd5b506104b86118e1565b6040516104c59190614444565b60405180910390f35b3480156104da57600080fd5b506104f560048036038101906104f0919061449c565b611973565b005b34801561050357600080fd5b5061051e600480360381019061051991906149e3565b611b39565b005b34801561052c57600080fd5b5061054760048036038101906105429190614a23565b611b4f565b604051610554919061499c565b60405180910390f35b34801561056957600080fd5b50610584600480360381019061057f91906147e2565b611de3565b60405161059393929190614aae565b60405180910390f35b3480156105a857600080fd5b506105c360048036038101906105be919061449c565b611eb5565b005b3480156105d157600080fd5b506105ec60048036038101906105e7919061449c565b612149565b005b3480156105fa57600080fd5b5061061560048036038101906106109190614b8d565b6122e1565b005b34801561062357600080fd5b5061063e6004803603810190610639919061449c565b612343565b6040516106519796959493929190614c10565b60405180910390f35b34801561066657600080fd5b50610681600480360381019061067c919061449c565b6124cf565b60405161068e9190614444565b60405180910390f35b3480156106a357600080fd5b506106be60048036038101906106b9919061449c565b612537565b6040516106cd93929190614c8d565b60405180910390f35b3480156106e257600080fd5b506106fd60048036038101906106f8919061449c565b612581565b60405161070a9190614399565b60405180910390f35b61072d6004803603810190610728919061449c565b612613565b005b34801561073b57600080fd5b506107566004803603810190610751919061449c565b6129e7565b6040516107639190614399565b60405180910390f35b34801561077857600080fd5b50610793600480360381019061078e919061449c565b612ba0565b6040516107a293929190614c8d565b60405180910390f35b3480156107b757600080fd5b506107d260048036038101906107cd919061449c565b612bea565b6040516107df9190614399565b60405180910390f35b61080260048036038101906107fd919061449c565b612c7c565b005b34801561081057600080fd5b5061082b60048036038101906108269190614cc4565b613334565b6040516108389190614399565b60405180910390f35b60007f80ac58cd000000000000000000000000000000000000000000000000000000007bffffffffffffffffffffffffffffffffffffffffffffffffffffffff1916827bffffffffffffffffffffffffffffffffffffffffffffffffffffffff1916148061090c57507f5b5e139f000000000000000000000000000000000000000000000000000000007bffffffffffffffffffffffffffffffffffffffffffffffffffffffff1916827bffffffffffffffffffffffffffffffffffffffffffffffffffffffff1916145b8061091c575061091b826133c8565b5b9050919050565b60606000805461093290614d33565b80601f016020809104026020016040519081016040528092919081815260200182805461095e90614d33565b80156109ab5780601f10610980576101008083540402835291602001916109ab565b820191906000526020600020905b81548152906001019060200180831161098e57829003601f168201915b5050505050905090565b60006109c082613432565b6004600083815260200190815260200160002060009054906101000a900473ffffffffffffffffffffffffffffffffffffffff169050919050565b6000610a0682611373565b90508073ffffffffffffffffffffffffffffffffffffffff168373ffffffffffffffffffffffffffffffffffffffff1603610a76576040517f08c379a0000000000000000000000000000000000000000000000000000000008152600401610a6d90614dd6565b60405180910390fd5b8073ffffffffffffffffffffffffffffffffffffffff16610a9561347d565b73ffffffffffffffffffffffffffffffffffffffff161480610ac45750610ac381610abe61347d565b613334565b5b610b03576040517f08c379a0000000000000000000000000000000000000000000000000000000008152600401610afa90614e68565b60405180910390fd5b610b0d8383613485565b505050565b610b1b81612581565b610b5a576040517f08c379a0000000000000000000000000000000000000000000000000000000008152600401610b5190614ed4565b60405180910390fd5b3373ffffffffffffffffffffffffffffffffffffffff16600b600083815260200190815260200160002060010160009054906101000a900473ffffffffffffffffffffffffffffffffffffffff1673ffffffffffffffffffffffffffffffffffffffff1614610bfe576040517f08c379a0000000000000000000000000000000000000000000000000000000008152600401610bf590614f40565b60405180910390fd5b600b60008281526020019081526020016000206000808201600090556001820160006101000a81549073ffffffffffffffffffffffffffffffffffffffff02191690556002820160009055505050565b610c5f610c5961347d565b8261353e565b610c9e576040517f08c379a0000000000000000000000000000000000000000000000000000000008152600401610c9590614fd2565b60405180910390fd5b610ca98383836135d3565b505050565b610cb781612bea565b610cf6576040517f08c379a0000000000000000000000000000000000000000000000000000000008152600401610ced9061503e565b60405180910390fd5b3373ffffffffffffffffffffffffffffffffffffffff16600a600083815260200190815260200160002060010160009054906101000a900473ffffffffffffffffffffffffffffffffffffffff1673ffffffffffffffffffffffffffffffffffffffff1614610d9a576040517f08c379a0000000000000000000000000000000000000000000000000000000008152600401610d9190614f40565b60405180910390fd5b600a60008281526020019081526020016000206000808201600090556001820160006101000a81549073ffffffffffffffffffffffffffffffffffffffff02191690556002820160009055505050565b60606000600860003373ffffffffffffffffffffffffffffffffffffffff1673ffffffffffffffffffffffffffffffffffffffff168152602001908152602001600020600301805480602002602001604051908101604052809291908181526020018280548015610e7a57602002820191906000526020600020905b815481526020019060010190808311610e66575b5050505050905060008060018351610e92919061508d565b67ffffffffffffffff811115610eab57610eaa614819565b5b604051908082528060200260200182016040528015610ee457816020015b610ed1614224565b815260200190600190039081610ec95790505b50905060005b835181101561112c5760096000858381518110610f0a57610f096150c1565b5b602002602001015181526020019081526020016000206040518060e001604052908160008201548152602001600182018054610f4590614d33565b80601f0160208091040260200160405190810160405280929190818152602001828054610f7190614d33565b8015610fbe5780601f10610f9357610100808354040283529160200191610fbe565b820191906000526020600020905b815481529060010190602001808311610fa157829003601f168201915b50505050508152602001600282018054610fd790614d33565b80601f016020809104026020016040519081016040528092919081815260200182805461100390614d33565b80156110505780601f1061102557610100808354040283529160200191611050565b820191906000526020600020905b81548152906001019060200180831161103357829003601f168201915b505050505081526020016003820160009054906101000a900460ff161515151581526020016003820160019054906101000a900460ff16151515158152602001600482015481526020016005820160009054906101000a900473ffffffffffffffffffffffffffffffffffffffff1673ffffffffffffffffffffffffffffffffffffffff1673ffffffffffffffffffffffffffffffffffffffff16815250508284806110fb906150f0565b95508151811061110e5761110d6150c1565b5b60200260200101819052508080611124906150f0565b915050610eea565b5080935050505090565b611151838383604051806020016040528060008152506122e1565b505050565b3373ffffffffffffffffffffffffffffffffffffffff16600760009054906101000a900473ffffffffffffffffffffffffffffffffffffffff1673ffffffffffffffffffffffffffffffffffffffff16146111e6576040517f08c379a00000000000000000000000000000000000000000000000000000000081526004016111dd90615184565b60405180910390fd5b3373ffffffffffffffffffffffffffffffffffffffff16ff5b61120933826138cc565b611248576040517f08c379a000000000000000000000000000000000000000000000000000000000815260040161123f906151f0565b60405180910390fd5b61125181612581565b15611291576040517f08c379a00000000000000000000000000000000000000000000000000000000081526004016112889061525c565b60405180910390fd5b6000600a600260096000858152602001908152602001600020600401546112b8919061527c565b6112c291906152ed565b905060405180606001604052808381526020013373ffffffffffffffffffffffffffffffffffffffff16815260200182815250600b60008481526020019081526020016000206000820151816000015560208201518160010160006101000a81548173ffffffffffffffffffffffffffffffffffffffff021916908373ffffffffffffffffffffffffffffffffffffffff1602179055506040820151816002015590505061136f82611eb5565b5050565b60008061137f836139af565b9050600073ffffffffffffffffffffffffffffffffffffffff168173ffffffffffffffffffffffffffffffffffffffff16036113f0576040517f08c379a00000000000000000000000000000000000000000000000000000000081526004016113e79061536a565b60405180910390fd5b80915050919050565b6060600073ffffffffffffffffffffffffffffffffffffffff16600860008473ffffffffffffffffffffffffffffffffffffffff1673ffffffffffffffffffffffffffffffffffffffff16815260200190815260200160002060000160009054906101000a900473ffffffffffffffffffffffffffffffffffffffff1673ffffffffffffffffffffffffffffffffffffffff16036114cc576040517f08c379a00000000000000000000000000000000000000000000000000000000081526004016114c3906153d6565b60405180910390fd5b6000600860008473ffffffffffffffffffffffffffffffffffffffff1673ffffffffffffffffffffffffffffffffffffffff168152602001908152602001600020600101805461151b90614d33565b80601f016020809104026020016040519081016040528092919081815260200182805461154790614d33565b80156115945780601f1061156957610100808354040283529160200191611594565b820191906000526020600020905b81548152906001019060200180831161157757829003601f168201915b5050505050905080915050919050565b600073ffffffffffffffffffffffffffffffffffffffff16600860003373ffffffffffffffffffffffffffffffffffffffff1673ffffffffffffffffffffffffffffffffffffffff16815260200190815260200160002060000160009054906101000a900473ffffffffffffffffffffffffffffffffffffffff1673ffffffffffffffffffffffffffffffffffffffff1614611675576040517f08c379a000000000000000000000000000000000000000000000000000000000815260040161166c90615442565b60405180910390fd5b6040518060a001604052803373ffffffffffffffffffffffffffffffffffffffff168152602001828152602001348152602001600067ffffffffffffffff8111156116c3576116c2614819565b5b6040519080825280602002602001820160405280156116f15781602001602082028036833780820191505090505b508152602001600067ffffffffffffffff81111561171257611711614819565b5b6040519080825280602002602001820160405280156117405781602001602082028036833780820191505090505b50815250600860003373ffffffffffffffffffffffffffffffffffffffff1673ffffffffffffffffffffffffffffffffffffffff16815260200190815260200160002060008201518160000160006101000a81548173ffffffffffffffffffffffffffffffffffffffff021916908373ffffffffffffffffffffffffffffffffffffffff16021790555060208201518160010190816117df919061560e565b5060408201518160020155606082015181600301908051906020019061180692919061427b565b50608082015181600401908051906020019061182392919061427b565b5090505050565b60008073ffffffffffffffffffffffffffffffffffffffff168273ffffffffffffffffffffffffffffffffffffffff160361189a576040517f08c379a000000000000000000000000000000000000000000000000000000000815260040161189190615752565b60405180910390fd5b600360008373ffffffffffffffffffffffffffffffffffffffff1673ffffffffffffffffffffffffffffffffffffffff168152602001908152602001600020549050919050565b6060600180546118f090614d33565b80601f016020809104026020016040519081016040528092919081815260200182805461191c90614d33565b80156119695780601f1061193e57610100808354040283529160200191611969565b820191906000526020600020905b81548152906001019060200180831161194c57829003601f168201915b5050505050905090565b3373ffffffffffffffffffffffffffffffffffffffff1661199382611373565b73ffffffffffffffffffffffffffffffffffffffff16146119e9576040517f08c379a00000000000000000000000000000000000000000000000000000000081526004016119e090614f40565b60405180910390fd5b6119f281612581565b611a31576040517f08c379a0000000000000000000000000000000000000000000000000000000008152600401611a289061503e565b60405180910390fd5b60405180606001604052808281526020013373ffffffffffffffffffffffffffffffffffffffff1681526020016009600084815260200190815260200160002060040154815250600a60008381526020019081526020016000206000820151816000015560208201518160010160006101000a81548173ffffffffffffffffffffffffffffffffffffffff021916908373ffffffffffffffffffffffffffffffffffffffff16021790555060408201518160020155905050600b60008281526020019081526020016000206000808201600090556001820160006101000a81549073ffffffffffffffffffffffffffffffffffffffff02191690556002820160009055505050565b611b4b611b4461347d565b83836139ec565b5050565b60008073ffffffffffffffffffffffffffffffffffffffff16600860003373ffffffffffffffffffffffffffffffffffffffff1673ffffffffffffffffffffffffffffffffffffffff16815260200190815260200160002060000160009054906101000a900473ffffffffffffffffffffffffffffffffffffffff1673ffffffffffffffffffffffffffffffffffffffff1603611c21576040517f08c379a0000000000000000000000000000000000000000000000000000000008152600401611c18906153d6565b60405180910390fd5b611c2b6006613b58565b6000611c376006613b6e565b9050611c433382613b7c565b6040518060e001604052808281526020018681526020018481526020016000151581526020016000151581526020018581526020013373ffffffffffffffffffffffffffffffffffffffff1681525060096000838152602001908152602001600020600082015181600001556020820151816001019081611cc4919061560e565b506040820151816002019081611cda919061560e565b5060608201518160030160006101000a81548160ff02191690831515021790555060808201518160030160016101000a81548160ff02191690831515021790555060a0820151816004015560c08201518160050160006101000a81548173ffffffffffffffffffffffffffffffffffffffff021916908373ffffffffffffffffffffffffffffffffffffffff160217905550905050600860003373ffffffffffffffffffffffffffffffffffffffff1673ffffffffffffffffffffffffffffffffffffffff168152602001908152602001600020600301819080600181540180825580915050600190039060005260206000200160009091909190915055809150509392505050565b60086020528060005260406000206000915090508060000160009054906101000a900473ffffffffffffffffffffffffffffffffffffffff1690806001018054611e2c90614d33565b80601f0160208091040260200160405190810160405280929190818152602001828054611e5890614d33565b8015611ea55780601f10611e7a57610100808354040283529160200191611ea5565b820191906000526020600020905b815481529060010190602001808311611e8857829003601f168201915b5050505050908060020154905083565b611ebf33826138cc565b611efe576040517f08c379a0000000000000000000000000000000000000000000000000000000008152600401611ef5906151f0565b60405180910390fd5b60005b600860003373ffffffffffffffffffffffffffffffffffffffff1673ffffffffffffffffffffffffffffffffffffffff168152602001908152602001600020600401805490508110156121455781600860003373ffffffffffffffffffffffffffffffffffffffff1673ffffffffffffffffffffffffffffffffffffffff1681526020019081526020016000206004018281548110611fa357611fa26150c1565b5b90600052602060002001540361213257600860003373ffffffffffffffffffffffffffffffffffffffff1673ffffffffffffffffffffffffffffffffffffffff1681526020019081526020016000206004016001600860003373ffffffffffffffffffffffffffffffffffffffff1673ffffffffffffffffffffffffffffffffffffffff168152602001908152602001600020600401805490506120479190615772565b81548110612058576120576150c1565b5b9060005260206000200154600860003373ffffffffffffffffffffffffffffffffffffffff1673ffffffffffffffffffffffffffffffffffffffff16815260200190815260200160002060040182815481106120b7576120b66150c1565b5b9060005260206000200181905550600860003373ffffffffffffffffffffffffffffffffffffffff1673ffffffffffffffffffffffffffffffffffffffff168152602001908152602001600020600401805480612117576121166157a6565b5b60019003818190600052602060002001600090559055612145565b808061213d906150f0565b915050611f01565b5050565b3373ffffffffffffffffffffffffffffffffffffffff1661216982611373565b73ffffffffffffffffffffffffffffffffffffffff16146121bf576040517f08c379a00000000000000000000000000000000000000000000000000000000081526004016121b690614f40565b60405180910390fd5b6121c881612581565b15612208576040517f08c379a00000000000000000000000000000000000000000000000000000000081526004016121ff9061525c565b60405180910390fd5b6000600a6002600960008581526020019081526020016000206004015461222f919061527c565b61223991906152ed565b905060405180606001604052808381526020013373ffffffffffffffffffffffffffffffffffffffff16815260200182815250600b60008481526020019081526020016000206000820151816000015560208201518160010160006101000a81548173ffffffffffffffffffffffffffffffffffffffff021916908373ffffffffffffffffffffffffffffffffffffffff160217905550604082015181600201559050505050565b6122f26122ec61347d565b8361353e565b612331576040517f08c379a000000000000000000000000000000000000000000000000000000000815260040161232890614fd2565b60405180910390fd5b61233d84848484613d99565b50505050565b600960205280600052604060002060009150905080600001549080600101805461236c90614d33565b80601f016020809104026020016040519081016040528092919081815260200182805461239890614d33565b80156123e55780601f106123ba576101008083540402835291602001916123e5565b820191906000526020600020905b8154815290600101906020018083116123c857829003601f168201915b5050505050908060020180546123fa90614d33565b80601f016020809104026020016040519081016040528092919081815260200182805461242690614d33565b80156124735780601f1061244857610100808354040283529160200191612473565b820191906000526020600020905b81548152906001019060200180831161245657829003601f168201915b5050505050908060030160009054906101000a900460ff16908060030160019054906101000a900460ff16908060040154908060050160009054906101000a900473ffffffffffffffffffffffffffffffffffffffff16905087565b60606124da82613432565b60006124e4613df5565b90506000815111612504576040518060200160405280600081525061252f565b8061250e84613e0c565b60405160200161251f929190615811565b6040516020818303038152906040525b915050919050565b600b6020528060005260406000206000915090508060000154908060010160009054906101000a900473ffffffffffffffffffffffffffffffffffffffff16908060020154905083565b600080600b6000848152602001908152602001600020600001541415801561260c5750600073ffffffffffffffffffffffffffffffffffffffff16600b600084815260200190815260200160002060010160009054906101000a900473ffffffffffffffffffffffffffffffffffffffff1673ffffffffffffffffffffffffffffffffffffffff1614155b9050919050565b61261c81612581565b61265b576040517f08c379a000000000000000000000000000000000000000000000000000000000815260040161265290614ed4565b60405180910390fd5b6000600b6000838152602001908152602001600020600201549050803410156126b9576040517f08c379a00000000000000000000000000000000000000000000000000000000081526004016126b090615881565b60405180910390fd5b6000600b600084815260200190815260200160002060010160009054906101000a900473ffffffffffffffffffffffffffffffffffffffff1690503373ffffffffffffffffffffffffffffffffffffffff168173ffffffffffffffffffffffffffffffffffffffff1603612762576040517f08c379a0000000000000000000000000000000000000000000000000000000008152600401612759906158ed565b60405180910390fd5b600073ffffffffffffffffffffffffffffffffffffffff16600860003373ffffffffffffffffffffffffffffffffffffffff1673ffffffffffffffffffffffffffffffffffffffff16815260200190815260200160002060000160009054906101000a900473ffffffffffffffffffffffffffffffffffffffff1673ffffffffffffffffffffffffffffffffffffffff1603612833576040517f08c379a000000000000000000000000000000000000000000000000000000000815260040161282a906153d6565b60405180910390fd5b600860003373ffffffffffffffffffffffffffffffffffffffff1673ffffffffffffffffffffffffffffffffffffffff16815260200190815260200160002060040183908060018154018082558091505060019003906000526020600020016000909190919091505581600860008373ffffffffffffffffffffffffffffffffffffffff1673ffffffffffffffffffffffffffffffffffffffff16815260200190815260200160002060020160008282546128ee919061508d565b9250508190555081600860003373ffffffffffffffffffffffffffffffffffffffff1673ffffffffffffffffffffffffffffffffffffffff16815260200190815260200160002060020160008282546129479190615772565b925050819055508073ffffffffffffffffffffffffffffffffffffffff166108fc839081150290604051600060405180830381858888f19350505050158015612994573d6000803e3d6000fd5b50600b60008481526020019081526020016000206000808201600090556001820160006101000a81549073ffffffffffffffffffffffffffffffffffffffff021916905560028201600090555050505050565b6000813373ffffffffffffffffffffffffffffffffffffffff16612a0a82611373565b73ffffffffffffffffffffffffffffffffffffffff1614612a60576040517f08c379a0000000000000000000000000000000000000000000000000000000008152600401612a5790614f40565b60405180910390fd5b612a6983612bea565b15612aa9576040517f08c379a0000000000000000000000000000000000000000000000000000000008152600401612aa090615959565b60405180910390fd5b60006009600085815260200190815260200160002060040154905060405180606001604052808581526020013373ffffffffffffffffffffffffffffffffffffffff16815260200182815250600a60008681526020019081526020016000206000820151816000015560208201518160010160006101000a81548173ffffffffffffffffffffffffffffffffffffffff021916908373ffffffffffffffffffffffffffffffffffffffff1602179055506040820151816002015590505060016009600086815260200190815260200160002060030160016101000a81548160ff021916908315150217905550600192505050919050565b600a6020528060005260406000206000915090508060000154908060010160009054906101000a900473ffffffffffffffffffffffffffffffffffffffff16908060020154905083565b600080600a60008481526020019081526020016000206000015414158015612c755750600073ffffffffffffffffffffffffffffffffffffffff16600a600084815260200190815260200160002060010160009054906101000a900473ffffffffffffffffffffffffffffffffffffffff1673ffffffffffffffffffffffffffffffffffffffff1614155b9050919050565b612c8581612bea565b612cc4576040517f08c379a0000000000000000000000000000000000000000000000000000000008152600401612cbb9061503e565b60405180910390fd5b600a600082815260200190815260200160002060020154341015612d1d576040517f08c379a0000000000000000000000000000000000000000000000000000000008152600401612d1490615881565b60405180910390fd5b6000600a600083815260200190815260200160002060010160009054906101000a900473ffffffffffffffffffffffffffffffffffffffff1690503373ffffffffffffffffffffffffffffffffffffffff168173ffffffffffffffffffffffffffffffffffffffff1603612dc6576040517f08c379a0000000000000000000000000000000000000000000000000000000008152600401612dbd906159c5565b60405180910390fd5b600073ffffffffffffffffffffffffffffffffffffffff16600860003373ffffffffffffffffffffffffffffffffffffffff1673ffffffffffffffffffffffffffffffffffffffff16815260200190815260200160002060000160009054906101000a900473ffffffffffffffffffffffffffffffffffffffff1673ffffffffffffffffffffffffffffffffffffffff1603612e97576040517f08c379a0000000000000000000000000000000000000000000000000000000008152600401612e8e906153d6565b60405180910390fd5b612ea28133846135d3565b600860003373ffffffffffffffffffffffffffffffffffffffff1673ffffffffffffffffffffffffffffffffffffffff16815260200190815260200160002060030182908060018154018082558091505060019003906000526020600020016000909190919091505560005b600860008373ffffffffffffffffffffffffffffffffffffffff1673ffffffffffffffffffffffffffffffffffffffff168152602001908152602001600020600301805490508110156131525782600860008473ffffffffffffffffffffffffffffffffffffffff1673ffffffffffffffffffffffffffffffffffffffff1681526020019081526020016000206003018281548110612fb057612faf6150c1565b5b90600052602060002001540361313f57600860008373ffffffffffffffffffffffffffffffffffffffff1673ffffffffffffffffffffffffffffffffffffffff1681526020019081526020016000206003016001600860008573ffffffffffffffffffffffffffffffffffffffff1673ffffffffffffffffffffffffffffffffffffffff168152602001908152602001600020600301805490506130549190615772565b81548110613065576130646150c1565b5b9060005260206000200154600860008473ffffffffffffffffffffffffffffffffffffffff1673ffffffffffffffffffffffffffffffffffffffff16815260200190815260200160002060030182815481106130c4576130c36150c1565b5b9060005260206000200181905550600860008373ffffffffffffffffffffffffffffffffffffffff1673ffffffffffffffffffffffffffffffffffffffff168152602001908152602001600020600301805480613124576131236157a6565b5b60019003818190600052602060002001600090559055613152565b808061314a906150f0565b915050612f0e565b50336009600084815260200190815260200160002060050160006101000a81548173ffffffffffffffffffffffffffffffffffffffff021916908373ffffffffffffffffffffffffffffffffffffffff160217905550600a600083815260200190815260200160002060020154600860008373ffffffffffffffffffffffffffffffffffffffff1673ffffffffffffffffffffffffffffffffffffffff1681526020019081526020016000206002016000828254613210919061508d565b92505081905550600a600083815260200190815260200160002060020154600860003373ffffffffffffffffffffffffffffffffffffffff1673ffffffffffffffffffffffffffffffffffffffff168152602001908152602001600020600201600082825461327f9190615772565b925050819055508073ffffffffffffffffffffffffffffffffffffffff166108fc600a6000858152602001908152602001600020600201549081150290604051600060405180830381858888f193505050501580156132e2573d6000803e3d6000fd5b50600a60008381526020019081526020016000206000808201600090556001820160006101000a81549073ffffffffffffffffffffffffffffffffffffffff0219169055600282016000905550505050565b6000600560008473ffffffffffffffffffffffffffffffffffffffff1673ffffffffffffffffffffffffffffffffffffffff16815260200190815260200160002060008373ffffffffffffffffffffffffffffffffffffffff1673ffffffffffffffffffffffffffffffffffffffff16815260200190815260200160002060009054906101000a900460ff16905092915050565b60007f01ffc9a7000000000000000000000000000000000000000000000000000000007bffffffffffffffffffffffffffffffffffffffffffffffffffffffff1916827bffffffffffffffffffffffffffffffffffffffffffffffffffffffff1916149050919050565b61343b81613eda565b61347a576040517f08c379a00000000000000000000000000000000000000000000000000000000081526004016134719061536a565b60405180910390fd5b50565b600033905090565b816004600083815260200190815260200160002060006101000a81548173ffffffffffffffffffffffffffffffffffffffff021916908373ffffffffffffffffffffffffffffffffffffffff160217905550808273ffffffffffffffffffffffffffffffffffffffff166134f883611373565b73ffffffffffffffffffffffffffffffffffffffff167f8c5be1e5ebec7d5bd14f71427d1e84f3dd0314c0f7b2291e5b200ac8c7c3b92560405160405180910390a45050565b60008061354a83611373565b90508073ffffffffffffffffffffffffffffffffffffffff168473ffffffffffffffffffffffffffffffffffffffff16148061358c575061358b8185613334565b5b806135ca57508373ffffffffffffffffffffffffffffffffffffffff166135b2846109b5565b73ffffffffffffffffffffffffffffffffffffffff16145b91505092915050565b8273ffffffffffffffffffffffffffffffffffffffff166135f382611373565b73ffffffffffffffffffffffffffffffffffffffff1614613649576040517f08c379a000000000000000000000000000000000000000000000000000000000815260040161364090615a57565b60405180910390fd5b600073ffffffffffffffffffffffffffffffffffffffff168273ffffffffffffffffffffffffffffffffffffffff16036136b8576040517f08c379a00000000000000000000000000000000000000000000000000000000081526004016136af90615ae9565b60405180910390fd5b6136c58383836001613f1b565b8273ffffffffffffffffffffffffffffffffffffffff166136e582611373565b73ffffffffffffffffffffffffffffffffffffffff161461373b576040517f08c379a000000000000000000000000000000000000000000000000000000000815260040161373290615a57565b60405180910390fd5b6004600082815260200190815260200160002060006101000a81549073ffffffffffffffffffffffffffffffffffffffff02191690556001600360008573ffffffffffffffffffffffffffffffffffffffff1673ffffffffffffffffffffffffffffffffffffffff168152602001908152602001600020600082825403925050819055506001600360008473ffffffffffffffffffffffffffffffffffffffff1673ffffffffffffffffffffffffffffffffffffffff16815260200190815260200160002060008282540192505081905550816002600083815260200190815260200160002060006101000a81548173ffffffffffffffffffffffffffffffffffffffff021916908373ffffffffffffffffffffffffffffffffffffffff160217905550808273ffffffffffffffffffffffffffffffffffffffff168473ffffffffffffffffffffffffffffffffffffffff167fddf252ad1be2c89b69c2b068fc378daa952ba7f163c4a11628f55a4df523b3ef60405160405180910390a46138c78383836001613f21565b505050565b600080600090505b600860008573ffffffffffffffffffffffffffffffffffffffff1673ffffffffffffffffffffffffffffffffffffffff168152602001908152602001600020600401805490508110156139a35782600860008673ffffffffffffffffffffffffffffffffffffffff1673ffffffffffffffffffffffffffffffffffffffff1681526020019081526020016000206004018281548110613976576139756150c1565b5b9060005260206000200154036139905760019150506139a9565b808061399b906150f0565b9150506138d4565b50600090505b92915050565b60006002600083815260200190815260200160002060009054906101000a900473ffffffffffffffffffffffffffffffffffffffff169050919050565b8173ffffffffffffffffffffffffffffffffffffffff168373ffffffffffffffffffffffffffffffffffffffff1603613a5a576040517f08c379a0000000000000000000000000000000000000000000000000000000008152600401613a5190615b55565b60405180910390fd5b80600560008573ffffffffffffffffffffffffffffffffffffffff1673ffffffffffffffffffffffffffffffffffffffff16815260200190815260200160002060008473ffffffffffffffffffffffffffffffffffffffff1673ffffffffffffffffffffffffffffffffffffffff16815260200190815260200160002060006101000a81548160ff0219169083151502179055508173ffffffffffffffffffffffffffffffffffffffff168373ffffffffffffffffffffffffffffffffffffffff167f17307eab39ab6107e8899845ad3d59bd9653f200f220920489ca2b5937696c3183604051613b4b9190614399565b60405180910390a3505050565b6001816000016000828254019250508190555050565b600081600001549050919050565b600073ffffffffffffffffffffffffffffffffffffffff168273ffffffffffffffffffffffffffffffffffffffff1603613beb576040517f08c379a0000000000000000000000000000000000000000000000000000000008152600401613be290615bc1565b60405180910390fd5b613bf481613eda565b15613c34576040517f08c379a0000000000000000000000000000000000000000000000000000000008152600401613c2b90615c2d565b60405180910390fd5b613c42600083836001613f1b565b613c4b81613eda565b15613c8b576040517f08c379a0000000000000000000000000000000000000000000000000000000008152600401613c8290615c2d565b60405180910390fd5b6001600360008473ffffffffffffffffffffffffffffffffffffffff1673ffffffffffffffffffffffffffffffffffffffff16815260200190815260200160002060008282540192505081905550816002600083815260200190815260200160002060006101000a81548173ffffffffffffffffffffffffffffffffffffffff021916908373ffffffffffffffffffffffffffffffffffffffff160217905550808273ffffffffffffffffffffffffffffffffffffffff16600073ffffffffffffffffffffffffffffffffffffffff167fddf252ad1be2c89b69c2b068fc378daa952ba7f163c4a11628f55a4df523b3ef60405160405180910390a4613d95600083836001613f21565b5050565b613da48484846135d3565b613db084848484613f27565b613def576040517f08c379a0000000000000000000000000000000000000000000000000000000008152600401613de690615cbf565b60405180910390fd5b50505050565b606060405180602001604052806000815250905090565b606060006001613e1b846140ae565b01905060008167ffffffffffffffff811115613e3a57613e39614819565b5b6040519080825280601f01601f191660200182016040528015613e6c5781602001600182028036833780820191505090505b509050600082602001820190505b600115613ecf578080600190039150507f3031323334353637383961626364656600000000000000000000000000000000600a86061a8153600a8581613ec357613ec26152be565b5b04945060008503613e7a575b819350505050919050565b60008073ffffffffffffffffffffffffffffffffffffffff16613efc836139af565b73ffffffffffffffffffffffffffffffffffffffff1614159050919050565b50505050565b50505050565b6000613f488473ffffffffffffffffffffffffffffffffffffffff16614201565b156140a1578373ffffffffffffffffffffffffffffffffffffffff1663150b7a02613f7161347d565b8786866040518563ffffffff1660e01b8152600401613f939493929190615d34565b6020604051808303816000875af1925050508015613fcf57506040513d601f19601f82011682018060405250810190613fcc9190615d95565b60015b614051573d8060008114613fff576040519150601f19603f3d011682016040523d82523d6000602084013e614004565b606091505b506000815103614049576040517f08c379a000000000000000000000000000000000000000000000000000000000815260040161404090615cbf565b60405180910390fd5b805181602001fd5b63150b7a0260e01b7bffffffffffffffffffffffffffffffffffffffffffffffffffffffff1916817bffffffffffffffffffffffffffffffffffffffffffffffffffffffff1916149150506140a6565b600190505b949350505050565b600080600090507a184f03e93ff9f4daa797ed6e38ed64bf6a1f010000000000000000831061410c577a184f03e93ff9f4daa797ed6e38ed64bf6a1f0100000000000000008381614102576141016152be565b5b0492506040810190505b6d04ee2d6d415b85acef81000000008310614149576d04ee2d6d415b85acef8100000000838161413f5761413e6152be565b5b0492506020810190505b662386f26fc10000831061417857662386f26fc10000838161416e5761416d6152be565b5b0492506010810190505b6305f5e10083106141a1576305f5e1008381614197576141966152be565b5b0492506008810190505b61271083106141c65761271083816141bc576141bb6152be565b5b0492506004810190505b606483106141e957606483816141df576141de6152be565b5b0492506002810190505b600a83106141f8576001810190505b80915050919050565b6000808273ffffffffffffffffffffffffffffffffffffffff163b119050919050565b6040518060e0016040528060008152602001606081526020016060815260200160001515815260200160001515815260200160008152602001600073ffffffffffffffffffffffffffffffffffffffff1681525090565b8280548282559060005260206000209081019282156142b7579160200282015b828111156142b657825182559160200191906001019061429b565b5b5090506142c491906142c8565b5090565b5b808211156142e15760008160009055506001016142c9565b5090565b6000604051905090565b600080fd5b600080fd5b60007fffffffff0000000000000000000000000000000000000000000000000000000082169050919050565b61432e816142f9565b811461433957600080fd5b50565b60008135905061434b81614325565b92915050565b600060208284031215614367576143666142ef565b5b60006143758482850161433c565b91505092915050565b60008115159050919050565b6143938161437e565b82525050565b60006020820190506143ae600083018461438a565b92915050565b600081519050919050565b600082825260208201905092915050565b60005b838110156143ee5780820151818401526020810190506143d3565b60008484015250505050565b6000601f19601f8301169050919050565b6000614416826143b4565b61442081856143bf565b93506144308185602086016143d0565b614439816143fa565b840191505092915050565b6000602082019050818103600083015261445e818461440b565b905092915050565b6000819050919050565b61447981614466565b811461448457600080fd5b50565b60008135905061449681614470565b92915050565b6000602082840312156144b2576144b16142ef565b5b60006144c084828501614487565b91505092915050565b600073ffffffffffffffffffffffffffffffffffffffff82169050919050565b60006144f4826144c9565b9050919050565b614504816144e9565b82525050565b600060208201905061451f60008301846144fb565b92915050565b61452e816144e9565b811461453957600080fd5b50565b60008135905061454b81614525565b92915050565b60008060408385031215614568576145676142ef565b5b60006145768582860161453c565b925050602061458785828601614487565b9150509250929050565b6000806000606084860312156145aa576145a96142ef565b5b60006145b88682870161453c565b93505060206145c98682870161453c565b92505060406145da86828701614487565b9150509250925092565b600081519050919050565b600082825260208201905092915050565b6000819050602082019050919050565b61461981614466565b82525050565b600082825260208201905092915050565b600061463b826143b4565b614645818561461f565b93506146558185602086016143d0565b61465e816143fa565b840191505092915050565b6146728161437e565b82525050565b614681816144e9565b82525050565b600060e08301600083015161469f6000860182614610565b50602083015184820360208601526146b78282614630565b915050604083015184820360408601526146d18282614630565b91505060608301516146e66060860182614669565b5060808301516146f96080860182614669565b5060a083015161470c60a0860182614610565b5060c083015161471f60c0860182614678565b508091505092915050565b60006147368383614687565b905092915050565b6000602082019050919050565b6000614756826145e4565b61476081856145ef565b93508360208202850161477285614600565b8060005b858110156147ae578484038952815161478f858261472a565b945061479a8361473e565b925060208a01995050600181019050614776565b50829750879550505050505092915050565b600060208201905081810360008301526147da818461474b565b905092915050565b6000602082840312156147f8576147f76142ef565b5b60006148068482850161453c565b91505092915050565b600080fd5b600080fd5b7f4e487b7100000000000000000000000000000000000000000000000000000000600052604160045260246000fd5b614851826143fa565b810181811067ffffffffffffffff821117156148705761486f614819565b5b80604052505050565b60006148836142e5565b905061488f8282614848565b919050565b600067ffffffffffffffff8211156148af576148ae614819565b5b6148b8826143fa565b9050602081019050919050565b82818337600083830152505050565b60006148e76148e284614894565b614879565b90508281526020810184848401111561490357614902614814565b5b61490e8482856148c5565b509392505050565b600082601f83011261492b5761492a61480f565b5b813561493b8482602086016148d4565b91505092915050565b60006020828403121561495a576149596142ef565b5b600082013567ffffffffffffffff811115614978576149776142f4565b5b61498484828501614916565b91505092915050565b61499681614466565b82525050565b60006020820190506149b1600083018461498d565b92915050565b6149c08161437e565b81146149cb57600080fd5b50565b6000813590506149dd816149b7565b92915050565b600080604083850312156149fa576149f96142ef565b5b6000614a088582860161453c565b9250506020614a19858286016149ce565b9150509250929050565b600080600060608486031215614a3c57614a3b6142ef565b5b600084013567ffffffffffffffff811115614a5a57614a596142f4565b5b614a6686828701614916565b9350506020614a7786828701614487565b925050604084013567ffffffffffffffff811115614a9857614a976142f4565b5b614aa486828701614916565b9150509250925092565b6000606082019050614ac360008301866144fb565b8181036020830152614ad5818561440b565b9050614ae4604083018461498d565b949350505050565b600067ffffffffffffffff821115614b0757614b06614819565b5b614b10826143fa565b9050602081019050919050565b6000614b30614b2b84614aec565b614879565b905082815260208101848484011115614b4c57614b4b614814565b5b614b578482856148c5565b509392505050565b600082601f830112614b7457614b7361480f565b5b8135614b84848260208601614b1d565b91505092915050565b60008060008060808587031215614ba757614ba66142ef565b5b6000614bb58782880161453c565b9450506020614bc68782880161453c565b9350506040614bd787828801614487565b925050606085013567ffffffffffffffff811115614bf857614bf76142f4565b5b614c0487828801614b5f565b91505092959194509250565b600060e082019050614c25600083018a61498d565b8181036020830152614c37818961440b565b90508181036040830152614c4b818861440b565b9050614c5a606083018761438a565b614c67608083018661438a565b614c7460a083018561498d565b614c8160c08301846144fb565b98975050505050505050565b6000606082019050614ca2600083018661498d565b614caf60208301856144fb565b614cbc604083018461498d565b949350505050565b60008060408385031215614cdb57614cda6142ef565b5b6000614ce98582860161453c565b9250506020614cfa8582860161453c565b9150509250929050565b7f4e487b7100000000000000000000000000000000000000000000000000000000600052602260045260246000fd5b60006002820490506001821680614d4b57607f821691505b602082108103614d5e57614d5d614d04565b5b50919050565b7f4552433732313a20617070726f76616c20746f2063757272656e74206f776e6560008201527f7200000000000000000000000000000000000000000000000000000000000000602082015250565b6000614dc06021836143bf565b9150614dcb82614d64565b604082019050919050565b60006020820190508181036000830152614def81614db3565b9050919050565b7f4552433732313a20617070726f76652063616c6c6572206973206e6f7420746f60008201527f6b656e206f776e6572206f7220617070726f76656420666f7220616c6c000000602082015250565b6000614e52603d836143bf565b9150614e5d82614df6565b604082019050919050565b60006020820190508181036000830152614e8181614e45565b9050919050565b7f4974656d206e6f74206c697374656420666f722072656e742e00000000000000600082015250565b6000614ebe6019836143bf565b9150614ec982614e88565b602082019050919050565b60006020820190508181036000830152614eed81614eb1565b9050919050565b7f4e6f7420746865206f776e6572206f6620746865206974656d2e000000000000600082015250565b6000614f2a601a836143bf565b9150614f3582614ef4565b602082019050919050565b60006020820190508181036000830152614f5981614f1d565b9050919050565b7f4552433732313a2063616c6c6572206973206e6f7420746f6b656e206f776e6560008201527f72206f7220617070726f76656400000000000000000000000000000000000000602082015250565b6000614fbc602d836143bf565b9150614fc782614f60565b604082019050919050565b60006020820190508181036000830152614feb81614faf565b9050919050565b7f4974656d206e6f74206c697374656420666f722073616c652e00000000000000600082015250565b60006150286019836143bf565b915061503382614ff2565b602082019050919050565b600060208201905081810360008301526150578161501b565b9050919050565b7f4e487b7100000000000000000000000000000000000000000000000000000000600052601160045260246000fd5b600061509882614466565b91506150a383614466565b92508282019050808211156150bb576150ba61505e565b5b92915050565b7f4e487b7100000000000000000000000000000000000000000000000000000000600052603260045260246000fd5b60006150fb82614466565b91507fffffffffffffffffffffffffffffffffffffffffffffffffffffffffffffffff820361512d5761512c61505e565b5b600182019050919050565b7f4f6e6c792041646d696e206f7065726174696f6e730000000000000000000000600082015250565b600061516e6015836143bf565b915061517982615138565b602082019050919050565b6000602082019050818103600083015261519d81615161565b9050919050565b7f4e6f74207468652072656e746572206f6620746865206974656d2e0000000000600082015250565b60006151da601b836143bf565b91506151e5826151a4565b602082019050919050565b60006020820190508181036000830152615209816151cd565b9050919050565b7f4974656d20616c7265616479206c697374656420666f722072656e742e000000600082015250565b6000615246601d836143bf565b915061525182615210565b602082019050919050565b6000602082019050818103600083015261527581615239565b9050919050565b600061528782614466565b915061529283614466565b92508282026152a081614466565b915082820484148315176152b7576152b661505e565b5b5092915050565b7f4e487b7100000000000000000000000000000000000000000000000000000000600052601260045260246000fd5b60006152f882614466565b915061530383614466565b925082615313576153126152be565b5b828204905092915050565b7f4552433732313a20696e76616c696420746f6b656e2049440000000000000000600082015250565b60006153546018836143bf565b915061535f8261531e565b602082019050919050565b6000602082019050818103600083015261538381615347565b9050919050565b7f55736572206e6f7420726567697374657265642e000000000000000000000000600082015250565b60006153c06014836143bf565b91506153cb8261538a565b602082019050919050565b600060208201905081810360008301526153ef816153b3565b9050919050565b7f5573657220616c726561647920726567697374657265642e0000000000000000600082015250565b600061542c6018836143bf565b9150615437826153f6565b602082019050919050565b6000602082019050818103600083015261545b8161541f565b9050919050565b60008190508160005260206000209050919050565b60006020601f8301049050919050565b600082821b905092915050565b6000600883026154c47fffffffffffffffffffffffffffffffffffffffffffffffffffffffffffffffff82615487565b6154ce8683615487565b95508019841693508086168417925050509392505050565b6000819050919050565b600061550b61550661550184614466565b6154e6565b614466565b9050919050565b6000819050919050565b615525836154f0565b61553961553182615512565b848454615494565b825550505050565b600090565b61554e615541565b61555981848461551c565b505050565b5b8181101561557d57615572600082615546565b60018101905061555f565b5050565b601f8211156155c25761559381615462565b61559c84615477565b810160208510156155ab578190505b6155bf6155b785615477565b83018261555e565b50505b505050565b600082821c905092915050565b60006155e5600019846008026155c7565b1980831691505092915050565b60006155fe83836155d4565b9150826002028217905092915050565b615617826143b4565b67ffffffffffffffff8111156156305761562f614819565b5b61563a8254614d33565b615645828285615581565b600060209050601f8311600181146156785760008415615666578287015190505b61567085826155f2565b8655506156d8565b601f19841661568686615462565b60005b828110156156ae57848901518255600182019150602085019450602081019050615689565b868310156156cb57848901516156c7601f8916826155d4565b8355505b6001600288020188555050505b505050505050565b7f4552433732313a2061646472657373207a65726f206973206e6f74206120766160008201527f6c6964206f776e65720000000000000000000000000000000000000000000000602082015250565b600061573c6029836143bf565b9150615747826156e0565b604082019050919050565b6000602082019050818103600083015261576b8161572f565b9050919050565b600061577d82614466565b915061578883614466565b92508282039050818111156157a05761579f61505e565b5b92915050565b7f4e487b7100000000000000000000000000000000000000000000000000000000600052603160045260246000fd5b600081905092915050565b60006157eb826143b4565b6157f581856157d5565b93506158058185602086016143d0565b80840191505092915050565b600061581d82856157e0565b915061582982846157e0565b91508190509392505050565b7f496e73756666696369656e742066756e64732e00000000000000000000000000600082015250565b600061586b6013836143bf565b915061587682615835565b602082019050919050565b6000602082019050818103600083015261589a8161585e565b9050919050565b7f43616e6e6f742072656e74206f776e206974656d2e0000000000000000000000600082015250565b60006158d76015836143bf565b91506158e2826158a1565b602082019050919050565b60006020820190508181036000830152615906816158ca565b9050919050565b7f4974656d20616c7265616479206c697374656420666f722073616c652e000000600082015250565b6000615943601d836143bf565b915061594e8261590d565b602082019050919050565b6000602082019050818103600083015261597281615936565b9050919050565b7f43616e6e6f7420627579206f776e206974656d2e000000000000000000000000600082015250565b60006159af6014836143bf565b91506159ba82615979565b602082019050919050565b600060208201905081810360008301526159de816159a2565b9050919050565b7f4552433732313a207472616e736665722066726f6d20696e636f72726563742060008201527f6f776e6572000000000000000000000000000000000000000000000000000000602082015250565b6000615a416025836143bf565b9150615a4c826159e5565b604082019050919050565b60006020820190508181036000830152615a7081615a34565b9050919050565b7f4552433732313a207472616e7366657220746f20746865207a65726f2061646460008201527f7265737300000000000000000000000000000000000000000000000000000000602082015250565b6000615ad36024836143bf565b9150615ade82615a77565b604082019050919050565b60006020820190508181036000830152615b0281615ac6565b9050919050565b7f4552433732313a20617070726f766520746f2063616c6c657200000000000000600082015250565b6000615b3f6019836143bf565b9150615b4a82615b09565b602082019050919050565b60006020820190508181036000830152615b6e81615b32565b9050919050565b7f4552433732313a206d696e7420746f20746865207a65726f2061646472657373600082015250565b6000615bab6020836143bf565b9150615bb682615b75565b602082019050919050565b60006020820190508181036000830152615bda81615b9e565b9050919050565b7f4552433732313a20746f6b656e20616c7265616479206d696e74656400000000600082015250565b6000615c17601c836143bf565b9150615c2282615be1565b602082019050919050565b60006020820190508181036000830152615c4681615c0a565b9050919050565b7f4552433732313a207472616e7366657220746f206e6f6e20455243373231526560008201527f63656976657220696d706c656d656e7465720000000000000000000000000000602082015250565b6000615ca96032836143bf565b9150615cb482615c4d565b604082019050919050565b60006020820190508181036000830152615cd881615c9c565b9050919050565b600081519050919050565b600082825260208201905092915050565b6000615d0682615cdf565b615d108185615cea565b9350615d208185602086016143d0565b615d29816143fa565b840191505092915050565b6000608082019050615d4960008301876144fb565b615d5660208301866144fb565b615d63604083018561498d565b8181036060830152615d758184615cfb565b905095945050505050565b600081519050615d8f81614325565b92915050565b600060208284031215615dab57615daa6142ef565b5b6000615db984828501615d80565b9150509291505056fea26469706673582212200cc3abe717974b86afab1eae1ad05c723c6d133d3da9aa5aa9844cf0ab19d7d364736f6c63430008130033",
  "immutableReferences": {},
  "source": "// SPDX-License-Identifier: MIT\npragma solidity ^0.8.0;\n\nimport \"@openzeppelin/contracts/token/ERC721/ERC721.sol\";\nimport \"@openzeppelin/contracts/utils/Counters.sol\";\nimport \"@openzeppelin/contracts/utils/Address.sol\";\n\n\ncontract GameItems is ERC721 {\n    using Counters for Counters.Counter;\n    Counters.Counter private _tokenIds;\n\n    address admin;\n\n    struct User {\n        address walletAddress;\n        string username;\n        uint256 balance;\n        uint256[] ownedItemIds;\n        uint256[] rentedItemIds;\n    }\n\n    struct Item {\n        uint256 itemId;\n        string name;\n        string description;\n        bool isAvailableForRent;\n        bool isAvailableForSale;\n        uint256 price;\n        address owner;\n    }\n\n    struct SaleListing {\n        uint256 itemId;\n        address seller;\n        uint256 price;\n    }\n\n    struct RentListing {\n        uint256 itemId;\n        address owner;\n        uint256 gameRentPrice;\n    }\n\n    mapping(address => User) public users;\n    mapping(uint256 => Item) public items;\n    mapping(uint256 => SaleListing) public listings;\n    mapping(uint256 => RentListing) public rentListings;\n\n\n\n    constructor(string memory _username) ERC721(\"GameItems\", \"GI\") payable {\n        admin = msg.sender;\n        users[msg.sender] = User(msg.sender, _username, msg.value, new uint256[](0), new uint256[](0));\n    }\n\n    modifier onlyRegistered() {\n        require(users[msg.sender].walletAddress != address(0),\"User not registered.\");\n        _;\n    }\n\n    modifier onlyOwner(uint256 _itemId) {\n        require(ownerOf(_itemId) == msg.sender, \"Not the owner of the item.\");\n        _;\n    }\n\n    modifier onlyAdmin() {\n        require(admin==msg.sender,\"Only Admin operations\");\n        _;\n    }\n\n    function getUser(address useraddr) public returns  (string memory){\n        require(users[useraddr].walletAddress != address(0), \"User not registered.\");\n        string memory userA = users[useraddr].username;\n        return userA;\n    }\n\n    // function getItemsAsArray() public returns (Item[] memory) {\n    //     uint256 count = 0;\n    //     for (uint i = 1; i <= _tokenIds.current(); i++) {\n    //         if (items[i].itemId != 0) {\n    //             count++;\n    //         }\n    //     }\n    //     Item[] memory result = new Item[](count);\n    //     uint256 index = 0;\n    //     for (uint i = 1; i <= _tokenIds.current(); i++) {\n    //         if (items[i].itemId != 0) {\n    //             result[index] = items[i];\n    //             index++;\n    //         }\n    //     }\n    //     return result;\n    // }\n\n    function getItemsByUser() public returns (Item[] memory) {\n        uint256[] memory itemslist = users[msg.sender].ownedItemIds;\n\n        uint256 index=0;\n        Item[] memory result = new Item[](itemslist.length+1);\n        for (uint i=0; i<itemslist.length; i++) {\n\n            result[index++] = items[itemslist[i]];\n        }\n        \n        return result;\n\n    }\n\n    function registerUser(string memory _username) public payable {\n        require(users[msg.sender].walletAddress == address(0), \"User already registered.\");\n        users[msg.sender] = User(msg.sender, _username, msg.value, new uint256[](0), new uint256[](0));\n    }\n\n    function addItem(string memory _name,uint256 price, string memory _description) public onlyRegistered returns (uint256) {\n        _tokenIds.increment();\n        uint256 newItemId = _tokenIds.current();\n        _mint(msg.sender, newItemId);\n        items[newItemId] = Item(newItemId,_name,_description,false,false,price,msg.sender);\n        users[msg.sender].ownedItemIds.push(newItemId);\n        return newItemId;\n    }\n\n\n    // Sale related functions\n\n    function listItemForSale(uint256 _itemId) public onlyOwner(_itemId) returns (bool){\n        // require(ownerOf(_itemId) == msg.sender, \"Not the owner of the item.\");\n        require(!isItemForSale(_itemId), \"Item already listed for sale.\");\n        uint256 _price = items[_itemId].price;\n        listings[_itemId] = SaleListing(_itemId, msg.sender, _price);\n        items[_itemId].isAvailableForSale = true;\n        return true;\n    }\n\n    function isItemForSale(uint256 _itemId) public view returns (bool) {\n        return listings[_itemId].itemId != 0 && listings[_itemId].seller != address(0);\n    }\n\n    function buyItem(uint256 _itemId) public payable {\n        require(isItemForSale(_itemId), \"Item not listed for sale.\");\n        require(msg.value >= listings[_itemId].price, \"Insufficient funds.\");\n        address seller = listings[_itemId].seller;\n        require(seller != msg.sender, \"Cannot buy own item.\");\n        require(users[msg.sender].walletAddress != address(0),\"User not registered.\");\n\n        _transfer(seller, msg.sender, _itemId);\n        users[msg.sender].ownedItemIds.push(_itemId);\n\n        for (uint i = 0; i < users[seller].ownedItemIds.length; i++) {\n            if (users[seller].ownedItemIds[i] == _itemId) {\n                users[seller].ownedItemIds[i] = users[seller].ownedItemIds[users[seller].ownedItemIds.length - 1];\n                users[seller].ownedItemIds.pop();\n                break;\n            }\n        }\n\n        items[_itemId].owner = msg.sender;\n        users[seller].balance += listings[_itemId].price;\n        users[msg.sender].balance -= listings[_itemId].price;\n        payable(seller).transfer(listings[_itemId].price);\n        delete listings[_itemId];\n    }\n\n    function cancelListing(uint256 _itemId) public {\n        require(isItemForSale(_itemId), \"Item not listed for sale.\");\n        require(listings[_itemId].seller == msg.sender, \"Not the owner of the item.\");\n\n        delete listings[_itemId];\n    }\n\n    // function changeSaleState(uint256 _itemId) public {\n    //     require(ownerOf(_itemId) == msg.sender, \"Not the owner of the item.\");\n    //     require(isItemForSale(_itemId), \"Item not listed for sale.\");\n\n    //     rentListings[_itemId] = RentListing(_itemId,msg.sender,items[_itemId].price*2/10);\n        \n    //     delete listings[_itemId];\n    // } \n\n\n\n\n\n\n    // rent related functions\n\n    function listItemForRent(uint256 _itemId) public {\n        require(ownerOf(_itemId) == msg.sender, \"Not the owner of the item.\");\n        require(!isItemForRent(_itemId), \"Item already listed for rent.\");\n        uint256 _gameRentPrice = items[_itemId].price * 2 / 10;\n        rentListings[_itemId] = RentListing(_itemId, msg.sender, _gameRentPrice);\n    }\n\n\n\n    function isItemForRent(uint256 _itemId) public view returns (bool) {\n        return rentListings[_itemId].itemId != 0 && rentListings[_itemId].owner != address(0);\n    }\n\n    \n\n    function rentItem(uint256 _itemId) public payable {\n        require(isItemForRent(_itemId), \"Item not listed for rent.\");\n        uint256 totalRentPrice = rentListings[_itemId].gameRentPrice;\n        require(msg.value >= totalRentPrice, \"Insufficient funds.\");\n\n        address owner = rentListings[_itemId].owner;\n        require(owner != msg.sender, \"Cannot rent own item.\");\n        require(users[msg.sender].walletAddress != address(0),\"User not registered.\");\n\n        // users[msg.sender].rentedItemIds.push(_itemId)\n\n        // items[_itemId].renter = msg.sender;\n        users[msg.sender].rentedItemIds.push(_itemId);\n        users[owner].balance += totalRentPrice;\n        users[msg.sender].balance -= totalRentPrice;\n        payable(owner).transfer(totalRentPrice);\n        delete rentListings[_itemId];\n    }\n\n    function isUserRentingItem(address user, uint256 _itemId) internal view returns (bool) {\n        for (uint i = 0; i < users[user].rentedItemIds.length; i++) {\n            if (users[user].rentedItemIds[i] == _itemId) {\n                return true;\n            }\n        }\n        return false;\n    }\n\n\n    function playGame(uint256 _itemId) public {\n        require(isUserRentingItem(msg.sender,_itemId),\"Not the renter of the item.\");\n\n        // require(items[_itemId].renter != msg.sender, \"Not the renter of the item.\");\n        // require(ownerOf(_itemId) == msg.sender, \"Not the owner of the item.\");\n        require(!isItemForRent(_itemId), \"Item already listed for rent.\");\n\n        uint256 _gameRentPrice = items[_itemId].price * 2 / 10;\n\n        rentListings[_itemId] = RentListing(_itemId, msg.sender, _gameRentPrice);\n\n        returnRentedItem(_itemId);\n        // cancelRentListing(_itemId);\n    }\n\n    function returnRentedItem(uint256 _itemId) public {\n        require(isUserRentingItem(msg.sender,_itemId), \"Not the renter of the item.\");\n\n        // items[_itemId].renter = address(0);\n\n        for (uint i = 0; i < users[msg.sender].rentedItemIds.length; i++) {\n            if (users[msg.sender].rentedItemIds[i] == _itemId) {\n                users[msg.sender].rentedItemIds[i] = users[msg.sender].rentedItemIds[users[msg.sender].rentedItemIds.length - 1];\n                users[msg.sender].rentedItemIds.pop();\n                break;\n            }\n        }\n    }\n    function cancelRentListing(uint256 _itemId) public {\n        require(isItemForRent(_itemId), \"Item not listed for rent.\");\n        require(rentListings[_itemId].owner == msg.sender, \"Not the owner of the item.\");\n        delete rentListings[_itemId];\n    }\n\n    function changeRentState(uint256 _itemId) public {\n        require(ownerOf(_itemId) == msg.sender, \"Not the owner of the item.\");\n        require(isItemForRent(_itemId), \"Item not listed for sale.\");\n\n        listings[_itemId] = SaleListing(_itemId,msg.sender,items[_itemId].price);\n\n        delete rentListings[_itemId];\n    } \n\n    function close() public onlyAdmin {\n        selfdestruct(payable(msg.sender));   \n    }\n}",
  "sourcePath": "/Users/sriharshithapalala/Downloads/Blockchain/App-contract/contracts/Games.sol",
  "compiler": {
    "name": "solc",
    "version": "0.8.19+commit.7dd6d404.Emscripten.clang"
  },
  "schemaVersion": "3.4.13",
  "updatedAt": "2023-04-21T00:56:27.580Z",
  "networkType": "ethereum",
  "devdoc": {
    "events": {
      "Approval(address,address,uint256)": {
        "details": "Emitted when `owner` enables `approved` to manage the `tokenId` token."
      },
      "ApprovalForAll(address,address,bool)": {
        "details": "Emitted when `owner` enables or disables (`approved`) `operator` to manage all of its assets."
      },
      "Transfer(address,address,uint256)": {
        "details": "Emitted when `tokenId` token is transferred from `from` to `to`."
      }
    },
    "kind": "dev",
    "methods": {
      "approve(address,uint256)": {
        "details": "See {IERC721-approve}."
      },
      "balanceOf(address)": {
        "details": "See {IERC721-balanceOf}."
      },
      "getApproved(uint256)": {
        "details": "See {IERC721-getApproved}."
      },
      "isApprovedForAll(address,address)": {
        "details": "See {IERC721-isApprovedForAll}."
      },
      "name()": {
        "details": "See {IERC721Metadata-name}."
      },
      "ownerOf(uint256)": {
        "details": "See {IERC721-ownerOf}."
      },
      "safeTransferFrom(address,address,uint256)": {
        "details": "See {IERC721-safeTransferFrom}."
      },
      "safeTransferFrom(address,address,uint256,bytes)": {
        "details": "See {IERC721-safeTransferFrom}."
      },
      "setApprovalForAll(address,bool)": {
        "details": "See {IERC721-setApprovalForAll}."
      },
      "supportsInterface(bytes4)": {
        "details": "See {IERC165-supportsInterface}."
      },
      "symbol()": {
        "details": "See {IERC721Metadata-symbol}."
      },
      "tokenURI(uint256)": {
        "details": "See {IERC721Metadata-tokenURI}."
      },
      "transferFrom(address,address,uint256)": {
        "details": "See {IERC721-transferFrom}."
      }
    },
    "version": 1
  },
  "userdoc": {
    "kind": "user",
    "methods": {},
    "version": 1
  }
}