{
  "contractName": "GameItems",
  "abi": [
    {
      "inputs": [
        {
          "internalType": "string",
          "name": "_username",
          "type": "string"
        }
      ],
      "stateMutability": "payable",
      "type": "constructor",
      "payable": true
    },
    {
      "anonymous": false,
      "inputs": [
        {
          "indexed": true,
          "internalType": "address",
          "name": "owner",
          "type": "address"
        },
        {
          "indexed": true,
          "internalType": "address",
          "name": "approved",
          "type": "address"
        },
        {
          "indexed": true,
          "internalType": "uint256",
          "name": "tokenId",
          "type": "uint256"
        }
      ],
      "name": "Approval",
      "type": "event"
    },
    {
      "anonymous": false,
      "inputs": [
        {
          "indexed": true,
          "internalType": "address",
          "name": "owner",
          "type": "address"
        },
        {
          "indexed": true,
          "internalType": "address",
          "name": "operator",
          "type": "address"
        },
        {
          "indexed": false,
          "internalType": "bool",
          "name": "approved",
          "type": "bool"
        }
      ],
      "name": "ApprovalForAll",
      "type": "event"
    },
    {
      "anonymous": false,
      "inputs": [
        {
          "indexed": true,
          "internalType": "address",
          "name": "from",
          "type": "address"
        },
        {
          "indexed": true,
          "internalType": "address",
          "name": "to",
          "type": "address"
        },
        {
          "indexed": true,
          "internalType": "uint256",
          "name": "tokenId",
          "type": "uint256"
        }
      ],
      "name": "Transfer",
      "type": "event"
    },
    {
      "anonymous": false,
      "inputs": [
        {
          "indexed": true,
          "internalType": "address",
          "name": "from",
          "type": "address"
        },
        {
          "indexed": true,
          "internalType": "address",
          "name": "to",
          "type": "address"
        },
        {
          "indexed": true,
          "internalType": "uint256",
          "name": "itemId",
          "type": "uint256"
        }
      ],
      "name": "TransferItem",
      "type": "event"
    },
    {
      "inputs": [
        {
          "internalType": "address",
          "name": "to",
          "type": "address"
        },
        {
          "internalType": "uint256",
          "name": "tokenId",
          "type": "uint256"
        }
      ],
      "name": "approve",
      "outputs": [],
      "stateMutability": "nonpayable",
      "type": "function"
    },
    {
      "inputs": [
        {
          "internalType": "address",
          "name": "owner",
          "type": "address"
        }
      ],
      "name": "balanceOf",
      "outputs": [
        {
          "internalType": "uint256",
          "name": "",
          "type": "uint256"
        }
      ],
      "stateMutability": "view",
      "type": "function",
      "constant": true
    },
    {
      "inputs": [
        {
          "internalType": "uint256",
          "name": "tokenId",
          "type": "uint256"
        }
      ],
      "name": "getApproved",
      "outputs": [
        {
          "internalType": "address",
          "name": "",
          "type": "address"
        }
      ],
      "stateMutability": "view",
      "type": "function",
      "constant": true
    },
    {
      "inputs": [
        {
          "internalType": "address",
          "name": "owner",
          "type": "address"
        },
        {
          "internalType": "address",
          "name": "operator",
          "type": "address"
        }
      ],
      "name": "isApprovedForAll",
      "outputs": [
        {
          "internalType": "bool",
          "name": "",
          "type": "bool"
        }
      ],
      "stateMutability": "view",
      "type": "function",
      "constant": true
    },
    {
      "inputs": [
        {
          "internalType": "uint256",
          "name": "",
          "type": "uint256"
        }
      ],
      "name": "items",
      "outputs": [
        {
          "internalType": "uint256",
          "name": "itemId",
          "type": "uint256"
        },
        {
          "internalType": "string",
          "name": "name",
          "type": "string"
        },
        {
          "internalType": "string",
          "name": "description",
          "type": "string"
        },
        {
          "internalType": "bool",
          "name": "isAvailableForRent",
          "type": "bool"
        },
        {
          "internalType": "bool",
          "name": "isAvailableForSale",
          "type": "bool"
        },
        {
          "internalType": "uint256",
          "name": "price",
          "type": "uint256"
        },
        {
          "internalType": "uint256",
          "name": "rentPrice",
          "type": "uint256"
        },
        {
          "internalType": "address",
          "name": "owner",
          "type": "address"
        },
        {
          "internalType": "address",
          "name": "renteraddr",
          "type": "address"
        }
      ],
      "stateMutability": "view",
      "type": "function",
      "constant": true
    },
    {
      "inputs": [],
      "name": "name",
      "outputs": [
        {
          "internalType": "string",
          "name": "",
          "type": "string"
        }
      ],
      "stateMutability": "view",
      "type": "function",
      "constant": true
    },
    {
      "inputs": [
        {
          "internalType": "uint256",
          "name": "tokenId",
          "type": "uint256"
        }
      ],
      "name": "ownerOf",
      "outputs": [
        {
          "internalType": "address",
          "name": "",
          "type": "address"
        }
      ],
      "stateMutability": "view",
      "type": "function",
      "constant": true
    },
    {
      "inputs": [
        {
          "internalType": "address",
          "name": "from",
          "type": "address"
        },
        {
          "internalType": "address",
          "name": "to",
          "type": "address"
        },
        {
          "internalType": "uint256",
          "name": "tokenId",
          "type": "uint256"
        }
      ],
      "name": "safeTransferFrom",
      "outputs": [],
      "stateMutability": "nonpayable",
      "type": "function"
    },
    {
      "inputs": [
        {
          "internalType": "address",
          "name": "from",
          "type": "address"
        },
        {
          "internalType": "address",
          "name": "to",
          "type": "address"
        },
        {
          "internalType": "uint256",
          "name": "tokenId",
          "type": "uint256"
        },
        {
          "internalType": "bytes",
          "name": "data",
          "type": "bytes"
        }
      ],
      "name": "safeTransferFrom",
      "outputs": [],
      "stateMutability": "nonpayable",
      "type": "function"
    },
    {
      "inputs": [
        {
          "internalType": "address",
          "name": "operator",
          "type": "address"
        },
        {
          "internalType": "bool",
          "name": "approved",
          "type": "bool"
        }
      ],
      "name": "setApprovalForAll",
      "outputs": [],
      "stateMutability": "nonpayable",
      "type": "function"
    },
    {
      "inputs": [
        {
          "internalType": "bytes4",
          "name": "interfaceId",
          "type": "bytes4"
        }
      ],
      "name": "supportsInterface",
      "outputs": [
        {
          "internalType": "bool",
          "name": "",
          "type": "bool"
        }
      ],
      "stateMutability": "view",
      "type": "function",
      "constant": true
    },
    {
      "inputs": [],
      "name": "symbol",
      "outputs": [
        {
          "internalType": "string",
          "name": "",
          "type": "string"
        }
      ],
      "stateMutability": "view",
      "type": "function",
      "constant": true
    },
    {
      "inputs": [
        {
          "internalType": "uint256",
          "name": "tokenId",
          "type": "uint256"
        }
      ],
      "name": "tokenURI",
      "outputs": [
        {
          "internalType": "string",
          "name": "",
          "type": "string"
        }
      ],
      "stateMutability": "view",
      "type": "function",
      "constant": true
    },
    {
      "inputs": [
        {
          "internalType": "address",
          "name": "from",
          "type": "address"
        },
        {
          "internalType": "address",
          "name": "to",
          "type": "address"
        },
        {
          "internalType": "uint256",
          "name": "tokenId",
          "type": "uint256"
        }
      ],
      "name": "transferFrom",
      "outputs": [],
      "stateMutability": "nonpayable",
      "type": "function"
    },
    {
      "inputs": [
        {
          "internalType": "address",
          "name": "",
          "type": "address"
        }
      ],
      "name": "users",
      "outputs": [
        {
          "internalType": "address",
          "name": "walletAddress",
          "type": "address"
        },
        {
          "internalType": "string",
          "name": "username",
          "type": "string"
        },
        {
          "internalType": "uint256",
          "name": "balance",
          "type": "uint256"
        }
      ],
      "stateMutability": "view",
      "type": "function",
      "constant": true
    },
    {
      "inputs": [
        {
          "internalType": "address",
          "name": "useraddr",
          "type": "address"
        }
      ],
      "name": "getUser",
      "outputs": [
        {
          "internalType": "string",
          "name": "",
          "type": "string"
        }
      ],
      "stateMutability": "view",
      "type": "function",
      "constant": true
    },
    {
      "inputs": [],
      "name": "getItemsByUser",
      "outputs": [
        {
          "components": [
            {
              "internalType": "uint256",
              "name": "itemId",
              "type": "uint256"
            },
            {
              "internalType": "string",
              "name": "name",
              "type": "string"
            },
            {
              "internalType": "string",
              "name": "description",
              "type": "string"
            },
            {
              "internalType": "bool",
              "name": "isAvailableForRent",
              "type": "bool"
            },
            {
              "internalType": "bool",
              "name": "isAvailableForSale",
              "type": "bool"
            },
            {
              "internalType": "uint256",
              "name": "price",
              "type": "uint256"
            },
            {
              "internalType": "uint256",
              "name": "rentPrice",
              "type": "uint256"
            },
            {
              "internalType": "address",
              "name": "owner",
              "type": "address"
            },
            {
              "internalType": "address",
              "name": "renteraddr",
              "type": "address"
            }
          ],
          "internalType": "struct GameItems.Item[]",
          "name": "",
          "type": "tuple[]"
        }
      ],
      "stateMutability": "view",
      "type": "function",
      "constant": true
    },
    {
      "inputs": [],
      "name": "getAllItems",
      "outputs": [
        {
          "components": [
            {
              "internalType": "uint256",
              "name": "itemId",
              "type": "uint256"
            },
            {
              "internalType": "string",
              "name": "name",
              "type": "string"
            },
            {
              "internalType": "string",
              "name": "description",
              "type": "string"
            },
            {
              "internalType": "bool",
              "name": "isAvailableForRent",
              "type": "bool"
            },
            {
              "internalType": "bool",
              "name": "isAvailableForSale",
              "type": "bool"
            },
            {
              "internalType": "uint256",
              "name": "price",
              "type": "uint256"
            },
            {
              "internalType": "uint256",
              "name": "rentPrice",
              "type": "uint256"
            },
            {
              "internalType": "address",
              "name": "owner",
              "type": "address"
            },
            {
              "internalType": "address",
              "name": "renteraddr",
              "type": "address"
            }
          ],
          "internalType": "struct GameItems.Item[]",
          "name": "",
          "type": "tuple[]"
        }
      ],
      "stateMutability": "nonpayable",
      "type": "function"
    },
    {
      "inputs": [
        {
          "internalType": "string",
          "name": "_username",
          "type": "string"
        }
      ],
      "name": "registerUser",
      "outputs": [],
      "stateMutability": "payable",
      "type": "function",
      "payable": true
    },
    {
      "inputs": [
        {
          "internalType": "string",
          "name": "_name",
          "type": "string"
        },
        {
          "internalType": "uint256",
          "name": "price",
          "type": "uint256"
        },
        {
          "internalType": "string",
          "name": "_description",
          "type": "string"
        }
      ],
      "name": "addItem",
      "outputs": [
        {
          "internalType": "uint256",
          "name": "",
          "type": "uint256"
        }
      ],
      "stateMutability": "nonpayable",
      "type": "function"
    },
    {
      "inputs": [
        {
          "internalType": "uint256",
          "name": "_itemId",
          "type": "uint256"
        }
      ],
      "name": "listItemForSale",
      "outputs": [
        {
          "internalType": "bool",
          "name": "",
          "type": "bool"
        }
      ],
      "stateMutability": "nonpayable",
      "type": "function"
    },
    {
      "inputs": [
        {
          "internalType": "uint256",
          "name": "_itemId",
          "type": "uint256"
        }
      ],
      "name": "isItemForSale",
      "outputs": [
        {
          "internalType": "bool",
          "name": "",
          "type": "bool"
        }
      ],
      "stateMutability": "view",
      "type": "function",
      "constant": true
    },
    {
      "inputs": [
        {
          "internalType": "uint256",
          "name": "_itemId",
          "type": "uint256"
        }
      ],
      "name": "buyItem",
      "outputs": [],
      "stateMutability": "payable",
      "type": "function",
      "payable": true
    },
    {
      "inputs": [
        {
          "internalType": "uint256",
          "name": "_itemId",
          "type": "uint256"
        }
      ],
      "name": "listItemForRent",
      "outputs": [],
      "stateMutability": "nonpayable",
      "type": "function"
    },
    {
      "inputs": [
        {
          "internalType": "uint256",
          "name": "_itemId",
          "type": "uint256"
        }
      ],
      "name": "isItemForRent",
      "outputs": [
        {
          "internalType": "bool",
          "name": "",
          "type": "bool"
        }
      ],
      "stateMutability": "view",
      "type": "function",
      "constant": true
    },
    {
      "inputs": [
        {
          "internalType": "uint256",
          "name": "_itemId",
          "type": "uint256"
        }
      ],
      "name": "rentItem",
      "outputs": [],
      "stateMutability": "payable",
      "type": "function",
      "payable": true
    },
    {
      "inputs": [
        {
          "internalType": "uint256",
          "name": "_itemId",
          "type": "uint256"
        },
        {
          "internalType": "uint256",
          "name": "rating",
          "type": "uint256"
        }
      ],
      "name": "playGame",
      "outputs": [
        {
          "internalType": "uint256",
          "name": "",
          "type": "uint256"
        }
      ],
      "stateMutability": "nonpayable",
      "type": "function"
    },
    {
      "inputs": [
        {
          "internalType": "uint256",
          "name": "_itemId",
          "type": "uint256"
        }
      ],
      "name": "returnRentedItem",
      "outputs": [],
      "stateMutability": "nonpayable",
      "type": "function"
    }
  ],
  "bytecode": "0x6080604052604051620064b7380380620064b78339818101604052810190620000299190620004c7565b6040518060400160405280600981526020017f47616d654974656d7300000000000000000000000000000000000000000000008152506040518060400160405280600281526020017f47490000000000000000000000000000000000000000000000000000000000008152508160009081620000a6919062000763565b508060019081620000b8919062000763565b50505033600760006101000a81548173ffffffffffffffffffffffffffffffffffffffff021916908373ffffffffffffffffffffffffffffffffffffffff1602179055506040518060a001604052803373ffffffffffffffffffffffffffffffffffffffff168152602001828152602001348152602001600067ffffffffffffffff8111156200014d576200014c62000363565b5b6040519080825280602002602001820160405280156200017c5781602001602082028036833780820191505090505b508152602001600067ffffffffffffffff811115620001a0576200019f62000363565b5b604051908082528060200260200182016040528015620001cf5781602001602082028036833780820191505090505b50815250600860003373ffffffffffffffffffffffffffffffffffffffff1673ffffffffffffffffffffffffffffffffffffffff16815260200190815260200160002060008201518160000160006101000a81548173ffffffffffffffffffffffffffffffffffffffff021916908373ffffffffffffffffffffffffffffffffffffffff160217905550602082015181600101908162000270919062000763565b5060408201518160020155606082015181600301908051906020019062000299929190620002c3565b506080820151816004019080519060200190620002b8929190620002c3565b50905050506200084a565b82805482825590600052602060002090810192821562000302579160200282015b8281111562000301578251825591602001919060010190620002e4565b5b50905062000311919062000315565b5090565b5b808211156200033057600081600090555060010162000316565b5090565b6000604051905090565b600080fd5b600080fd5b600080fd5b600080fd5b6000601f19601f8301169050919050565b7f4e487b7100000000000000000000000000000000000000000000000000000000600052604160045260246000fd5b6200039d8262000352565b810181811067ffffffffffffffff82111715620003bf57620003be62000363565b5b80604052505050565b6000620003d462000334565b9050620003e2828262000392565b919050565b600067ffffffffffffffff82111562000405576200040462000363565b5b620004108262000352565b9050602081019050919050565b60005b838110156200043d57808201518184015260208101905062000420565b60008484015250505050565b6000620004606200045a84620003e7565b620003c8565b9050828152602081018484840111156200047f576200047e6200034d565b5b6200048c8482856200041d565b509392505050565b600082601f830112620004ac57620004ab62000348565b5b8151620004be84826020860162000449565b91505092915050565b600060208284031215620004e057620004df6200033e565b5b600082015167ffffffffffffffff81111562000501576200050062000343565b5b6200050f8482850162000494565b91505092915050565b600081519050919050565b7f4e487b7100000000000000000000000000000000000000000000000000000000600052602260045260246000fd5b600060028204905060018216806200056b57607f821691505b60208210810362000581576200058062000523565b5b50919050565b60008190508160005260206000209050919050565b60006020601f8301049050919050565b600082821b905092915050565b600060088302620005eb7fffffffffffffffffffffffffffffffffffffffffffffffffffffffffffffffff82620005ac565b620005f78683620005ac565b95508019841693508086168417925050509392505050565b6000819050919050565b6000819050919050565b6000620006446200063e62000638846200060f565b62000619565b6200060f565b9050919050565b6000819050919050565b620006608362000623565b620006786200066f826200064b565b848454620005b9565b825550505050565b600090565b6200068f62000680565b6200069c81848462000655565b505050565b5b81811015620006c457620006b860008262000685565b600181019050620006a2565b5050565b601f8211156200071357620006dd8162000587565b620006e8846200059c565b81016020851015620006f8578190505b6200071062000707856200059c565b830182620006a1565b50505b505050565b600082821c905092915050565b6000620007386000198460080262000718565b1980831691505092915050565b600062000753838362000725565b9150826002028217905092915050565b6200076e8262000518565b67ffffffffffffffff8111156200078a576200078962000363565b5b62000796825462000552565b620007a3828285620006c8565b600060209050601f831160018114620007db5760008415620007c6578287015190505b620007d2858262000745565b86555062000842565b601f198416620007eb8662000587565b60005b828110156200081557848901518255600182019150602085019450602081019050620007ee565b8683101562000835578489015162000831601f89168262000725565b8355505b6001600288020188555050505b505050505050565b615c5d806200085a6000396000f3fe6080604052600436106101b75760003560e01c8063a22cb465116100ec578063c87b56dd1161008a578063d92ed60b11610064578063d92ed60b14610668578063e7846b66146106a5578063e7fb74c7146106e2578063e985e9c5146106fe576101b7565b8063c87b56dd146105d2578063ce0958c41461060f578063d78d38521461064c576101b7565b8063a8cffa22116100c6578063a8cffa2214610512578063b36d8d8b1461053b578063b88d4fde14610564578063bfb231d21461058d576101b7565b8063a22cb4651461046d578063a3e54b3e14610496578063a87430ba146104d3576101b7565b806342842e0e116101595780636f77926b116101335780636f77926b146103ac578063704f1b94146103e957806370a082311461040557806395d89b4114610442576101b7565b806342842e0e1461031b5780634ba1d6aa146103445780636352211e1461036f576101b7565b8063095ea7b311610195578063095ea7b31461026157806323b872dd1461028a57806334825a23146102b35780633923f590146102f0576101b7565b806301ffc9a7146101bc57806306fdde03146101f9578063081812fc14610224575b600080fd5b3480156101c857600080fd5b506101e360048036038101906101de91906141d2565b61073b565b6040516101f0919061421a565b60405180910390f35b34801561020557600080fd5b5061020e61081d565b60405161021b91906142c5565b60405180910390f35b34801561023057600080fd5b5061024b6004803603810190610246919061431d565b6108af565b604051610258919061438b565b60405180910390f35b34801561026d57600080fd5b50610288600480360381019061028391906143d2565b6108f5565b005b34801561029657600080fd5b506102b160048036038101906102ac9190614412565b610a0c565b005b3480156102bf57600080fd5b506102da60048036038101906102d59190614465565b610a6c565b6040516102e791906144b4565b60405180910390f35b3480156102fc57600080fd5b50610305610d15565b60405161031291906146d4565b60405180910390f35b34801561032757600080fd5b50610342600480360381019061033d9190614412565b611193565b005b34801561035057600080fd5b506103596111b3565b60405161036691906146d4565b60405180910390f35b34801561037b57600080fd5b506103966004803603810190610391919061431d565b611585565b6040516103a3919061438b565b60405180910390f35b3480156103b857600080fd5b506103d360048036038101906103ce91906146f6565b61160b565b6040516103e091906142c5565b60405180910390f35b61040360048036038101906103fe9190614858565b6117b6565b005b34801561041157600080fd5b5061042c600480360381019061042791906146f6565b611a3c565b60405161043991906144b4565b60405180910390f35b34801561044e57600080fd5b50610457611af3565b60405161046491906142c5565b60405180910390f35b34801561047957600080fd5b50610494600480360381019061048f91906148cd565b611b85565b005b3480156104a257600080fd5b506104bd60048036038101906104b8919061490d565b611b9b565b6040516104ca91906144b4565b60405180910390f35b3480156104df57600080fd5b506104fa60048036038101906104f591906146f6565b611ebd565b60405161050993929190614998565b60405180910390f35b34801561051e57600080fd5b506105396004803603810190610534919061431d565b611f8f565b005b34801561054757600080fd5b50610562600480360381019061055d919061431d565b612223565b005b34801561057057600080fd5b5061058b60048036038101906105869190614a77565b612314565b005b34801561059957600080fd5b506105b460048036038101906105af919061431d565b612376565b6040516105c999989796959493929190614afa565b60405180910390f35b3480156105de57600080fd5b506105f960048036038101906105f4919061431d565b61252e565b60405161060691906142c5565b60405180910390f35b34801561061b57600080fd5b506106366004803603810190610631919061431d565b612596565b604051610643919061421a565b60405180910390f35b6106666004803603810190610661919061431d565b6125c3565b005b34801561067457600080fd5b5061068f600480360381019061068a919061431d565b6129ce565b60405161069c919061421a565b60405180910390f35b3480156106b157600080fd5b506106cc60048036038101906106c7919061431d565b612ac9565b6040516106d9919061421a565b60405180910390f35b6106fc60048036038101906106f7919061431d565b612af6565b005b34801561070a57600080fd5b5061072560048036038101906107209190614b95565b613190565b604051610732919061421a565b60405180910390f35b60007f80ac58cd000000000000000000000000000000000000000000000000000000007bffffffffffffffffffffffffffffffffffffffffffffffffffffffff1916827bffffffffffffffffffffffffffffffffffffffffffffffffffffffff1916148061080657507f5b5e139f000000000000000000000000000000000000000000000000000000007bffffffffffffffffffffffffffffffffffffffffffffffffffffffff1916827bffffffffffffffffffffffffffffffffffffffffffffffffffffffff1916145b80610816575061081582613224565b5b9050919050565b60606000805461082c90614c04565b80601f016020809104026020016040519081016040528092919081815260200182805461085890614c04565b80156108a55780601f1061087a576101008083540402835291602001916108a5565b820191906000526020600020905b81548152906001019060200180831161088857829003601f168201915b5050505050905090565b60006108ba8261328e565b6004600083815260200190815260200160002060009054906101000a900473ffffffffffffffffffffffffffffffffffffffff169050919050565b600061090082611585565b90508073ffffffffffffffffffffffffffffffffffffffff168373ffffffffffffffffffffffffffffffffffffffff1603610970576040517f08c379a000000000000000000000000000000000000000000000000000000000815260040161096790614ca7565b60405180910390fd5b8073ffffffffffffffffffffffffffffffffffffffff1661098f6132d9565b73ffffffffffffffffffffffffffffffffffffffff1614806109be57506109bd816109b86132d9565b613190565b5b6109fd576040517f08c379a00000000000000000000000000000000000000000000000000000000081526004016109f490614d39565b60405180910390fd5b610a0783836132e1565b505050565b610a1d610a176132d9565b8261339a565b610a5c576040517f08c379a0000000000000000000000000000000000000000000000000000000008152600401610a5390614dcb565b60405180910390fd5b610a6783838361342f565b505050565b6000610a783384613728565b610ab7576040517f08c379a0000000000000000000000000000000000000000000000000000000008152600401610aae90614e37565b60405180910390fd5b610ac083612596565b15610b00576040517f08c379a0000000000000000000000000000000000000000000000000000000008152600401610af790614ea3565b60405180910390fd5b60006009600085815260200190815260200160002060030160006101000a81548160ff02191690831515021790555060006009600085815260200190815260200160002060070160006101000a81548173ffffffffffffffffffffffffffffffffffffffff021916908373ffffffffffffffffffffffffffffffffffffffff16021790555060018203610c4557600a60096000858152602001908152602001600020600401546001610bb29190614ef2565b610bbc9190614f63565b6009600085815260200190815260200160002060040154610bdd9190614f94565b6009600085815260200190815260200160002060040181905550600a60026009600086815260200190815260200160002060040154610c1c9190614ef2565b610c269190614f63565b6009600085815260200190815260200160002060050181905550610d02565b60028203610d0157600a60096000858152602001908152602001600020600401546001610c729190614ef2565b610c7c9190614f63565b6009600085815260200190815260200160002060040154610c9d9190614fc8565b6009600085815260200190815260200160002060040181905550600a60026009600086815260200190815260200160002060040154610cdc9190614ef2565b610ce69190614f63565b60096000858152602001908152602001600020600501819055505b5b610d0b83611f8f565b6001905092915050565b6060600073ffffffffffffffffffffffffffffffffffffffff16600860003373ffffffffffffffffffffffffffffffffffffffff1673ffffffffffffffffffffffffffffffffffffffff16815260200190815260200160002060000160009054906101000a900473ffffffffffffffffffffffffffffffffffffffff1673ffffffffffffffffffffffffffffffffffffffff1603610de8576040517f08c379a0000000000000000000000000000000000000000000000000000000008152600401610ddf90615048565b60405180910390fd5b6000600860003373ffffffffffffffffffffffffffffffffffffffff1673ffffffffffffffffffffffffffffffffffffffff168152602001908152602001600020600301805480602002602001604051908101604052809291908181526020018280548015610e7657602002820191906000526020600020905b815481526020019060010190808311610e62575b5050505050905060008060018351610e8e9190614f94565b67ffffffffffffffff811115610ea757610ea661472d565b5b604051908082528060200260200182016040528015610ee057816020015b610ecd614080565b815260200190600190039081610ec55790505b50905060005b83518110156111895760096000858381518110610f0657610f05615068565b5b602002602001015181526020019081526020016000206040518061012001604052908160008201548152602001600182018054610f4290614c04565b80601f0160208091040260200160405190810160405280929190818152602001828054610f6e90614c04565b8015610fbb5780601f10610f9057610100808354040283529160200191610fbb565b820191906000526020600020905b815481529060010190602001808311610f9e57829003601f168201915b50505050508152602001600282018054610fd490614c04565b80601f016020809104026020016040519081016040528092919081815260200182805461100090614c04565b801561104d5780601f106110225761010080835404028352916020019161104d565b820191906000526020600020905b81548152906001019060200180831161103057829003601f168201915b505050505081526020016003820160009054906101000a900460ff161515151581526020016003820160019054906101000a900460ff1615151515815260200160048201548152602001600582015481526020016006820160009054906101000a900473ffffffffffffffffffffffffffffffffffffffff1673ffffffffffffffffffffffffffffffffffffffff1673ffffffffffffffffffffffffffffffffffffffff1681526020016007820160009054906101000a900473ffffffffffffffffffffffffffffffffffffffff1673ffffffffffffffffffffffffffffffffffffffff1673ffffffffffffffffffffffffffffffffffffffff168152505082848061115890615097565b95508151811061116b5761116a615068565b5b6020026020010181905250808061118190615097565b915050610ee6565b5080935050505090565b6111ae83838360405180602001604052806000815250612314565b505050565b6060600073ffffffffffffffffffffffffffffffffffffffff16600860003373ffffffffffffffffffffffffffffffffffffffff1673ffffffffffffffffffffffffffffffffffffffff16815260200190815260200160002060000160009054906101000a900473ffffffffffffffffffffffffffffffffffffffff1673ffffffffffffffffffffffffffffffffffffffff1603611286576040517f08c379a000000000000000000000000000000000000000000000000000000000815260040161127d90615048565b60405180910390fd5b600080611293600661380b565b905060008167ffffffffffffffff8111156112b1576112b061472d565b5b6040519080825280602002602001820160405280156112ea57816020015b6112d7614080565b8152602001906001900390816112cf5790505b5090506000600190505b82811161157b5760096000828152602001908152602001600020604051806101200160405290816000820154815260200160018201805461133490614c04565b80601f016020809104026020016040519081016040528092919081815260200182805461136090614c04565b80156113ad5780601f10611382576101008083540402835291602001916113ad565b820191906000526020600020905b81548152906001019060200180831161139057829003601f168201915b505050505081526020016002820180546113c690614c04565b80601f01602080910402602001604051908101604052809291908181526020018280546113f290614c04565b801561143f5780601f106114145761010080835404028352916020019161143f565b820191906000526020600020905b81548152906001019060200180831161142257829003601f168201915b505050505081526020016003820160009054906101000a900460ff161515151581526020016003820160019054906101000a900460ff1615151515815260200160048201548152602001600582015481526020016006820160009054906101000a900473ffffffffffffffffffffffffffffffffffffffff1673ffffffffffffffffffffffffffffffffffffffff1673ffffffffffffffffffffffffffffffffffffffff1681526020016007820160009054906101000a900473ffffffffffffffffffffffffffffffffffffffff1673ffffffffffffffffffffffffffffffffffffffff1673ffffffffffffffffffffffffffffffffffffffff168152505082858061154a90615097565b96508151811061155d5761155c615068565b5b6020026020010181905250808061157390615097565b9150506112f4565b5080935050505090565b60008061159183613819565b9050600073ffffffffffffffffffffffffffffffffffffffff168173ffffffffffffffffffffffffffffffffffffffff1603611602576040517f08c379a00000000000000000000000000000000000000000000000000000000081526004016115f99061512b565b60405180910390fd5b80915050919050565b6060600073ffffffffffffffffffffffffffffffffffffffff16600860008473ffffffffffffffffffffffffffffffffffffffff1673ffffffffffffffffffffffffffffffffffffffff16815260200190815260200160002060000160009054906101000a900473ffffffffffffffffffffffffffffffffffffffff1673ffffffffffffffffffffffffffffffffffffffff16036116de576040517f08c379a00000000000000000000000000000000000000000000000000000000081526004016116d590615048565b60405180910390fd5b6000600860008473ffffffffffffffffffffffffffffffffffffffff1673ffffffffffffffffffffffffffffffffffffffff168152602001908152602001600020600101805461172d90614c04565b80601f016020809104026020016040519081016040528092919081815260200182805461175990614c04565b80156117a65780601f1061177b576101008083540402835291602001916117a6565b820191906000526020600020905b81548152906001019060200180831161178957829003601f168201915b5050505050905080915050919050565b600073ffffffffffffffffffffffffffffffffffffffff16600860003373ffffffffffffffffffffffffffffffffffffffff1673ffffffffffffffffffffffffffffffffffffffff16815260200190815260200160002060000160009054906101000a900473ffffffffffffffffffffffffffffffffffffffff1673ffffffffffffffffffffffffffffffffffffffff1614611887576040517f08c379a000000000000000000000000000000000000000000000000000000000815260040161187e90615197565b60405180910390fd5b6040518060a001604052803373ffffffffffffffffffffffffffffffffffffffff168152602001828152602001348152602001600067ffffffffffffffff8111156118d5576118d461472d565b5b6040519080825280602002602001820160405280156119035781602001602082028036833780820191505090505b508152602001600067ffffffffffffffff8111156119245761192361472d565b5b6040519080825280602002602001820160405280156119525781602001602082028036833780820191505090505b50815250600860003373ffffffffffffffffffffffffffffffffffffffff1673ffffffffffffffffffffffffffffffffffffffff16815260200190815260200160002060008201518160000160006101000a81548173ffffffffffffffffffffffffffffffffffffffff021916908373ffffffffffffffffffffffffffffffffffffffff16021790555060208201518160010190816119f19190615363565b50604082015181600201556060820151816003019080519060200190611a189291906140fc565b506080820151816004019080519060200190611a359291906140fc565b5090505050565b60008073ffffffffffffffffffffffffffffffffffffffff168273ffffffffffffffffffffffffffffffffffffffff1603611aac576040517f08c379a0000000000000000000000000000000000000000000000000000000008152600401611aa3906154a7565b60405180910390fd5b600360008373ffffffffffffffffffffffffffffffffffffffff1673ffffffffffffffffffffffffffffffffffffffff168152602001908152602001600020549050919050565b606060018054611b0290614c04565b80601f0160208091040260200160405190810160405280929190818152602001828054611b2e90614c04565b8015611b7b5780601f10611b5057610100808354040283529160200191611b7b565b820191906000526020600020905b815481529060010190602001808311611b5e57829003601f168201915b5050505050905090565b611b97611b906132d9565b8383613856565b5050565b60008073ffffffffffffffffffffffffffffffffffffffff16600860003373ffffffffffffffffffffffffffffffffffffffff1673ffffffffffffffffffffffffffffffffffffffff16815260200190815260200160002060000160009054906101000a900473ffffffffffffffffffffffffffffffffffffffff1673ffffffffffffffffffffffffffffffffffffffff1603611c6d576040517f08c379a0000000000000000000000000000000000000000000000000000000008152600401611c6490615048565b60405180910390fd5b611c7760066139c2565b6000611c83600661380b565b9050611c8f33826139d8565b604051806101200160405280828152602001868152602001848152602001600015158152602001600015158152602001858152602001600a600287611cd49190614ef2565b611cde9190614f63565b81526020013373ffffffffffffffffffffffffffffffffffffffff168152602001600073ffffffffffffffffffffffffffffffffffffffff1681525060096000838152602001908152602001600020600082015181600001556020820151816001019081611d4c9190615363565b506040820151816002019081611d629190615363565b5060608201518160030160006101000a81548160ff02191690831515021790555060808201518160030160016101000a81548160ff02191690831515021790555060a0820151816004015560c0820151816005015560e08201518160060160006101000a81548173ffffffffffffffffffffffffffffffffffffffff021916908373ffffffffffffffffffffffffffffffffffffffff1602179055506101008201518160070160006101000a81548173ffffffffffffffffffffffffffffffffffffffff021916908373ffffffffffffffffffffffffffffffffffffffff160217905550905050600860003373ffffffffffffffffffffffffffffffffffffffff1673ffffffffffffffffffffffffffffffffffffffff168152602001908152602001600020600301819080600181540180825580915050600190039060005260206000200160009091909190915055809150509392505050565b60086020528060005260406000206000915090508060000160009054906101000a900473ffffffffffffffffffffffffffffffffffffffff1690806001018054611f0690614c04565b80601f0160208091040260200160405190810160405280929190818152602001828054611f3290614c04565b8015611f7f5780601f10611f5457610100808354040283529160200191611f7f565b820191906000526020600020905b815481529060010190602001808311611f6257829003601f168201915b5050505050908060020154905083565b611f993382613728565b611fd8576040517f08c379a0000000000000000000000000000000000000000000000000000000008152600401611fcf90614e37565b60405180910390fd5b60005b600860003373ffffffffffffffffffffffffffffffffffffffff1673ffffffffffffffffffffffffffffffffffffffff1681526020019081526020016000206004018054905081101561221f5781600860003373ffffffffffffffffffffffffffffffffffffffff1673ffffffffffffffffffffffffffffffffffffffff168152602001908152602001600020600401828154811061207d5761207c615068565b5b90600052602060002001540361220c57600860003373ffffffffffffffffffffffffffffffffffffffff1673ffffffffffffffffffffffffffffffffffffffff1681526020019081526020016000206004016001600860003373ffffffffffffffffffffffffffffffffffffffff1673ffffffffffffffffffffffffffffffffffffffff168152602001908152602001600020600401805490506121219190614fc8565b8154811061213257612131615068565b5b9060005260206000200154600860003373ffffffffffffffffffffffffffffffffffffffff1673ffffffffffffffffffffffffffffffffffffffff168152602001908152602001600020600401828154811061219157612190615068565b5b9060005260206000200181905550600860003373ffffffffffffffffffffffffffffffffffffffff1673ffffffffffffffffffffffffffffffffffffffff1681526020019081526020016000206004018054806121f1576121f06154c7565b5b6001900381819060005260206000200160009055905561221f565b808061221790615097565b915050611fdb565b5050565b3373ffffffffffffffffffffffffffffffffffffffff1661224382611585565b73ffffffffffffffffffffffffffffffffffffffff1614612299576040517f08c379a000000000000000000000000000000000000000000000000000000000815260040161229090615542565b60405180910390fd5b6122a281612596565b156122e2576040517f08c379a00000000000000000000000000000000000000000000000000000000081526004016122d990614ea3565b60405180910390fd5b60016009600083815260200190815260200160002060030160006101000a81548160ff02191690831515021790555050565b61232561231f6132d9565b8361339a565b612364576040517f08c379a000000000000000000000000000000000000000000000000000000000815260040161235b90614dcb565b60405180910390fd5b61237084848484613bf5565b50505050565b600960205280600052604060002060009150905080600001549080600101805461239f90614c04565b80601f01602080910402602001604051908101604052809291908181526020018280546123cb90614c04565b80156124185780601f106123ed57610100808354040283529160200191612418565b820191906000526020600020905b8154815290600101906020018083116123fb57829003601f168201915b50505050509080600201805461242d90614c04565b80601f016020809104026020016040519081016040528092919081815260200182805461245990614c04565b80156124a65780601f1061247b576101008083540402835291602001916124a6565b820191906000526020600020905b81548152906001019060200180831161248957829003601f168201915b5050505050908060030160009054906101000a900460ff16908060030160019054906101000a900460ff16908060040154908060050154908060060160009054906101000a900473ffffffffffffffffffffffffffffffffffffffff16908060070160009054906101000a900473ffffffffffffffffffffffffffffffffffffffff16905089565b60606125398261328e565b6000612543613c51565b90506000815111612563576040518060200160405280600081525061258e565b8061256d84613c68565b60405160200161257e92919061559e565b6040516020818303038152906040525b915050919050565b60006009600083815260200190815260200160002060030160009054906101000a900460ff169050919050565b6125cc81612596565b61260b576040517f08c379a00000000000000000000000000000000000000000000000000000000081526004016126029061560e565b60405180910390fd5b60006009600083815260200190815260200160002060050154905080341015612669576040517f08c379a00000000000000000000000000000000000000000000000000000000081526004016126609061567a565b60405180910390fd5b60006009600084815260200190815260200160002060060160009054906101000a900473ffffffffffffffffffffffffffffffffffffffff1690503373ffffffffffffffffffffffffffffffffffffffff168173ffffffffffffffffffffffffffffffffffffffff1603612712576040517f08c379a0000000000000000000000000000000000000000000000000000000008152600401612709906156e6565b60405180910390fd5b600073ffffffffffffffffffffffffffffffffffffffff16600860003373ffffffffffffffffffffffffffffffffffffffff1673ffffffffffffffffffffffffffffffffffffffff16815260200190815260200160002060000160009054906101000a900473ffffffffffffffffffffffffffffffffffffffff1673ffffffffffffffffffffffffffffffffffffffff16036127e3576040517f08c379a00000000000000000000000000000000000000000000000000000000081526004016127da90615048565b60405180910390fd5b600860003373ffffffffffffffffffffffffffffffffffffffff1673ffffffffffffffffffffffffffffffffffffffff16815260200190815260200160002060040183908060018154018082558091505060019003906000526020600020016000909190919091505581600860008373ffffffffffffffffffffffffffffffffffffffff1673ffffffffffffffffffffffffffffffffffffffff168152602001908152602001600020600201600082825461289e9190614f94565b9250508190555081600860003373ffffffffffffffffffffffffffffffffffffffff1673ffffffffffffffffffffffffffffffffffffffff16815260200190815260200160002060020160008282546128f79190614fc8565b925050819055508073ffffffffffffffffffffffffffffffffffffffff166108fc839081150290604051600060405180830381858888f19350505050158015612944573d6000803e3d6000fd5b5060006009600085815260200190815260200160002060030160006101000a81548160ff021916908315150217905550336009600085815260200190815260200160002060070160006101000a81548173ffffffffffffffffffffffffffffffffffffffff021916908373ffffffffffffffffffffffffffffffffffffffff160217905550505050565b6000813373ffffffffffffffffffffffffffffffffffffffff166129f182611585565b73ffffffffffffffffffffffffffffffffffffffff1614612a47576040517f08c379a0000000000000000000000000000000000000000000000000000000008152600401612a3e90615542565b60405180910390fd5b612a5083612ac9565b15612a90576040517f08c379a0000000000000000000000000000000000000000000000000000000008152600401612a8790615752565b60405180910390fd5b60016009600085815260200190815260200160002060030160016101000a81548160ff0219169083151502179055506001915050919050565b60006009600083815260200190815260200160002060030160019054906101000a900460ff169050919050565b612aff81612ac9565b612b3e576040517f08c379a0000000000000000000000000000000000000000000000000000000008152600401612b35906157be565b60405180910390fd5b6009600082815260200190815260200160002060040154341015612b97576040517f08c379a0000000000000000000000000000000000000000000000000000000008152600401612b8e9061567a565b60405180910390fd5b60006009600083815260200190815260200160002060060160009054906101000a900473ffffffffffffffffffffffffffffffffffffffff1690503373ffffffffffffffffffffffffffffffffffffffff168173ffffffffffffffffffffffffffffffffffffffff1603612c40576040517f08c379a0000000000000000000000000000000000000000000000000000000008152600401612c379061582a565b60405180910390fd5b600073ffffffffffffffffffffffffffffffffffffffff16600860003373ffffffffffffffffffffffffffffffffffffffff1673ffffffffffffffffffffffffffffffffffffffff16815260200190815260200160002060000160009054906101000a900473ffffffffffffffffffffffffffffffffffffffff1673ffffffffffffffffffffffffffffffffffffffff1603612d11576040517f08c379a0000000000000000000000000000000000000000000000000000000008152600401612d0890615048565b60405180910390fd5b612d1c81338461342f565b600860003373ffffffffffffffffffffffffffffffffffffffff1673ffffffffffffffffffffffffffffffffffffffff16815260200190815260200160002060030182908060018154018082558091505060019003906000526020600020016000909190919091505560005b600860008373ffffffffffffffffffffffffffffffffffffffff1673ffffffffffffffffffffffffffffffffffffffff16815260200190815260200160002060030180549050811015612fcc5782600860008473ffffffffffffffffffffffffffffffffffffffff1673ffffffffffffffffffffffffffffffffffffffff1681526020019081526020016000206003018281548110612e2a57612e29615068565b5b906000526020600020015403612fb957600860008373ffffffffffffffffffffffffffffffffffffffff1673ffffffffffffffffffffffffffffffffffffffff1681526020019081526020016000206003016001600860008573ffffffffffffffffffffffffffffffffffffffff1673ffffffffffffffffffffffffffffffffffffffff16815260200190815260200160002060030180549050612ece9190614fc8565b81548110612edf57612ede615068565b5b9060005260206000200154600860008473ffffffffffffffffffffffffffffffffffffffff1673ffffffffffffffffffffffffffffffffffffffff1681526020019081526020016000206003018281548110612f3e57612f3d615068565b5b9060005260206000200181905550600860008373ffffffffffffffffffffffffffffffffffffffff1673ffffffffffffffffffffffffffffffffffffffff168152602001908152602001600020600301805480612f9e57612f9d6154c7565b5b60019003818190600052602060002001600090559055612fcc565b8080612fc490615097565b915050612d88565b50336009600084815260200190815260200160002060060160006101000a81548173ffffffffffffffffffffffffffffffffffffffff021916908373ffffffffffffffffffffffffffffffffffffffff16021790555060006009600084815260200190815260200160002060030160016101000a81548160ff0219169083151502179055506009600083815260200190815260200160002060040154600860008373ffffffffffffffffffffffffffffffffffffffff1673ffffffffffffffffffffffffffffffffffffffff16815260200190815260200160002060020160008282546130b99190614f94565b925050819055506009600083815260200190815260200160002060040154600860003373ffffffffffffffffffffffffffffffffffffffff1673ffffffffffffffffffffffffffffffffffffffff16815260200190815260200160002060020160008282546131289190614fc8565b925050819055508073ffffffffffffffffffffffffffffffffffffffff166108fc60096000858152602001908152602001600020600401549081150290604051600060405180830381858888f1935050505015801561318b573d6000803e3d6000fd5b505050565b6000600560008473ffffffffffffffffffffffffffffffffffffffff1673ffffffffffffffffffffffffffffffffffffffff16815260200190815260200160002060008373ffffffffffffffffffffffffffffffffffffffff1673ffffffffffffffffffffffffffffffffffffffff16815260200190815260200160002060009054906101000a900460ff16905092915050565b60007f01ffc9a7000000000000000000000000000000000000000000000000000000007bffffffffffffffffffffffffffffffffffffffffffffffffffffffff1916827bffffffffffffffffffffffffffffffffffffffffffffffffffffffff1916149050919050565b61329781613d36565b6132d6576040517f08c379a00000000000000000000000000000000000000000000000000000000081526004016132cd9061512b565b60405180910390fd5b50565b600033905090565b816004600083815260200190815260200160002060006101000a81548173ffffffffffffffffffffffffffffffffffffffff021916908373ffffffffffffffffffffffffffffffffffffffff160217905550808273ffffffffffffffffffffffffffffffffffffffff1661335483611585565b73ffffffffffffffffffffffffffffffffffffffff167f8c5be1e5ebec7d5bd14f71427d1e84f3dd0314c0f7b2291e5b200ac8c7c3b92560405160405180910390a45050565b6000806133a683611585565b90508073ffffffffffffffffffffffffffffffffffffffff168473ffffffffffffffffffffffffffffffffffffffff1614806133e857506133e78185613190565b5b8061342657508373ffffffffffffffffffffffffffffffffffffffff1661340e846108af565b73ffffffffffffffffffffffffffffffffffffffff16145b91505092915050565b8273ffffffffffffffffffffffffffffffffffffffff1661344f82611585565b73ffffffffffffffffffffffffffffffffffffffff16146134a5576040517f08c379a000000000000000000000000000000000000000000000000000000000815260040161349c906158bc565b60405180910390fd5b600073ffffffffffffffffffffffffffffffffffffffff168273ffffffffffffffffffffffffffffffffffffffff1603613514576040517f08c379a000000000000000000000000000000000000000000000000000000000815260040161350b9061594e565b60405180910390fd5b6135218383836001613d77565b8273ffffffffffffffffffffffffffffffffffffffff1661354182611585565b73ffffffffffffffffffffffffffffffffffffffff1614613597576040517f08c379a000000000000000000000000000000000000000000000000000000000815260040161358e906158bc565b60405180910390fd5b6004600082815260200190815260200160002060006101000a81549073ffffffffffffffffffffffffffffffffffffffff02191690556001600360008573ffffffffffffffffffffffffffffffffffffffff1673ffffffffffffffffffffffffffffffffffffffff168152602001908152602001600020600082825403925050819055506001600360008473ffffffffffffffffffffffffffffffffffffffff1673ffffffffffffffffffffffffffffffffffffffff16815260200190815260200160002060008282540192505081905550816002600083815260200190815260200160002060006101000a81548173ffffffffffffffffffffffffffffffffffffffff021916908373ffffffffffffffffffffffffffffffffffffffff160217905550808273ffffffffffffffffffffffffffffffffffffffff168473ffffffffffffffffffffffffffffffffffffffff167fddf252ad1be2c89b69c2b068fc378daa952ba7f163c4a11628f55a4df523b3ef60405160405180910390a46137238383836001613d7d565b505050565b600080600090505b600860008573ffffffffffffffffffffffffffffffffffffffff1673ffffffffffffffffffffffffffffffffffffffff168152602001908152602001600020600401805490508110156137ff5782600860008673ffffffffffffffffffffffffffffffffffffffff1673ffffffffffffffffffffffffffffffffffffffff16815260200190815260200160002060040182815481106137d2576137d1615068565b5b9060005260206000200154036137ec576001915050613805565b80806137f790615097565b915050613730565b50600090505b92915050565b600081600001549050919050565b60006002600083815260200190815260200160002060009054906101000a900473ffffffffffffffffffffffffffffffffffffffff169050919050565b8173ffffffffffffffffffffffffffffffffffffffff168373ffffffffffffffffffffffffffffffffffffffff16036138c4576040517f08c379a00000000000000000000000000000000000000000000000000000000081526004016138bb906159ba565b60405180910390fd5b80600560008573ffffffffffffffffffffffffffffffffffffffff1673ffffffffffffffffffffffffffffffffffffffff16815260200190815260200160002060008473ffffffffffffffffffffffffffffffffffffffff1673ffffffffffffffffffffffffffffffffffffffff16815260200190815260200160002060006101000a81548160ff0219169083151502179055508173ffffffffffffffffffffffffffffffffffffffff168373ffffffffffffffffffffffffffffffffffffffff167f17307eab39ab6107e8899845ad3d59bd9653f200f220920489ca2b5937696c31836040516139b5919061421a565b60405180910390a3505050565b6001816000016000828254019250508190555050565b600073ffffffffffffffffffffffffffffffffffffffff168273ffffffffffffffffffffffffffffffffffffffff1603613a47576040517f08c379a0000000000000000000000000000000000000000000000000000000008152600401613a3e90615a26565b60405180910390fd5b613a5081613d36565b15613a90576040517f08c379a0000000000000000000000000000000000000000000000000000000008152600401613a8790615a92565b60405180910390fd5b613a9e600083836001613d77565b613aa781613d36565b15613ae7576040517f08c379a0000000000000000000000000000000000000000000000000000000008152600401613ade90615a92565b60405180910390fd5b6001600360008473ffffffffffffffffffffffffffffffffffffffff1673ffffffffffffffffffffffffffffffffffffffff16815260200190815260200160002060008282540192505081905550816002600083815260200190815260200160002060006101000a81548173ffffffffffffffffffffffffffffffffffffffff021916908373ffffffffffffffffffffffffffffffffffffffff160217905550808273ffffffffffffffffffffffffffffffffffffffff16600073ffffffffffffffffffffffffffffffffffffffff167fddf252ad1be2c89b69c2b068fc378daa952ba7f163c4a11628f55a4df523b3ef60405160405180910390a4613bf1600083836001613d7d565b5050565b613c0084848461342f565b613c0c84848484613d83565b613c4b576040517f08c379a0000000000000000000000000000000000000000000000000000000008152600401613c4290615b24565b60405180910390fd5b50505050565b606060405180602001604052806000815250905090565b606060006001613c7784613f0a565b01905060008167ffffffffffffffff811115613c9657613c9561472d565b5b6040519080825280601f01601f191660200182016040528015613cc85781602001600182028036833780820191505090505b509050600082602001820190505b600115613d2b578080600190039150507f3031323334353637383961626364656600000000000000000000000000000000600a86061a8153600a8581613d1f57613d1e614f34565b5b04945060008503613cd6575b819350505050919050565b60008073ffffffffffffffffffffffffffffffffffffffff16613d5883613819565b73ffffffffffffffffffffffffffffffffffffffff1614159050919050565b50505050565b50505050565b6000613da48473ffffffffffffffffffffffffffffffffffffffff1661405d565b15613efd578373ffffffffffffffffffffffffffffffffffffffff1663150b7a02613dcd6132d9565b8786866040518563ffffffff1660e01b8152600401613def9493929190615b99565b6020604051808303816000875af1925050508015613e2b57506040513d601f19601f82011682018060405250810190613e289190615bfa565b60015b613ead573d8060008114613e5b576040519150601f19603f3d011682016040523d82523d6000602084013e613e60565b606091505b506000815103613ea5576040517f08c379a0000000000000000000000000000000000000000000000000000000008152600401613e9c90615b24565b60405180910390fd5b805181602001fd5b63150b7a0260e01b7bffffffffffffffffffffffffffffffffffffffffffffffffffffffff1916817bffffffffffffffffffffffffffffffffffffffffffffffffffffffff191614915050613f02565b600190505b949350505050565b600080600090507a184f03e93ff9f4daa797ed6e38ed64bf6a1f0100000000000000008310613f68577a184f03e93ff9f4daa797ed6e38ed64bf6a1f0100000000000000008381613f5e57613f5d614f34565b5b0492506040810190505b6d04ee2d6d415b85acef81000000008310613fa5576d04ee2d6d415b85acef81000000008381613f9b57613f9a614f34565b5b0492506020810190505b662386f26fc100008310613fd457662386f26fc100008381613fca57613fc9614f34565b5b0492506010810190505b6305f5e1008310613ffd576305f5e1008381613ff357613ff2614f34565b5b0492506008810190505b612710831061402257612710838161401857614017614f34565b5b0492506004810190505b60648310614045576064838161403b5761403a614f34565b5b0492506002810190505b600a8310614054576001810190505b80915050919050565b6000808273ffffffffffffffffffffffffffffffffffffffff163b119050919050565b6040518061012001604052806000815260200160608152602001606081526020016000151581526020016000151581526020016000815260200160008152602001600073ffffffffffffffffffffffffffffffffffffffff168152602001600073ffffffffffffffffffffffffffffffffffffffff1681525090565b828054828255906000526020600020908101928215614138579160200282015b8281111561413757825182559160200191906001019061411c565b5b5090506141459190614149565b5090565b5b8082111561416257600081600090555060010161414a565b5090565b6000604051905090565b600080fd5b600080fd5b60007fffffffff0000000000000000000000000000000000000000000000000000000082169050919050565b6141af8161417a565b81146141ba57600080fd5b50565b6000813590506141cc816141a6565b92915050565b6000602082840312156141e8576141e7614170565b5b60006141f6848285016141bd565b91505092915050565b60008115159050919050565b614214816141ff565b82525050565b600060208201905061422f600083018461420b565b92915050565b600081519050919050565b600082825260208201905092915050565b60005b8381101561426f578082015181840152602081019050614254565b60008484015250505050565b6000601f19601f8301169050919050565b600061429782614235565b6142a18185614240565b93506142b1818560208601614251565b6142ba8161427b565b840191505092915050565b600060208201905081810360008301526142df818461428c565b905092915050565b6000819050919050565b6142fa816142e7565b811461430557600080fd5b50565b600081359050614317816142f1565b92915050565b60006020828403121561433357614332614170565b5b600061434184828501614308565b91505092915050565b600073ffffffffffffffffffffffffffffffffffffffff82169050919050565b60006143758261434a565b9050919050565b6143858161436a565b82525050565b60006020820190506143a0600083018461437c565b92915050565b6143af8161436a565b81146143ba57600080fd5b50565b6000813590506143cc816143a6565b92915050565b600080604083850312156143e9576143e8614170565b5b60006143f7858286016143bd565b925050602061440885828601614308565b9150509250929050565b60008060006060848603121561442b5761442a614170565b5b6000614439868287016143bd565b935050602061444a868287016143bd565b925050604061445b86828701614308565b9150509250925092565b6000806040838503121561447c5761447b614170565b5b600061448a85828601614308565b925050602061449b85828601614308565b9150509250929050565b6144ae816142e7565b82525050565b60006020820190506144c960008301846144a5565b92915050565b600081519050919050565b600082825260208201905092915050565b6000819050602082019050919050565b614504816142e7565b82525050565b600082825260208201905092915050565b600061452682614235565b614530818561450a565b9350614540818560208601614251565b6145498161427b565b840191505092915050565b61455d816141ff565b82525050565b61456c8161436a565b82525050565b60006101208301600083015161458b60008601826144fb565b50602083015184820360208601526145a3828261451b565b915050604083015184820360408601526145bd828261451b565b91505060608301516145d26060860182614554565b5060808301516145e56080860182614554565b5060a08301516145f860a08601826144fb565b5060c083015161460b60c08601826144fb565b5060e083015161461e60e0860182614563565b50610100830151614633610100860182614563565b508091505092915050565b600061464a8383614572565b905092915050565b6000602082019050919050565b600061466a826144cf565b61467481856144da565b935083602082028501614686856144eb565b8060005b858110156146c257848403895281516146a3858261463e565b94506146ae83614652565b925060208a0199505060018101905061468a565b50829750879550505050505092915050565b600060208201905081810360008301526146ee818461465f565b905092915050565b60006020828403121561470c5761470b614170565b5b600061471a848285016143bd565b91505092915050565b600080fd5b600080fd5b7f4e487b7100000000000000000000000000000000000000000000000000000000600052604160045260246000fd5b6147658261427b565b810181811067ffffffffffffffff821117156147845761478361472d565b5b80604052505050565b6000614797614166565b90506147a3828261475c565b919050565b600067ffffffffffffffff8211156147c3576147c261472d565b5b6147cc8261427b565b9050602081019050919050565b82818337600083830152505050565b60006147fb6147f6846147a8565b61478d565b90508281526020810184848401111561481757614816614728565b5b6148228482856147d9565b509392505050565b600082601f83011261483f5761483e614723565b5b813561484f8482602086016147e8565b91505092915050565b60006020828403121561486e5761486d614170565b5b600082013567ffffffffffffffff81111561488c5761488b614175565b5b6148988482850161482a565b91505092915050565b6148aa816141ff565b81146148b557600080fd5b50565b6000813590506148c7816148a1565b92915050565b600080604083850312156148e4576148e3614170565b5b60006148f2858286016143bd565b9250506020614903858286016148b8565b9150509250929050565b60008060006060848603121561492657614925614170565b5b600084013567ffffffffffffffff81111561494457614943614175565b5b6149508682870161482a565b935050602061496186828701614308565b925050604084013567ffffffffffffffff81111561498257614981614175565b5b61498e8682870161482a565b9150509250925092565b60006060820190506149ad600083018661437c565b81810360208301526149bf818561428c565b90506149ce60408301846144a5565b949350505050565b600067ffffffffffffffff8211156149f1576149f061472d565b5b6149fa8261427b565b9050602081019050919050565b6000614a1a614a15846149d6565b61478d565b905082815260208101848484011115614a3657614a35614728565b5b614a418482856147d9565b509392505050565b600082601f830112614a5e57614a5d614723565b5b8135614a6e848260208601614a07565b91505092915050565b60008060008060808587031215614a9157614a90614170565b5b6000614a9f878288016143bd565b9450506020614ab0878288016143bd565b9350506040614ac187828801614308565b925050606085013567ffffffffffffffff811115614ae257614ae1614175565b5b614aee87828801614a49565b91505092959194509250565b600061012082019050614b10600083018c6144a5565b8181036020830152614b22818b61428c565b90508181036040830152614b36818a61428c565b9050614b45606083018961420b565b614b52608083018861420b565b614b5f60a08301876144a5565b614b6c60c08301866144a5565b614b7960e083018561437c565b614b8761010083018461437c565b9a9950505050505050505050565b60008060408385031215614bac57614bab614170565b5b6000614bba858286016143bd565b9250506020614bcb858286016143bd565b9150509250929050565b7f4e487b7100000000000000000000000000000000000000000000000000000000600052602260045260246000fd5b60006002820490506001821680614c1c57607f821691505b602082108103614c2f57614c2e614bd5565b5b50919050565b7f4552433732313a20617070726f76616c20746f2063757272656e74206f776e6560008201527f7200000000000000000000000000000000000000000000000000000000000000602082015250565b6000614c91602183614240565b9150614c9c82614c35565b604082019050919050565b60006020820190508181036000830152614cc081614c84565b9050919050565b7f4552433732313a20617070726f76652063616c6c6572206973206e6f7420746f60008201527f6b656e206f776e6572206f7220617070726f76656420666f7220616c6c000000602082015250565b6000614d23603d83614240565b9150614d2e82614cc7565b604082019050919050565b60006020820190508181036000830152614d5281614d16565b9050919050565b7f4552433732313a2063616c6c6572206973206e6f7420746f6b656e206f776e6560008201527f72206f7220617070726f76656400000000000000000000000000000000000000602082015250565b6000614db5602d83614240565b9150614dc082614d59565b604082019050919050565b60006020820190508181036000830152614de481614da8565b9050919050565b7f4e6f74207468652072656e746572206f6620746865206974656d2e0000000000600082015250565b6000614e21601b83614240565b9150614e2c82614deb565b602082019050919050565b60006020820190508181036000830152614e5081614e14565b9050919050565b7f4974656d20616c7265616479206c697374656420666f722072656e742e000000600082015250565b6000614e8d601d83614240565b9150614e9882614e57565b602082019050919050565b60006020820190508181036000830152614ebc81614e80565b9050919050565b7f4e487b7100000000000000000000000000000000000000000000000000000000600052601160045260246000fd5b6000614efd826142e7565b9150614f08836142e7565b9250828202614f16816142e7565b91508282048414831517614f2d57614f2c614ec3565b5b5092915050565b7f4e487b7100000000000000000000000000000000000000000000000000000000600052601260045260246000fd5b6000614f6e826142e7565b9150614f79836142e7565b925082614f8957614f88614f34565b5b828204905092915050565b6000614f9f826142e7565b9150614faa836142e7565b9250828201905080821115614fc257614fc1614ec3565b5b92915050565b6000614fd3826142e7565b9150614fde836142e7565b9250828203905081811115614ff657614ff5614ec3565b5b92915050565b7f55736572206e6f7420726567697374657265642e000000000000000000000000600082015250565b6000615032601483614240565b915061503d82614ffc565b602082019050919050565b6000602082019050818103600083015261506181615025565b9050919050565b7f4e487b7100000000000000000000000000000000000000000000000000000000600052603260045260246000fd5b60006150a2826142e7565b91507fffffffffffffffffffffffffffffffffffffffffffffffffffffffffffffffff82036150d4576150d3614ec3565b5b600182019050919050565b7f4552433732313a20696e76616c696420746f6b656e2049440000000000000000600082015250565b6000615115601883614240565b9150615120826150df565b602082019050919050565b6000602082019050818103600083015261514481615108565b9050919050565b7f5573657220616c726561647920726567697374657265642e0000000000000000600082015250565b6000615181601883614240565b915061518c8261514b565b602082019050919050565b600060208201905081810360008301526151b081615174565b9050919050565b60008190508160005260206000209050919050565b60006020601f8301049050919050565b600082821b905092915050565b6000600883026152197fffffffffffffffffffffffffffffffffffffffffffffffffffffffffffffffff826151dc565b61522386836151dc565b95508019841693508086168417925050509392505050565b6000819050919050565b600061526061525b615256846142e7565b61523b565b6142e7565b9050919050565b6000819050919050565b61527a83615245565b61528e61528682615267565b8484546151e9565b825550505050565b600090565b6152a3615296565b6152ae818484615271565b505050565b5b818110156152d2576152c760008261529b565b6001810190506152b4565b5050565b601f821115615317576152e8816151b7565b6152f1846151cc565b81016020851015615300578190505b61531461530c856151cc565b8301826152b3565b50505b505050565b600082821c905092915050565b600061533a6000198460080261531c565b1980831691505092915050565b60006153538383615329565b9150826002028217905092915050565b61536c82614235565b67ffffffffffffffff8111156153855761538461472d565b5b61538f8254614c04565b61539a8282856152d6565b600060209050601f8311600181146153cd57600084156153bb578287015190505b6153c58582615347565b86555061542d565b601f1984166153db866151b7565b60005b82811015615403578489015182556001820191506020850194506020810190506153de565b86831015615420578489015161541c601f891682615329565b8355505b6001600288020188555050505b505050505050565b7f4552433732313a2061646472657373207a65726f206973206e6f74206120766160008201527f6c6964206f776e65720000000000000000000000000000000000000000000000602082015250565b6000615491602983614240565b915061549c82615435565b604082019050919050565b600060208201905081810360008301526154c081615484565b9050919050565b7f4e487b7100000000000000000000000000000000000000000000000000000000600052603160045260246000fd5b7f4e6f7420746865206f776e6572206f6620746865206974656d2e000000000000600082015250565b600061552c601a83614240565b9150615537826154f6565b602082019050919050565b6000602082019050818103600083015261555b8161551f565b9050919050565b600081905092915050565b600061557882614235565b6155828185615562565b9350615592818560208601614251565b80840191505092915050565b60006155aa828561556d565b91506155b6828461556d565b91508190509392505050565b7f4974656d206e6f74206c697374656420666f722072656e742e00000000000000600082015250565b60006155f8601983614240565b9150615603826155c2565b602082019050919050565b60006020820190508181036000830152615627816155eb565b9050919050565b7f496e73756666696369656e742066756e64732e00000000000000000000000000600082015250565b6000615664601383614240565b915061566f8261562e565b602082019050919050565b6000602082019050818103600083015261569381615657565b9050919050565b7f43616e6e6f742072656e74206f776e206974656d2e0000000000000000000000600082015250565b60006156d0601583614240565b91506156db8261569a565b602082019050919050565b600060208201905081810360008301526156ff816156c3565b9050919050565b7f4974656d20616c7265616479206c697374656420666f722073616c652e000000600082015250565b600061573c601d83614240565b915061574782615706565b602082019050919050565b6000602082019050818103600083015261576b8161572f565b9050919050565b7f4974656d206e6f74206c697374656420666f722073616c652e00000000000000600082015250565b60006157a8601983614240565b91506157b382615772565b602082019050919050565b600060208201905081810360008301526157d78161579b565b9050919050565b7f43616e6e6f7420627579206f776e206974656d2e000000000000000000000000600082015250565b6000615814601483614240565b915061581f826157de565b602082019050919050565b6000602082019050818103600083015261584381615807565b9050919050565b7f4552433732313a207472616e736665722066726f6d20696e636f72726563742060008201527f6f776e6572000000000000000000000000000000000000000000000000000000602082015250565b60006158a6602583614240565b91506158b18261584a565b604082019050919050565b600060208201905081810360008301526158d581615899565b9050919050565b7f4552433732313a207472616e7366657220746f20746865207a65726f2061646460008201527f7265737300000000000000000000000000000000000000000000000000000000602082015250565b6000615938602483614240565b9150615943826158dc565b604082019050919050565b600060208201905081810360008301526159678161592b565b9050919050565b7f4552433732313a20617070726f766520746f2063616c6c657200000000000000600082015250565b60006159a4601983614240565b91506159af8261596e565b602082019050919050565b600060208201905081810360008301526159d381615997565b9050919050565b7f4552433732313a206d696e7420746f20746865207a65726f2061646472657373600082015250565b6000615a10602083614240565b9150615a1b826159da565b602082019050919050565b60006020820190508181036000830152615a3f81615a03565b9050919050565b7f4552433732313a20746f6b656e20616c7265616479206d696e74656400000000600082015250565b6000615a7c601c83614240565b9150615a8782615a46565b602082019050919050565b60006020820190508181036000830152615aab81615a6f565b9050919050565b7f4552433732313a207472616e7366657220746f206e6f6e20455243373231526560008201527f63656976657220696d706c656d656e7465720000000000000000000000000000602082015250565b6000615b0e603283614240565b9150615b1982615ab2565b604082019050919050565b60006020820190508181036000830152615b3d81615b01565b9050919050565b600081519050919050565b600082825260208201905092915050565b6000615b6b82615b44565b615b758185615b4f565b9350615b85818560208601614251565b615b8e8161427b565b840191505092915050565b6000608082019050615bae600083018761437c565b615bbb602083018661437c565b615bc860408301856144a5565b8181036060830152615bda8184615b60565b905095945050505050565b600081519050615bf4816141a6565b92915050565b600060208284031215615c1057615c0f614170565b5b6000615c1e84828501615be5565b9150509291505056fea2646970667358221220fb94e94d26ebdca748814b7a46a87951dfd75cbdecb6deb54c465ada9bc5163164736f6c63430008130033",
  "immutableReferences": {},
  "source": "// SPDX-License-Identifier: MIT\npragma solidity ^0.8.0;\n\nimport \"@openzeppelin/contracts/token/ERC721/ERC721.sol\";\nimport \"@openzeppelin/contracts/utils/Counters.sol\";\n// import \"./Gamesrent.sol\";\n\ncontract GameItems is ERC721 {\n    using Counters for Counters.Counter;\n    Counters.Counter private _tokenIds;\n\n    event TransferItem(address indexed from, address indexed to, uint256 indexed itemId);\n\n    address admin;\n\n    struct User {\n        address walletAddress;\n        string username;\n        uint256 balance;\n        uint256[] ownedItemIds;\n        uint256[] rentedItemIds;\n    }\n\n    struct Item {\n        uint256 itemId;\n        string name;\n        string description;\n        bool isAvailableForRent;\n        bool isAvailableForSale;\n        uint256 price;\n        uint256 rentPrice;\n        address owner;\n        address renteraddr;\n    }\n\n    mapping(address => User) public users;\n    mapping(uint256 => Item) public items;\n\n\n\n\n    constructor(string memory _username) ERC721(\"GameItems\", \"GI\") payable {\n        admin = msg.sender;\n        users[msg.sender] = User(msg.sender, _username, msg.value, new uint256[](0), new uint256[](0));\n    }\n\n    modifier onlyRegistered() {\n        require(users[msg.sender].walletAddress != address(0),\"User not registered.\");\n        _;\n    }\n\n    modifier onlyOwner(uint256 _itemId) {\n        require(ownerOf(_itemId) == msg.sender, \"Not the owner of the item.\");\n        _;\n    }\n\n    modifier onlyAdmin() {\n        require(admin==msg.sender,\"Only Admin operations\");\n        _;\n    }\n\n    function getUser(address useraddr) public view returns  (string memory){\n        require(users[useraddr].walletAddress != address(0), \"User not registered.\");\n        string memory userA = users[useraddr].username;\n        return userA;\n    }\n\n    function getItemsByUser() public view onlyRegistered returns (Item[] memory) {\n        uint256[] memory itemslist = users[msg.sender].ownedItemIds;\n        uint256 index=0;\n        Item[] memory result = new Item[](itemslist.length+1);\n        for (uint i=0; i<itemslist.length; i++) {\n            result[index++] = items[itemslist[i]];\n        }\n        return result;\n    }\n\n    function getAllItems() public onlyRegistered returns (Item[] memory){\n        uint256 index=0;\n        uint itemC = _tokenIds.current();\n\n        Item[] memory result = new Item[](itemC);\n        for (uint i=1; i<=itemC; i++) {\n            result[index++] = items[i];\n        }\n        return result;\n    }\n\n    function registerUser(string memory _username) public payable {\n        require(users[msg.sender].walletAddress == address(0), \"User already registered.\");\n        users[msg.sender] = User(msg.sender, _username, msg.value, new uint256[](0), new uint256[](0));\n    }\n\n    function addItem(string memory _name,uint256 price, string memory _description) public onlyRegistered returns (uint256) {\n        _tokenIds.increment();\n        uint256 newItemId = _tokenIds.current();\n        _mint(msg.sender, newItemId);\n        items[newItemId] = Item(newItemId,_name,_description,false,false,price,price*2/10,msg.sender,address(0));\n        users[msg.sender].ownedItemIds.push(newItemId);\n        return newItemId;\n    }\n    // Sale related functions\n\n    function listItemForSale(uint256 _itemId) public onlyOwner(_itemId) returns (bool){\n        // require(ownerOf(_itemId) == msg.sender, \"Not the owner of the item.\");\n        require(!isItemForSale(_itemId), \"Item already listed for sale.\");\n\n\n        // uint256 _price = items[_itemId].price;\n        // listings[_itemId] = SaleListing(_itemId, msg.sender, _price);\n        items[_itemId].isAvailableForSale = true;\n        // _approve(msg.sender, _itemId);\n\n        return true;\n    }\n\n    function isItemForSale(uint256 _itemId) public view returns (bool) {\n        return items[_itemId].isAvailableForSale;\n    }\n\n    function buyItem(uint256 _itemId) public payable {\n        require(isItemForSale(_itemId), \"Item not listed for sale.\");\n        require(msg.value >= items[_itemId].price, \"Insufficient funds.\");\n        address seller = items[_itemId].owner;\n        require(seller != msg.sender, \"Cannot buy own item.\");\n        require(users[msg.sender].walletAddress != address(0),\"User not registered.\");\n\n        _transfer(seller, msg.sender, _itemId);\n        // emit TransferItem(seller, msg.sender, _itemId); \n\n        users[msg.sender].ownedItemIds.push(_itemId);\n\n        for (uint i = 0; i < users[seller].ownedItemIds.length; i++) {\n            if (users[seller].ownedItemIds[i] == _itemId) {\n                users[seller].ownedItemIds[i] = users[seller].ownedItemIds[users[seller].ownedItemIds.length - 1];\n                users[seller].ownedItemIds.pop();\n                break;\n            }\n        }\n\n        items[_itemId].owner = msg.sender;\n        items[_itemId].isAvailableForSale = false;\n        users[seller].balance += items[_itemId].price;\n        users[msg.sender].balance -= items[_itemId].price;\n        payable(seller).transfer(items[_itemId].price);\n        // delete listings[_itemId];\n    }\n \n    // rent related functions\n\n    function listItemForRent(uint256 _itemId) public {\n        require(ownerOf(_itemId) == msg.sender, \"Not the owner of the item.\");\n        require(!isItemForRent(_itemId), \"Item already listed for rent.\");\n        // uint256 _gameRentPrice = items[_itemId].price * 2 / 10;\n        // rentListings[_itemId] = RentListing(_itemId, msg.sender, _gameRentPrice);\n        items[_itemId].isAvailableForRent = true;\n    }\n\n    function isItemForRent(uint256 _itemId) public view returns (bool) {\n        return items[_itemId].isAvailableForRent;\n    }\n\n\n    function rentItem(uint256 _itemId) public payable {\n        require(isItemForRent(_itemId), \"Item not listed for rent.\");\n        uint256 totalRentPrice = items[_itemId].rentPrice;\n        require(msg.value >= totalRentPrice, \"Insufficient funds.\");\n        address owner = items[_itemId].owner;\n        require(owner != msg.sender, \"Cannot rent own item.\");\n        require(users[msg.sender].walletAddress != address(0),\"User not registered.\");\n        users[msg.sender].rentedItemIds.push(_itemId);\n        users[owner].balance += totalRentPrice;\n        users[msg.sender].balance -= totalRentPrice;\n        payable(owner).transfer(totalRentPrice);\n        items[_itemId].isAvailableForRent = false;\n        items[_itemId].renteraddr = msg.sender;\n    }\n\n    function isUserRentingItem(address user, uint256 _itemId) internal view returns (bool) {\n        for (uint i = 0; i < users[user].rentedItemIds.length; i++) {\n            if (users[user].rentedItemIds[i] == _itemId) {\n                return true;\n            }\n        }\n        return false;\n    }\n\n\n    function playGame(uint256 _itemId, uint256 rating) public returns (uint256){\n        require(isUserRentingItem(msg.sender,_itemId),\"Not the renter of the item.\");\n        require(!isItemForRent(_itemId), \"Item already listed for rent.\");\n        \n        items[_itemId].isAvailableForRent = false;\n        items[_itemId].renteraddr = address(0);\n\n        if (rating ==1){\n            items[_itemId].price = items[_itemId].price + (1 * items[_itemId].price / 10);\n            items[_itemId].rentPrice = items[_itemId].price * 2 / 10;\n        } else if (rating ==2) {\n            items[_itemId].price = items[_itemId].price - (1 * items[_itemId].price / 10);\n            items[_itemId].rentPrice = items[_itemId].price * 2 / 10;\n        }\n        returnRentedItem(_itemId);\n        return 1;\n    }\n\n    function returnRentedItem(uint256 _itemId) public {\n        require(isUserRentingItem(msg.sender,_itemId), \"Not the renter of the item.\");\n\n        for (uint i = 0; i < users[msg.sender].rentedItemIds.length; i++) {\n            if (users[msg.sender].rentedItemIds[i] == _itemId) {\n                users[msg.sender].rentedItemIds[i] = users[msg.sender].rentedItemIds[users[msg.sender].rentedItemIds.length - 1];\n                users[msg.sender].rentedItemIds.pop();\n                break;\n            }\n        }\n    }\n}",
  "sourcePath": "/home/ganesh/Documents/Blockchain_final/bloackchain-dapp/App-contract/contracts/Games.sol",
  "compiler": {
    "name": "solc",
    "version": "0.8.19+commit.7dd6d404.Emscripten.clang"
  },
  "schemaVersion": "3.4.13",
  "updatedAt": "2023-04-29T16:14:51.841Z",
  "networkType": "ethereum",
  "devdoc": {
    "events": {
      "Approval(address,address,uint256)": {
        "details": "Emitted when `owner` enables `approved` to manage the `tokenId` token."
      },
      "ApprovalForAll(address,address,bool)": {
        "details": "Emitted when `owner` enables or disables (`approved`) `operator` to manage all of its assets."
      },
      "Transfer(address,address,uint256)": {
        "details": "Emitted when `tokenId` token is transferred from `from` to `to`."
      }
    },
    "kind": "dev",
    "methods": {
      "approve(address,uint256)": {
        "details": "See {IERC721-approve}."
      },
      "balanceOf(address)": {
        "details": "See {IERC721-balanceOf}."
      },
      "getApproved(uint256)": {
        "details": "See {IERC721-getApproved}."
      },
      "isApprovedForAll(address,address)": {
        "details": "See {IERC721-isApprovedForAll}."
      },
      "name()": {
        "details": "See {IERC721Metadata-name}."
      },
      "ownerOf(uint256)": {
        "details": "See {IERC721-ownerOf}."
      },
      "safeTransferFrom(address,address,uint256)": {
        "details": "See {IERC721-safeTransferFrom}."
      },
      "safeTransferFrom(address,address,uint256,bytes)": {
        "details": "See {IERC721-safeTransferFrom}."
      },
      "setApprovalForAll(address,bool)": {
        "details": "See {IERC721-setApprovalForAll}."
      },
      "supportsInterface(bytes4)": {
        "details": "See {IERC165-supportsInterface}."
      },
      "symbol()": {
        "details": "See {IERC721Metadata-symbol}."
      },
      "tokenURI(uint256)": {
        "details": "See {IERC721Metadata-tokenURI}."
      },
      "transferFrom(address,address,uint256)": {
        "details": "See {IERC721-transferFrom}."
      }
    },
    "version": 1
  },
  "userdoc": {
    "kind": "user",
    "methods": {},
    "version": 1
  }
}