{
  "contractName": "GameItems",
  "abi": [
    {
      "inputs": [
        {
          "internalType": "string",
          "name": "_username",
          "type": "string"
        }
      ],
      "stateMutability": "payable",
      "type": "constructor",
      "payable": true
    },
    {
      "anonymous": false,
      "inputs": [
        {
          "indexed": true,
          "internalType": "address",
          "name": "owner",
          "type": "address"
        },
        {
          "indexed": true,
          "internalType": "address",
          "name": "approved",
          "type": "address"
        },
        {
          "indexed": true,
          "internalType": "uint256",
          "name": "tokenId",
          "type": "uint256"
        }
      ],
      "name": "Approval",
      "type": "event"
    },
    {
      "anonymous": false,
      "inputs": [
        {
          "indexed": true,
          "internalType": "address",
          "name": "owner",
          "type": "address"
        },
        {
          "indexed": true,
          "internalType": "address",
          "name": "operator",
          "type": "address"
        },
        {
          "indexed": false,
          "internalType": "bool",
          "name": "approved",
          "type": "bool"
        }
      ],
      "name": "ApprovalForAll",
      "type": "event"
    },
    {
      "anonymous": false,
      "inputs": [
        {
          "indexed": true,
          "internalType": "address",
          "name": "from",
          "type": "address"
        },
        {
          "indexed": true,
          "internalType": "address",
          "name": "to",
          "type": "address"
        },
        {
          "indexed": true,
          "internalType": "uint256",
          "name": "tokenId",
          "type": "uint256"
        }
      ],
      "name": "Transfer",
      "type": "event"
    },
    {
      "inputs": [
        {
          "internalType": "address",
          "name": "to",
          "type": "address"
        },
        {
          "internalType": "uint256",
          "name": "tokenId",
          "type": "uint256"
        }
      ],
      "name": "approve",
      "outputs": [],
      "stateMutability": "nonpayable",
      "type": "function"
    },
    {
      "inputs": [
        {
          "internalType": "address",
          "name": "owner",
          "type": "address"
        }
      ],
      "name": "balanceOf",
      "outputs": [
        {
          "internalType": "uint256",
          "name": "",
          "type": "uint256"
        }
      ],
      "stateMutability": "view",
      "type": "function",
      "constant": true
    },
    {
      "inputs": [
        {
          "internalType": "uint256",
          "name": "tokenId",
          "type": "uint256"
        }
      ],
      "name": "getApproved",
      "outputs": [
        {
          "internalType": "address",
          "name": "",
          "type": "address"
        }
      ],
      "stateMutability": "view",
      "type": "function",
      "constant": true
    },
    {
      "inputs": [
        {
          "internalType": "address",
          "name": "owner",
          "type": "address"
        },
        {
          "internalType": "address",
          "name": "operator",
          "type": "address"
        }
      ],
      "name": "isApprovedForAll",
      "outputs": [
        {
          "internalType": "bool",
          "name": "",
          "type": "bool"
        }
      ],
      "stateMutability": "view",
      "type": "function",
      "constant": true
    },
    {
      "inputs": [
        {
          "internalType": "uint256",
          "name": "",
          "type": "uint256"
        }
      ],
      "name": "items",
      "outputs": [
        {
          "internalType": "uint256",
          "name": "itemId",
          "type": "uint256"
        },
        {
          "internalType": "string",
          "name": "name",
          "type": "string"
        },
        {
          "internalType": "string",
          "name": "description",
          "type": "string"
        },
        {
          "internalType": "bool",
          "name": "isAvailableForRent",
          "type": "bool"
        },
        {
          "internalType": "bool",
          "name": "isAvailableForSale",
          "type": "bool"
        },
        {
          "internalType": "uint256",
          "name": "price",
          "type": "uint256"
        },
        {
          "internalType": "address",
          "name": "owner",
          "type": "address"
        }
      ],
      "stateMutability": "view",
      "type": "function",
      "constant": true
    },
    {
      "inputs": [
        {
          "internalType": "uint256",
          "name": "",
          "type": "uint256"
        }
      ],
      "name": "listings",
      "outputs": [
        {
          "internalType": "uint256",
          "name": "itemId",
          "type": "uint256"
        },
        {
          "internalType": "address",
          "name": "seller",
          "type": "address"
        },
        {
          "internalType": "uint256",
          "name": "price",
          "type": "uint256"
        }
      ],
      "stateMutability": "view",
      "type": "function",
      "constant": true
    },
    {
      "inputs": [],
      "name": "name",
      "outputs": [
        {
          "internalType": "string",
          "name": "",
          "type": "string"
        }
      ],
      "stateMutability": "view",
      "type": "function",
      "constant": true
    },
    {
      "inputs": [
        {
          "internalType": "uint256",
          "name": "tokenId",
          "type": "uint256"
        }
      ],
      "name": "ownerOf",
      "outputs": [
        {
          "internalType": "address",
          "name": "",
          "type": "address"
        }
      ],
      "stateMutability": "view",
      "type": "function",
      "constant": true
    },
    {
      "inputs": [
        {
          "internalType": "uint256",
          "name": "",
          "type": "uint256"
        }
      ],
      "name": "rentListings",
      "outputs": [
        {
          "internalType": "uint256",
          "name": "itemId",
          "type": "uint256"
        },
        {
          "internalType": "address",
          "name": "owner",
          "type": "address"
        },
        {
          "internalType": "uint256",
          "name": "gameRentPrice",
          "type": "uint256"
        }
      ],
      "stateMutability": "view",
      "type": "function",
      "constant": true
    },
    {
      "inputs": [
        {
          "internalType": "address",
          "name": "from",
          "type": "address"
        },
        {
          "internalType": "address",
          "name": "to",
          "type": "address"
        },
        {
          "internalType": "uint256",
          "name": "tokenId",
          "type": "uint256"
        }
      ],
      "name": "safeTransferFrom",
      "outputs": [],
      "stateMutability": "nonpayable",
      "type": "function"
    },
    {
      "inputs": [
        {
          "internalType": "address",
          "name": "from",
          "type": "address"
        },
        {
          "internalType": "address",
          "name": "to",
          "type": "address"
        },
        {
          "internalType": "uint256",
          "name": "tokenId",
          "type": "uint256"
        },
        {
          "internalType": "bytes",
          "name": "data",
          "type": "bytes"
        }
      ],
      "name": "safeTransferFrom",
      "outputs": [],
      "stateMutability": "nonpayable",
      "type": "function"
    },
    {
      "inputs": [
        {
          "internalType": "address",
          "name": "operator",
          "type": "address"
        },
        {
          "internalType": "bool",
          "name": "approved",
          "type": "bool"
        }
      ],
      "name": "setApprovalForAll",
      "outputs": [],
      "stateMutability": "nonpayable",
      "type": "function"
    },
    {
      "inputs": [
        {
          "internalType": "bytes4",
          "name": "interfaceId",
          "type": "bytes4"
        }
      ],
      "name": "supportsInterface",
      "outputs": [
        {
          "internalType": "bool",
          "name": "",
          "type": "bool"
        }
      ],
      "stateMutability": "view",
      "type": "function",
      "constant": true
    },
    {
      "inputs": [],
      "name": "symbol",
      "outputs": [
        {
          "internalType": "string",
          "name": "",
          "type": "string"
        }
      ],
      "stateMutability": "view",
      "type": "function",
      "constant": true
    },
    {
      "inputs": [
        {
          "internalType": "uint256",
          "name": "tokenId",
          "type": "uint256"
        }
      ],
      "name": "tokenURI",
      "outputs": [
        {
          "internalType": "string",
          "name": "",
          "type": "string"
        }
      ],
      "stateMutability": "view",
      "type": "function",
      "constant": true
    },
    {
      "inputs": [
        {
          "internalType": "address",
          "name": "from",
          "type": "address"
        },
        {
          "internalType": "address",
          "name": "to",
          "type": "address"
        },
        {
          "internalType": "uint256",
          "name": "tokenId",
          "type": "uint256"
        }
      ],
      "name": "transferFrom",
      "outputs": [],
      "stateMutability": "nonpayable",
      "type": "function"
    },
    {
      "inputs": [
        {
          "internalType": "address",
          "name": "",
          "type": "address"
        }
      ],
      "name": "users",
      "outputs": [
        {
          "internalType": "address",
          "name": "walletAddress",
          "type": "address"
        },
        {
          "internalType": "string",
          "name": "username",
          "type": "string"
        },
        {
          "internalType": "uint256",
          "name": "balance",
          "type": "uint256"
        }
      ],
      "stateMutability": "view",
      "type": "function",
      "constant": true
    },
    {
      "inputs": [
        {
          "internalType": "address",
          "name": "useraddr",
          "type": "address"
        }
      ],
      "name": "getUser",
      "outputs": [
        {
          "internalType": "string",
          "name": "",
          "type": "string"
        }
      ],
      "stateMutability": "nonpayable",
      "type": "function"
    },
    {
      "inputs": [],
      "name": "getItemsByUser",
      "outputs": [
        {
          "components": [
            {
              "internalType": "uint256",
              "name": "itemId",
              "type": "uint256"
            },
            {
              "internalType": "string",
              "name": "name",
              "type": "string"
            },
            {
              "internalType": "string",
              "name": "description",
              "type": "string"
            },
            {
              "internalType": "bool",
              "name": "isAvailableForRent",
              "type": "bool"
            },
            {
              "internalType": "bool",
              "name": "isAvailableForSale",
              "type": "bool"
            },
            {
              "internalType": "uint256",
              "name": "price",
              "type": "uint256"
            },
            {
              "internalType": "address",
              "name": "owner",
              "type": "address"
            }
          ],
          "internalType": "struct GameItems.Item[]",
          "name": "",
          "type": "tuple[]"
        }
      ],
      "stateMutability": "nonpayable",
      "type": "function"
    },
    {
      "inputs": [
        {
          "internalType": "string",
          "name": "_username",
          "type": "string"
        }
      ],
      "name": "registerUser",
      "outputs": [],
      "stateMutability": "payable",
      "type": "function",
      "payable": true
    },
    {
      "inputs": [
        {
          "internalType": "string",
          "name": "_name",
          "type": "string"
        },
        {
          "internalType": "uint256",
          "name": "price",
          "type": "uint256"
        },
        {
          "internalType": "string",
          "name": "_description",
          "type": "string"
        }
      ],
      "name": "addItem",
      "outputs": [
        {
          "internalType": "uint256",
          "name": "",
          "type": "uint256"
        }
      ],
      "stateMutability": "nonpayable",
      "type": "function"
    },
    {
      "inputs": [
        {
          "internalType": "uint256",
          "name": "_itemId",
          "type": "uint256"
        }
      ],
      "name": "listItemForSale",
      "outputs": [
        {
          "internalType": "bool",
          "name": "",
          "type": "bool"
        }
      ],
      "stateMutability": "nonpayable",
      "type": "function"
    },
    {
      "inputs": [
        {
          "internalType": "uint256",
          "name": "_itemId",
          "type": "uint256"
        }
      ],
      "name": "isItemForSale",
      "outputs": [
        {
          "internalType": "bool",
          "name": "",
          "type": "bool"
        }
      ],
      "stateMutability": "view",
      "type": "function",
      "constant": true
    },
    {
      "inputs": [
        {
          "internalType": "uint256",
          "name": "_itemId",
          "type": "uint256"
        }
      ],
      "name": "buyItem",
      "outputs": [],
      "stateMutability": "payable",
      "type": "function",
      "payable": true
    },
    {
      "inputs": [
        {
          "internalType": "uint256",
          "name": "_itemId",
          "type": "uint256"
        }
      ],
      "name": "cancelListing",
      "outputs": [],
      "stateMutability": "nonpayable",
      "type": "function"
    },
    {
      "inputs": [
        {
          "internalType": "uint256",
          "name": "_itemId",
          "type": "uint256"
        }
      ],
      "name": "listItemForRent",
      "outputs": [],
      "stateMutability": "nonpayable",
      "type": "function"
    },
    {
      "inputs": [
        {
          "internalType": "uint256",
          "name": "_itemId",
          "type": "uint256"
        }
      ],
      "name": "isItemForRent",
      "outputs": [
        {
          "internalType": "bool",
          "name": "",
          "type": "bool"
        }
      ],
      "stateMutability": "view",
      "type": "function",
      "constant": true
    },
    {
      "inputs": [
        {
          "internalType": "uint256",
          "name": "_itemId",
          "type": "uint256"
        }
      ],
      "name": "rentItem",
      "outputs": [],
      "stateMutability": "payable",
      "type": "function",
      "payable": true
    },
    {
      "inputs": [
        {
          "internalType": "uint256",
          "name": "_itemId",
          "type": "uint256"
        }
      ],
      "name": "playGame",
      "outputs": [],
      "stateMutability": "nonpayable",
      "type": "function"
    },
    {
      "inputs": [
        {
          "internalType": "uint256",
          "name": "_itemId",
          "type": "uint256"
        }
      ],
      "name": "returnRentedItem",
      "outputs": [],
      "stateMutability": "nonpayable",
      "type": "function"
    },
    {
      "inputs": [
        {
          "internalType": "uint256",
          "name": "_itemId",
          "type": "uint256"
        }
      ],
      "name": "cancelRentListing",
      "outputs": [],
      "stateMutability": "nonpayable",
      "type": "function"
    },
    {
      "inputs": [
        {
          "internalType": "uint256",
          "name": "_itemId",
          "type": "uint256"
        }
      ],
      "name": "changeRentState",
      "outputs": [],
      "stateMutability": "nonpayable",
      "type": "function"
    },
    {
      "inputs": [],
      "name": "close",
      "outputs": [],
      "stateMutability": "nonpayable",
      "type": "function"
    }
  ],
  "bytecode": "0x608060405260405162006681380380620066818339818101604052810190620000299190620004c7565b6040518060400160405280600981526020017f47616d654974656d7300000000000000000000000000000000000000000000008152506040518060400160405280600281526020017f47490000000000000000000000000000000000000000000000000000000000008152508160009081620000a6919062000763565b508060019081620000b8919062000763565b50505033600760006101000a81548173ffffffffffffffffffffffffffffffffffffffff021916908373ffffffffffffffffffffffffffffffffffffffff1602179055506040518060a001604052803373ffffffffffffffffffffffffffffffffffffffff168152602001828152602001348152602001600067ffffffffffffffff8111156200014d576200014c62000363565b5b6040519080825280602002602001820160405280156200017c5781602001602082028036833780820191505090505b508152602001600067ffffffffffffffff811115620001a0576200019f62000363565b5b604051908082528060200260200182016040528015620001cf5781602001602082028036833780820191505090505b50815250600860003373ffffffffffffffffffffffffffffffffffffffff1673ffffffffffffffffffffffffffffffffffffffff16815260200190815260200160002060008201518160000160006101000a81548173ffffffffffffffffffffffffffffffffffffffff021916908373ffffffffffffffffffffffffffffffffffffffff160217905550602082015181600101908162000270919062000763565b5060408201518160020155606082015181600301908051906020019062000299929190620002c3565b506080820151816004019080519060200190620002b8929190620002c3565b50905050506200084a565b82805482825590600052602060002090810192821562000302579160200282015b8281111562000301578251825591602001919060010190620002e4565b5b50905062000311919062000315565b5090565b5b808211156200033057600081600090555060010162000316565b5090565b6000604051905090565b600080fd5b600080fd5b600080fd5b600080fd5b6000601f19601f8301169050919050565b7f4e487b7100000000000000000000000000000000000000000000000000000000600052604160045260246000fd5b6200039d8262000352565b810181811067ffffffffffffffff82111715620003bf57620003be62000363565b5b80604052505050565b6000620003d462000334565b9050620003e2828262000392565b919050565b600067ffffffffffffffff82111562000405576200040462000363565b5b620004108262000352565b9050602081019050919050565b60005b838110156200043d57808201518184015260208101905062000420565b60008484015250505050565b6000620004606200045a84620003e7565b620003c8565b9050828152602081018484840111156200047f576200047e6200034d565b5b6200048c8482856200041d565b509392505050565b600082601f830112620004ac57620004ab62000348565b5b8151620004be84826020860162000449565b91505092915050565b600060208284031215620004e057620004df6200033e565b5b600082015167ffffffffffffffff81111562000501576200050062000343565b5b6200050f8482850162000494565b91505092915050565b600081519050919050565b7f4e487b7100000000000000000000000000000000000000000000000000000000600052602260045260246000fd5b600060028204905060018216806200056b57607f821691505b60208210810362000581576200058062000523565b5b50919050565b60008190508160005260206000209050919050565b60006020601f8301049050919050565b600082821b905092915050565b600060088302620005eb7fffffffffffffffffffffffffffffffffffffffffffffffffffffffffffffffff82620005ac565b620005f78683620005ac565b95508019841693508086168417925050509392505050565b6000819050919050565b6000819050919050565b6000620006446200063e62000638846200060f565b62000619565b6200060f565b9050919050565b6000819050919050565b620006608362000623565b620006786200066f826200064b565b848454620005b9565b825550505050565b600090565b6200068f62000680565b6200069c81848462000655565b505050565b5b81811015620006c457620006b860008262000685565b600181019050620006a2565b5050565b601f8211156200071357620006dd8162000587565b620006e8846200059c565b81016020851015620006f8578190505b6200071062000707856200059c565b830182620006a1565b50505b505050565b600082821c905092915050565b6000620007386000198460080262000718565b1980831691505092915050565b600062000753838362000725565b9150826002028217905092915050565b6200076e8262000518565b67ffffffffffffffff8111156200078a576200078962000363565b5b62000796825462000552565b620007a3828285620006c8565b600060209050601f831160018114620007db5760008415620007c6578287015190505b620007d2858262000745565b86555062000842565b601f198416620007eb8662000587565b60005b828110156200081557848901518255600182019150602085019450602081019050620007ee565b8683101562000835578489015162000831601f89168262000725565b8355505b6001600288020188555050505b505050505050565b615e27806200085a6000396000f3fe6080604052600436106101ee5760003560e01c806398bbfd951161010d578063c87b56dd116100a0578063d92ed60b1161006f578063d92ed60b1461072f578063de74e57b1461076c578063e7846b66146107ab578063e7fb74c7146107e8578063e985e9c514610804576101ee565b8063c87b56dd1461065a578063cdf2722314610697578063ce0958c4146106d6578063d78d385214610713576101ee565b8063a8cffa22116100dc578063a8cffa221461059c578063b36d8d8b146105c5578063b88d4fde146105ee578063bfb231d214610617576101ee565b806398bbfd95146104ce578063a22cb465146104f7578063a3e54b3e14610520578063a87430ba1461055d576101ee565b806342842e0e116101855780636f77926b116101545780636f77926b1461040d578063704f1b941461044a57806370a082311461046657806395d89b41146104a3576101ee565b806342842e0e1461036757806343d726d6146103905780635873533d146103a75780636352211e146103d0576101ee565b80631dad6161116101c15780631dad6161146102c157806323b872dd146102ea578063305a67a8146103135780633923f5901461033c576101ee565b806301ffc9a7146101f357806306fdde0314610230578063081812fc1461025b578063095ea7b314610298575b600080fd5b3480156101ff57600080fd5b5061021a60048036038101906102159190614380565b610841565b60405161022791906143c8565b60405180910390f35b34801561023c57600080fd5b50610245610923565b6040516102529190614473565b60405180910390f35b34801561026757600080fd5b50610282600480360381019061027d91906144cb565b6109b5565b60405161028f9190614539565b60405180910390f35b3480156102a457600080fd5b506102bf60048036038101906102ba9190614580565b6109fb565b005b3480156102cd57600080fd5b506102e860048036038101906102e391906144cb565b610b12565b005b3480156102f657600080fd5b50610311600480360381019061030c91906145c0565b610c4e565b005b34801561031f57600080fd5b5061033a600480360381019061033591906144cb565b610cae565b005b34801561034857600080fd5b50610351610dea565b60405161035e91906147ef565b60405180910390f35b34801561037357600080fd5b5061038e600480360381019061038991906145c0565b611136565b005b34801561039c57600080fd5b506103a5611156565b005b3480156103b357600080fd5b506103ce60048036038101906103c991906144cb565b6111ff565b005b3480156103dc57600080fd5b506103f760048036038101906103f291906144cb565b611373565b6040516104049190614539565b60405180910390f35b34801561041957600080fd5b50610434600480360381019061042f9190614811565b6113f9565b6040516104419190614473565b60405180910390f35b610464600480360381019061045f9190614973565b6115a4565b005b34801561047257600080fd5b5061048d60048036038101906104889190614811565b61182a565b60405161049a91906149cb565b60405180910390f35b3480156104af57600080fd5b506104b86118e1565b6040516104c59190614473565b60405180910390f35b3480156104da57600080fd5b506104f560048036038101906104f091906144cb565b611973565b005b34801561050357600080fd5b5061051e60048036038101906105199190614a12565b611b39565b005b34801561052c57600080fd5b5061054760048036038101906105429190614a52565b611b4f565b60405161055491906149cb565b60405180910390f35b34801561056957600080fd5b50610584600480360381019061057f9190614811565b611de3565b60405161059393929190614add565b60405180910390f35b3480156105a857600080fd5b506105c360048036038101906105be91906144cb565b611eb5565b005b3480156105d157600080fd5b506105ec60048036038101906105e791906144cb565b612149565b005b3480156105fa57600080fd5b5061061560048036038101906106109190614bbc565b612310565b005b34801561062357600080fd5b5061063e600480360381019061063991906144cb565b612372565b6040516106519796959493929190614c3f565b60405180910390f35b34801561066657600080fd5b50610681600480360381019061067c91906144cb565b6124fe565b60405161068e9190614473565b60405180910390f35b3480156106a357600080fd5b506106be60048036038101906106b991906144cb565b612566565b6040516106cd93929190614cbc565b60405180910390f35b3480156106e257600080fd5b506106fd60048036038101906106f891906144cb565b6125b0565b60405161070a91906143c8565b60405180910390f35b61072d600480360381019061072891906144cb565b612642565b005b34801561073b57600080fd5b50610756600480360381019061075191906144cb565b612a16565b60405161076391906143c8565b60405180910390f35b34801561077857600080fd5b50610793600480360381019061078e91906144cb565b612bcf565b6040516107a293929190614cbc565b60405180910390f35b3480156107b757600080fd5b506107d260048036038101906107cd91906144cb565b612c19565b6040516107df91906143c8565b60405180910390f35b61080260048036038101906107fd91906144cb565b612cab565b005b34801561081057600080fd5b5061082b60048036038101906108269190614cf3565b613363565b60405161083891906143c8565b60405180910390f35b60007f80ac58cd000000000000000000000000000000000000000000000000000000007bffffffffffffffffffffffffffffffffffffffffffffffffffffffff1916827bffffffffffffffffffffffffffffffffffffffffffffffffffffffff1916148061090c57507f5b5e139f000000000000000000000000000000000000000000000000000000007bffffffffffffffffffffffffffffffffffffffffffffffffffffffff1916827bffffffffffffffffffffffffffffffffffffffffffffffffffffffff1916145b8061091c575061091b826133f7565b5b9050919050565b60606000805461093290614d62565b80601f016020809104026020016040519081016040528092919081815260200182805461095e90614d62565b80156109ab5780601f10610980576101008083540402835291602001916109ab565b820191906000526020600020905b81548152906001019060200180831161098e57829003601f168201915b5050505050905090565b60006109c082613461565b6004600083815260200190815260200160002060009054906101000a900473ffffffffffffffffffffffffffffffffffffffff169050919050565b6000610a0682611373565b90508073ffffffffffffffffffffffffffffffffffffffff168373ffffffffffffffffffffffffffffffffffffffff1603610a76576040517f08c379a0000000000000000000000000000000000000000000000000000000008152600401610a6d90614e05565b60405180910390fd5b8073ffffffffffffffffffffffffffffffffffffffff16610a956134ac565b73ffffffffffffffffffffffffffffffffffffffff161480610ac45750610ac381610abe6134ac565b613363565b5b610b03576040517f08c379a0000000000000000000000000000000000000000000000000000000008152600401610afa90614e97565b60405180910390fd5b610b0d83836134b4565b505050565b610b1b816125b0565b610b5a576040517f08c379a0000000000000000000000000000000000000000000000000000000008152600401610b5190614f03565b60405180910390fd5b3373ffffffffffffffffffffffffffffffffffffffff16600b600083815260200190815260200160002060010160009054906101000a900473ffffffffffffffffffffffffffffffffffffffff1673ffffffffffffffffffffffffffffffffffffffff1614610bfe576040517f08c379a0000000000000000000000000000000000000000000000000000000008152600401610bf590614f6f565b60405180910390fd5b600b60008281526020019081526020016000206000808201600090556001820160006101000a81549073ffffffffffffffffffffffffffffffffffffffff02191690556002820160009055505050565b610c5f610c596134ac565b8261356d565b610c9e576040517f08c379a0000000000000000000000000000000000000000000000000000000008152600401610c9590615001565b60405180910390fd5b610ca9838383613602565b505050565b610cb781612c19565b610cf6576040517f08c379a0000000000000000000000000000000000000000000000000000000008152600401610ced9061506d565b60405180910390fd5b3373ffffffffffffffffffffffffffffffffffffffff16600a600083815260200190815260200160002060010160009054906101000a900473ffffffffffffffffffffffffffffffffffffffff1673ffffffffffffffffffffffffffffffffffffffff1614610d9a576040517f08c379a0000000000000000000000000000000000000000000000000000000008152600401610d9190614f6f565b60405180910390fd5b600a60008281526020019081526020016000206000808201600090556001820160006101000a81549073ffffffffffffffffffffffffffffffffffffffff02191690556002820160009055505050565b60606000600860003373ffffffffffffffffffffffffffffffffffffffff1673ffffffffffffffffffffffffffffffffffffffff168152602001908152602001600020600301805480602002602001604051908101604052809291908181526020018280548015610e7a57602002820191906000526020600020905b815481526020019060010190808311610e66575b5050505050905060008060018351610e9291906150bc565b67ffffffffffffffff811115610eab57610eaa614848565b5b604051908082528060200260200182016040528015610ee457816020015b610ed1614253565b815260200190600190039081610ec95790505b50905060005b835181101561112c5760096000858381518110610f0a57610f096150f0565b5b602002602001015181526020019081526020016000206040518060e001604052908160008201548152602001600182018054610f4590614d62565b80601f0160208091040260200160405190810160405280929190818152602001828054610f7190614d62565b8015610fbe5780601f10610f9357610100808354040283529160200191610fbe565b820191906000526020600020905b815481529060010190602001808311610fa157829003601f168201915b50505050508152602001600282018054610fd790614d62565b80601f016020809104026020016040519081016040528092919081815260200182805461100390614d62565b80156110505780601f1061102557610100808354040283529160200191611050565b820191906000526020600020905b81548152906001019060200180831161103357829003601f168201915b505050505081526020016003820160009054906101000a900460ff161515151581526020016003820160019054906101000a900460ff16151515158152602001600482015481526020016005820160009054906101000a900473ffffffffffffffffffffffffffffffffffffffff1673ffffffffffffffffffffffffffffffffffffffff1673ffffffffffffffffffffffffffffffffffffffff16815250508284806110fb9061511f565b95508151811061110e5761110d6150f0565b5b602002602001018190525080806111249061511f565b915050610eea565b5080935050505090565b61115183838360405180602001604052806000815250612310565b505050565b3373ffffffffffffffffffffffffffffffffffffffff16600760009054906101000a900473ffffffffffffffffffffffffffffffffffffffff1673ffffffffffffffffffffffffffffffffffffffff16146111e6576040517f08c379a00000000000000000000000000000000000000000000000000000000081526004016111dd906151b3565b60405180910390fd5b3373ffffffffffffffffffffffffffffffffffffffff16ff5b61120933826138fb565b611248576040517f08c379a000000000000000000000000000000000000000000000000000000000815260040161123f9061521f565b60405180910390fd5b611251816125b0565b15611291576040517f08c379a00000000000000000000000000000000000000000000000000000000081526004016112889061528b565b60405180910390fd5b6000600a600260096000858152602001908152602001600020600401546112b891906152ab565b6112c2919061531c565b905060405180606001604052808381526020013373ffffffffffffffffffffffffffffffffffffffff16815260200182815250600b60008481526020019081526020016000206000820151816000015560208201518160010160006101000a81548173ffffffffffffffffffffffffffffffffffffffff021916908373ffffffffffffffffffffffffffffffffffffffff1602179055506040820151816002015590505061136f82611eb5565b5050565b60008061137f836139de565b9050600073ffffffffffffffffffffffffffffffffffffffff168173ffffffffffffffffffffffffffffffffffffffff16036113f0576040517f08c379a00000000000000000000000000000000000000000000000000000000081526004016113e790615399565b60405180910390fd5b80915050919050565b6060600073ffffffffffffffffffffffffffffffffffffffff16600860008473ffffffffffffffffffffffffffffffffffffffff1673ffffffffffffffffffffffffffffffffffffffff16815260200190815260200160002060000160009054906101000a900473ffffffffffffffffffffffffffffffffffffffff1673ffffffffffffffffffffffffffffffffffffffff16036114cc576040517f08c379a00000000000000000000000000000000000000000000000000000000081526004016114c390615405565b60405180910390fd5b6000600860008473ffffffffffffffffffffffffffffffffffffffff1673ffffffffffffffffffffffffffffffffffffffff168152602001908152602001600020600101805461151b90614d62565b80601f016020809104026020016040519081016040528092919081815260200182805461154790614d62565b80156115945780601f1061156957610100808354040283529160200191611594565b820191906000526020600020905b81548152906001019060200180831161157757829003601f168201915b5050505050905080915050919050565b600073ffffffffffffffffffffffffffffffffffffffff16600860003373ffffffffffffffffffffffffffffffffffffffff1673ffffffffffffffffffffffffffffffffffffffff16815260200190815260200160002060000160009054906101000a900473ffffffffffffffffffffffffffffffffffffffff1673ffffffffffffffffffffffffffffffffffffffff1614611675576040517f08c379a000000000000000000000000000000000000000000000000000000000815260040161166c90615471565b60405180910390fd5b6040518060a001604052803373ffffffffffffffffffffffffffffffffffffffff168152602001828152602001348152602001600067ffffffffffffffff8111156116c3576116c2614848565b5b6040519080825280602002602001820160405280156116f15781602001602082028036833780820191505090505b508152602001600067ffffffffffffffff81111561171257611711614848565b5b6040519080825280602002602001820160405280156117405781602001602082028036833780820191505090505b50815250600860003373ffffffffffffffffffffffffffffffffffffffff1673ffffffffffffffffffffffffffffffffffffffff16815260200190815260200160002060008201518160000160006101000a81548173ffffffffffffffffffffffffffffffffffffffff021916908373ffffffffffffffffffffffffffffffffffffffff16021790555060208201518160010190816117df919061563d565b506040820151816002015560608201518160030190805190602001906118069291906142aa565b5060808201518160040190805190602001906118239291906142aa565b5090505050565b60008073ffffffffffffffffffffffffffffffffffffffff168273ffffffffffffffffffffffffffffffffffffffff160361189a576040517f08c379a000000000000000000000000000000000000000000000000000000000815260040161189190615781565b60405180910390fd5b600360008373ffffffffffffffffffffffffffffffffffffffff1673ffffffffffffffffffffffffffffffffffffffff168152602001908152602001600020549050919050565b6060600180546118f090614d62565b80601f016020809104026020016040519081016040528092919081815260200182805461191c90614d62565b80156119695780601f1061193e57610100808354040283529160200191611969565b820191906000526020600020905b81548152906001019060200180831161194c57829003601f168201915b5050505050905090565b3373ffffffffffffffffffffffffffffffffffffffff1661199382611373565b73ffffffffffffffffffffffffffffffffffffffff16146119e9576040517f08c379a00000000000000000000000000000000000000000000000000000000081526004016119e090614f6f565b60405180910390fd5b6119f2816125b0565b611a31576040517f08c379a0000000000000000000000000000000000000000000000000000000008152600401611a289061506d565b60405180910390fd5b60405180606001604052808281526020013373ffffffffffffffffffffffffffffffffffffffff1681526020016009600084815260200190815260200160002060040154815250600a60008381526020019081526020016000206000820151816000015560208201518160010160006101000a81548173ffffffffffffffffffffffffffffffffffffffff021916908373ffffffffffffffffffffffffffffffffffffffff16021790555060408201518160020155905050600b60008281526020019081526020016000206000808201600090556001820160006101000a81549073ffffffffffffffffffffffffffffffffffffffff02191690556002820160009055505050565b611b4b611b446134ac565b8383613a1b565b5050565b60008073ffffffffffffffffffffffffffffffffffffffff16600860003373ffffffffffffffffffffffffffffffffffffffff1673ffffffffffffffffffffffffffffffffffffffff16815260200190815260200160002060000160009054906101000a900473ffffffffffffffffffffffffffffffffffffffff1673ffffffffffffffffffffffffffffffffffffffff1603611c21576040517f08c379a0000000000000000000000000000000000000000000000000000000008152600401611c1890615405565b60405180910390fd5b611c2b6006613b87565b6000611c376006613b9d565b9050611c433382613bab565b6040518060e001604052808281526020018681526020018481526020016000151581526020016000151581526020018581526020013373ffffffffffffffffffffffffffffffffffffffff1681525060096000838152602001908152602001600020600082015181600001556020820151816001019081611cc4919061563d565b506040820151816002019081611cda919061563d565b5060608201518160030160006101000a81548160ff02191690831515021790555060808201518160030160016101000a81548160ff02191690831515021790555060a0820151816004015560c08201518160050160006101000a81548173ffffffffffffffffffffffffffffffffffffffff021916908373ffffffffffffffffffffffffffffffffffffffff160217905550905050600860003373ffffffffffffffffffffffffffffffffffffffff1673ffffffffffffffffffffffffffffffffffffffff168152602001908152602001600020600301819080600181540180825580915050600190039060005260206000200160009091909190915055809150509392505050565b60086020528060005260406000206000915090508060000160009054906101000a900473ffffffffffffffffffffffffffffffffffffffff1690806001018054611e2c90614d62565b80601f0160208091040260200160405190810160405280929190818152602001828054611e5890614d62565b8015611ea55780601f10611e7a57610100808354040283529160200191611ea5565b820191906000526020600020905b815481529060010190602001808311611e8857829003601f168201915b5050505050908060020154905083565b611ebf33826138fb565b611efe576040517f08c379a0000000000000000000000000000000000000000000000000000000008152600401611ef59061521f565b60405180910390fd5b60005b600860003373ffffffffffffffffffffffffffffffffffffffff1673ffffffffffffffffffffffffffffffffffffffff168152602001908152602001600020600401805490508110156121455781600860003373ffffffffffffffffffffffffffffffffffffffff1673ffffffffffffffffffffffffffffffffffffffff1681526020019081526020016000206004018281548110611fa357611fa26150f0565b5b90600052602060002001540361213257600860003373ffffffffffffffffffffffffffffffffffffffff1673ffffffffffffffffffffffffffffffffffffffff1681526020019081526020016000206004016001600860003373ffffffffffffffffffffffffffffffffffffffff1673ffffffffffffffffffffffffffffffffffffffff1681526020019081526020016000206004018054905061204791906157a1565b81548110612058576120576150f0565b5b9060005260206000200154600860003373ffffffffffffffffffffffffffffffffffffffff1673ffffffffffffffffffffffffffffffffffffffff16815260200190815260200160002060040182815481106120b7576120b66150f0565b5b9060005260206000200181905550600860003373ffffffffffffffffffffffffffffffffffffffff1673ffffffffffffffffffffffffffffffffffffffff168152602001908152602001600020600401805480612117576121166157d5565b5b60019003818190600052602060002001600090559055612145565b808061213d9061511f565b915050611f01565b5050565b3373ffffffffffffffffffffffffffffffffffffffff1661216982611373565b73ffffffffffffffffffffffffffffffffffffffff16146121bf576040517f08c379a00000000000000000000000000000000000000000000000000000000081526004016121b690614f6f565b60405180910390fd5b6121c8816125b0565b15612208576040517f08c379a00000000000000000000000000000000000000000000000000000000081526004016121ff9061528b565b60405180910390fd5b6000600a6002600960008581526020019081526020016000206004015461222f91906152ab565b612239919061531c565b905060405180606001604052808381526020013373ffffffffffffffffffffffffffffffffffffffff16815260200182815250600b60008481526020019081526020016000206000820151816000015560208201518160010160006101000a81548173ffffffffffffffffffffffffffffffffffffffff021916908373ffffffffffffffffffffffffffffffffffffffff1602179055506040820151816002015590505060016009600084815260200190815260200160002060030160006101000a81548160ff0219169083151502179055505050565b61232161231b6134ac565b8361356d565b612360576040517f08c379a000000000000000000000000000000000000000000000000000000000815260040161235790615001565b60405180910390fd5b61236c84848484613dc8565b50505050565b600960205280600052604060002060009150905080600001549080600101805461239b90614d62565b80601f01602080910402602001604051908101604052809291908181526020018280546123c790614d62565b80156124145780601f106123e957610100808354040283529160200191612414565b820191906000526020600020905b8154815290600101906020018083116123f757829003601f168201915b50505050509080600201805461242990614d62565b80601f016020809104026020016040519081016040528092919081815260200182805461245590614d62565b80156124a25780601f10612477576101008083540402835291602001916124a2565b820191906000526020600020905b81548152906001019060200180831161248557829003601f168201915b5050505050908060030160009054906101000a900460ff16908060030160019054906101000a900460ff16908060040154908060050160009054906101000a900473ffffffffffffffffffffffffffffffffffffffff16905087565b606061250982613461565b6000612513613e24565b90506000815111612533576040518060200160405280600081525061255e565b8061253d84613e3b565b60405160200161254e929190615840565b6040516020818303038152906040525b915050919050565b600b6020528060005260406000206000915090508060000154908060010160009054906101000a900473ffffffffffffffffffffffffffffffffffffffff16908060020154905083565b600080600b6000848152602001908152602001600020600001541415801561263b5750600073ffffffffffffffffffffffffffffffffffffffff16600b600084815260200190815260200160002060010160009054906101000a900473ffffffffffffffffffffffffffffffffffffffff1673ffffffffffffffffffffffffffffffffffffffff1614155b9050919050565b61264b816125b0565b61268a576040517f08c379a000000000000000000000000000000000000000000000000000000000815260040161268190614f03565b60405180910390fd5b6000600b6000838152602001908152602001600020600201549050803410156126e8576040517f08c379a00000000000000000000000000000000000000000000000000000000081526004016126df906158b0565b60405180910390fd5b6000600b600084815260200190815260200160002060010160009054906101000a900473ffffffffffffffffffffffffffffffffffffffff1690503373ffffffffffffffffffffffffffffffffffffffff168173ffffffffffffffffffffffffffffffffffffffff1603612791576040517f08c379a00000000000000000000000000000000000000000000000000000000081526004016127889061591c565b60405180910390fd5b600073ffffffffffffffffffffffffffffffffffffffff16600860003373ffffffffffffffffffffffffffffffffffffffff1673ffffffffffffffffffffffffffffffffffffffff16815260200190815260200160002060000160009054906101000a900473ffffffffffffffffffffffffffffffffffffffff1673ffffffffffffffffffffffffffffffffffffffff1603612862576040517f08c379a000000000000000000000000000000000000000000000000000000000815260040161285990615405565b60405180910390fd5b600860003373ffffffffffffffffffffffffffffffffffffffff1673ffffffffffffffffffffffffffffffffffffffff16815260200190815260200160002060040183908060018154018082558091505060019003906000526020600020016000909190919091505581600860008373ffffffffffffffffffffffffffffffffffffffff1673ffffffffffffffffffffffffffffffffffffffff168152602001908152602001600020600201600082825461291d91906150bc565b9250508190555081600860003373ffffffffffffffffffffffffffffffffffffffff1673ffffffffffffffffffffffffffffffffffffffff168152602001908152602001600020600201600082825461297691906157a1565b925050819055508073ffffffffffffffffffffffffffffffffffffffff166108fc839081150290604051600060405180830381858888f193505050501580156129c3573d6000803e3d6000fd5b50600b60008481526020019081526020016000206000808201600090556001820160006101000a81549073ffffffffffffffffffffffffffffffffffffffff021916905560028201600090555050505050565b6000813373ffffffffffffffffffffffffffffffffffffffff16612a3982611373565b73ffffffffffffffffffffffffffffffffffffffff1614612a8f576040517f08c379a0000000000000000000000000000000000000000000000000000000008152600401612a8690614f6f565b60405180910390fd5b612a9883612c19565b15612ad8576040517f08c379a0000000000000000000000000000000000000000000000000000000008152600401612acf90615988565b60405180910390fd5b60006009600085815260200190815260200160002060040154905060405180606001604052808581526020013373ffffffffffffffffffffffffffffffffffffffff16815260200182815250600a60008681526020019081526020016000206000820151816000015560208201518160010160006101000a81548173ffffffffffffffffffffffffffffffffffffffff021916908373ffffffffffffffffffffffffffffffffffffffff1602179055506040820151816002015590505060016009600086815260200190815260200160002060030160016101000a81548160ff021916908315150217905550600192505050919050565b600a6020528060005260406000206000915090508060000154908060010160009054906101000a900473ffffffffffffffffffffffffffffffffffffffff16908060020154905083565b600080600a60008481526020019081526020016000206000015414158015612ca45750600073ffffffffffffffffffffffffffffffffffffffff16600a600084815260200190815260200160002060010160009054906101000a900473ffffffffffffffffffffffffffffffffffffffff1673ffffffffffffffffffffffffffffffffffffffff1614155b9050919050565b612cb481612c19565b612cf3576040517f08c379a0000000000000000000000000000000000000000000000000000000008152600401612cea9061506d565b60405180910390fd5b600a600082815260200190815260200160002060020154341015612d4c576040517f08c379a0000000000000000000000000000000000000000000000000000000008152600401612d43906158b0565b60405180910390fd5b6000600a600083815260200190815260200160002060010160009054906101000a900473ffffffffffffffffffffffffffffffffffffffff1690503373ffffffffffffffffffffffffffffffffffffffff168173ffffffffffffffffffffffffffffffffffffffff1603612df5576040517f08c379a0000000000000000000000000000000000000000000000000000000008152600401612dec906159f4565b60405180910390fd5b600073ffffffffffffffffffffffffffffffffffffffff16600860003373ffffffffffffffffffffffffffffffffffffffff1673ffffffffffffffffffffffffffffffffffffffff16815260200190815260200160002060000160009054906101000a900473ffffffffffffffffffffffffffffffffffffffff1673ffffffffffffffffffffffffffffffffffffffff1603612ec6576040517f08c379a0000000000000000000000000000000000000000000000000000000008152600401612ebd90615405565b60405180910390fd5b612ed1813384613602565b600860003373ffffffffffffffffffffffffffffffffffffffff1673ffffffffffffffffffffffffffffffffffffffff16815260200190815260200160002060030182908060018154018082558091505060019003906000526020600020016000909190919091505560005b600860008373ffffffffffffffffffffffffffffffffffffffff1673ffffffffffffffffffffffffffffffffffffffff168152602001908152602001600020600301805490508110156131815782600860008473ffffffffffffffffffffffffffffffffffffffff1673ffffffffffffffffffffffffffffffffffffffff1681526020019081526020016000206003018281548110612fdf57612fde6150f0565b5b90600052602060002001540361316e57600860008373ffffffffffffffffffffffffffffffffffffffff1673ffffffffffffffffffffffffffffffffffffffff1681526020019081526020016000206003016001600860008573ffffffffffffffffffffffffffffffffffffffff1673ffffffffffffffffffffffffffffffffffffffff1681526020019081526020016000206003018054905061308391906157a1565b81548110613094576130936150f0565b5b9060005260206000200154600860008473ffffffffffffffffffffffffffffffffffffffff1673ffffffffffffffffffffffffffffffffffffffff16815260200190815260200160002060030182815481106130f3576130f26150f0565b5b9060005260206000200181905550600860008373ffffffffffffffffffffffffffffffffffffffff1673ffffffffffffffffffffffffffffffffffffffff168152602001908152602001600020600301805480613153576131526157d5565b5b60019003818190600052602060002001600090559055613181565b80806131799061511f565b915050612f3d565b50336009600084815260200190815260200160002060050160006101000a81548173ffffffffffffffffffffffffffffffffffffffff021916908373ffffffffffffffffffffffffffffffffffffffff160217905550600a600083815260200190815260200160002060020154600860008373ffffffffffffffffffffffffffffffffffffffff1673ffffffffffffffffffffffffffffffffffffffff168152602001908152602001600020600201600082825461323f91906150bc565b92505081905550600a600083815260200190815260200160002060020154600860003373ffffffffffffffffffffffffffffffffffffffff1673ffffffffffffffffffffffffffffffffffffffff16815260200190815260200160002060020160008282546132ae91906157a1565b925050819055508073ffffffffffffffffffffffffffffffffffffffff166108fc600a6000858152602001908152602001600020600201549081150290604051600060405180830381858888f19350505050158015613311573d6000803e3d6000fd5b50600a60008381526020019081526020016000206000808201600090556001820160006101000a81549073ffffffffffffffffffffffffffffffffffffffff0219169055600282016000905550505050565b6000600560008473ffffffffffffffffffffffffffffffffffffffff1673ffffffffffffffffffffffffffffffffffffffff16815260200190815260200160002060008373ffffffffffffffffffffffffffffffffffffffff1673ffffffffffffffffffffffffffffffffffffffff16815260200190815260200160002060009054906101000a900460ff16905092915050565b60007f01ffc9a7000000000000000000000000000000000000000000000000000000007bffffffffffffffffffffffffffffffffffffffffffffffffffffffff1916827bffffffffffffffffffffffffffffffffffffffffffffffffffffffff1916149050919050565b61346a81613f09565b6134a9576040517f08c379a00000000000000000000000000000000000000000000000000000000081526004016134a090615399565b60405180910390fd5b50565b600033905090565b816004600083815260200190815260200160002060006101000a81548173ffffffffffffffffffffffffffffffffffffffff021916908373ffffffffffffffffffffffffffffffffffffffff160217905550808273ffffffffffffffffffffffffffffffffffffffff1661352783611373565b73ffffffffffffffffffffffffffffffffffffffff167f8c5be1e5ebec7d5bd14f71427d1e84f3dd0314c0f7b2291e5b200ac8c7c3b92560405160405180910390a45050565b60008061357983611373565b90508073ffffffffffffffffffffffffffffffffffffffff168473ffffffffffffffffffffffffffffffffffffffff1614806135bb57506135ba8185613363565b5b806135f957508373ffffffffffffffffffffffffffffffffffffffff166135e1846109b5565b73ffffffffffffffffffffffffffffffffffffffff16145b91505092915050565b8273ffffffffffffffffffffffffffffffffffffffff1661362282611373565b73ffffffffffffffffffffffffffffffffffffffff1614613678576040517f08c379a000000000000000000000000000000000000000000000000000000000815260040161366f90615a86565b60405180910390fd5b600073ffffffffffffffffffffffffffffffffffffffff168273ffffffffffffffffffffffffffffffffffffffff16036136e7576040517f08c379a00000000000000000000000000000000000000000000000000000000081526004016136de90615b18565b60405180910390fd5b6136f48383836001613f4a565b8273ffffffffffffffffffffffffffffffffffffffff1661371482611373565b73ffffffffffffffffffffffffffffffffffffffff161461376a576040517f08c379a000000000000000000000000000000000000000000000000000000000815260040161376190615a86565b60405180910390fd5b6004600082815260200190815260200160002060006101000a81549073ffffffffffffffffffffffffffffffffffffffff02191690556001600360008573ffffffffffffffffffffffffffffffffffffffff1673ffffffffffffffffffffffffffffffffffffffff168152602001908152602001600020600082825403925050819055506001600360008473ffffffffffffffffffffffffffffffffffffffff1673ffffffffffffffffffffffffffffffffffffffff16815260200190815260200160002060008282540192505081905550816002600083815260200190815260200160002060006101000a81548173ffffffffffffffffffffffffffffffffffffffff021916908373ffffffffffffffffffffffffffffffffffffffff160217905550808273ffffffffffffffffffffffffffffffffffffffff168473ffffffffffffffffffffffffffffffffffffffff167fddf252ad1be2c89b69c2b068fc378daa952ba7f163c4a11628f55a4df523b3ef60405160405180910390a46138f68383836001613f50565b505050565b600080600090505b600860008573ffffffffffffffffffffffffffffffffffffffff1673ffffffffffffffffffffffffffffffffffffffff168152602001908152602001600020600401805490508110156139d25782600860008673ffffffffffffffffffffffffffffffffffffffff1673ffffffffffffffffffffffffffffffffffffffff16815260200190815260200160002060040182815481106139a5576139a46150f0565b5b9060005260206000200154036139bf5760019150506139d8565b80806139ca9061511f565b915050613903565b50600090505b92915050565b60006002600083815260200190815260200160002060009054906101000a900473ffffffffffffffffffffffffffffffffffffffff169050919050565b8173ffffffffffffffffffffffffffffffffffffffff168373ffffffffffffffffffffffffffffffffffffffff1603613a89576040517f08c379a0000000000000000000000000000000000000000000000000000000008152600401613a8090615b84565b60405180910390fd5b80600560008573ffffffffffffffffffffffffffffffffffffffff1673ffffffffffffffffffffffffffffffffffffffff16815260200190815260200160002060008473ffffffffffffffffffffffffffffffffffffffff1673ffffffffffffffffffffffffffffffffffffffff16815260200190815260200160002060006101000a81548160ff0219169083151502179055508173ffffffffffffffffffffffffffffffffffffffff168373ffffffffffffffffffffffffffffffffffffffff167f17307eab39ab6107e8899845ad3d59bd9653f200f220920489ca2b5937696c3183604051613b7a91906143c8565b60405180910390a3505050565b6001816000016000828254019250508190555050565b600081600001549050919050565b600073ffffffffffffffffffffffffffffffffffffffff168273ffffffffffffffffffffffffffffffffffffffff1603613c1a576040517f08c379a0000000000000000000000000000000000000000000000000000000008152600401613c1190615bf0565b60405180910390fd5b613c2381613f09565b15613c63576040517f08c379a0000000000000000000000000000000000000000000000000000000008152600401613c5a90615c5c565b60405180910390fd5b613c71600083836001613f4a565b613c7a81613f09565b15613cba576040517f08c379a0000000000000000000000000000000000000000000000000000000008152600401613cb190615c5c565b60405180910390fd5b6001600360008473ffffffffffffffffffffffffffffffffffffffff1673ffffffffffffffffffffffffffffffffffffffff16815260200190815260200160002060008282540192505081905550816002600083815260200190815260200160002060006101000a81548173ffffffffffffffffffffffffffffffffffffffff021916908373ffffffffffffffffffffffffffffffffffffffff160217905550808273ffffffffffffffffffffffffffffffffffffffff16600073ffffffffffffffffffffffffffffffffffffffff167fddf252ad1be2c89b69c2b068fc378daa952ba7f163c4a11628f55a4df523b3ef60405160405180910390a4613dc4600083836001613f50565b5050565b613dd3848484613602565b613ddf84848484613f56565b613e1e576040517f08c379a0000000000000000000000000000000000000000000000000000000008152600401613e1590615cee565b60405180910390fd5b50505050565b606060405180602001604052806000815250905090565b606060006001613e4a846140dd565b01905060008167ffffffffffffffff811115613e6957613e68614848565b5b6040519080825280601f01601f191660200182016040528015613e9b5781602001600182028036833780820191505090505b509050600082602001820190505b600115613efe578080600190039150507f3031323334353637383961626364656600000000000000000000000000000000600a86061a8153600a8581613ef257613ef16152ed565b5b04945060008503613ea9575b819350505050919050565b60008073ffffffffffffffffffffffffffffffffffffffff16613f2b836139de565b73ffffffffffffffffffffffffffffffffffffffff1614159050919050565b50505050565b50505050565b6000613f778473ffffffffffffffffffffffffffffffffffffffff16614230565b156140d0578373ffffffffffffffffffffffffffffffffffffffff1663150b7a02613fa06134ac565b8786866040518563ffffffff1660e01b8152600401613fc29493929190615d63565b6020604051808303816000875af1925050508015613ffe57506040513d601f19601f82011682018060405250810190613ffb9190615dc4565b60015b614080573d806000811461402e576040519150601f19603f3d011682016040523d82523d6000602084013e614033565b606091505b506000815103614078576040517f08c379a000000000000000000000000000000000000000000000000000000000815260040161406f90615cee565b60405180910390fd5b805181602001fd5b63150b7a0260e01b7bffffffffffffffffffffffffffffffffffffffffffffffffffffffff1916817bffffffffffffffffffffffffffffffffffffffffffffffffffffffff1916149150506140d5565b600190505b949350505050565b600080600090507a184f03e93ff9f4daa797ed6e38ed64bf6a1f010000000000000000831061413b577a184f03e93ff9f4daa797ed6e38ed64bf6a1f0100000000000000008381614131576141306152ed565b5b0492506040810190505b6d04ee2d6d415b85acef81000000008310614178576d04ee2d6d415b85acef8100000000838161416e5761416d6152ed565b5b0492506020810190505b662386f26fc1000083106141a757662386f26fc10000838161419d5761419c6152ed565b5b0492506010810190505b6305f5e10083106141d0576305f5e10083816141c6576141c56152ed565b5b0492506008810190505b61271083106141f55761271083816141eb576141ea6152ed565b5b0492506004810190505b60648310614218576064838161420e5761420d6152ed565b5b0492506002810190505b600a8310614227576001810190505b80915050919050565b6000808273ffffffffffffffffffffffffffffffffffffffff163b119050919050565b6040518060e0016040528060008152602001606081526020016060815260200160001515815260200160001515815260200160008152602001600073ffffffffffffffffffffffffffffffffffffffff1681525090565b8280548282559060005260206000209081019282156142e6579160200282015b828111156142e55782518255916020019190600101906142ca565b5b5090506142f391906142f7565b5090565b5b808211156143105760008160009055506001016142f8565b5090565b6000604051905090565b600080fd5b600080fd5b60007fffffffff0000000000000000000000000000000000000000000000000000000082169050919050565b61435d81614328565b811461436857600080fd5b50565b60008135905061437a81614354565b92915050565b6000602082840312156143965761439561431e565b5b60006143a48482850161436b565b91505092915050565b60008115159050919050565b6143c2816143ad565b82525050565b60006020820190506143dd60008301846143b9565b92915050565b600081519050919050565b600082825260208201905092915050565b60005b8381101561441d578082015181840152602081019050614402565b60008484015250505050565b6000601f19601f8301169050919050565b6000614445826143e3565b61444f81856143ee565b935061445f8185602086016143ff565b61446881614429565b840191505092915050565b6000602082019050818103600083015261448d818461443a565b905092915050565b6000819050919050565b6144a881614495565b81146144b357600080fd5b50565b6000813590506144c58161449f565b92915050565b6000602082840312156144e1576144e061431e565b5b60006144ef848285016144b6565b91505092915050565b600073ffffffffffffffffffffffffffffffffffffffff82169050919050565b6000614523826144f8565b9050919050565b61453381614518565b82525050565b600060208201905061454e600083018461452a565b92915050565b61455d81614518565b811461456857600080fd5b50565b60008135905061457a81614554565b92915050565b600080604083850312156145975761459661431e565b5b60006145a58582860161456b565b92505060206145b6858286016144b6565b9150509250929050565b6000806000606084860312156145d9576145d861431e565b5b60006145e78682870161456b565b93505060206145f88682870161456b565b9250506040614609868287016144b6565b9150509250925092565b600081519050919050565b600082825260208201905092915050565b6000819050602082019050919050565b61464881614495565b82525050565b600082825260208201905092915050565b600061466a826143e3565b614674818561464e565b93506146848185602086016143ff565b61468d81614429565b840191505092915050565b6146a1816143ad565b82525050565b6146b081614518565b82525050565b600060e0830160008301516146ce600086018261463f565b50602083015184820360208601526146e6828261465f565b91505060408301518482036040860152614700828261465f565b91505060608301516147156060860182614698565b5060808301516147286080860182614698565b5060a083015161473b60a086018261463f565b5060c083015161474e60c08601826146a7565b508091505092915050565b600061476583836146b6565b905092915050565b6000602082019050919050565b600061478582614613565b61478f818561461e565b9350836020820285016147a18561462f565b8060005b858110156147dd57848403895281516147be8582614759565b94506147c98361476d565b925060208a019950506001810190506147a5565b50829750879550505050505092915050565b60006020820190508181036000830152614809818461477a565b905092915050565b6000602082840312156148275761482661431e565b5b60006148358482850161456b565b91505092915050565b600080fd5b600080fd5b7f4e487b7100000000000000000000000000000000000000000000000000000000600052604160045260246000fd5b61488082614429565b810181811067ffffffffffffffff8211171561489f5761489e614848565b5b80604052505050565b60006148b2614314565b90506148be8282614877565b919050565b600067ffffffffffffffff8211156148de576148dd614848565b5b6148e782614429565b9050602081019050919050565b82818337600083830152505050565b6000614916614911846148c3565b6148a8565b90508281526020810184848401111561493257614931614843565b5b61493d8482856148f4565b509392505050565b600082601f83011261495a5761495961483e565b5b813561496a848260208601614903565b91505092915050565b6000602082840312156149895761498861431e565b5b600082013567ffffffffffffffff8111156149a7576149a6614323565b5b6149b384828501614945565b91505092915050565b6149c581614495565b82525050565b60006020820190506149e060008301846149bc565b92915050565b6149ef816143ad565b81146149fa57600080fd5b50565b600081359050614a0c816149e6565b92915050565b60008060408385031215614a2957614a2861431e565b5b6000614a378582860161456b565b9250506020614a48858286016149fd565b9150509250929050565b600080600060608486031215614a6b57614a6a61431e565b5b600084013567ffffffffffffffff811115614a8957614a88614323565b5b614a9586828701614945565b9350506020614aa6868287016144b6565b925050604084013567ffffffffffffffff811115614ac757614ac6614323565b5b614ad386828701614945565b9150509250925092565b6000606082019050614af2600083018661452a565b8181036020830152614b04818561443a565b9050614b1360408301846149bc565b949350505050565b600067ffffffffffffffff821115614b3657614b35614848565b5b614b3f82614429565b9050602081019050919050565b6000614b5f614b5a84614b1b565b6148a8565b905082815260208101848484011115614b7b57614b7a614843565b5b614b868482856148f4565b509392505050565b600082601f830112614ba357614ba261483e565b5b8135614bb3848260208601614b4c565b91505092915050565b60008060008060808587031215614bd657614bd561431e565b5b6000614be48782880161456b565b9450506020614bf58782880161456b565b9350506040614c06878288016144b6565b925050606085013567ffffffffffffffff811115614c2757614c26614323565b5b614c3387828801614b8e565b91505092959194509250565b600060e082019050614c54600083018a6149bc565b8181036020830152614c66818961443a565b90508181036040830152614c7a818861443a565b9050614c8960608301876143b9565b614c9660808301866143b9565b614ca360a08301856149bc565b614cb060c083018461452a565b98975050505050505050565b6000606082019050614cd160008301866149bc565b614cde602083018561452a565b614ceb60408301846149bc565b949350505050565b60008060408385031215614d0a57614d0961431e565b5b6000614d188582860161456b565b9250506020614d298582860161456b565b9150509250929050565b7f4e487b7100000000000000000000000000000000000000000000000000000000600052602260045260246000fd5b60006002820490506001821680614d7a57607f821691505b602082108103614d8d57614d8c614d33565b5b50919050565b7f4552433732313a20617070726f76616c20746f2063757272656e74206f776e6560008201527f7200000000000000000000000000000000000000000000000000000000000000602082015250565b6000614def6021836143ee565b9150614dfa82614d93565b604082019050919050565b60006020820190508181036000830152614e1e81614de2565b9050919050565b7f4552433732313a20617070726f76652063616c6c6572206973206e6f7420746f60008201527f6b656e206f776e6572206f7220617070726f76656420666f7220616c6c000000602082015250565b6000614e81603d836143ee565b9150614e8c82614e25565b604082019050919050565b60006020820190508181036000830152614eb081614e74565b9050919050565b7f4974656d206e6f74206c697374656420666f722072656e742e00000000000000600082015250565b6000614eed6019836143ee565b9150614ef882614eb7565b602082019050919050565b60006020820190508181036000830152614f1c81614ee0565b9050919050565b7f4e6f7420746865206f776e6572206f6620746865206974656d2e000000000000600082015250565b6000614f59601a836143ee565b9150614f6482614f23565b602082019050919050565b60006020820190508181036000830152614f8881614f4c565b9050919050565b7f4552433732313a2063616c6c6572206973206e6f7420746f6b656e206f776e6560008201527f72206f7220617070726f76656400000000000000000000000000000000000000602082015250565b6000614feb602d836143ee565b9150614ff682614f8f565b604082019050919050565b6000602082019050818103600083015261501a81614fde565b9050919050565b7f4974656d206e6f74206c697374656420666f722073616c652e00000000000000600082015250565b60006150576019836143ee565b915061506282615021565b602082019050919050565b600060208201905081810360008301526150868161504a565b9050919050565b7f4e487b7100000000000000000000000000000000000000000000000000000000600052601160045260246000fd5b60006150c782614495565b91506150d283614495565b92508282019050808211156150ea576150e961508d565b5b92915050565b7f4e487b7100000000000000000000000000000000000000000000000000000000600052603260045260246000fd5b600061512a82614495565b91507fffffffffffffffffffffffffffffffffffffffffffffffffffffffffffffffff820361515c5761515b61508d565b5b600182019050919050565b7f4f6e6c792041646d696e206f7065726174696f6e730000000000000000000000600082015250565b600061519d6015836143ee565b91506151a882615167565b602082019050919050565b600060208201905081810360008301526151cc81615190565b9050919050565b7f4e6f74207468652072656e746572206f6620746865206974656d2e0000000000600082015250565b6000615209601b836143ee565b9150615214826151d3565b602082019050919050565b60006020820190508181036000830152615238816151fc565b9050919050565b7f4974656d20616c7265616479206c697374656420666f722072656e742e000000600082015250565b6000615275601d836143ee565b91506152808261523f565b602082019050919050565b600060208201905081810360008301526152a481615268565b9050919050565b60006152b682614495565b91506152c183614495565b92508282026152cf81614495565b915082820484148315176152e6576152e561508d565b5b5092915050565b7f4e487b7100000000000000000000000000000000000000000000000000000000600052601260045260246000fd5b600061532782614495565b915061533283614495565b925082615342576153416152ed565b5b828204905092915050565b7f4552433732313a20696e76616c696420746f6b656e2049440000000000000000600082015250565b60006153836018836143ee565b915061538e8261534d565b602082019050919050565b600060208201905081810360008301526153b281615376565b9050919050565b7f55736572206e6f7420726567697374657265642e000000000000000000000000600082015250565b60006153ef6014836143ee565b91506153fa826153b9565b602082019050919050565b6000602082019050818103600083015261541e816153e2565b9050919050565b7f5573657220616c726561647920726567697374657265642e0000000000000000600082015250565b600061545b6018836143ee565b915061546682615425565b602082019050919050565b6000602082019050818103600083015261548a8161544e565b9050919050565b60008190508160005260206000209050919050565b60006020601f8301049050919050565b600082821b905092915050565b6000600883026154f37fffffffffffffffffffffffffffffffffffffffffffffffffffffffffffffffff826154b6565b6154fd86836154b6565b95508019841693508086168417925050509392505050565b6000819050919050565b600061553a61553561553084614495565b615515565b614495565b9050919050565b6000819050919050565b6155548361551f565b61556861556082615541565b8484546154c3565b825550505050565b600090565b61557d615570565b61558881848461554b565b505050565b5b818110156155ac576155a1600082615575565b60018101905061558e565b5050565b601f8211156155f1576155c281615491565b6155cb846154a6565b810160208510156155da578190505b6155ee6155e6856154a6565b83018261558d565b50505b505050565b600082821c905092915050565b6000615614600019846008026155f6565b1980831691505092915050565b600061562d8383615603565b9150826002028217905092915050565b615646826143e3565b67ffffffffffffffff81111561565f5761565e614848565b5b6156698254614d62565b6156748282856155b0565b600060209050601f8311600181146156a75760008415615695578287015190505b61569f8582615621565b865550615707565b601f1984166156b586615491565b60005b828110156156dd578489015182556001820191506020850194506020810190506156b8565b868310156156fa57848901516156f6601f891682615603565b8355505b6001600288020188555050505b505050505050565b7f4552433732313a2061646472657373207a65726f206973206e6f74206120766160008201527f6c6964206f776e65720000000000000000000000000000000000000000000000602082015250565b600061576b6029836143ee565b91506157768261570f565b604082019050919050565b6000602082019050818103600083015261579a8161575e565b9050919050565b60006157ac82614495565b91506157b783614495565b92508282039050818111156157cf576157ce61508d565b5b92915050565b7f4e487b7100000000000000000000000000000000000000000000000000000000600052603160045260246000fd5b600081905092915050565b600061581a826143e3565b6158248185615804565b93506158348185602086016143ff565b80840191505092915050565b600061584c828561580f565b9150615858828461580f565b91508190509392505050565b7f496e73756666696369656e742066756e64732e00000000000000000000000000600082015250565b600061589a6013836143ee565b91506158a582615864565b602082019050919050565b600060208201905081810360008301526158c98161588d565b9050919050565b7f43616e6e6f742072656e74206f776e206974656d2e0000000000000000000000600082015250565b60006159066015836143ee565b9150615911826158d0565b602082019050919050565b60006020820190508181036000830152615935816158f9565b9050919050565b7f4974656d20616c7265616479206c697374656420666f722073616c652e000000600082015250565b6000615972601d836143ee565b915061597d8261593c565b602082019050919050565b600060208201905081810360008301526159a181615965565b9050919050565b7f43616e6e6f7420627579206f776e206974656d2e000000000000000000000000600082015250565b60006159de6014836143ee565b91506159e9826159a8565b602082019050919050565b60006020820190508181036000830152615a0d816159d1565b9050919050565b7f4552433732313a207472616e736665722066726f6d20696e636f72726563742060008201527f6f776e6572000000000000000000000000000000000000000000000000000000602082015250565b6000615a706025836143ee565b9150615a7b82615a14565b604082019050919050565b60006020820190508181036000830152615a9f81615a63565b9050919050565b7f4552433732313a207472616e7366657220746f20746865207a65726f2061646460008201527f7265737300000000000000000000000000000000000000000000000000000000602082015250565b6000615b026024836143ee565b9150615b0d82615aa6565b604082019050919050565b60006020820190508181036000830152615b3181615af5565b9050919050565b7f4552433732313a20617070726f766520746f2063616c6c657200000000000000600082015250565b6000615b6e6019836143ee565b9150615b7982615b38565b602082019050919050565b60006020820190508181036000830152615b9d81615b61565b9050919050565b7f4552433732313a206d696e7420746f20746865207a65726f2061646472657373600082015250565b6000615bda6020836143ee565b9150615be582615ba4565b602082019050919050565b60006020820190508181036000830152615c0981615bcd565b9050919050565b7f4552433732313a20746f6b656e20616c7265616479206d696e74656400000000600082015250565b6000615c46601c836143ee565b9150615c5182615c10565b602082019050919050565b60006020820190508181036000830152615c7581615c39565b9050919050565b7f4552433732313a207472616e7366657220746f206e6f6e20455243373231526560008201527f63656976657220696d706c656d656e7465720000000000000000000000000000602082015250565b6000615cd86032836143ee565b9150615ce382615c7c565b604082019050919050565b60006020820190508181036000830152615d0781615ccb565b9050919050565b600081519050919050565b600082825260208201905092915050565b6000615d3582615d0e565b615d3f8185615d19565b9350615d4f8185602086016143ff565b615d5881614429565b840191505092915050565b6000608082019050615d78600083018761452a565b615d85602083018661452a565b615d9260408301856149bc565b8181036060830152615da48184615d2a565b905095945050505050565b600081519050615dbe81614354565b92915050565b600060208284031215615dda57615dd961431e565b5b6000615de884828501615daf565b9150509291505056fea2646970667358221220120929c592c861da2e3bcf64e7cc05691232080b2dbce519be87050f2aa3a99d64736f6c63430008130033",
  "immutableReferences": {},
  "source": "// SPDX-License-Identifier: MIT\npragma solidity ^0.8.0;\n\nimport \"@openzeppelin/contracts/token/ERC721/ERC721.sol\";\nimport \"@openzeppelin/contracts/utils/Counters.sol\";\nimport \"@openzeppelin/contracts/utils/Address.sol\";\n\n\ncontract GameItems is ERC721 {\n    using Counters for Counters.Counter;\n    Counters.Counter private _tokenIds;\n\n    address admin;\n\n    struct User {\n        address walletAddress;\n        string username;\n        uint256 balance;\n        uint256[] ownedItemIds;\n        uint256[] rentedItemIds;\n    }\n\n    struct Item {\n        uint256 itemId;\n        string name;\n        string description;\n        bool isAvailableForRent;\n        bool isAvailableForSale;\n        uint256 price;\n        address owner;\n    }\n\n    struct SaleListing {\n        uint256 itemId;\n        address seller;\n        uint256 price;\n    }\n\n    struct RentListing {\n        uint256 itemId;\n        address owner;\n        uint256 gameRentPrice;\n    }\n\n    mapping(address => User) public users;\n    mapping(uint256 => Item) public items;\n    mapping(uint256 => SaleListing) public listings;\n    mapping(uint256 => RentListing) public rentListings;\n\n\n\n    constructor(string memory _username) ERC721(\"GameItems\", \"GI\") payable {\n        admin = msg.sender;\n        users[msg.sender] = User(msg.sender, _username, msg.value, new uint256[](0), new uint256[](0));\n    }\n\n    modifier onlyRegistered() {\n        require(users[msg.sender].walletAddress != address(0),\"User not registered.\");\n        _;\n    }\n\n    modifier onlyOwner(uint256 _itemId) {\n        require(ownerOf(_itemId) == msg.sender, \"Not the owner of the item.\");\n        _;\n    }\n\n    modifier onlyAdmin() {\n        require(admin==msg.sender,\"Only Admin operations\");\n        _;\n    }\n\n    function getUser(address useraddr) public returns  (string memory){\n        require(users[useraddr].walletAddress != address(0), \"User not registered.\");\n        string memory userA = users[useraddr].username;\n        return userA;\n    }\n\n    function getItemsByUser() public returns (Item[] memory) {\n        uint256[] memory itemslist = users[msg.sender].ownedItemIds;\n        uint256 index=0;\n        Item[] memory result = new Item[](itemslist.length+1);\n        for (uint i=0; i<itemslist.length; i++) {\n            result[index++] = items[itemslist[i]];\n        }\n        return result;\n    }\n\n    function registerUser(string memory _username) public payable {\n        require(users[msg.sender].walletAddress == address(0), \"User already registered.\");\n        users[msg.sender] = User(msg.sender, _username, msg.value, new uint256[](0), new uint256[](0));\n    }\n\n    function addItem(string memory _name,uint256 price, string memory _description) public onlyRegistered returns (uint256) {\n        _tokenIds.increment();\n        uint256 newItemId = _tokenIds.current();\n        _mint(msg.sender, newItemId);\n        items[newItemId] = Item(newItemId,_name,_description,false,false,price,msg.sender);\n        users[msg.sender].ownedItemIds.push(newItemId);\n        return newItemId;\n    }\n\n\n    // Sale related functions\n\n    function listItemForSale(uint256 _itemId) public onlyOwner(_itemId) returns (bool){\n        // require(ownerOf(_itemId) == msg.sender, \"Not the owner of the item.\");\n        require(!isItemForSale(_itemId), \"Item already listed for sale.\");\n        uint256 _price = items[_itemId].price;\n        listings[_itemId] = SaleListing(_itemId, msg.sender, _price);\n        items[_itemId].isAvailableForSale = true;\n        return true;\n    }\n\n    function isItemForSale(uint256 _itemId) public view returns (bool) {\n        return listings[_itemId].itemId != 0 && listings[_itemId].seller != address(0);\n    }\n\n    function buyItem(uint256 _itemId) public payable {\n        require(isItemForSale(_itemId), \"Item not listed for sale.\");\n        require(msg.value >= listings[_itemId].price, \"Insufficient funds.\");\n        address seller = listings[_itemId].seller;\n        require(seller != msg.sender, \"Cannot buy own item.\");\n        require(users[msg.sender].walletAddress != address(0),\"User not registered.\");\n\n        _transfer(seller, msg.sender, _itemId);\n        users[msg.sender].ownedItemIds.push(_itemId);\n\n        for (uint i = 0; i < users[seller].ownedItemIds.length; i++) {\n            if (users[seller].ownedItemIds[i] == _itemId) {\n                users[seller].ownedItemIds[i] = users[seller].ownedItemIds[users[seller].ownedItemIds.length - 1];\n                users[seller].ownedItemIds.pop();\n                break;\n            }\n        }\n\n        items[_itemId].owner = msg.sender;\n        users[seller].balance += listings[_itemId].price;\n        users[msg.sender].balance -= listings[_itemId].price;\n        payable(seller).transfer(listings[_itemId].price);\n        delete listings[_itemId];\n    }\n\n    function cancelListing(uint256 _itemId) public {\n        require(isItemForSale(_itemId), \"Item not listed for sale.\");\n        require(listings[_itemId].seller == msg.sender, \"Not the owner of the item.\");\n\n        delete listings[_itemId];\n    }\n\n    // function changeSaleState(uint256 _itemId) public {\n    //     require(ownerOf(_itemId) == msg.sender, \"Not the owner of the item.\");\n    //     require(isItemForSale(_itemId), \"Item not listed for sale.\");\n\n    //     rentListings[_itemId] = RentListing(_itemId,msg.sender,items[_itemId].price*2/10);\n        \n    //     delete listings[_itemId];\n    // } \n    // rent related functions\n\n    function listItemForRent(uint256 _itemId) public {\n        require(ownerOf(_itemId) == msg.sender, \"Not the owner of the item.\");\n        require(!isItemForRent(_itemId), \"Item already listed for rent.\");\n        uint256 _gameRentPrice = items[_itemId].price * 2 / 10;\n        rentListings[_itemId] = RentListing(_itemId, msg.sender, _gameRentPrice);\n        items[_itemId].isAvailableForRent = true;\n    }\n\n    function isItemForRent(uint256 _itemId) public view returns (bool) {\n        return rentListings[_itemId].itemId != 0 && rentListings[_itemId].owner != address(0);\n    }\n\n\n    function rentItem(uint256 _itemId) public payable {\n        require(isItemForRent(_itemId), \"Item not listed for rent.\");\n        uint256 totalRentPrice = rentListings[_itemId].gameRentPrice;\n        require(msg.value >= totalRentPrice, \"Insufficient funds.\");\n\n        address owner = rentListings[_itemId].owner;\n        require(owner != msg.sender, \"Cannot rent own item.\");\n        require(users[msg.sender].walletAddress != address(0),\"User not registered.\");\n        // users[msg.sender].rentedItemIds.push(_itemId)\n        // items[_itemId].renter = msg.sender;\n        users[msg.sender].rentedItemIds.push(_itemId);\n        users[owner].balance += totalRentPrice;\n        users[msg.sender].balance -= totalRentPrice;\n        payable(owner).transfer(totalRentPrice);\n        delete rentListings[_itemId];\n    }\n\n    function isUserRentingItem(address user, uint256 _itemId) internal view returns (bool) {\n        for (uint i = 0; i < users[user].rentedItemIds.length; i++) {\n            if (users[user].rentedItemIds[i] == _itemId) {\n                return true;\n            }\n        }\n        return false;\n    }\n\n\n    function playGame(uint256 _itemId) public {\n        require(isUserRentingItem(msg.sender,_itemId),\"Not the renter of the item.\");\n        // require(items[_itemId].renter != msg.sender, \"Not the renter of the item.\");\n        // require(ownerOf(_itemId) == msg.sender, \"Not the owner of the item.\");\n        require(!isItemForRent(_itemId), \"Item already listed for rent.\");\n\n        uint256 _gameRentPrice = items[_itemId].price * 2 / 10;\n\n        rentListings[_itemId] = RentListing(_itemId, msg.sender, _gameRentPrice);\n\n        returnRentedItem(_itemId);\n        // cancelRentListing(_itemId);\n    }\n\n    function returnRentedItem(uint256 _itemId) public {\n        require(isUserRentingItem(msg.sender,_itemId), \"Not the renter of the item.\");\n\n        // items[_itemId].renter = address(0);\n\n        for (uint i = 0; i < users[msg.sender].rentedItemIds.length; i++) {\n            if (users[msg.sender].rentedItemIds[i] == _itemId) {\n                users[msg.sender].rentedItemIds[i] = users[msg.sender].rentedItemIds[users[msg.sender].rentedItemIds.length - 1];\n                users[msg.sender].rentedItemIds.pop();\n                break;\n            }\n        }\n    }\n    function cancelRentListing(uint256 _itemId) public {\n        require(isItemForRent(_itemId), \"Item not listed for rent.\");\n        require(rentListings[_itemId].owner == msg.sender, \"Not the owner of the item.\");\n        delete rentListings[_itemId];\n    }\n\n    function changeRentState(uint256 _itemId) public {\n        require(ownerOf(_itemId) == msg.sender, \"Not the owner of the item.\");\n        require(isItemForRent(_itemId), \"Item not listed for sale.\");\n\n        listings[_itemId] = SaleListing(_itemId,msg.sender,items[_itemId].price);\n\n        delete rentListings[_itemId];\n    } \n\n    function close() public onlyAdmin {\n        selfdestruct(payable(msg.sender));   \n    }\n}",
  "sourcePath": "/home/ganesh/Desktop/bloackchain-dapp/App-contract/contracts/Games.sol",
  "compiler": {
    "name": "solc",
    "version": "0.8.19+commit.7dd6d404.Emscripten.clang"
  },
  "schemaVersion": "3.4.13",
  "updatedAt": "2023-04-21T18:26:50.298Z",
  "networkType": "ethereum",
  "devdoc": {
    "events": {
      "Approval(address,address,uint256)": {
        "details": "Emitted when `owner` enables `approved` to manage the `tokenId` token."
      },
      "ApprovalForAll(address,address,bool)": {
        "details": "Emitted when `owner` enables or disables (`approved`) `operator` to manage all of its assets."
      },
      "Transfer(address,address,uint256)": {
        "details": "Emitted when `tokenId` token is transferred from `from` to `to`."
      }
    },
    "kind": "dev",
    "methods": {
      "approve(address,uint256)": {
        "details": "See {IERC721-approve}."
      },
      "balanceOf(address)": {
        "details": "See {IERC721-balanceOf}."
      },
      "getApproved(uint256)": {
        "details": "See {IERC721-getApproved}."
      },
      "isApprovedForAll(address,address)": {
        "details": "See {IERC721-isApprovedForAll}."
      },
      "name()": {
        "details": "See {IERC721Metadata-name}."
      },
      "ownerOf(uint256)": {
        "details": "See {IERC721-ownerOf}."
      },
      "safeTransferFrom(address,address,uint256)": {
        "details": "See {IERC721-safeTransferFrom}."
      },
      "safeTransferFrom(address,address,uint256,bytes)": {
        "details": "See {IERC721-safeTransferFrom}."
      },
      "setApprovalForAll(address,bool)": {
        "details": "See {IERC721-setApprovalForAll}."
      },
      "supportsInterface(bytes4)": {
        "details": "See {IERC165-supportsInterface}."
      },
      "symbol()": {
        "details": "See {IERC721Metadata-symbol}."
      },
      "tokenURI(uint256)": {
        "details": "See {IERC721Metadata-tokenURI}."
      },
      "transferFrom(address,address,uint256)": {
        "details": "See {IERC721-transferFrom}."
      }
    },
    "version": 1
  },
  "userdoc": {
    "kind": "user",
    "methods": {},
    "version": 1
  }
}