{
  "contractName": "GameItems",
  "abi": [
    {
      "inputs": [
        {
          "internalType": "string",
          "name": "_username",
          "type": "string"
        }
      ],
      "stateMutability": "payable",
      "type": "constructor",
      "payable": true
    },
    {
      "anonymous": false,
      "inputs": [
        {
          "indexed": true,
          "internalType": "address",
          "name": "owner",
          "type": "address"
        },
        {
          "indexed": true,
          "internalType": "address",
          "name": "approved",
          "type": "address"
        },
        {
          "indexed": true,
          "internalType": "uint256",
          "name": "tokenId",
          "type": "uint256"
        }
      ],
      "name": "Approval",
      "type": "event"
    },
    {
      "anonymous": false,
      "inputs": [
        {
          "indexed": true,
          "internalType": "address",
          "name": "owner",
          "type": "address"
        },
        {
          "indexed": true,
          "internalType": "address",
          "name": "operator",
          "type": "address"
        },
        {
          "indexed": false,
          "internalType": "bool",
          "name": "approved",
          "type": "bool"
        }
      ],
      "name": "ApprovalForAll",
      "type": "event"
    },
    {
      "anonymous": false,
      "inputs": [
        {
          "indexed": true,
          "internalType": "address",
          "name": "from",
          "type": "address"
        },
        {
          "indexed": true,
          "internalType": "address",
          "name": "to",
          "type": "address"
        },
        {
          "indexed": true,
          "internalType": "uint256",
          "name": "tokenId",
          "type": "uint256"
        }
      ],
      "name": "Transfer",
      "type": "event"
    },
    {
      "inputs": [
        {
          "internalType": "address",
          "name": "to",
          "type": "address"
        },
        {
          "internalType": "uint256",
          "name": "tokenId",
          "type": "uint256"
        }
      ],
      "name": "approve",
      "outputs": [],
      "stateMutability": "nonpayable",
      "type": "function"
    },
    {
      "inputs": [
        {
          "internalType": "address",
          "name": "owner",
          "type": "address"
        }
      ],
      "name": "balanceOf",
      "outputs": [
        {
          "internalType": "uint256",
          "name": "",
          "type": "uint256"
        }
      ],
      "stateMutability": "view",
      "type": "function",
      "constant": true
    },
    {
      "inputs": [
        {
          "internalType": "uint256",
          "name": "tokenId",
          "type": "uint256"
        }
      ],
      "name": "getApproved",
      "outputs": [
        {
          "internalType": "address",
          "name": "",
          "type": "address"
        }
      ],
      "stateMutability": "view",
      "type": "function",
      "constant": true
    },
    {
      "inputs": [
        {
          "internalType": "address",
          "name": "owner",
          "type": "address"
        },
        {
          "internalType": "address",
          "name": "operator",
          "type": "address"
        }
      ],
      "name": "isApprovedForAll",
      "outputs": [
        {
          "internalType": "bool",
          "name": "",
          "type": "bool"
        }
      ],
      "stateMutability": "view",
      "type": "function",
      "constant": true
    },
    {
      "inputs": [
        {
          "internalType": "uint256",
          "name": "",
          "type": "uint256"
        }
      ],
      "name": "items",
      "outputs": [
        {
          "internalType": "uint256",
          "name": "itemId",
          "type": "uint256"
        },
        {
          "internalType": "string",
          "name": "name",
          "type": "string"
        },
        {
          "internalType": "string",
          "name": "description",
          "type": "string"
        },
        {
          "internalType": "bool",
          "name": "isAvailableForRent",
          "type": "bool"
        },
        {
          "internalType": "bool",
          "name": "isAvailableForSale",
          "type": "bool"
        },
        {
          "internalType": "uint256",
          "name": "price",
          "type": "uint256"
        },
        {
          "internalType": "uint256",
          "name": "rentPrice",
          "type": "uint256"
        },
        {
          "internalType": "address",
          "name": "owner",
          "type": "address"
        },
        {
          "internalType": "address",
          "name": "renteraddr",
          "type": "address"
        }
      ],
      "stateMutability": "view",
      "type": "function",
      "constant": true
    },
    {
      "inputs": [],
      "name": "name",
      "outputs": [
        {
          "internalType": "string",
          "name": "",
          "type": "string"
        }
      ],
      "stateMutability": "view",
      "type": "function",
      "constant": true
    },
    {
      "inputs": [
        {
          "internalType": "uint256",
          "name": "tokenId",
          "type": "uint256"
        }
      ],
      "name": "ownerOf",
      "outputs": [
        {
          "internalType": "address",
          "name": "",
          "type": "address"
        }
      ],
      "stateMutability": "view",
      "type": "function",
      "constant": true
    },
    {
      "inputs": [
        {
          "internalType": "address",
          "name": "from",
          "type": "address"
        },
        {
          "internalType": "address",
          "name": "to",
          "type": "address"
        },
        {
          "internalType": "uint256",
          "name": "tokenId",
          "type": "uint256"
        }
      ],
      "name": "safeTransferFrom",
      "outputs": [],
      "stateMutability": "nonpayable",
      "type": "function"
    },
    {
      "inputs": [
        {
          "internalType": "address",
          "name": "from",
          "type": "address"
        },
        {
          "internalType": "address",
          "name": "to",
          "type": "address"
        },
        {
          "internalType": "uint256",
          "name": "tokenId",
          "type": "uint256"
        },
        {
          "internalType": "bytes",
          "name": "data",
          "type": "bytes"
        }
      ],
      "name": "safeTransferFrom",
      "outputs": [],
      "stateMutability": "nonpayable",
      "type": "function"
    },
    {
      "inputs": [
        {
          "internalType": "address",
          "name": "operator",
          "type": "address"
        },
        {
          "internalType": "bool",
          "name": "approved",
          "type": "bool"
        }
      ],
      "name": "setApprovalForAll",
      "outputs": [],
      "stateMutability": "nonpayable",
      "type": "function"
    },
    {
      "inputs": [
        {
          "internalType": "bytes4",
          "name": "interfaceId",
          "type": "bytes4"
        }
      ],
      "name": "supportsInterface",
      "outputs": [
        {
          "internalType": "bool",
          "name": "",
          "type": "bool"
        }
      ],
      "stateMutability": "view",
      "type": "function",
      "constant": true
    },
    {
      "inputs": [],
      "name": "symbol",
      "outputs": [
        {
          "internalType": "string",
          "name": "",
          "type": "string"
        }
      ],
      "stateMutability": "view",
      "type": "function",
      "constant": true
    },
    {
      "inputs": [
        {
          "internalType": "uint256",
          "name": "tokenId",
          "type": "uint256"
        }
      ],
      "name": "tokenURI",
      "outputs": [
        {
          "internalType": "string",
          "name": "",
          "type": "string"
        }
      ],
      "stateMutability": "view",
      "type": "function",
      "constant": true
    },
    {
      "inputs": [
        {
          "internalType": "address",
          "name": "from",
          "type": "address"
        },
        {
          "internalType": "address",
          "name": "to",
          "type": "address"
        },
        {
          "internalType": "uint256",
          "name": "tokenId",
          "type": "uint256"
        }
      ],
      "name": "transferFrom",
      "outputs": [],
      "stateMutability": "nonpayable",
      "type": "function"
    },
    {
      "inputs": [
        {
          "internalType": "address",
          "name": "",
          "type": "address"
        }
      ],
      "name": "users",
      "outputs": [
        {
          "internalType": "address",
          "name": "walletAddress",
          "type": "address"
        },
        {
          "internalType": "string",
          "name": "username",
          "type": "string"
        },
        {
          "internalType": "uint256",
          "name": "balance",
          "type": "uint256"
        }
      ],
      "stateMutability": "view",
      "type": "function",
      "constant": true
    },
    {
      "inputs": [
        {
          "internalType": "address",
          "name": "useraddr",
          "type": "address"
        }
      ],
      "name": "getUser",
      "outputs": [
        {
          "internalType": "string",
          "name": "",
          "type": "string"
        }
      ],
      "stateMutability": "nonpayable",
      "type": "function"
    },
    {
      "inputs": [],
      "name": "getItemsByUser",
      "outputs": [
        {
          "components": [
            {
              "internalType": "uint256",
              "name": "itemId",
              "type": "uint256"
            },
            {
              "internalType": "string",
              "name": "name",
              "type": "string"
            },
            {
              "internalType": "string",
              "name": "description",
              "type": "string"
            },
            {
              "internalType": "bool",
              "name": "isAvailableForRent",
              "type": "bool"
            },
            {
              "internalType": "bool",
              "name": "isAvailableForSale",
              "type": "bool"
            },
            {
              "internalType": "uint256",
              "name": "price",
              "type": "uint256"
            },
            {
              "internalType": "uint256",
              "name": "rentPrice",
              "type": "uint256"
            },
            {
              "internalType": "address",
              "name": "owner",
              "type": "address"
            },
            {
              "internalType": "address",
              "name": "renteraddr",
              "type": "address"
            }
          ],
          "internalType": "struct GameItems.Item[]",
          "name": "",
          "type": "tuple[]"
        }
      ],
      "stateMutability": "nonpayable",
      "type": "function"
    },
    {
      "inputs": [],
      "name": "getAllItems",
      "outputs": [
        {
          "components": [
            {
              "internalType": "uint256",
              "name": "itemId",
              "type": "uint256"
            },
            {
              "internalType": "string",
              "name": "name",
              "type": "string"
            },
            {
              "internalType": "string",
              "name": "description",
              "type": "string"
            },
            {
              "internalType": "bool",
              "name": "isAvailableForRent",
              "type": "bool"
            },
            {
              "internalType": "bool",
              "name": "isAvailableForSale",
              "type": "bool"
            },
            {
              "internalType": "uint256",
              "name": "price",
              "type": "uint256"
            },
            {
              "internalType": "uint256",
              "name": "rentPrice",
              "type": "uint256"
            },
            {
              "internalType": "address",
              "name": "owner",
              "type": "address"
            },
            {
              "internalType": "address",
              "name": "renteraddr",
              "type": "address"
            }
          ],
          "internalType": "struct GameItems.Item[]",
          "name": "",
          "type": "tuple[]"
        }
      ],
      "stateMutability": "nonpayable",
      "type": "function"
    },
    {
      "inputs": [
        {
          "internalType": "string",
          "name": "_username",
          "type": "string"
        }
      ],
      "name": "registerUser",
      "outputs": [],
      "stateMutability": "payable",
      "type": "function",
      "payable": true
    },
    {
      "inputs": [
        {
          "internalType": "string",
          "name": "_name",
          "type": "string"
        },
        {
          "internalType": "uint256",
          "name": "price",
          "type": "uint256"
        },
        {
          "internalType": "string",
          "name": "_description",
          "type": "string"
        }
      ],
      "name": "addItem",
      "outputs": [
        {
          "internalType": "uint256",
          "name": "",
          "type": "uint256"
        }
      ],
      "stateMutability": "nonpayable",
      "type": "function"
    },
    {
      "inputs": [
        {
          "internalType": "uint256",
          "name": "_itemId",
          "type": "uint256"
        }
      ],
      "name": "listItemForSale",
      "outputs": [
        {
          "internalType": "bool",
          "name": "",
          "type": "bool"
        }
      ],
      "stateMutability": "nonpayable",
      "type": "function"
    },
    {
      "inputs": [
        {
          "internalType": "uint256",
          "name": "_itemId",
          "type": "uint256"
        }
      ],
      "name": "isItemForSale",
      "outputs": [
        {
          "internalType": "bool",
          "name": "",
          "type": "bool"
        }
      ],
      "stateMutability": "view",
      "type": "function",
      "constant": true
    },
    {
      "inputs": [
        {
          "internalType": "uint256",
          "name": "_itemId",
          "type": "uint256"
        }
      ],
      "name": "buyItem",
      "outputs": [],
      "stateMutability": "payable",
      "type": "function",
      "payable": true
    },
    {
      "inputs": [
        {
          "internalType": "uint256",
          "name": "_itemId",
          "type": "uint256"
        }
      ],
      "name": "listItemForRent",
      "outputs": [],
      "stateMutability": "nonpayable",
      "type": "function"
    },
    {
      "inputs": [
        {
          "internalType": "uint256",
          "name": "_itemId",
          "type": "uint256"
        }
      ],
      "name": "isItemForRent",
      "outputs": [
        {
          "internalType": "bool",
          "name": "",
          "type": "bool"
        }
      ],
      "stateMutability": "view",
      "type": "function",
      "constant": true
    },
    {
      "inputs": [
        {
          "internalType": "uint256",
          "name": "_itemId",
          "type": "uint256"
        }
      ],
      "name": "rentItem",
      "outputs": [],
      "stateMutability": "payable",
      "type": "function",
      "payable": true
    },
    {
      "inputs": [
        {
          "internalType": "uint256",
          "name": "_itemId",
          "type": "uint256"
        },
        {
          "internalType": "uint256",
          "name": "rating",
          "type": "uint256"
        }
      ],
      "name": "playGame",
      "outputs": [],
      "stateMutability": "nonpayable",
      "type": "function"
    },
    {
      "inputs": [
        {
          "internalType": "uint256",
          "name": "_itemId",
          "type": "uint256"
        }
      ],
      "name": "returnRentedItem",
      "outputs": [],
      "stateMutability": "nonpayable",
      "type": "function"
    }
  ],
  "bytecode": "0x60806040526040516200641d3803806200641d8339818101604052810190620000299190620004c7565b6040518060400160405280600981526020017f47616d654974656d7300000000000000000000000000000000000000000000008152506040518060400160405280600281526020017f47490000000000000000000000000000000000000000000000000000000000008152508160009081620000a6919062000763565b508060019081620000b8919062000763565b50505033600760006101000a81548173ffffffffffffffffffffffffffffffffffffffff021916908373ffffffffffffffffffffffffffffffffffffffff1602179055506040518060a001604052803373ffffffffffffffffffffffffffffffffffffffff168152602001828152602001348152602001600067ffffffffffffffff8111156200014d576200014c62000363565b5b6040519080825280602002602001820160405280156200017c5781602001602082028036833780820191505090505b508152602001600067ffffffffffffffff811115620001a0576200019f62000363565b5b604051908082528060200260200182016040528015620001cf5781602001602082028036833780820191505090505b50815250600860003373ffffffffffffffffffffffffffffffffffffffff1673ffffffffffffffffffffffffffffffffffffffff16815260200190815260200160002060008201518160000160006101000a81548173ffffffffffffffffffffffffffffffffffffffff021916908373ffffffffffffffffffffffffffffffffffffffff160217905550602082015181600101908162000270919062000763565b5060408201518160020155606082015181600301908051906020019062000299929190620002c3565b506080820151816004019080519060200190620002b8929190620002c3565b50905050506200084a565b82805482825590600052602060002090810192821562000302579160200282015b8281111562000301578251825591602001919060010190620002e4565b5b50905062000311919062000315565b5090565b5b808211156200033057600081600090555060010162000316565b5090565b6000604051905090565b600080fd5b600080fd5b600080fd5b600080fd5b6000601f19601f8301169050919050565b7f4e487b7100000000000000000000000000000000000000000000000000000000600052604160045260246000fd5b6200039d8262000352565b810181811067ffffffffffffffff82111715620003bf57620003be62000363565b5b80604052505050565b6000620003d462000334565b9050620003e2828262000392565b919050565b600067ffffffffffffffff82111562000405576200040462000363565b5b620004108262000352565b9050602081019050919050565b60005b838110156200043d57808201518184015260208101905062000420565b60008484015250505050565b6000620004606200045a84620003e7565b620003c8565b9050828152602081018484840111156200047f576200047e6200034d565b5b6200048c8482856200041d565b509392505050565b600082601f830112620004ac57620004ab62000348565b5b8151620004be84826020860162000449565b91505092915050565b600060208284031215620004e057620004df6200033e565b5b600082015167ffffffffffffffff81111562000501576200050062000343565b5b6200050f8482850162000494565b91505092915050565b600081519050919050565b7f4e487b7100000000000000000000000000000000000000000000000000000000600052602260045260246000fd5b600060028204905060018216806200056b57607f821691505b60208210810362000581576200058062000523565b5b50919050565b60008190508160005260206000209050919050565b60006020601f8301049050919050565b600082821b905092915050565b600060088302620005eb7fffffffffffffffffffffffffffffffffffffffffffffffffffffffffffffffff82620005ac565b620005f78683620005ac565b95508019841693508086168417925050509392505050565b6000819050919050565b6000819050919050565b6000620006446200063e62000638846200060f565b62000619565b6200060f565b9050919050565b6000819050919050565b620006608362000623565b620006786200066f826200064b565b848454620005b9565b825550505050565b600090565b6200068f62000680565b6200069c81848462000655565b505050565b5b81811015620006c457620006b860008262000685565b600181019050620006a2565b5050565b601f8211156200071357620006dd8162000587565b620006e8846200059c565b81016020851015620006f8578190505b6200071062000707856200059c565b830182620006a1565b50505b505050565b600082821c905092915050565b6000620007386000198460080262000718565b1980831691505092915050565b600062000753838362000725565b9150826002028217905092915050565b6200076e8262000518565b67ffffffffffffffff8111156200078a576200078962000363565b5b62000796825462000552565b620007a3828285620006c8565b600060209050601f831160018114620007db5760008415620007c6578287015190505b620007d2858262000745565b86555062000842565b601f198416620007eb8662000587565b60005b828110156200081557848901518255600182019150602085019450602081019050620007ee565b8683101562000835578489015162000831601f89168262000725565b8355505b6001600288020188555050505b505050505050565b615bc3806200085a6000396000f3fe6080604052600436106101b75760003560e01c8063a22cb465116100ec578063c87b56dd1161008a578063d92ed60b11610064578063d92ed60b14610654578063e7846b6614610691578063e7fb74c7146106ce578063e985e9c5146106ea576101b7565b8063c87b56dd146105be578063ce0958c4146105fb578063d78d385214610638576101b7565b8063a8cffa22116100c6578063a8cffa22146104fe578063b36d8d8b14610527578063b88d4fde14610550578063bfb231d214610579576101b7565b8063a22cb46514610459578063a3e54b3e14610482578063a87430ba146104bf576101b7565b806342842e0e116101595780636f77926b116101335780636f77926b14610398578063704f1b94146103d557806370a08231146103f157806395d89b411461042e576101b7565b806342842e0e146103075780634ba1d6aa146103305780636352211e1461035b576101b7565b8063095ea7b311610195578063095ea7b31461026157806323b872dd1461028a57806334825a23146102b35780633923f590146102dc576101b7565b806301ffc9a7146101bc57806306fdde03146101f9578063081812fc14610224575b600080fd5b3480156101c857600080fd5b506101e360048036038101906101de91906140a6565b610727565b6040516101f091906140ee565b60405180910390f35b34801561020557600080fd5b5061020e610809565b60405161021b9190614199565b60405180910390f35b34801561023057600080fd5b5061024b600480360381019061024691906141f1565b61089b565b604051610258919061425f565b60405180910390f35b34801561026d57600080fd5b50610288600480360381019061028391906142a6565b6108e1565b005b34801561029657600080fd5b506102b160048036038101906102ac91906142e6565b6109f8565b005b3480156102bf57600080fd5b506102da60048036038101906102d59190614339565b610a58565b005b3480156102e857600080fd5b506102f1610bcd565b6040516102fe919061457e565b60405180910390f35b34801561031357600080fd5b5061032e600480360381019061032991906142e6565b61104b565b005b34801561033c57600080fd5b5061034561106b565b604051610352919061457e565b60405180910390f35b34801561036757600080fd5b50610382600480360381019061037d91906141f1565b61143d565b60405161038f919061425f565b60405180910390f35b3480156103a457600080fd5b506103bf60048036038101906103ba91906145a0565b6114c3565b6040516103cc9190614199565b60405180910390f35b6103ef60048036038101906103ea9190614702565b61166e565b005b3480156103fd57600080fd5b50610418600480360381019061041391906145a0565b6118f4565b604051610425919061475a565b60405180910390f35b34801561043a57600080fd5b506104436119ab565b6040516104509190614199565b60405180910390f35b34801561046557600080fd5b50610480600480360381019061047b91906147a1565b611a3d565b005b34801561048e57600080fd5b506104a960048036038101906104a491906147e1565b611a53565b6040516104b6919061475a565b60405180910390f35b3480156104cb57600080fd5b506104e660048036038101906104e191906145a0565b611d75565b6040516104f59392919061486c565b60405180910390f35b34801561050a57600080fd5b50610525600480360381019061052091906141f1565b611e47565b005b34801561053357600080fd5b5061054e600480360381019061054991906141f1565b6120db565b005b34801561055c57600080fd5b506105776004803603810190610572919061494b565b6121cc565b005b34801561058557600080fd5b506105a0600480360381019061059b91906141f1565b61222e565b6040516105b5999897969594939291906149ce565b60405180910390f35b3480156105ca57600080fd5b506105e560048036038101906105e091906141f1565b6123e6565b6040516105f29190614199565b60405180910390f35b34801561060757600080fd5b50610622600480360381019061061d91906141f1565b61244e565b60405161062f91906140ee565b60405180910390f35b610652600480360381019061064d91906141f1565b61247b565b005b34801561066057600080fd5b5061067b600480360381019061067691906141f1565b612886565b60405161068891906140ee565b60405180910390f35b34801561069d57600080fd5b506106b860048036038101906106b391906141f1565b61299d565b6040516106c591906140ee565b60405180910390f35b6106e860048036038101906106e391906141f1565b6129ca565b005b3480156106f657600080fd5b50610711600480360381019061070c9190614a69565b613064565b60405161071e91906140ee565b60405180910390f35b60007f80ac58cd000000000000000000000000000000000000000000000000000000007bffffffffffffffffffffffffffffffffffffffffffffffffffffffff1916827bffffffffffffffffffffffffffffffffffffffffffffffffffffffff191614806107f257507f5b5e139f000000000000000000000000000000000000000000000000000000007bffffffffffffffffffffffffffffffffffffffffffffffffffffffff1916827bffffffffffffffffffffffffffffffffffffffffffffffffffffffff1916145b806108025750610801826130f8565b5b9050919050565b60606000805461081890614ad8565b80601f016020809104026020016040519081016040528092919081815260200182805461084490614ad8565b80156108915780601f1061086657610100808354040283529160200191610891565b820191906000526020600020905b81548152906001019060200180831161087457829003601f168201915b5050505050905090565b60006108a682613162565b6004600083815260200190815260200160002060009054906101000a900473ffffffffffffffffffffffffffffffffffffffff169050919050565b60006108ec8261143d565b90508073ffffffffffffffffffffffffffffffffffffffff168373ffffffffffffffffffffffffffffffffffffffff160361095c576040517f08c379a000000000000000000000000000000000000000000000000000000000815260040161095390614b7b565b60405180910390fd5b8073ffffffffffffffffffffffffffffffffffffffff1661097b6131ad565b73ffffffffffffffffffffffffffffffffffffffff1614806109aa57506109a9816109a46131ad565b613064565b5b6109e9576040517f08c379a00000000000000000000000000000000000000000000000000000000081526004016109e090614c0d565b60405180910390fd5b6109f383836131b5565b505050565b610a09610a036131ad565b8261326e565b610a48576040517f08c379a0000000000000000000000000000000000000000000000000000000008152600401610a3f90614c9f565b60405180910390fd5b610a53838383613303565b505050565b610a6233836135fc565b610aa1576040517f08c379a0000000000000000000000000000000000000000000000000000000008152600401610a9890614d0b565b60405180910390fd5b610aaa8261244e565b15610aea576040517f08c379a0000000000000000000000000000000000000000000000000000000008152600401610ae190614d77565b60405180910390fd5b60008110158015610afc575060058111155b610b3b576040517f08c379a0000000000000000000000000000000000000000000000000000000008152600401610b3290614e09565b60405180910390fd5b60006009600084815260200190815260200160002060030160006101000a81548160ff02191690831515021790555060006009600084815260200190815260200160002060070160006101000a81548173ffffffffffffffffffffffffffffffffffffffff021916908373ffffffffffffffffffffffffffffffffffffffff160217905550610bc982611e47565b5050565b6060600073ffffffffffffffffffffffffffffffffffffffff16600860003373ffffffffffffffffffffffffffffffffffffffff1673ffffffffffffffffffffffffffffffffffffffff16815260200190815260200160002060000160009054906101000a900473ffffffffffffffffffffffffffffffffffffffff1673ffffffffffffffffffffffffffffffffffffffff1603610ca0576040517f08c379a0000000000000000000000000000000000000000000000000000000008152600401610c9790614e75565b60405180910390fd5b6000600860003373ffffffffffffffffffffffffffffffffffffffff1673ffffffffffffffffffffffffffffffffffffffff168152602001908152602001600020600301805480602002602001604051908101604052809291908181526020018280548015610d2e57602002820191906000526020600020905b815481526020019060010190808311610d1a575b5050505050905060008060018351610d469190614ec4565b67ffffffffffffffff811115610d5f57610d5e6145d7565b5b604051908082528060200260200182016040528015610d9857816020015b610d85613f54565b815260200190600190039081610d7d5790505b50905060005b83518110156110415760096000858381518110610dbe57610dbd614ef8565b5b602002602001015181526020019081526020016000206040518061012001604052908160008201548152602001600182018054610dfa90614ad8565b80601f0160208091040260200160405190810160405280929190818152602001828054610e2690614ad8565b8015610e735780601f10610e4857610100808354040283529160200191610e73565b820191906000526020600020905b815481529060010190602001808311610e5657829003601f168201915b50505050508152602001600282018054610e8c90614ad8565b80601f0160208091040260200160405190810160405280929190818152602001828054610eb890614ad8565b8015610f055780601f10610eda57610100808354040283529160200191610f05565b820191906000526020600020905b815481529060010190602001808311610ee857829003601f168201915b505050505081526020016003820160009054906101000a900460ff161515151581526020016003820160019054906101000a900460ff1615151515815260200160048201548152602001600582015481526020016006820160009054906101000a900473ffffffffffffffffffffffffffffffffffffffff1673ffffffffffffffffffffffffffffffffffffffff1673ffffffffffffffffffffffffffffffffffffffff1681526020016007820160009054906101000a900473ffffffffffffffffffffffffffffffffffffffff1673ffffffffffffffffffffffffffffffffffffffff1673ffffffffffffffffffffffffffffffffffffffff168152505082848061101090614f27565b95508151811061102357611022614ef8565b5b6020026020010181905250808061103990614f27565b915050610d9e565b5080935050505090565b611066838383604051806020016040528060008152506121cc565b505050565b6060600073ffffffffffffffffffffffffffffffffffffffff16600860003373ffffffffffffffffffffffffffffffffffffffff1673ffffffffffffffffffffffffffffffffffffffff16815260200190815260200160002060000160009054906101000a900473ffffffffffffffffffffffffffffffffffffffff1673ffffffffffffffffffffffffffffffffffffffff160361113e576040517f08c379a000000000000000000000000000000000000000000000000000000000815260040161113590614e75565b60405180910390fd5b60008061114b60066136df565b905060008167ffffffffffffffff811115611169576111686145d7565b5b6040519080825280602002602001820160405280156111a257816020015b61118f613f54565b8152602001906001900390816111875790505b5090506000600190505b828111611433576009600082815260200190815260200160002060405180610120016040529081600082015481526020016001820180546111ec90614ad8565b80601f016020809104026020016040519081016040528092919081815260200182805461121890614ad8565b80156112655780601f1061123a57610100808354040283529160200191611265565b820191906000526020600020905b81548152906001019060200180831161124857829003601f168201915b5050505050815260200160028201805461127e90614ad8565b80601f01602080910402602001604051908101604052809291908181526020018280546112aa90614ad8565b80156112f75780601f106112cc576101008083540402835291602001916112f7565b820191906000526020600020905b8154815290600101906020018083116112da57829003601f168201915b505050505081526020016003820160009054906101000a900460ff161515151581526020016003820160019054906101000a900460ff1615151515815260200160048201548152602001600582015481526020016006820160009054906101000a900473ffffffffffffffffffffffffffffffffffffffff1673ffffffffffffffffffffffffffffffffffffffff1673ffffffffffffffffffffffffffffffffffffffff1681526020016007820160009054906101000a900473ffffffffffffffffffffffffffffffffffffffff1673ffffffffffffffffffffffffffffffffffffffff1673ffffffffffffffffffffffffffffffffffffffff168152505082858061140290614f27565b96508151811061141557611414614ef8565b5b6020026020010181905250808061142b90614f27565b9150506111ac565b5080935050505090565b600080611449836136ed565b9050600073ffffffffffffffffffffffffffffffffffffffff168173ffffffffffffffffffffffffffffffffffffffff16036114ba576040517f08c379a00000000000000000000000000000000000000000000000000000000081526004016114b190614fbb565b60405180910390fd5b80915050919050565b6060600073ffffffffffffffffffffffffffffffffffffffff16600860008473ffffffffffffffffffffffffffffffffffffffff1673ffffffffffffffffffffffffffffffffffffffff16815260200190815260200160002060000160009054906101000a900473ffffffffffffffffffffffffffffffffffffffff1673ffffffffffffffffffffffffffffffffffffffff1603611596576040517f08c379a000000000000000000000000000000000000000000000000000000000815260040161158d90614e75565b60405180910390fd5b6000600860008473ffffffffffffffffffffffffffffffffffffffff1673ffffffffffffffffffffffffffffffffffffffff16815260200190815260200160002060010180546115e590614ad8565b80601f016020809104026020016040519081016040528092919081815260200182805461161190614ad8565b801561165e5780601f106116335761010080835404028352916020019161165e565b820191906000526020600020905b81548152906001019060200180831161164157829003601f168201915b5050505050905080915050919050565b600073ffffffffffffffffffffffffffffffffffffffff16600860003373ffffffffffffffffffffffffffffffffffffffff1673ffffffffffffffffffffffffffffffffffffffff16815260200190815260200160002060000160009054906101000a900473ffffffffffffffffffffffffffffffffffffffff1673ffffffffffffffffffffffffffffffffffffffff161461173f576040517f08c379a000000000000000000000000000000000000000000000000000000000815260040161173690615027565b60405180910390fd5b6040518060a001604052803373ffffffffffffffffffffffffffffffffffffffff168152602001828152602001348152602001600067ffffffffffffffff81111561178d5761178c6145d7565b5b6040519080825280602002602001820160405280156117bb5781602001602082028036833780820191505090505b508152602001600067ffffffffffffffff8111156117dc576117db6145d7565b5b60405190808252806020026020018201604052801561180a5781602001602082028036833780820191505090505b50815250600860003373ffffffffffffffffffffffffffffffffffffffff1673ffffffffffffffffffffffffffffffffffffffff16815260200190815260200160002060008201518160000160006101000a81548173ffffffffffffffffffffffffffffffffffffffff021916908373ffffffffffffffffffffffffffffffffffffffff16021790555060208201518160010190816118a991906151f3565b506040820151816002015560608201518160030190805190602001906118d0929190613fd0565b5060808201518160040190805190602001906118ed929190613fd0565b5090505050565b60008073ffffffffffffffffffffffffffffffffffffffff168273ffffffffffffffffffffffffffffffffffffffff1603611964576040517f08c379a000000000000000000000000000000000000000000000000000000000815260040161195b90615337565b60405180910390fd5b600360008373ffffffffffffffffffffffffffffffffffffffff1673ffffffffffffffffffffffffffffffffffffffff168152602001908152602001600020549050919050565b6060600180546119ba90614ad8565b80601f01602080910402602001604051908101604052809291908181526020018280546119e690614ad8565b8015611a335780601f10611a0857610100808354040283529160200191611a33565b820191906000526020600020905b815481529060010190602001808311611a1657829003601f168201915b5050505050905090565b611a4f611a486131ad565b838361372a565b5050565b60008073ffffffffffffffffffffffffffffffffffffffff16600860003373ffffffffffffffffffffffffffffffffffffffff1673ffffffffffffffffffffffffffffffffffffffff16815260200190815260200160002060000160009054906101000a900473ffffffffffffffffffffffffffffffffffffffff1673ffffffffffffffffffffffffffffffffffffffff1603611b25576040517f08c379a0000000000000000000000000000000000000000000000000000000008152600401611b1c90614e75565b60405180910390fd5b611b2f6006613896565b6000611b3b60066136df565b9050611b4733826138ac565b604051806101200160405280828152602001868152602001848152602001600015158152602001600015158152602001858152602001600a600287611b8c9190615357565b611b9691906153c8565b81526020013373ffffffffffffffffffffffffffffffffffffffff168152602001600073ffffffffffffffffffffffffffffffffffffffff1681525060096000838152602001908152602001600020600082015181600001556020820151816001019081611c0491906151f3565b506040820151816002019081611c1a91906151f3565b5060608201518160030160006101000a81548160ff02191690831515021790555060808201518160030160016101000a81548160ff02191690831515021790555060a0820151816004015560c0820151816005015560e08201518160060160006101000a81548173ffffffffffffffffffffffffffffffffffffffff021916908373ffffffffffffffffffffffffffffffffffffffff1602179055506101008201518160070160006101000a81548173ffffffffffffffffffffffffffffffffffffffff021916908373ffffffffffffffffffffffffffffffffffffffff160217905550905050600860003373ffffffffffffffffffffffffffffffffffffffff1673ffffffffffffffffffffffffffffffffffffffff168152602001908152602001600020600301819080600181540180825580915050600190039060005260206000200160009091909190915055809150509392505050565b60086020528060005260406000206000915090508060000160009054906101000a900473ffffffffffffffffffffffffffffffffffffffff1690806001018054611dbe90614ad8565b80601f0160208091040260200160405190810160405280929190818152602001828054611dea90614ad8565b8015611e375780601f10611e0c57610100808354040283529160200191611e37565b820191906000526020600020905b815481529060010190602001808311611e1a57829003601f168201915b5050505050908060020154905083565b611e5133826135fc565b611e90576040517f08c379a0000000000000000000000000000000000000000000000000000000008152600401611e8790614d0b565b60405180910390fd5b60005b600860003373ffffffffffffffffffffffffffffffffffffffff1673ffffffffffffffffffffffffffffffffffffffff168152602001908152602001600020600401805490508110156120d75781600860003373ffffffffffffffffffffffffffffffffffffffff1673ffffffffffffffffffffffffffffffffffffffff1681526020019081526020016000206004018281548110611f3557611f34614ef8565b5b9060005260206000200154036120c457600860003373ffffffffffffffffffffffffffffffffffffffff1673ffffffffffffffffffffffffffffffffffffffff1681526020019081526020016000206004016001600860003373ffffffffffffffffffffffffffffffffffffffff1673ffffffffffffffffffffffffffffffffffffffff16815260200190815260200160002060040180549050611fd991906153f9565b81548110611fea57611fe9614ef8565b5b9060005260206000200154600860003373ffffffffffffffffffffffffffffffffffffffff1673ffffffffffffffffffffffffffffffffffffffff168152602001908152602001600020600401828154811061204957612048614ef8565b5b9060005260206000200181905550600860003373ffffffffffffffffffffffffffffffffffffffff1673ffffffffffffffffffffffffffffffffffffffff1681526020019081526020016000206004018054806120a9576120a861542d565b5b600190038181906000526020600020016000905590556120d7565b80806120cf90614f27565b915050611e93565b5050565b3373ffffffffffffffffffffffffffffffffffffffff166120fb8261143d565b73ffffffffffffffffffffffffffffffffffffffff1614612151576040517f08c379a0000000000000000000000000000000000000000000000000000000008152600401612148906154a8565b60405180910390fd5b61215a8161244e565b1561219a576040517f08c379a000000000000000000000000000000000000000000000000000000000815260040161219190614d77565b60405180910390fd5b60016009600083815260200190815260200160002060030160006101000a81548160ff02191690831515021790555050565b6121dd6121d76131ad565b8361326e565b61221c576040517f08c379a000000000000000000000000000000000000000000000000000000000815260040161221390614c9f565b60405180910390fd5b61222884848484613ac9565b50505050565b600960205280600052604060002060009150905080600001549080600101805461225790614ad8565b80601f016020809104026020016040519081016040528092919081815260200182805461228390614ad8565b80156122d05780601f106122a5576101008083540402835291602001916122d0565b820191906000526020600020905b8154815290600101906020018083116122b357829003601f168201915b5050505050908060020180546122e590614ad8565b80601f016020809104026020016040519081016040528092919081815260200182805461231190614ad8565b801561235e5780601f106123335761010080835404028352916020019161235e565b820191906000526020600020905b81548152906001019060200180831161234157829003601f168201915b5050505050908060030160009054906101000a900460ff16908060030160019054906101000a900460ff16908060040154908060050154908060060160009054906101000a900473ffffffffffffffffffffffffffffffffffffffff16908060070160009054906101000a900473ffffffffffffffffffffffffffffffffffffffff16905089565b60606123f182613162565b60006123fb613b25565b9050600081511161241b5760405180602001604052806000815250612446565b8061242584613b3c565b604051602001612436929190615504565b6040516020818303038152906040525b915050919050565b60006009600083815260200190815260200160002060030160009054906101000a900460ff169050919050565b6124848161244e565b6124c3576040517f08c379a00000000000000000000000000000000000000000000000000000000081526004016124ba90615574565b60405180910390fd5b60006009600083815260200190815260200160002060050154905080341015612521576040517f08c379a0000000000000000000000000000000000000000000000000000000008152600401612518906155e0565b60405180910390fd5b60006009600084815260200190815260200160002060060160009054906101000a900473ffffffffffffffffffffffffffffffffffffffff1690503373ffffffffffffffffffffffffffffffffffffffff168173ffffffffffffffffffffffffffffffffffffffff16036125ca576040517f08c379a00000000000000000000000000000000000000000000000000000000081526004016125c19061564c565b60405180910390fd5b600073ffffffffffffffffffffffffffffffffffffffff16600860003373ffffffffffffffffffffffffffffffffffffffff1673ffffffffffffffffffffffffffffffffffffffff16815260200190815260200160002060000160009054906101000a900473ffffffffffffffffffffffffffffffffffffffff1673ffffffffffffffffffffffffffffffffffffffff160361269b576040517f08c379a000000000000000000000000000000000000000000000000000000000815260040161269290614e75565b60405180910390fd5b600860003373ffffffffffffffffffffffffffffffffffffffff1673ffffffffffffffffffffffffffffffffffffffff16815260200190815260200160002060040183908060018154018082558091505060019003906000526020600020016000909190919091505581600860008373ffffffffffffffffffffffffffffffffffffffff1673ffffffffffffffffffffffffffffffffffffffff16815260200190815260200160002060020160008282546127569190614ec4565b9250508190555081600860003373ffffffffffffffffffffffffffffffffffffffff1673ffffffffffffffffffffffffffffffffffffffff16815260200190815260200160002060020160008282546127af91906153f9565b925050819055508073ffffffffffffffffffffffffffffffffffffffff166108fc839081150290604051600060405180830381858888f193505050501580156127fc573d6000803e3d6000fd5b5060006009600085815260200190815260200160002060030160006101000a81548160ff021916908315150217905550336009600085815260200190815260200160002060070160006101000a81548173ffffffffffffffffffffffffffffffffffffffff021916908373ffffffffffffffffffffffffffffffffffffffff160217905550505050565b6000813373ffffffffffffffffffffffffffffffffffffffff166128a98261143d565b73ffffffffffffffffffffffffffffffffffffffff16146128ff576040517f08c379a00000000000000000000000000000000000000000000000000000000081526004016128f6906154a8565b60405180910390fd5b6129088361299d565b15612948576040517f08c379a000000000000000000000000000000000000000000000000000000000815260040161293f906156b8565b60405180910390fd5b60006009600085815260200190815260200160002060040154905060016009600086815260200190815260200160002060030160016101000a81548160ff021916908315150217905550600192505050919050565b60006009600083815260200190815260200160002060030160019054906101000a900460ff169050919050565b6129d38161299d565b612a12576040517f08c379a0000000000000000000000000000000000000000000000000000000008152600401612a0990615724565b60405180910390fd5b6009600082815260200190815260200160002060040154341015612a6b576040517f08c379a0000000000000000000000000000000000000000000000000000000008152600401612a62906155e0565b60405180910390fd5b60006009600083815260200190815260200160002060060160009054906101000a900473ffffffffffffffffffffffffffffffffffffffff1690503373ffffffffffffffffffffffffffffffffffffffff168173ffffffffffffffffffffffffffffffffffffffff1603612b14576040517f08c379a0000000000000000000000000000000000000000000000000000000008152600401612b0b90615790565b60405180910390fd5b600073ffffffffffffffffffffffffffffffffffffffff16600860003373ffffffffffffffffffffffffffffffffffffffff1673ffffffffffffffffffffffffffffffffffffffff16815260200190815260200160002060000160009054906101000a900473ffffffffffffffffffffffffffffffffffffffff1673ffffffffffffffffffffffffffffffffffffffff1603612be5576040517f08c379a0000000000000000000000000000000000000000000000000000000008152600401612bdc90614e75565b60405180910390fd5b612bf0813384613303565b600860003373ffffffffffffffffffffffffffffffffffffffff1673ffffffffffffffffffffffffffffffffffffffff16815260200190815260200160002060030182908060018154018082558091505060019003906000526020600020016000909190919091505560005b600860008373ffffffffffffffffffffffffffffffffffffffff1673ffffffffffffffffffffffffffffffffffffffff16815260200190815260200160002060030180549050811015612ea05782600860008473ffffffffffffffffffffffffffffffffffffffff1673ffffffffffffffffffffffffffffffffffffffff1681526020019081526020016000206003018281548110612cfe57612cfd614ef8565b5b906000526020600020015403612e8d57600860008373ffffffffffffffffffffffffffffffffffffffff1673ffffffffffffffffffffffffffffffffffffffff1681526020019081526020016000206003016001600860008573ffffffffffffffffffffffffffffffffffffffff1673ffffffffffffffffffffffffffffffffffffffff16815260200190815260200160002060030180549050612da291906153f9565b81548110612db357612db2614ef8565b5b9060005260206000200154600860008473ffffffffffffffffffffffffffffffffffffffff1673ffffffffffffffffffffffffffffffffffffffff1681526020019081526020016000206003018281548110612e1257612e11614ef8565b5b9060005260206000200181905550600860008373ffffffffffffffffffffffffffffffffffffffff1673ffffffffffffffffffffffffffffffffffffffff168152602001908152602001600020600301805480612e7257612e7161542d565b5b60019003818190600052602060002001600090559055612ea0565b8080612e9890614f27565b915050612c5c565b50336009600084815260200190815260200160002060060160006101000a81548173ffffffffffffffffffffffffffffffffffffffff021916908373ffffffffffffffffffffffffffffffffffffffff16021790555060006009600084815260200190815260200160002060030160016101000a81548160ff0219169083151502179055506009600083815260200190815260200160002060040154600860008373ffffffffffffffffffffffffffffffffffffffff1673ffffffffffffffffffffffffffffffffffffffff1681526020019081526020016000206002016000828254612f8d9190614ec4565b925050819055506009600083815260200190815260200160002060040154600860003373ffffffffffffffffffffffffffffffffffffffff1673ffffffffffffffffffffffffffffffffffffffff1681526020019081526020016000206002016000828254612ffc91906153f9565b925050819055508073ffffffffffffffffffffffffffffffffffffffff166108fc60096000858152602001908152602001600020600401549081150290604051600060405180830381858888f1935050505015801561305f573d6000803e3d6000fd5b505050565b6000600560008473ffffffffffffffffffffffffffffffffffffffff1673ffffffffffffffffffffffffffffffffffffffff16815260200190815260200160002060008373ffffffffffffffffffffffffffffffffffffffff1673ffffffffffffffffffffffffffffffffffffffff16815260200190815260200160002060009054906101000a900460ff16905092915050565b60007f01ffc9a7000000000000000000000000000000000000000000000000000000007bffffffffffffffffffffffffffffffffffffffffffffffffffffffff1916827bffffffffffffffffffffffffffffffffffffffffffffffffffffffff1916149050919050565b61316b81613c0a565b6131aa576040517f08c379a00000000000000000000000000000000000000000000000000000000081526004016131a190614fbb565b60405180910390fd5b50565b600033905090565b816004600083815260200190815260200160002060006101000a81548173ffffffffffffffffffffffffffffffffffffffff021916908373ffffffffffffffffffffffffffffffffffffffff160217905550808273ffffffffffffffffffffffffffffffffffffffff166132288361143d565b73ffffffffffffffffffffffffffffffffffffffff167f8c5be1e5ebec7d5bd14f71427d1e84f3dd0314c0f7b2291e5b200ac8c7c3b92560405160405180910390a45050565b60008061327a8361143d565b90508073ffffffffffffffffffffffffffffffffffffffff168473ffffffffffffffffffffffffffffffffffffffff1614806132bc57506132bb8185613064565b5b806132fa57508373ffffffffffffffffffffffffffffffffffffffff166132e28461089b565b73ffffffffffffffffffffffffffffffffffffffff16145b91505092915050565b8273ffffffffffffffffffffffffffffffffffffffff166133238261143d565b73ffffffffffffffffffffffffffffffffffffffff1614613379576040517f08c379a000000000000000000000000000000000000000000000000000000000815260040161337090615822565b60405180910390fd5b600073ffffffffffffffffffffffffffffffffffffffff168273ffffffffffffffffffffffffffffffffffffffff16036133e8576040517f08c379a00000000000000000000000000000000000000000000000000000000081526004016133df906158b4565b60405180910390fd5b6133f58383836001613c4b565b8273ffffffffffffffffffffffffffffffffffffffff166134158261143d565b73ffffffffffffffffffffffffffffffffffffffff161461346b576040517f08c379a000000000000000000000000000000000000000000000000000000000815260040161346290615822565b60405180910390fd5b6004600082815260200190815260200160002060006101000a81549073ffffffffffffffffffffffffffffffffffffffff02191690556001600360008573ffffffffffffffffffffffffffffffffffffffff1673ffffffffffffffffffffffffffffffffffffffff168152602001908152602001600020600082825403925050819055506001600360008473ffffffffffffffffffffffffffffffffffffffff1673ffffffffffffffffffffffffffffffffffffffff16815260200190815260200160002060008282540192505081905550816002600083815260200190815260200160002060006101000a81548173ffffffffffffffffffffffffffffffffffffffff021916908373ffffffffffffffffffffffffffffffffffffffff160217905550808273ffffffffffffffffffffffffffffffffffffffff168473ffffffffffffffffffffffffffffffffffffffff167fddf252ad1be2c89b69c2b068fc378daa952ba7f163c4a11628f55a4df523b3ef60405160405180910390a46135f78383836001613c51565b505050565b600080600090505b600860008573ffffffffffffffffffffffffffffffffffffffff1673ffffffffffffffffffffffffffffffffffffffff168152602001908152602001600020600401805490508110156136d35782600860008673ffffffffffffffffffffffffffffffffffffffff1673ffffffffffffffffffffffffffffffffffffffff16815260200190815260200160002060040182815481106136a6576136a5614ef8565b5b9060005260206000200154036136c05760019150506136d9565b80806136cb90614f27565b915050613604565b50600090505b92915050565b600081600001549050919050565b60006002600083815260200190815260200160002060009054906101000a900473ffffffffffffffffffffffffffffffffffffffff169050919050565b8173ffffffffffffffffffffffffffffffffffffffff168373ffffffffffffffffffffffffffffffffffffffff1603613798576040517f08c379a000000000000000000000000000000000000000000000000000000000815260040161378f90615920565b60405180910390fd5b80600560008573ffffffffffffffffffffffffffffffffffffffff1673ffffffffffffffffffffffffffffffffffffffff16815260200190815260200160002060008473ffffffffffffffffffffffffffffffffffffffff1673ffffffffffffffffffffffffffffffffffffffff16815260200190815260200160002060006101000a81548160ff0219169083151502179055508173ffffffffffffffffffffffffffffffffffffffff168373ffffffffffffffffffffffffffffffffffffffff167f17307eab39ab6107e8899845ad3d59bd9653f200f220920489ca2b5937696c318360405161388991906140ee565b60405180910390a3505050565b6001816000016000828254019250508190555050565b600073ffffffffffffffffffffffffffffffffffffffff168273ffffffffffffffffffffffffffffffffffffffff160361391b576040517f08c379a00000000000000000000000000000000000000000000000000000000081526004016139129061598c565b60405180910390fd5b61392481613c0a565b15613964576040517f08c379a000000000000000000000000000000000000000000000000000000000815260040161395b906159f8565b60405180910390fd5b613972600083836001613c4b565b61397b81613c0a565b156139bb576040517f08c379a00000000000000000000000000000000000000000000000000000000081526004016139b2906159f8565b60405180910390fd5b6001600360008473ffffffffffffffffffffffffffffffffffffffff1673ffffffffffffffffffffffffffffffffffffffff16815260200190815260200160002060008282540192505081905550816002600083815260200190815260200160002060006101000a81548173ffffffffffffffffffffffffffffffffffffffff021916908373ffffffffffffffffffffffffffffffffffffffff160217905550808273ffffffffffffffffffffffffffffffffffffffff16600073ffffffffffffffffffffffffffffffffffffffff167fddf252ad1be2c89b69c2b068fc378daa952ba7f163c4a11628f55a4df523b3ef60405160405180910390a4613ac5600083836001613c51565b5050565b613ad4848484613303565b613ae084848484613c57565b613b1f576040517f08c379a0000000000000000000000000000000000000000000000000000000008152600401613b1690615a8a565b60405180910390fd5b50505050565b606060405180602001604052806000815250905090565b606060006001613b4b84613dde565b01905060008167ffffffffffffffff811115613b6a57613b696145d7565b5b6040519080825280601f01601f191660200182016040528015613b9c5781602001600182028036833780820191505090505b509050600082602001820190505b600115613bff578080600190039150507f3031323334353637383961626364656600000000000000000000000000000000600a86061a8153600a8581613bf357613bf2615399565b5b04945060008503613baa575b819350505050919050565b60008073ffffffffffffffffffffffffffffffffffffffff16613c2c836136ed565b73ffffffffffffffffffffffffffffffffffffffff1614159050919050565b50505050565b50505050565b6000613c788473ffffffffffffffffffffffffffffffffffffffff16613f31565b15613dd1578373ffffffffffffffffffffffffffffffffffffffff1663150b7a02613ca16131ad565b8786866040518563ffffffff1660e01b8152600401613cc39493929190615aff565b6020604051808303816000875af1925050508015613cff57506040513d601f19601f82011682018060405250810190613cfc9190615b60565b60015b613d81573d8060008114613d2f576040519150601f19603f3d011682016040523d82523d6000602084013e613d34565b606091505b506000815103613d79576040517f08c379a0000000000000000000000000000000000000000000000000000000008152600401613d7090615a8a565b60405180910390fd5b805181602001fd5b63150b7a0260e01b7bffffffffffffffffffffffffffffffffffffffffffffffffffffffff1916817bffffffffffffffffffffffffffffffffffffffffffffffffffffffff191614915050613dd6565b600190505b949350505050565b600080600090507a184f03e93ff9f4daa797ed6e38ed64bf6a1f0100000000000000008310613e3c577a184f03e93ff9f4daa797ed6e38ed64bf6a1f0100000000000000008381613e3257613e31615399565b5b0492506040810190505b6d04ee2d6d415b85acef81000000008310613e79576d04ee2d6d415b85acef81000000008381613e6f57613e6e615399565b5b0492506020810190505b662386f26fc100008310613ea857662386f26fc100008381613e9e57613e9d615399565b5b0492506010810190505b6305f5e1008310613ed1576305f5e1008381613ec757613ec6615399565b5b0492506008810190505b6127108310613ef6576127108381613eec57613eeb615399565b5b0492506004810190505b60648310613f195760648381613f0f57613f0e615399565b5b0492506002810190505b600a8310613f28576001810190505b80915050919050565b6000808273ffffffffffffffffffffffffffffffffffffffff163b119050919050565b6040518061012001604052806000815260200160608152602001606081526020016000151581526020016000151581526020016000815260200160008152602001600073ffffffffffffffffffffffffffffffffffffffff168152602001600073ffffffffffffffffffffffffffffffffffffffff1681525090565b82805482825590600052602060002090810192821561400c579160200282015b8281111561400b578251825591602001919060010190613ff0565b5b509050614019919061401d565b5090565b5b8082111561403657600081600090555060010161401e565b5090565b6000604051905090565b600080fd5b600080fd5b60007fffffffff0000000000000000000000000000000000000000000000000000000082169050919050565b6140838161404e565b811461408e57600080fd5b50565b6000813590506140a08161407a565b92915050565b6000602082840312156140bc576140bb614044565b5b60006140ca84828501614091565b91505092915050565b60008115159050919050565b6140e8816140d3565b82525050565b600060208201905061410360008301846140df565b92915050565b600081519050919050565b600082825260208201905092915050565b60005b83811015614143578082015181840152602081019050614128565b60008484015250505050565b6000601f19601f8301169050919050565b600061416b82614109565b6141758185614114565b9350614185818560208601614125565b61418e8161414f565b840191505092915050565b600060208201905081810360008301526141b38184614160565b905092915050565b6000819050919050565b6141ce816141bb565b81146141d957600080fd5b50565b6000813590506141eb816141c5565b92915050565b60006020828403121561420757614206614044565b5b6000614215848285016141dc565b91505092915050565b600073ffffffffffffffffffffffffffffffffffffffff82169050919050565b60006142498261421e565b9050919050565b6142598161423e565b82525050565b60006020820190506142746000830184614250565b92915050565b6142838161423e565b811461428e57600080fd5b50565b6000813590506142a08161427a565b92915050565b600080604083850312156142bd576142bc614044565b5b60006142cb85828601614291565b92505060206142dc858286016141dc565b9150509250929050565b6000806000606084860312156142ff576142fe614044565b5b600061430d86828701614291565b935050602061431e86828701614291565b925050604061432f868287016141dc565b9150509250925092565b600080604083850312156143505761434f614044565b5b600061435e858286016141dc565b925050602061436f858286016141dc565b9150509250929050565b600081519050919050565b600082825260208201905092915050565b6000819050602082019050919050565b6143ae816141bb565b82525050565b600082825260208201905092915050565b60006143d082614109565b6143da81856143b4565b93506143ea818560208601614125565b6143f38161414f565b840191505092915050565b614407816140d3565b82525050565b6144168161423e565b82525050565b60006101208301600083015161443560008601826143a5565b506020830151848203602086015261444d82826143c5565b9150506040830151848203604086015261446782826143c5565b915050606083015161447c60608601826143fe565b50608083015161448f60808601826143fe565b5060a08301516144a260a08601826143a5565b5060c08301516144b560c08601826143a5565b5060e08301516144c860e086018261440d565b506101008301516144dd61010086018261440d565b508091505092915050565b60006144f4838361441c565b905092915050565b6000602082019050919050565b600061451482614379565b61451e8185614384565b93508360208202850161453085614395565b8060005b8581101561456c578484038952815161454d85826144e8565b9450614558836144fc565b925060208a01995050600181019050614534565b50829750879550505050505092915050565b600060208201905081810360008301526145988184614509565b905092915050565b6000602082840312156145b6576145b5614044565b5b60006145c484828501614291565b91505092915050565b600080fd5b600080fd5b7f4e487b7100000000000000000000000000000000000000000000000000000000600052604160045260246000fd5b61460f8261414f565b810181811067ffffffffffffffff8211171561462e5761462d6145d7565b5b80604052505050565b600061464161403a565b905061464d8282614606565b919050565b600067ffffffffffffffff82111561466d5761466c6145d7565b5b6146768261414f565b9050602081019050919050565b82818337600083830152505050565b60006146a56146a084614652565b614637565b9050828152602081018484840111156146c1576146c06145d2565b5b6146cc848285614683565b509392505050565b600082601f8301126146e9576146e86145cd565b5b81356146f9848260208601614692565b91505092915050565b60006020828403121561471857614717614044565b5b600082013567ffffffffffffffff81111561473657614735614049565b5b614742848285016146d4565b91505092915050565b614754816141bb565b82525050565b600060208201905061476f600083018461474b565b92915050565b61477e816140d3565b811461478957600080fd5b50565b60008135905061479b81614775565b92915050565b600080604083850312156147b8576147b7614044565b5b60006147c685828601614291565b92505060206147d78582860161478c565b9150509250929050565b6000806000606084860312156147fa576147f9614044565b5b600084013567ffffffffffffffff81111561481857614817614049565b5b614824868287016146d4565b9350506020614835868287016141dc565b925050604084013567ffffffffffffffff81111561485657614855614049565b5b614862868287016146d4565b9150509250925092565b60006060820190506148816000830186614250565b81810360208301526148938185614160565b90506148a2604083018461474b565b949350505050565b600067ffffffffffffffff8211156148c5576148c46145d7565b5b6148ce8261414f565b9050602081019050919050565b60006148ee6148e9846148aa565b614637565b90508281526020810184848401111561490a576149096145d2565b5b614915848285614683565b509392505050565b600082601f830112614932576149316145cd565b5b81356149428482602086016148db565b91505092915050565b6000806000806080858703121561496557614964614044565b5b600061497387828801614291565b945050602061498487828801614291565b9350506040614995878288016141dc565b925050606085013567ffffffffffffffff8111156149b6576149b5614049565b5b6149c28782880161491d565b91505092959194509250565b6000610120820190506149e4600083018c61474b565b81810360208301526149f6818b614160565b90508181036040830152614a0a818a614160565b9050614a1960608301896140df565b614a2660808301886140df565b614a3360a083018761474b565b614a4060c083018661474b565b614a4d60e0830185614250565b614a5b610100830184614250565b9a9950505050505050505050565b60008060408385031215614a8057614a7f614044565b5b6000614a8e85828601614291565b9250506020614a9f85828601614291565b9150509250929050565b7f4e487b7100000000000000000000000000000000000000000000000000000000600052602260045260246000fd5b60006002820490506001821680614af057607f821691505b602082108103614b0357614b02614aa9565b5b50919050565b7f4552433732313a20617070726f76616c20746f2063757272656e74206f776e6560008201527f7200000000000000000000000000000000000000000000000000000000000000602082015250565b6000614b65602183614114565b9150614b7082614b09565b604082019050919050565b60006020820190508181036000830152614b9481614b58565b9050919050565b7f4552433732313a20617070726f76652063616c6c6572206973206e6f7420746f60008201527f6b656e206f776e6572206f7220617070726f76656420666f7220616c6c000000602082015250565b6000614bf7603d83614114565b9150614c0282614b9b565b604082019050919050565b60006020820190508181036000830152614c2681614bea565b9050919050565b7f4552433732313a2063616c6c6572206973206e6f7420746f6b656e206f776e6560008201527f72206f7220617070726f76656400000000000000000000000000000000000000602082015250565b6000614c89602d83614114565b9150614c9482614c2d565b604082019050919050565b60006020820190508181036000830152614cb881614c7c565b9050919050565b7f4e6f74207468652072656e746572206f6620746865206974656d2e0000000000600082015250565b6000614cf5601b83614114565b9150614d0082614cbf565b602082019050919050565b60006020820190508181036000830152614d2481614ce8565b9050919050565b7f4974656d20616c7265616479206c697374656420666f722072656e742e000000600082015250565b6000614d61601d83614114565b9150614d6c82614d2b565b602082019050919050565b60006020820190508181036000830152614d9081614d54565b9050919050565b7f476976652076616c696420726174696e67206265747765656e203020616e642060008201527f3500000000000000000000000000000000000000000000000000000000000000602082015250565b6000614df3602183614114565b9150614dfe82614d97565b604082019050919050565b60006020820190508181036000830152614e2281614de6565b9050919050565b7f55736572206e6f7420726567697374657265642e000000000000000000000000600082015250565b6000614e5f601483614114565b9150614e6a82614e29565b602082019050919050565b60006020820190508181036000830152614e8e81614e52565b9050919050565b7f4e487b7100000000000000000000000000000000000000000000000000000000600052601160045260246000fd5b6000614ecf826141bb565b9150614eda836141bb565b9250828201905080821115614ef257614ef1614e95565b5b92915050565b7f4e487b7100000000000000000000000000000000000000000000000000000000600052603260045260246000fd5b6000614f32826141bb565b91507fffffffffffffffffffffffffffffffffffffffffffffffffffffffffffffffff8203614f6457614f63614e95565b5b600182019050919050565b7f4552433732313a20696e76616c696420746f6b656e2049440000000000000000600082015250565b6000614fa5601883614114565b9150614fb082614f6f565b602082019050919050565b60006020820190508181036000830152614fd481614f98565b9050919050565b7f5573657220616c726561647920726567697374657265642e0000000000000000600082015250565b6000615011601883614114565b915061501c82614fdb565b602082019050919050565b6000602082019050818103600083015261504081615004565b9050919050565b60008190508160005260206000209050919050565b60006020601f8301049050919050565b600082821b905092915050565b6000600883026150a97fffffffffffffffffffffffffffffffffffffffffffffffffffffffffffffffff8261506c565b6150b3868361506c565b95508019841693508086168417925050509392505050565b6000819050919050565b60006150f06150eb6150e6846141bb565b6150cb565b6141bb565b9050919050565b6000819050919050565b61510a836150d5565b61511e615116826150f7565b848454615079565b825550505050565b600090565b615133615126565b61513e818484615101565b505050565b5b818110156151625761515760008261512b565b600181019050615144565b5050565b601f8211156151a75761517881615047565b6151818461505c565b81016020851015615190578190505b6151a461519c8561505c565b830182615143565b50505b505050565b600082821c905092915050565b60006151ca600019846008026151ac565b1980831691505092915050565b60006151e383836151b9565b9150826002028217905092915050565b6151fc82614109565b67ffffffffffffffff811115615215576152146145d7565b5b61521f8254614ad8565b61522a828285615166565b600060209050601f83116001811461525d576000841561524b578287015190505b61525585826151d7565b8655506152bd565b601f19841661526b86615047565b60005b828110156152935784890151825560018201915060208501945060208101905061526e565b868310156152b057848901516152ac601f8916826151b9565b8355505b6001600288020188555050505b505050505050565b7f4552433732313a2061646472657373207a65726f206973206e6f74206120766160008201527f6c6964206f776e65720000000000000000000000000000000000000000000000602082015250565b6000615321602983614114565b915061532c826152c5565b604082019050919050565b6000602082019050818103600083015261535081615314565b9050919050565b6000615362826141bb565b915061536d836141bb565b925082820261537b816141bb565b9150828204841483151761539257615391614e95565b5b5092915050565b7f4e487b7100000000000000000000000000000000000000000000000000000000600052601260045260246000fd5b60006153d3826141bb565b91506153de836141bb565b9250826153ee576153ed615399565b5b828204905092915050565b6000615404826141bb565b915061540f836141bb565b925082820390508181111561542757615426614e95565b5b92915050565b7f4e487b7100000000000000000000000000000000000000000000000000000000600052603160045260246000fd5b7f4e6f7420746865206f776e6572206f6620746865206974656d2e000000000000600082015250565b6000615492601a83614114565b915061549d8261545c565b602082019050919050565b600060208201905081810360008301526154c181615485565b9050919050565b600081905092915050565b60006154de82614109565b6154e881856154c8565b93506154f8818560208601614125565b80840191505092915050565b600061551082856154d3565b915061551c82846154d3565b91508190509392505050565b7f4974656d206e6f74206c697374656420666f722072656e742e00000000000000600082015250565b600061555e601983614114565b915061556982615528565b602082019050919050565b6000602082019050818103600083015261558d81615551565b9050919050565b7f496e73756666696369656e742066756e64732e00000000000000000000000000600082015250565b60006155ca601383614114565b91506155d582615594565b602082019050919050565b600060208201905081810360008301526155f9816155bd565b9050919050565b7f43616e6e6f742072656e74206f776e206974656d2e0000000000000000000000600082015250565b6000615636601583614114565b915061564182615600565b602082019050919050565b6000602082019050818103600083015261566581615629565b9050919050565b7f4974656d20616c7265616479206c697374656420666f722073616c652e000000600082015250565b60006156a2601d83614114565b91506156ad8261566c565b602082019050919050565b600060208201905081810360008301526156d181615695565b9050919050565b7f4974656d206e6f74206c697374656420666f722073616c652e00000000000000600082015250565b600061570e601983614114565b9150615719826156d8565b602082019050919050565b6000602082019050818103600083015261573d81615701565b9050919050565b7f43616e6e6f7420627579206f776e206974656d2e000000000000000000000000600082015250565b600061577a601483614114565b915061578582615744565b602082019050919050565b600060208201905081810360008301526157a98161576d565b9050919050565b7f4552433732313a207472616e736665722066726f6d20696e636f72726563742060008201527f6f776e6572000000000000000000000000000000000000000000000000000000602082015250565b600061580c602583614114565b9150615817826157b0565b604082019050919050565b6000602082019050818103600083015261583b816157ff565b9050919050565b7f4552433732313a207472616e7366657220746f20746865207a65726f2061646460008201527f7265737300000000000000000000000000000000000000000000000000000000602082015250565b600061589e602483614114565b91506158a982615842565b604082019050919050565b600060208201905081810360008301526158cd81615891565b9050919050565b7f4552433732313a20617070726f766520746f2063616c6c657200000000000000600082015250565b600061590a601983614114565b9150615915826158d4565b602082019050919050565b60006020820190508181036000830152615939816158fd565b9050919050565b7f4552433732313a206d696e7420746f20746865207a65726f2061646472657373600082015250565b6000615976602083614114565b915061598182615940565b602082019050919050565b600060208201905081810360008301526159a581615969565b9050919050565b7f4552433732313a20746f6b656e20616c7265616479206d696e74656400000000600082015250565b60006159e2601c83614114565b91506159ed826159ac565b602082019050919050565b60006020820190508181036000830152615a11816159d5565b9050919050565b7f4552433732313a207472616e7366657220746f206e6f6e20455243373231526560008201527f63656976657220696d706c656d656e7465720000000000000000000000000000602082015250565b6000615a74603283614114565b9150615a7f82615a18565b604082019050919050565b60006020820190508181036000830152615aa381615a67565b9050919050565b600081519050919050565b600082825260208201905092915050565b6000615ad182615aaa565b615adb8185615ab5565b9350615aeb818560208601614125565b615af48161414f565b840191505092915050565b6000608082019050615b146000830187614250565b615b216020830186614250565b615b2e604083018561474b565b8181036060830152615b408184615ac6565b905095945050505050565b600081519050615b5a8161407a565b92915050565b600060208284031215615b7657615b75614044565b5b6000615b8484828501615b4b565b9150509291505056fea2646970667358221220398dc401ca3e66fc0591f12472cc22da68510a4a02dba30e6d3fcc706d087b2f64736f6c63430008130033",
  "immutableReferences": {},
  "source": "// SPDX-License-Identifier: MIT\npragma solidity ^0.8.0;\n\nimport \"@openzeppelin/contracts/token/ERC721/ERC721.sol\";\nimport \"@openzeppelin/contracts/utils/Counters.sol\";\n// import \"./Gamesrent.sol\";\n\ncontract GameItems is ERC721 {\n    using Counters for Counters.Counter;\n    Counters.Counter private _tokenIds;\n\n    address admin;\n\n    struct User {\n        address walletAddress;\n        string username;\n        uint256 balance;\n        uint256[] ownedItemIds;\n        uint256[] rentedItemIds;\n    }\n\n    struct Item {\n        uint256 itemId;\n        string name;\n        string description;\n        bool isAvailableForRent;\n        bool isAvailableForSale;\n        uint256 price;\n        uint256 rentPrice;\n        address owner;\n        address renteraddr;\n    }\n\n    // struct SaleListing {\n    //     uint256 itemId;\n    //     address seller;\n    //     uint256 price;\n    // }\n\n    // struct RentListing {\n    //     uint256 itemId;\n    //     address owner;\n    //     uint256 gameRentPrice;\n    // }\n\n    mapping(address => User) public users;\n    mapping(uint256 => Item) public items;\n    // mapping(uint256 => SaleListing) public listings;\n    // mapping(uint256 => RentListing) public rentListings;\n\n\n\n    constructor(string memory _username) ERC721(\"GameItems\", \"GI\") payable {\n        admin = msg.sender;\n        users[msg.sender] = User(msg.sender, _username, msg.value, new uint256[](0), new uint256[](0));\n    }\n\n    modifier onlyRegistered() {\n        require(users[msg.sender].walletAddress != address(0),\"User not registered.\");\n        _;\n    }\n\n    modifier onlyOwner(uint256 _itemId) {\n        require(ownerOf(_itemId) == msg.sender, \"Not the owner of the item.\");\n        _;\n    }\n\n    modifier onlyAdmin() {\n        require(admin==msg.sender,\"Only Admin operations\");\n        _;\n    }\n\n    function getUser(address useraddr) public returns  (string memory){\n        require(users[useraddr].walletAddress != address(0), \"User not registered.\");\n        string memory userA = users[useraddr].username;\n        return userA;\n    }\n\n    function getItemsByUser() public onlyRegistered returns (Item[] memory) {\n        uint256[] memory itemslist = users[msg.sender].ownedItemIds;\n        uint256 index=0;\n        Item[] memory result = new Item[](itemslist.length+1);\n        for (uint i=0; i<itemslist.length; i++) {\n            result[index++] = items[itemslist[i]];\n        }\n        return result;\n    }\n\n    function getAllItems() public onlyRegistered returns (Item[] memory){\n        uint256 index=0;\n        uint itemC = _tokenIds.current();\n\n        Item[] memory result = new Item[](itemC);\n        for (uint i=1; i<=itemC; i++) {\n            result[index++] = items[i];\n        }\n        return result;\n    }\n\n    function registerUser(string memory _username) public payable {\n        require(users[msg.sender].walletAddress == address(0), \"User already registered.\");\n        users[msg.sender] = User(msg.sender, _username, msg.value, new uint256[](0), new uint256[](0));\n    }\n\n    function addItem(string memory _name,uint256 price, string memory _description) public onlyRegistered returns (uint256) {\n        _tokenIds.increment();\n        uint256 newItemId = _tokenIds.current();\n        _mint(msg.sender, newItemId);\n        items[newItemId] = Item(newItemId,_name,_description,false,false,price,price*2/10,msg.sender,address(0));\n        users[msg.sender].ownedItemIds.push(newItemId);\n        return newItemId;\n    }\n    // Sale related functions\n\n    function listItemForSale(uint256 _itemId) public onlyOwner(_itemId) returns (bool){\n        // require(ownerOf(_itemId) == msg.sender, \"Not the owner of the item.\");\n        require(!isItemForSale(_itemId), \"Item already listed for sale.\");\n        uint256 _price = items[_itemId].price;\n        // listings[_itemId] = SaleListing(_itemId, msg.sender, _price);\n        items[_itemId].isAvailableForSale = true;\n        return true;\n    }\n\n    function isItemForSale(uint256 _itemId) public view returns (bool) {\n        return items[_itemId].isAvailableForSale;\n    }\n\n    function buyItem(uint256 _itemId) public payable {\n        require(isItemForSale(_itemId), \"Item not listed for sale.\");\n        require(msg.value >= items[_itemId].price, \"Insufficient funds.\");\n        address seller = items[_itemId].owner;\n        require(seller != msg.sender, \"Cannot buy own item.\");\n        require(users[msg.sender].walletAddress != address(0),\"User not registered.\");\n\n        _transfer(seller, msg.sender, _itemId);\n        users[msg.sender].ownedItemIds.push(_itemId);\n\n        for (uint i = 0; i < users[seller].ownedItemIds.length; i++) {\n            if (users[seller].ownedItemIds[i] == _itemId) {\n                users[seller].ownedItemIds[i] = users[seller].ownedItemIds[users[seller].ownedItemIds.length - 1];\n                users[seller].ownedItemIds.pop();\n                break;\n            }\n        }\n\n        items[_itemId].owner = msg.sender;\n        items[_itemId].isAvailableForSale = false;\n        users[seller].balance += items[_itemId].price;\n        users[msg.sender].balance -= items[_itemId].price;\n        payable(seller).transfer(items[_itemId].price);\n        // delete listings[_itemId];\n    }\n\n    // function cancelListing(uint256 _itemId) public {\n    //     require(isItemForSale(_itemId), \"Item not listed for sale.\");\n    //     require(listings[_itemId].seller == msg.sender, \"Not the owner of the item.\");\n    //     delete listings[_itemId];\n    // }\n\n    // function changeSaleState(uint256 _itemId) public {\n    //     require(ownerOf(_itemId) == msg.sender, \"Not the owner of the item.\");\n    //     require(isItemForSale(_itemId), \"Item not listed for sale.\");\n\n    //     rentListings[_itemId] = RentListing(_itemId,msg.sender,items[_itemId].price*2/10);\n        \n    //     delete listings[_itemId];\n    // } \n    // rent related functions\n\n    function listItemForRent(uint256 _itemId) public {\n        require(ownerOf(_itemId) == msg.sender, \"Not the owner of the item.\");\n        require(!isItemForRent(_itemId), \"Item already listed for rent.\");\n        // uint256 _gameRentPrice = items[_itemId].price * 2 / 10;\n        // rentListings[_itemId] = RentListing(_itemId, msg.sender, _gameRentPrice);\n        items[_itemId].isAvailableForRent = true;\n    }\n\n    function isItemForRent(uint256 _itemId) public view returns (bool) {\n        return items[_itemId].isAvailableForRent;\n    }\n\n\n    function rentItem(uint256 _itemId) public payable {\n        require(isItemForRent(_itemId), \"Item not listed for rent.\");\n        uint256 totalRentPrice = items[_itemId].rentPrice;\n        require(msg.value >= totalRentPrice, \"Insufficient funds.\");\n        address owner = items[_itemId].owner;\n        require(owner != msg.sender, \"Cannot rent own item.\");\n        require(users[msg.sender].walletAddress != address(0),\"User not registered.\");\n        // users[msg.sender].rentedItemIds.push(_itemId)\n        // items[_itemId].renter = msg.sender;\n        users[msg.sender].rentedItemIds.push(_itemId);\n        users[owner].balance += totalRentPrice;\n        users[msg.sender].balance -= totalRentPrice;\n        payable(owner).transfer(totalRentPrice);\n        items[_itemId].isAvailableForRent = false;\n        items[_itemId].renteraddr = msg.sender;\n        // delete rentListings[_itemId];\n    }\n\n    function isUserRentingItem(address user, uint256 _itemId) internal view returns (bool) {\n        for (uint i = 0; i < users[user].rentedItemIds.length; i++) {\n            if (users[user].rentedItemIds[i] == _itemId) {\n                return true;\n            }\n        }\n        return false;\n    }\n\n\n    function playGame(uint256 _itemId, uint256 rating) public {\n        require(isUserRentingItem(msg.sender,_itemId),\"Not the renter of the item.\");\n        // require(items[_itemId].renter != msg.sender, \"Not the renter of the item.\");\n        // require(ownerOf(_itemId) == msg.sender, \"Not the owner of the item.\");\n        require(!isItemForRent(_itemId), \"Item already listed for rent.\");\n        require(rating>=0 && rating<=5, \"Give valid rating between 0 and 5\");\n\n        // uint256 _gameRentPrice = items[_itemId].price * 2 / 10;\n        items[_itemId].isAvailableForRent = false;\n        items[_itemId].renteraddr = address(0);\n\n        // rentListings[_itemId] = RentListing(_itemId, msg.sender, _gameRentPrice);\n\n        returnRentedItem(_itemId);\n        // cancelRentListing(_itemId);\n    }\n\n    function returnRentedItem(uint256 _itemId) public {\n        require(isUserRentingItem(msg.sender,_itemId), \"Not the renter of the item.\");\n\n        for (uint i = 0; i < users[msg.sender].rentedItemIds.length; i++) {\n            if (users[msg.sender].rentedItemIds[i] == _itemId) {\n                users[msg.sender].rentedItemIds[i] = users[msg.sender].rentedItemIds[users[msg.sender].rentedItemIds.length - 1];\n                users[msg.sender].rentedItemIds.pop();\n                break;\n            }\n        }\n    }\n    // function cancelRentListing(uint256 _itemId) public {\n    //     require(isItemForRent(_itemId), \"Item not listed for rent.\");\n    //     require(rentListings[_itemId].owner == msg.sender, \"Not the owner of the item.\");\n    //     delete rentListings[_itemId];\n    // }\n\n    // function changeRentState(uint256 _itemId) public {\n    //     require(ownerOf(_itemId) == msg.sender, \"Not the owner of the item.\");\n    //     require(isItemForRent(_itemId), \"Item not listed for sale.\");\n\n    //     listings[_itemId] = SaleListing(_itemId,msg.sender,items[_itemId].price);\n\n    //     delete rentListings[_itemId];\n    // } \n    // function getRentListings() public onlyRegistered returns (RentListing[] memory){\n    //     uint256 index=0;\n    //     uint itemC = _tokenIds.current();\n\n    //     RentListing[] memory result = new RentListing[](itemC);\n    //     for (uint i=1; i<=itemC; i++) {\n    //         if(rentListings[i].owner == address(0)){\n\n    //         } else {\n    //             result[index++] = rentListings[i];\n    //         }\n\n    //     }\n    //     return result;\n    // }\n\n    // function close() public onlyAdmin {\n    //     selfdestruct(payable(msg.sender));   \n    // }\n}",
  "sourcePath": "/Users/sriharshithapalala/Desktop/bloackchain-dapp/App-contract/contracts/Games.sol",
  "compiler": {
    "name": "solc",
    "version": "0.8.19+commit.7dd6d404.Emscripten.clang"
  },
  "schemaVersion": "3.4.13",
  "updatedAt": "2023-04-27T20:31:49.575Z",
  "networkType": "ethereum",
  "devdoc": {
    "events": {
      "Approval(address,address,uint256)": {
        "details": "Emitted when `owner` enables `approved` to manage the `tokenId` token."
      },
      "ApprovalForAll(address,address,bool)": {
        "details": "Emitted when `owner` enables or disables (`approved`) `operator` to manage all of its assets."
      },
      "Transfer(address,address,uint256)": {
        "details": "Emitted when `tokenId` token is transferred from `from` to `to`."
      }
    },
    "kind": "dev",
    "methods": {
      "approve(address,uint256)": {
        "details": "See {IERC721-approve}."
      },
      "balanceOf(address)": {
        "details": "See {IERC721-balanceOf}."
      },
      "getApproved(uint256)": {
        "details": "See {IERC721-getApproved}."
      },
      "isApprovedForAll(address,address)": {
        "details": "See {IERC721-isApprovedForAll}."
      },
      "name()": {
        "details": "See {IERC721Metadata-name}."
      },
      "ownerOf(uint256)": {
        "details": "See {IERC721-ownerOf}."
      },
      "safeTransferFrom(address,address,uint256)": {
        "details": "See {IERC721-safeTransferFrom}."
      },
      "safeTransferFrom(address,address,uint256,bytes)": {
        "details": "See {IERC721-safeTransferFrom}."
      },
      "setApprovalForAll(address,bool)": {
        "details": "See {IERC721-setApprovalForAll}."
      },
      "supportsInterface(bytes4)": {
        "details": "See {IERC165-supportsInterface}."
      },
      "symbol()": {
        "details": "See {IERC721Metadata-symbol}."
      },
      "tokenURI(uint256)": {
        "details": "See {IERC721Metadata-tokenURI}."
      },
      "transferFrom(address,address,uint256)": {
        "details": "See {IERC721-transferFrom}."
      }
    },
    "version": 1
  },
  "userdoc": {
    "kind": "user",
    "methods": {},
    "version": 1
  }
}