{
  "contractName": "GameItems",
  "abi": [
    {
      "inputs": [
        {
          "internalType": "string",
          "name": "_username",
          "type": "string"
        }
      ],
      "stateMutability": "payable",
      "type": "constructor",
      "payable": true
    },
    {
      "anonymous": false,
      "inputs": [
        {
          "indexed": true,
          "internalType": "address",
          "name": "owner",
          "type": "address"
        },
        {
          "indexed": true,
          "internalType": "address",
          "name": "approved",
          "type": "address"
        },
        {
          "indexed": true,
          "internalType": "uint256",
          "name": "tokenId",
          "type": "uint256"
        }
      ],
      "name": "Approval",
      "type": "event"
    },
    {
      "anonymous": false,
      "inputs": [
        {
          "indexed": true,
          "internalType": "address",
          "name": "owner",
          "type": "address"
        },
        {
          "indexed": true,
          "internalType": "address",
          "name": "operator",
          "type": "address"
        },
        {
          "indexed": false,
          "internalType": "bool",
          "name": "approved",
          "type": "bool"
        }
      ],
      "name": "ApprovalForAll",
      "type": "event"
    },
    {
      "anonymous": false,
      "inputs": [
        {
          "indexed": true,
          "internalType": "address",
          "name": "from",
          "type": "address"
        },
        {
          "indexed": true,
          "internalType": "address",
          "name": "to",
          "type": "address"
        },
        {
          "indexed": true,
          "internalType": "uint256",
          "name": "tokenId",
          "type": "uint256"
        }
      ],
      "name": "Transfer",
      "type": "event"
    },
    {
      "inputs": [
        {
          "internalType": "address",
          "name": "to",
          "type": "address"
        },
        {
          "internalType": "uint256",
          "name": "tokenId",
          "type": "uint256"
        }
      ],
      "name": "approve",
      "outputs": [],
      "stateMutability": "nonpayable",
      "type": "function"
    },
    {
      "inputs": [
        {
          "internalType": "address",
          "name": "owner",
          "type": "address"
        }
      ],
      "name": "balanceOf",
      "outputs": [
        {
          "internalType": "uint256",
          "name": "",
          "type": "uint256"
        }
      ],
      "stateMutability": "view",
      "type": "function",
      "constant": true
    },
    {
      "inputs": [
        {
          "internalType": "uint256",
          "name": "tokenId",
          "type": "uint256"
        }
      ],
      "name": "getApproved",
      "outputs": [
        {
          "internalType": "address",
          "name": "",
          "type": "address"
        }
      ],
      "stateMutability": "view",
      "type": "function",
      "constant": true
    },
    {
      "inputs": [
        {
          "internalType": "address",
          "name": "owner",
          "type": "address"
        },
        {
          "internalType": "address",
          "name": "operator",
          "type": "address"
        }
      ],
      "name": "isApprovedForAll",
      "outputs": [
        {
          "internalType": "bool",
          "name": "",
          "type": "bool"
        }
      ],
      "stateMutability": "view",
      "type": "function",
      "constant": true
    },
    {
      "inputs": [
        {
          "internalType": "uint256",
          "name": "",
          "type": "uint256"
        }
      ],
      "name": "items",
      "outputs": [
        {
          "internalType": "uint256",
          "name": "itemId",
          "type": "uint256"
        },
        {
          "internalType": "string",
          "name": "name",
          "type": "string"
        },
        {
          "internalType": "string",
          "name": "description",
          "type": "string"
        },
        {
          "internalType": "bool",
          "name": "isAvailableForRent",
          "type": "bool"
        },
        {
          "internalType": "bool",
          "name": "isAvailableForSale",
          "type": "bool"
        },
        {
          "internalType": "uint256",
          "name": "price",
          "type": "uint256"
        },
        {
          "internalType": "uint256",
          "name": "rentPrice",
          "type": "uint256"
        },
        {
          "internalType": "address",
          "name": "owner",
          "type": "address"
        },
        {
          "internalType": "address",
          "name": "renteraddr",
          "type": "address"
        }
      ],
      "stateMutability": "view",
      "type": "function",
      "constant": true
    },
    {
      "inputs": [],
      "name": "name",
      "outputs": [
        {
          "internalType": "string",
          "name": "",
          "type": "string"
        }
      ],
      "stateMutability": "view",
      "type": "function",
      "constant": true
    },
    {
      "inputs": [
        {
          "internalType": "uint256",
          "name": "tokenId",
          "type": "uint256"
        }
      ],
      "name": "ownerOf",
      "outputs": [
        {
          "internalType": "address",
          "name": "",
          "type": "address"
        }
      ],
      "stateMutability": "view",
      "type": "function",
      "constant": true
    },
    {
      "inputs": [
        {
          "internalType": "address",
          "name": "from",
          "type": "address"
        },
        {
          "internalType": "address",
          "name": "to",
          "type": "address"
        },
        {
          "internalType": "uint256",
          "name": "tokenId",
          "type": "uint256"
        }
      ],
      "name": "safeTransferFrom",
      "outputs": [],
      "stateMutability": "nonpayable",
      "type": "function"
    },
    {
      "inputs": [
        {
          "internalType": "address",
          "name": "from",
          "type": "address"
        },
        {
          "internalType": "address",
          "name": "to",
          "type": "address"
        },
        {
          "internalType": "uint256",
          "name": "tokenId",
          "type": "uint256"
        },
        {
          "internalType": "bytes",
          "name": "data",
          "type": "bytes"
        }
      ],
      "name": "safeTransferFrom",
      "outputs": [],
      "stateMutability": "nonpayable",
      "type": "function"
    },
    {
      "inputs": [
        {
          "internalType": "address",
          "name": "operator",
          "type": "address"
        },
        {
          "internalType": "bool",
          "name": "approved",
          "type": "bool"
        }
      ],
      "name": "setApprovalForAll",
      "outputs": [],
      "stateMutability": "nonpayable",
      "type": "function"
    },
    {
      "inputs": [
        {
          "internalType": "bytes4",
          "name": "interfaceId",
          "type": "bytes4"
        }
      ],
      "name": "supportsInterface",
      "outputs": [
        {
          "internalType": "bool",
          "name": "",
          "type": "bool"
        }
      ],
      "stateMutability": "view",
      "type": "function",
      "constant": true
    },
    {
      "inputs": [],
      "name": "symbol",
      "outputs": [
        {
          "internalType": "string",
          "name": "",
          "type": "string"
        }
      ],
      "stateMutability": "view",
      "type": "function",
      "constant": true
    },
    {
      "inputs": [
        {
          "internalType": "uint256",
          "name": "tokenId",
          "type": "uint256"
        }
      ],
      "name": "tokenURI",
      "outputs": [
        {
          "internalType": "string",
          "name": "",
          "type": "string"
        }
      ],
      "stateMutability": "view",
      "type": "function",
      "constant": true
    },
    {
      "inputs": [
        {
          "internalType": "address",
          "name": "from",
          "type": "address"
        },
        {
          "internalType": "address",
          "name": "to",
          "type": "address"
        },
        {
          "internalType": "uint256",
          "name": "tokenId",
          "type": "uint256"
        }
      ],
      "name": "transferFrom",
      "outputs": [],
      "stateMutability": "nonpayable",
      "type": "function"
    },
    {
      "inputs": [
        {
          "internalType": "address",
          "name": "",
          "type": "address"
        }
      ],
      "name": "users",
      "outputs": [
        {
          "internalType": "address",
          "name": "walletAddress",
          "type": "address"
        },
        {
          "internalType": "string",
          "name": "username",
          "type": "string"
        },
        {
          "internalType": "uint256",
          "name": "balance",
          "type": "uint256"
        }
      ],
      "stateMutability": "view",
      "type": "function",
      "constant": true
    },
    {
      "inputs": [
        {
          "internalType": "address",
          "name": "useraddr",
          "type": "address"
        }
      ],
      "name": "getUser",
      "outputs": [
        {
          "internalType": "string",
          "name": "",
          "type": "string"
        }
      ],
      "stateMutability": "view",
      "type": "function",
      "constant": true
    },
    {
      "inputs": [],
      "name": "getItemsByUser",
      "outputs": [
        {
          "components": [
            {
              "internalType": "uint256",
              "name": "itemId",
              "type": "uint256"
            },
            {
              "internalType": "string",
              "name": "name",
              "type": "string"
            },
            {
              "internalType": "string",
              "name": "description",
              "type": "string"
            },
            {
              "internalType": "bool",
              "name": "isAvailableForRent",
              "type": "bool"
            },
            {
              "internalType": "bool",
              "name": "isAvailableForSale",
              "type": "bool"
            },
            {
              "internalType": "uint256",
              "name": "price",
              "type": "uint256"
            },
            {
              "internalType": "uint256",
              "name": "rentPrice",
              "type": "uint256"
            },
            {
              "internalType": "address",
              "name": "owner",
              "type": "address"
            },
            {
              "internalType": "address",
              "name": "renteraddr",
              "type": "address"
            }
          ],
          "internalType": "struct GameItems.Item[]",
          "name": "",
          "type": "tuple[]"
        }
      ],
      "stateMutability": "view",
      "type": "function",
      "constant": true
    },
    {
      "inputs": [],
      "name": "getAllItems",
      "outputs": [
        {
          "components": [
            {
              "internalType": "uint256",
              "name": "itemId",
              "type": "uint256"
            },
            {
              "internalType": "string",
              "name": "name",
              "type": "string"
            },
            {
              "internalType": "string",
              "name": "description",
              "type": "string"
            },
            {
              "internalType": "bool",
              "name": "isAvailableForRent",
              "type": "bool"
            },
            {
              "internalType": "bool",
              "name": "isAvailableForSale",
              "type": "bool"
            },
            {
              "internalType": "uint256",
              "name": "price",
              "type": "uint256"
            },
            {
              "internalType": "uint256",
              "name": "rentPrice",
              "type": "uint256"
            },
            {
              "internalType": "address",
              "name": "owner",
              "type": "address"
            },
            {
              "internalType": "address",
              "name": "renteraddr",
              "type": "address"
            }
          ],
          "internalType": "struct GameItems.Item[]",
          "name": "",
          "type": "tuple[]"
        }
      ],
      "stateMutability": "nonpayable",
      "type": "function"
    },
    {
      "inputs": [
        {
          "internalType": "string",
          "name": "_username",
          "type": "string"
        }
      ],
      "name": "registerUser",
      "outputs": [],
      "stateMutability": "payable",
      "type": "function",
      "payable": true
    },
    {
      "inputs": [
        {
          "internalType": "string",
          "name": "_name",
          "type": "string"
        },
        {
          "internalType": "uint256",
          "name": "price",
          "type": "uint256"
        },
        {
          "internalType": "string",
          "name": "_description",
          "type": "string"
        }
      ],
      "name": "addItem",
      "outputs": [
        {
          "internalType": "uint256",
          "name": "",
          "type": "uint256"
        }
      ],
      "stateMutability": "nonpayable",
      "type": "function"
    },
    {
      "inputs": [
        {
          "internalType": "uint256",
          "name": "_itemId",
          "type": "uint256"
        }
      ],
      "name": "listItemForSale",
      "outputs": [
        {
          "internalType": "bool",
          "name": "",
          "type": "bool"
        }
      ],
      "stateMutability": "nonpayable",
      "type": "function"
    },
    {
      "inputs": [
        {
          "internalType": "uint256",
          "name": "_itemId",
          "type": "uint256"
        }
      ],
      "name": "isItemForSale",
      "outputs": [
        {
          "internalType": "bool",
          "name": "",
          "type": "bool"
        }
      ],
      "stateMutability": "view",
      "type": "function",
      "constant": true
    },
    {
      "inputs": [
        {
          "internalType": "uint256",
          "name": "_itemId",
          "type": "uint256"
        }
      ],
      "name": "buyItem",
      "outputs": [],
      "stateMutability": "payable",
      "type": "function",
      "payable": true
    },
    {
      "inputs": [
        {
          "internalType": "uint256",
          "name": "_itemId",
          "type": "uint256"
        }
      ],
      "name": "listItemForRent",
      "outputs": [],
      "stateMutability": "nonpayable",
      "type": "function"
    },
    {
      "inputs": [
        {
          "internalType": "uint256",
          "name": "_itemId",
          "type": "uint256"
        }
      ],
      "name": "isItemForRent",
      "outputs": [
        {
          "internalType": "bool",
          "name": "",
          "type": "bool"
        }
      ],
      "stateMutability": "view",
      "type": "function",
      "constant": true
    },
    {
      "inputs": [
        {
          "internalType": "uint256",
          "name": "_itemId",
          "type": "uint256"
        }
      ],
      "name": "rentItem",
      "outputs": [],
      "stateMutability": "payable",
      "type": "function",
      "payable": true
    },
    {
      "inputs": [
        {
          "internalType": "uint256",
          "name": "_itemId",
          "type": "uint256"
        }
      ],
      "name": "playGame",
      "outputs": [
        {
          "internalType": "uint256",
          "name": "",
          "type": "uint256"
        }
      ],
      "stateMutability": "nonpayable",
      "type": "function"
    },
    {
      "inputs": [
        {
          "internalType": "uint256",
          "name": "_itemId",
          "type": "uint256"
        }
      ],
      "name": "returnRentedItem",
      "outputs": [],
      "stateMutability": "nonpayable",
      "type": "function"
    }
  ],
  "bytecode": "0x608060405260405162006315380380620063158339818101604052810190620000299190620004c7565b6040518060400160405280600981526020017f47616d654974656d7300000000000000000000000000000000000000000000008152506040518060400160405280600281526020017f47490000000000000000000000000000000000000000000000000000000000008152508160009081620000a6919062000763565b508060019081620000b8919062000763565b50505033600760006101000a81548173ffffffffffffffffffffffffffffffffffffffff021916908373ffffffffffffffffffffffffffffffffffffffff1602179055506040518060a001604052803373ffffffffffffffffffffffffffffffffffffffff168152602001828152602001348152602001600067ffffffffffffffff8111156200014d576200014c62000363565b5b6040519080825280602002602001820160405280156200017c5781602001602082028036833780820191505090505b508152602001600067ffffffffffffffff811115620001a0576200019f62000363565b5b604051908082528060200260200182016040528015620001cf5781602001602082028036833780820191505090505b50815250600860003373ffffffffffffffffffffffffffffffffffffffff1673ffffffffffffffffffffffffffffffffffffffff16815260200190815260200160002060008201518160000160006101000a81548173ffffffffffffffffffffffffffffffffffffffff021916908373ffffffffffffffffffffffffffffffffffffffff160217905550602082015181600101908162000270919062000763565b5060408201518160020155606082015181600301908051906020019062000299929190620002c3565b506080820151816004019080519060200190620002b8929190620002c3565b50905050506200084a565b82805482825590600052602060002090810192821562000302579160200282015b8281111562000301578251825591602001919060010190620002e4565b5b50905062000311919062000315565b5090565b5b808211156200033057600081600090555060010162000316565b5090565b6000604051905090565b600080fd5b600080fd5b600080fd5b600080fd5b6000601f19601f8301169050919050565b7f4e487b7100000000000000000000000000000000000000000000000000000000600052604160045260246000fd5b6200039d8262000352565b810181811067ffffffffffffffff82111715620003bf57620003be62000363565b5b80604052505050565b6000620003d462000334565b9050620003e2828262000392565b919050565b600067ffffffffffffffff82111562000405576200040462000363565b5b620004108262000352565b9050602081019050919050565b60005b838110156200043d57808201518184015260208101905062000420565b60008484015250505050565b6000620004606200045a84620003e7565b620003c8565b9050828152602081018484840111156200047f576200047e6200034d565b5b6200048c8482856200041d565b509392505050565b600082601f830112620004ac57620004ab62000348565b5b8151620004be84826020860162000449565b91505092915050565b600060208284031215620004e057620004df6200033e565b5b600082015167ffffffffffffffff81111562000501576200050062000343565b5b6200050f8482850162000494565b91505092915050565b600081519050919050565b7f4e487b7100000000000000000000000000000000000000000000000000000000600052602260045260246000fd5b600060028204905060018216806200056b57607f821691505b60208210810362000581576200058062000523565b5b50919050565b60008190508160005260206000209050919050565b60006020601f8301049050919050565b600082821b905092915050565b600060088302620005eb7fffffffffffffffffffffffffffffffffffffffffffffffffffffffffffffffff82620005ac565b620005f78683620005ac565b95508019841693508086168417925050509392505050565b6000819050919050565b6000819050919050565b6000620006446200063e62000638846200060f565b62000619565b6200060f565b9050919050565b6000819050919050565b620006608362000623565b620006786200066f826200064b565b848454620005b9565b825550505050565b600090565b6200068f62000680565b6200069c81848462000655565b505050565b5b81811015620006c457620006b860008262000685565b600181019050620006a2565b5050565b601f8211156200071357620006dd8162000587565b620006e8846200059c565b81016020851015620006f8578190505b6200071062000707856200059c565b830182620006a1565b50505b505050565b600082821c905092915050565b6000620007386000198460080262000718565b1980831691505092915050565b600062000753838362000725565b9150826002028217905092915050565b6200076e8262000518565b67ffffffffffffffff8111156200078a576200078962000363565b5b62000796825462000552565b620007a3828285620006c8565b600060209050601f831160018114620007db5760008415620007c6578287015190505b620007d2858262000745565b86555062000842565b601f198416620007eb8662000587565b60005b828110156200081557848901518255600182019150602085019450602081019050620007ee565b8683101562000835578489015162000831601f89168262000725565b8355505b6001600288020188555050505b505050505050565b615abb806200085a6000396000f3fe6080604052600436106101b75760003560e01c8063a22cb465116100ec578063c87b56dd1161008a578063d92ed60b11610064578063d92ed60b14610668578063e7846b66146106a5578063e7fb74c7146106e2578063e985e9c5146106fe576101b7565b8063c87b56dd146105d2578063ce0958c41461060f578063d78d38521461064c576101b7565b8063a8cffa22116100c6578063a8cffa2214610512578063b36d8d8b1461053b578063b88d4fde14610564578063bfb231d21461058d576101b7565b8063a22cb4651461046d578063a3e54b3e14610496578063a87430ba146104d3576101b7565b80634ba1d6aa116101595780636f77926b116101335780636f77926b146103ac578063704f1b94146103e957806370a082311461040557806395d89b4114610442576101b7565b80634ba1d6aa146103075780635873533d146103325780636352211e1461036f576101b7565b8063095ea7b311610195578063095ea7b31461026157806323b872dd1461028a5780633923f590146102b357806342842e0e146102de576101b7565b806301ffc9a7146101bc57806306fdde03146101f9578063081812fc14610224575b600080fd5b3480156101c857600080fd5b506101e360048036038101906101de9190614070565b61073b565b6040516101f091906140b8565b60405180910390f35b34801561020557600080fd5b5061020e61081d565b60405161021b9190614163565b60405180910390f35b34801561023057600080fd5b5061024b600480360381019061024691906141bb565b6108af565b6040516102589190614229565b60405180910390f35b34801561026d57600080fd5b5061028860048036038101906102839190614270565b6108f5565b005b34801561029657600080fd5b506102b160048036038101906102ac91906142b0565b610a0c565b005b3480156102bf57600080fd5b506102c8610a6c565b6040516102d59190614508565b60405180910390f35b3480156102ea57600080fd5b50610305600480360381019061030091906142b0565b610eea565b005b34801561031357600080fd5b5061031c610f0a565b6040516103299190614508565b60405180910390f35b34801561033e57600080fd5b50610359600480360381019061035491906141bb565b6112dc565b6040516103669190614539565b60405180910390f35b34801561037b57600080fd5b50610396600480360381019061039191906141bb565b611407565b6040516103a39190614229565b60405180910390f35b3480156103b857600080fd5b506103d360048036038101906103ce9190614554565b61148d565b6040516103e09190614163565b60405180910390f35b61040360048036038101906103fe91906146b6565b611638565b005b34801561041157600080fd5b5061042c60048036038101906104279190614554565b6118be565b6040516104399190614539565b60405180910390f35b34801561044e57600080fd5b50610457611975565b6040516104649190614163565b60405180910390f35b34801561047957600080fd5b50610494600480360381019061048f919061472b565b611a07565b005b3480156104a257600080fd5b506104bd60048036038101906104b8919061476b565b611a1d565b6040516104ca9190614539565b60405180910390f35b3480156104df57600080fd5b506104fa60048036038101906104f59190614554565b611d3f565b604051610509939291906147f6565b60405180910390f35b34801561051e57600080fd5b50610539600480360381019061053491906141bb565b611e11565b005b34801561054757600080fd5b50610562600480360381019061055d91906141bb565b6120a5565b005b34801561057057600080fd5b5061058b600480360381019061058691906148d5565b612196565b005b34801561059957600080fd5b506105b460048036038101906105af91906141bb565b6121f8565b6040516105c999989796959493929190614958565b60405180910390f35b3480156105de57600080fd5b506105f960048036038101906105f491906141bb565b6123b0565b6040516106069190614163565b60405180910390f35b34801561061b57600080fd5b50610636600480360381019061063191906141bb565b612418565b60405161064391906140b8565b60405180910390f35b610666600480360381019061066191906141bb565b612445565b005b34801561067457600080fd5b5061068f600480360381019061068a91906141bb565b612850565b60405161069c91906140b8565b60405180910390f35b3480156106b157600080fd5b506106cc60048036038101906106c791906141bb565b612967565b6040516106d991906140b8565b60405180910390f35b6106fc60048036038101906106f791906141bb565b612994565b005b34801561070a57600080fd5b50610725600480360381019061072091906149f3565b61302e565b60405161073291906140b8565b60405180910390f35b60007f80ac58cd000000000000000000000000000000000000000000000000000000007bffffffffffffffffffffffffffffffffffffffffffffffffffffffff1916827bffffffffffffffffffffffffffffffffffffffffffffffffffffffff1916148061080657507f5b5e139f000000000000000000000000000000000000000000000000000000007bffffffffffffffffffffffffffffffffffffffffffffffffffffffff1916827bffffffffffffffffffffffffffffffffffffffffffffffffffffffff1916145b806108165750610815826130c2565b5b9050919050565b60606000805461082c90614a62565b80601f016020809104026020016040519081016040528092919081815260200182805461085890614a62565b80156108a55780601f1061087a576101008083540402835291602001916108a5565b820191906000526020600020905b81548152906001019060200180831161088857829003601f168201915b5050505050905090565b60006108ba8261312c565b6004600083815260200190815260200160002060009054906101000a900473ffffffffffffffffffffffffffffffffffffffff169050919050565b600061090082611407565b90508073ffffffffffffffffffffffffffffffffffffffff168373ffffffffffffffffffffffffffffffffffffffff1603610970576040517f08c379a000000000000000000000000000000000000000000000000000000000815260040161096790614b05565b60405180910390fd5b8073ffffffffffffffffffffffffffffffffffffffff1661098f613177565b73ffffffffffffffffffffffffffffffffffffffff1614806109be57506109bd816109b8613177565b61302e565b5b6109fd576040517f08c379a00000000000000000000000000000000000000000000000000000000081526004016109f490614b97565b60405180910390fd5b610a07838361317f565b505050565b610a1d610a17613177565b82613238565b610a5c576040517f08c379a0000000000000000000000000000000000000000000000000000000008152600401610a5390614c29565b60405180910390fd5b610a678383836132cd565b505050565b6060600073ffffffffffffffffffffffffffffffffffffffff16600860003373ffffffffffffffffffffffffffffffffffffffff1673ffffffffffffffffffffffffffffffffffffffff16815260200190815260200160002060000160009054906101000a900473ffffffffffffffffffffffffffffffffffffffff1673ffffffffffffffffffffffffffffffffffffffff1603610b3f576040517f08c379a0000000000000000000000000000000000000000000000000000000008152600401610b3690614c95565b60405180910390fd5b6000600860003373ffffffffffffffffffffffffffffffffffffffff1673ffffffffffffffffffffffffffffffffffffffff168152602001908152602001600020600301805480602002602001604051908101604052809291908181526020018280548015610bcd57602002820191906000526020600020905b815481526020019060010190808311610bb9575b5050505050905060008060018351610be59190614ce4565b67ffffffffffffffff811115610bfe57610bfd61458b565b5b604051908082528060200260200182016040528015610c3757816020015b610c24613f1e565b815260200190600190039081610c1c5790505b50905060005b8351811015610ee05760096000858381518110610c5d57610c5c614d18565b5b602002602001015181526020019081526020016000206040518061012001604052908160008201548152602001600182018054610c9990614a62565b80601f0160208091040260200160405190810160405280929190818152602001828054610cc590614a62565b8015610d125780601f10610ce757610100808354040283529160200191610d12565b820191906000526020600020905b815481529060010190602001808311610cf557829003601f168201915b50505050508152602001600282018054610d2b90614a62565b80601f0160208091040260200160405190810160405280929190818152602001828054610d5790614a62565b8015610da45780601f10610d7957610100808354040283529160200191610da4565b820191906000526020600020905b815481529060010190602001808311610d8757829003601f168201915b505050505081526020016003820160009054906101000a900460ff161515151581526020016003820160019054906101000a900460ff1615151515815260200160048201548152602001600582015481526020016006820160009054906101000a900473ffffffffffffffffffffffffffffffffffffffff1673ffffffffffffffffffffffffffffffffffffffff1673ffffffffffffffffffffffffffffffffffffffff1681526020016007820160009054906101000a900473ffffffffffffffffffffffffffffffffffffffff1673ffffffffffffffffffffffffffffffffffffffff1673ffffffffffffffffffffffffffffffffffffffff1681525050828480610eaf90614d47565b955081518110610ec257610ec1614d18565b5b60200260200101819052508080610ed890614d47565b915050610c3d565b5080935050505090565b610f0583838360405180602001604052806000815250612196565b505050565b6060600073ffffffffffffffffffffffffffffffffffffffff16600860003373ffffffffffffffffffffffffffffffffffffffff1673ffffffffffffffffffffffffffffffffffffffff16815260200190815260200160002060000160009054906101000a900473ffffffffffffffffffffffffffffffffffffffff1673ffffffffffffffffffffffffffffffffffffffff1603610fdd576040517f08c379a0000000000000000000000000000000000000000000000000000000008152600401610fd490614c95565b60405180910390fd5b600080610fea60066135c6565b905060008167ffffffffffffffff8111156110085761100761458b565b5b60405190808252806020026020018201604052801561104157816020015b61102e613f1e565b8152602001906001900390816110265790505b5090506000600190505b8281116112d25760096000828152602001908152602001600020604051806101200160405290816000820154815260200160018201805461108b90614a62565b80601f01602080910402602001604051908101604052809291908181526020018280546110b790614a62565b80156111045780601f106110d957610100808354040283529160200191611104565b820191906000526020600020905b8154815290600101906020018083116110e757829003601f168201915b5050505050815260200160028201805461111d90614a62565b80601f016020809104026020016040519081016040528092919081815260200182805461114990614a62565b80156111965780601f1061116b57610100808354040283529160200191611196565b820191906000526020600020905b81548152906001019060200180831161117957829003601f168201915b505050505081526020016003820160009054906101000a900460ff161515151581526020016003820160019054906101000a900460ff1615151515815260200160048201548152602001600582015481526020016006820160009054906101000a900473ffffffffffffffffffffffffffffffffffffffff1673ffffffffffffffffffffffffffffffffffffffff1673ffffffffffffffffffffffffffffffffffffffff1681526020016007820160009054906101000a900473ffffffffffffffffffffffffffffffffffffffff1673ffffffffffffffffffffffffffffffffffffffff1673ffffffffffffffffffffffffffffffffffffffff16815250508285806112a190614d47565b9650815181106112b4576112b3614d18565b5b602002602001018190525080806112ca90614d47565b91505061104b565b5080935050505090565b60006112e833836135d4565b611327576040517f08c379a000000000000000000000000000000000000000000000000000000000815260040161131e90614ddb565b60405180910390fd5b61133082612418565b15611370576040517f08c379a000000000000000000000000000000000000000000000000000000000815260040161136790614e47565b60405180910390fd5b60006009600084815260200190815260200160002060030160006101000a81548160ff02191690831515021790555060006009600084815260200190815260200160002060070160006101000a81548173ffffffffffffffffffffffffffffffffffffffff021916908373ffffffffffffffffffffffffffffffffffffffff1602179055506113fe82611e11565b60019050919050565b600080611413836136b7565b9050600073ffffffffffffffffffffffffffffffffffffffff168173ffffffffffffffffffffffffffffffffffffffff1603611484576040517f08c379a000000000000000000000000000000000000000000000000000000000815260040161147b90614eb3565b60405180910390fd5b80915050919050565b6060600073ffffffffffffffffffffffffffffffffffffffff16600860008473ffffffffffffffffffffffffffffffffffffffff1673ffffffffffffffffffffffffffffffffffffffff16815260200190815260200160002060000160009054906101000a900473ffffffffffffffffffffffffffffffffffffffff1673ffffffffffffffffffffffffffffffffffffffff1603611560576040517f08c379a000000000000000000000000000000000000000000000000000000000815260040161155790614c95565b60405180910390fd5b6000600860008473ffffffffffffffffffffffffffffffffffffffff1673ffffffffffffffffffffffffffffffffffffffff16815260200190815260200160002060010180546115af90614a62565b80601f01602080910402602001604051908101604052809291908181526020018280546115db90614a62565b80156116285780601f106115fd57610100808354040283529160200191611628565b820191906000526020600020905b81548152906001019060200180831161160b57829003601f168201915b5050505050905080915050919050565b600073ffffffffffffffffffffffffffffffffffffffff16600860003373ffffffffffffffffffffffffffffffffffffffff1673ffffffffffffffffffffffffffffffffffffffff16815260200190815260200160002060000160009054906101000a900473ffffffffffffffffffffffffffffffffffffffff1673ffffffffffffffffffffffffffffffffffffffff1614611709576040517f08c379a000000000000000000000000000000000000000000000000000000000815260040161170090614f1f565b60405180910390fd5b6040518060a001604052803373ffffffffffffffffffffffffffffffffffffffff168152602001828152602001348152602001600067ffffffffffffffff8111156117575761175661458b565b5b6040519080825280602002602001820160405280156117855781602001602082028036833780820191505090505b508152602001600067ffffffffffffffff8111156117a6576117a561458b565b5b6040519080825280602002602001820160405280156117d45781602001602082028036833780820191505090505b50815250600860003373ffffffffffffffffffffffffffffffffffffffff1673ffffffffffffffffffffffffffffffffffffffff16815260200190815260200160002060008201518160000160006101000a81548173ffffffffffffffffffffffffffffffffffffffff021916908373ffffffffffffffffffffffffffffffffffffffff160217905550602082015181600101908161187391906150eb565b5060408201518160020155606082015181600301908051906020019061189a929190613f9a565b5060808201518160040190805190602001906118b7929190613f9a565b5090505050565b60008073ffffffffffffffffffffffffffffffffffffffff168273ffffffffffffffffffffffffffffffffffffffff160361192e576040517f08c379a00000000000000000000000000000000000000000000000000000000081526004016119259061522f565b60405180910390fd5b600360008373ffffffffffffffffffffffffffffffffffffffff1673ffffffffffffffffffffffffffffffffffffffff168152602001908152602001600020549050919050565b60606001805461198490614a62565b80601f01602080910402602001604051908101604052809291908181526020018280546119b090614a62565b80156119fd5780601f106119d2576101008083540402835291602001916119fd565b820191906000526020600020905b8154815290600101906020018083116119e057829003601f168201915b5050505050905090565b611a19611a12613177565b83836136f4565b5050565b60008073ffffffffffffffffffffffffffffffffffffffff16600860003373ffffffffffffffffffffffffffffffffffffffff1673ffffffffffffffffffffffffffffffffffffffff16815260200190815260200160002060000160009054906101000a900473ffffffffffffffffffffffffffffffffffffffff1673ffffffffffffffffffffffffffffffffffffffff1603611aef576040517f08c379a0000000000000000000000000000000000000000000000000000000008152600401611ae690614c95565b60405180910390fd5b611af96006613860565b6000611b0560066135c6565b9050611b113382613876565b604051806101200160405280828152602001868152602001848152602001600015158152602001600015158152602001858152602001600a600287611b56919061524f565b611b6091906152c0565b81526020013373ffffffffffffffffffffffffffffffffffffffff168152602001600073ffffffffffffffffffffffffffffffffffffffff1681525060096000838152602001908152602001600020600082015181600001556020820151816001019081611bce91906150eb565b506040820151816002019081611be491906150eb565b5060608201518160030160006101000a81548160ff02191690831515021790555060808201518160030160016101000a81548160ff02191690831515021790555060a0820151816004015560c0820151816005015560e08201518160060160006101000a81548173ffffffffffffffffffffffffffffffffffffffff021916908373ffffffffffffffffffffffffffffffffffffffff1602179055506101008201518160070160006101000a81548173ffffffffffffffffffffffffffffffffffffffff021916908373ffffffffffffffffffffffffffffffffffffffff160217905550905050600860003373ffffffffffffffffffffffffffffffffffffffff1673ffffffffffffffffffffffffffffffffffffffff168152602001908152602001600020600301819080600181540180825580915050600190039060005260206000200160009091909190915055809150509392505050565b60086020528060005260406000206000915090508060000160009054906101000a900473ffffffffffffffffffffffffffffffffffffffff1690806001018054611d8890614a62565b80601f0160208091040260200160405190810160405280929190818152602001828054611db490614a62565b8015611e015780601f10611dd657610100808354040283529160200191611e01565b820191906000526020600020905b815481529060010190602001808311611de457829003601f168201915b5050505050908060020154905083565b611e1b33826135d4565b611e5a576040517f08c379a0000000000000000000000000000000000000000000000000000000008152600401611e5190614ddb565b60405180910390fd5b60005b600860003373ffffffffffffffffffffffffffffffffffffffff1673ffffffffffffffffffffffffffffffffffffffff168152602001908152602001600020600401805490508110156120a15781600860003373ffffffffffffffffffffffffffffffffffffffff1673ffffffffffffffffffffffffffffffffffffffff1681526020019081526020016000206004018281548110611eff57611efe614d18565b5b90600052602060002001540361208e57600860003373ffffffffffffffffffffffffffffffffffffffff1673ffffffffffffffffffffffffffffffffffffffff1681526020019081526020016000206004016001600860003373ffffffffffffffffffffffffffffffffffffffff1673ffffffffffffffffffffffffffffffffffffffff16815260200190815260200160002060040180549050611fa391906152f1565b81548110611fb457611fb3614d18565b5b9060005260206000200154600860003373ffffffffffffffffffffffffffffffffffffffff1673ffffffffffffffffffffffffffffffffffffffff168152602001908152602001600020600401828154811061201357612012614d18565b5b9060005260206000200181905550600860003373ffffffffffffffffffffffffffffffffffffffff1673ffffffffffffffffffffffffffffffffffffffff16815260200190815260200160002060040180548061207357612072615325565b5b600190038181906000526020600020016000905590556120a1565b808061209990614d47565b915050611e5d565b5050565b3373ffffffffffffffffffffffffffffffffffffffff166120c582611407565b73ffffffffffffffffffffffffffffffffffffffff161461211b576040517f08c379a0000000000000000000000000000000000000000000000000000000008152600401612112906153a0565b60405180910390fd5b61212481612418565b15612164576040517f08c379a000000000000000000000000000000000000000000000000000000000815260040161215b90614e47565b60405180910390fd5b60016009600083815260200190815260200160002060030160006101000a81548160ff02191690831515021790555050565b6121a76121a1613177565b83613238565b6121e6576040517f08c379a00000000000000000000000000000000000000000000000000000000081526004016121dd90614c29565b60405180910390fd5b6121f284848484613a93565b50505050565b600960205280600052604060002060009150905080600001549080600101805461222190614a62565b80601f016020809104026020016040519081016040528092919081815260200182805461224d90614a62565b801561229a5780601f1061226f5761010080835404028352916020019161229a565b820191906000526020600020905b81548152906001019060200180831161227d57829003601f168201915b5050505050908060020180546122af90614a62565b80601f01602080910402602001604051908101604052809291908181526020018280546122db90614a62565b80156123285780601f106122fd57610100808354040283529160200191612328565b820191906000526020600020905b81548152906001019060200180831161230b57829003601f168201915b5050505050908060030160009054906101000a900460ff16908060030160019054906101000a900460ff16908060040154908060050154908060060160009054906101000a900473ffffffffffffffffffffffffffffffffffffffff16908060070160009054906101000a900473ffffffffffffffffffffffffffffffffffffffff16905089565b60606123bb8261312c565b60006123c5613aef565b905060008151116123e55760405180602001604052806000815250612410565b806123ef84613b06565b6040516020016124009291906153fc565b6040516020818303038152906040525b915050919050565b60006009600083815260200190815260200160002060030160009054906101000a900460ff169050919050565b61244e81612418565b61248d576040517f08c379a00000000000000000000000000000000000000000000000000000000081526004016124849061546c565b60405180910390fd5b600060096000838152602001908152602001600020600501549050803410156124eb576040517f08c379a00000000000000000000000000000000000000000000000000000000081526004016124e2906154d8565b60405180910390fd5b60006009600084815260200190815260200160002060060160009054906101000a900473ffffffffffffffffffffffffffffffffffffffff1690503373ffffffffffffffffffffffffffffffffffffffff168173ffffffffffffffffffffffffffffffffffffffff1603612594576040517f08c379a000000000000000000000000000000000000000000000000000000000815260040161258b90615544565b60405180910390fd5b600073ffffffffffffffffffffffffffffffffffffffff16600860003373ffffffffffffffffffffffffffffffffffffffff1673ffffffffffffffffffffffffffffffffffffffff16815260200190815260200160002060000160009054906101000a900473ffffffffffffffffffffffffffffffffffffffff1673ffffffffffffffffffffffffffffffffffffffff1603612665576040517f08c379a000000000000000000000000000000000000000000000000000000000815260040161265c90614c95565b60405180910390fd5b600860003373ffffffffffffffffffffffffffffffffffffffff1673ffffffffffffffffffffffffffffffffffffffff16815260200190815260200160002060040183908060018154018082558091505060019003906000526020600020016000909190919091505581600860008373ffffffffffffffffffffffffffffffffffffffff1673ffffffffffffffffffffffffffffffffffffffff16815260200190815260200160002060020160008282546127209190614ce4565b9250508190555081600860003373ffffffffffffffffffffffffffffffffffffffff1673ffffffffffffffffffffffffffffffffffffffff168152602001908152602001600020600201600082825461277991906152f1565b925050819055508073ffffffffffffffffffffffffffffffffffffffff166108fc839081150290604051600060405180830381858888f193505050501580156127c6573d6000803e3d6000fd5b5060006009600085815260200190815260200160002060030160006101000a81548160ff021916908315150217905550336009600085815260200190815260200160002060070160006101000a81548173ffffffffffffffffffffffffffffffffffffffff021916908373ffffffffffffffffffffffffffffffffffffffff160217905550505050565b6000813373ffffffffffffffffffffffffffffffffffffffff1661287382611407565b73ffffffffffffffffffffffffffffffffffffffff16146128c9576040517f08c379a00000000000000000000000000000000000000000000000000000000081526004016128c0906153a0565b60405180910390fd5b6128d283612967565b15612912576040517f08c379a0000000000000000000000000000000000000000000000000000000008152600401612909906155b0565b60405180910390fd5b60006009600085815260200190815260200160002060040154905060016009600086815260200190815260200160002060030160016101000a81548160ff021916908315150217905550600192505050919050565b60006009600083815260200190815260200160002060030160019054906101000a900460ff169050919050565b61299d81612967565b6129dc576040517f08c379a00000000000000000000000000000000000000000000000000000000081526004016129d39061561c565b60405180910390fd5b6009600082815260200190815260200160002060040154341015612a35576040517f08c379a0000000000000000000000000000000000000000000000000000000008152600401612a2c906154d8565b60405180910390fd5b60006009600083815260200190815260200160002060060160009054906101000a900473ffffffffffffffffffffffffffffffffffffffff1690503373ffffffffffffffffffffffffffffffffffffffff168173ffffffffffffffffffffffffffffffffffffffff1603612ade576040517f08c379a0000000000000000000000000000000000000000000000000000000008152600401612ad590615688565b60405180910390fd5b600073ffffffffffffffffffffffffffffffffffffffff16600860003373ffffffffffffffffffffffffffffffffffffffff1673ffffffffffffffffffffffffffffffffffffffff16815260200190815260200160002060000160009054906101000a900473ffffffffffffffffffffffffffffffffffffffff1673ffffffffffffffffffffffffffffffffffffffff1603612baf576040517f08c379a0000000000000000000000000000000000000000000000000000000008152600401612ba690614c95565b60405180910390fd5b612bba8133846132cd565b600860003373ffffffffffffffffffffffffffffffffffffffff1673ffffffffffffffffffffffffffffffffffffffff16815260200190815260200160002060030182908060018154018082558091505060019003906000526020600020016000909190919091505560005b600860008373ffffffffffffffffffffffffffffffffffffffff1673ffffffffffffffffffffffffffffffffffffffff16815260200190815260200160002060030180549050811015612e6a5782600860008473ffffffffffffffffffffffffffffffffffffffff1673ffffffffffffffffffffffffffffffffffffffff1681526020019081526020016000206003018281548110612cc857612cc7614d18565b5b906000526020600020015403612e5757600860008373ffffffffffffffffffffffffffffffffffffffff1673ffffffffffffffffffffffffffffffffffffffff1681526020019081526020016000206003016001600860008573ffffffffffffffffffffffffffffffffffffffff1673ffffffffffffffffffffffffffffffffffffffff16815260200190815260200160002060030180549050612d6c91906152f1565b81548110612d7d57612d7c614d18565b5b9060005260206000200154600860008473ffffffffffffffffffffffffffffffffffffffff1673ffffffffffffffffffffffffffffffffffffffff1681526020019081526020016000206003018281548110612ddc57612ddb614d18565b5b9060005260206000200181905550600860008373ffffffffffffffffffffffffffffffffffffffff1673ffffffffffffffffffffffffffffffffffffffff168152602001908152602001600020600301805480612e3c57612e3b615325565b5b60019003818190600052602060002001600090559055612e6a565b8080612e6290614d47565b915050612c26565b50336009600084815260200190815260200160002060060160006101000a81548173ffffffffffffffffffffffffffffffffffffffff021916908373ffffffffffffffffffffffffffffffffffffffff16021790555060006009600084815260200190815260200160002060030160016101000a81548160ff0219169083151502179055506009600083815260200190815260200160002060040154600860008373ffffffffffffffffffffffffffffffffffffffff1673ffffffffffffffffffffffffffffffffffffffff1681526020019081526020016000206002016000828254612f579190614ce4565b925050819055506009600083815260200190815260200160002060040154600860003373ffffffffffffffffffffffffffffffffffffffff1673ffffffffffffffffffffffffffffffffffffffff1681526020019081526020016000206002016000828254612fc691906152f1565b925050819055508073ffffffffffffffffffffffffffffffffffffffff166108fc60096000858152602001908152602001600020600401549081150290604051600060405180830381858888f19350505050158015613029573d6000803e3d6000fd5b505050565b6000600560008473ffffffffffffffffffffffffffffffffffffffff1673ffffffffffffffffffffffffffffffffffffffff16815260200190815260200160002060008373ffffffffffffffffffffffffffffffffffffffff1673ffffffffffffffffffffffffffffffffffffffff16815260200190815260200160002060009054906101000a900460ff16905092915050565b60007f01ffc9a7000000000000000000000000000000000000000000000000000000007bffffffffffffffffffffffffffffffffffffffffffffffffffffffff1916827bffffffffffffffffffffffffffffffffffffffffffffffffffffffff1916149050919050565b61313581613bd4565b613174576040517f08c379a000000000000000000000000000000000000000000000000000000000815260040161316b90614eb3565b60405180910390fd5b50565b600033905090565b816004600083815260200190815260200160002060006101000a81548173ffffffffffffffffffffffffffffffffffffffff021916908373ffffffffffffffffffffffffffffffffffffffff160217905550808273ffffffffffffffffffffffffffffffffffffffff166131f283611407565b73ffffffffffffffffffffffffffffffffffffffff167f8c5be1e5ebec7d5bd14f71427d1e84f3dd0314c0f7b2291e5b200ac8c7c3b92560405160405180910390a45050565b60008061324483611407565b90508073ffffffffffffffffffffffffffffffffffffffff168473ffffffffffffffffffffffffffffffffffffffff1614806132865750613285818561302e565b5b806132c457508373ffffffffffffffffffffffffffffffffffffffff166132ac846108af565b73ffffffffffffffffffffffffffffffffffffffff16145b91505092915050565b8273ffffffffffffffffffffffffffffffffffffffff166132ed82611407565b73ffffffffffffffffffffffffffffffffffffffff1614613343576040517f08c379a000000000000000000000000000000000000000000000000000000000815260040161333a9061571a565b60405180910390fd5b600073ffffffffffffffffffffffffffffffffffffffff168273ffffffffffffffffffffffffffffffffffffffff16036133b2576040517f08c379a00000000000000000000000000000000000000000000000000000000081526004016133a9906157ac565b60405180910390fd5b6133bf8383836001613c15565b8273ffffffffffffffffffffffffffffffffffffffff166133df82611407565b73ffffffffffffffffffffffffffffffffffffffff1614613435576040517f08c379a000000000000000000000000000000000000000000000000000000000815260040161342c9061571a565b60405180910390fd5b6004600082815260200190815260200160002060006101000a81549073ffffffffffffffffffffffffffffffffffffffff02191690556001600360008573ffffffffffffffffffffffffffffffffffffffff1673ffffffffffffffffffffffffffffffffffffffff168152602001908152602001600020600082825403925050819055506001600360008473ffffffffffffffffffffffffffffffffffffffff1673ffffffffffffffffffffffffffffffffffffffff16815260200190815260200160002060008282540192505081905550816002600083815260200190815260200160002060006101000a81548173ffffffffffffffffffffffffffffffffffffffff021916908373ffffffffffffffffffffffffffffffffffffffff160217905550808273ffffffffffffffffffffffffffffffffffffffff168473ffffffffffffffffffffffffffffffffffffffff167fddf252ad1be2c89b69c2b068fc378daa952ba7f163c4a11628f55a4df523b3ef60405160405180910390a46135c18383836001613c1b565b505050565b600081600001549050919050565b600080600090505b600860008573ffffffffffffffffffffffffffffffffffffffff1673ffffffffffffffffffffffffffffffffffffffff168152602001908152602001600020600401805490508110156136ab5782600860008673ffffffffffffffffffffffffffffffffffffffff1673ffffffffffffffffffffffffffffffffffffffff168152602001908152602001600020600401828154811061367e5761367d614d18565b5b9060005260206000200154036136985760019150506136b1565b80806136a390614d47565b9150506135dc565b50600090505b92915050565b60006002600083815260200190815260200160002060009054906101000a900473ffffffffffffffffffffffffffffffffffffffff169050919050565b8173ffffffffffffffffffffffffffffffffffffffff168373ffffffffffffffffffffffffffffffffffffffff1603613762576040517f08c379a000000000000000000000000000000000000000000000000000000000815260040161375990615818565b60405180910390fd5b80600560008573ffffffffffffffffffffffffffffffffffffffff1673ffffffffffffffffffffffffffffffffffffffff16815260200190815260200160002060008473ffffffffffffffffffffffffffffffffffffffff1673ffffffffffffffffffffffffffffffffffffffff16815260200190815260200160002060006101000a81548160ff0219169083151502179055508173ffffffffffffffffffffffffffffffffffffffff168373ffffffffffffffffffffffffffffffffffffffff167f17307eab39ab6107e8899845ad3d59bd9653f200f220920489ca2b5937696c318360405161385391906140b8565b60405180910390a3505050565b6001816000016000828254019250508190555050565b600073ffffffffffffffffffffffffffffffffffffffff168273ffffffffffffffffffffffffffffffffffffffff16036138e5576040517f08c379a00000000000000000000000000000000000000000000000000000000081526004016138dc90615884565b60405180910390fd5b6138ee81613bd4565b1561392e576040517f08c379a0000000000000000000000000000000000000000000000000000000008152600401613925906158f0565b60405180910390fd5b61393c600083836001613c15565b61394581613bd4565b15613985576040517f08c379a000000000000000000000000000000000000000000000000000000000815260040161397c906158f0565b60405180910390fd5b6001600360008473ffffffffffffffffffffffffffffffffffffffff1673ffffffffffffffffffffffffffffffffffffffff16815260200190815260200160002060008282540192505081905550816002600083815260200190815260200160002060006101000a81548173ffffffffffffffffffffffffffffffffffffffff021916908373ffffffffffffffffffffffffffffffffffffffff160217905550808273ffffffffffffffffffffffffffffffffffffffff16600073ffffffffffffffffffffffffffffffffffffffff167fddf252ad1be2c89b69c2b068fc378daa952ba7f163c4a11628f55a4df523b3ef60405160405180910390a4613a8f600083836001613c1b565b5050565b613a9e8484846132cd565b613aaa84848484613c21565b613ae9576040517f08c379a0000000000000000000000000000000000000000000000000000000008152600401613ae090615982565b60405180910390fd5b50505050565b606060405180602001604052806000815250905090565b606060006001613b1584613da8565b01905060008167ffffffffffffffff811115613b3457613b3361458b565b5b6040519080825280601f01601f191660200182016040528015613b665781602001600182028036833780820191505090505b509050600082602001820190505b600115613bc9578080600190039150507f3031323334353637383961626364656600000000000000000000000000000000600a86061a8153600a8581613bbd57613bbc615291565b5b04945060008503613b74575b819350505050919050565b60008073ffffffffffffffffffffffffffffffffffffffff16613bf6836136b7565b73ffffffffffffffffffffffffffffffffffffffff1614159050919050565b50505050565b50505050565b6000613c428473ffffffffffffffffffffffffffffffffffffffff16613efb565b15613d9b578373ffffffffffffffffffffffffffffffffffffffff1663150b7a02613c6b613177565b8786866040518563ffffffff1660e01b8152600401613c8d94939291906159f7565b6020604051808303816000875af1925050508015613cc957506040513d601f19601f82011682018060405250810190613cc69190615a58565b60015b613d4b573d8060008114613cf9576040519150601f19603f3d011682016040523d82523d6000602084013e613cfe565b606091505b506000815103613d43576040517f08c379a0000000000000000000000000000000000000000000000000000000008152600401613d3a90615982565b60405180910390fd5b805181602001fd5b63150b7a0260e01b7bffffffffffffffffffffffffffffffffffffffffffffffffffffffff1916817bffffffffffffffffffffffffffffffffffffffffffffffffffffffff191614915050613da0565b600190505b949350505050565b600080600090507a184f03e93ff9f4daa797ed6e38ed64bf6a1f0100000000000000008310613e06577a184f03e93ff9f4daa797ed6e38ed64bf6a1f0100000000000000008381613dfc57613dfb615291565b5b0492506040810190505b6d04ee2d6d415b85acef81000000008310613e43576d04ee2d6d415b85acef81000000008381613e3957613e38615291565b5b0492506020810190505b662386f26fc100008310613e7257662386f26fc100008381613e6857613e67615291565b5b0492506010810190505b6305f5e1008310613e9b576305f5e1008381613e9157613e90615291565b5b0492506008810190505b6127108310613ec0576127108381613eb657613eb5615291565b5b0492506004810190505b60648310613ee35760648381613ed957613ed8615291565b5b0492506002810190505b600a8310613ef2576001810190505b80915050919050565b6000808273ffffffffffffffffffffffffffffffffffffffff163b119050919050565b6040518061012001604052806000815260200160608152602001606081526020016000151581526020016000151581526020016000815260200160008152602001600073ffffffffffffffffffffffffffffffffffffffff168152602001600073ffffffffffffffffffffffffffffffffffffffff1681525090565b828054828255906000526020600020908101928215613fd6579160200282015b82811115613fd5578251825591602001919060010190613fba565b5b509050613fe39190613fe7565b5090565b5b80821115614000576000816000905550600101613fe8565b5090565b6000604051905090565b600080fd5b600080fd5b60007fffffffff0000000000000000000000000000000000000000000000000000000082169050919050565b61404d81614018565b811461405857600080fd5b50565b60008135905061406a81614044565b92915050565b6000602082840312156140865761408561400e565b5b60006140948482850161405b565b91505092915050565b60008115159050919050565b6140b28161409d565b82525050565b60006020820190506140cd60008301846140a9565b92915050565b600081519050919050565b600082825260208201905092915050565b60005b8381101561410d5780820151818401526020810190506140f2565b60008484015250505050565b6000601f19601f8301169050919050565b6000614135826140d3565b61413f81856140de565b935061414f8185602086016140ef565b61415881614119565b840191505092915050565b6000602082019050818103600083015261417d818461412a565b905092915050565b6000819050919050565b61419881614185565b81146141a357600080fd5b50565b6000813590506141b58161418f565b92915050565b6000602082840312156141d1576141d061400e565b5b60006141df848285016141a6565b91505092915050565b600073ffffffffffffffffffffffffffffffffffffffff82169050919050565b6000614213826141e8565b9050919050565b61422381614208565b82525050565b600060208201905061423e600083018461421a565b92915050565b61424d81614208565b811461425857600080fd5b50565b60008135905061426a81614244565b92915050565b600080604083850312156142875761428661400e565b5b60006142958582860161425b565b92505060206142a6858286016141a6565b9150509250929050565b6000806000606084860312156142c9576142c861400e565b5b60006142d78682870161425b565b93505060206142e88682870161425b565b92505060406142f9868287016141a6565b9150509250925092565b600081519050919050565b600082825260208201905092915050565b6000819050602082019050919050565b61433881614185565b82525050565b600082825260208201905092915050565b600061435a826140d3565b614364818561433e565b93506143748185602086016140ef565b61437d81614119565b840191505092915050565b6143918161409d565b82525050565b6143a081614208565b82525050565b6000610120830160008301516143bf600086018261432f565b50602083015184820360208601526143d7828261434f565b915050604083015184820360408601526143f1828261434f565b91505060608301516144066060860182614388565b5060808301516144196080860182614388565b5060a083015161442c60a086018261432f565b5060c083015161443f60c086018261432f565b5060e083015161445260e0860182614397565b50610100830151614467610100860182614397565b508091505092915050565b600061447e83836143a6565b905092915050565b6000602082019050919050565b600061449e82614303565b6144a8818561430e565b9350836020820285016144ba8561431f565b8060005b858110156144f657848403895281516144d78582614472565b94506144e283614486565b925060208a019950506001810190506144be565b50829750879550505050505092915050565b600060208201905081810360008301526145228184614493565b905092915050565b61453381614185565b82525050565b600060208201905061454e600083018461452a565b92915050565b60006020828403121561456a5761456961400e565b5b60006145788482850161425b565b91505092915050565b600080fd5b600080fd5b7f4e487b7100000000000000000000000000000000000000000000000000000000600052604160045260246000fd5b6145c382614119565b810181811067ffffffffffffffff821117156145e2576145e161458b565b5b80604052505050565b60006145f5614004565b905061460182826145ba565b919050565b600067ffffffffffffffff8211156146215761462061458b565b5b61462a82614119565b9050602081019050919050565b82818337600083830152505050565b600061465961465484614606565b6145eb565b90508281526020810184848401111561467557614674614586565b5b614680848285614637565b509392505050565b600082601f83011261469d5761469c614581565b5b81356146ad848260208601614646565b91505092915050565b6000602082840312156146cc576146cb61400e565b5b600082013567ffffffffffffffff8111156146ea576146e9614013565b5b6146f684828501614688565b91505092915050565b6147088161409d565b811461471357600080fd5b50565b600081359050614725816146ff565b92915050565b600080604083850312156147425761474161400e565b5b60006147508582860161425b565b925050602061476185828601614716565b9150509250929050565b6000806000606084860312156147845761478361400e565b5b600084013567ffffffffffffffff8111156147a2576147a1614013565b5b6147ae86828701614688565b93505060206147bf868287016141a6565b925050604084013567ffffffffffffffff8111156147e0576147df614013565b5b6147ec86828701614688565b9150509250925092565b600060608201905061480b600083018661421a565b818103602083015261481d818561412a565b905061482c604083018461452a565b949350505050565b600067ffffffffffffffff82111561484f5761484e61458b565b5b61485882614119565b9050602081019050919050565b600061487861487384614834565b6145eb565b90508281526020810184848401111561489457614893614586565b5b61489f848285614637565b509392505050565b600082601f8301126148bc576148bb614581565b5b81356148cc848260208601614865565b91505092915050565b600080600080608085870312156148ef576148ee61400e565b5b60006148fd8782880161425b565b945050602061490e8782880161425b565b935050604061491f878288016141a6565b925050606085013567ffffffffffffffff8111156149405761493f614013565b5b61494c878288016148a7565b91505092959194509250565b60006101208201905061496e600083018c61452a565b8181036020830152614980818b61412a565b90508181036040830152614994818a61412a565b90506149a360608301896140a9565b6149b060808301886140a9565b6149bd60a083018761452a565b6149ca60c083018661452a565b6149d760e083018561421a565b6149e561010083018461421a565b9a9950505050505050505050565b60008060408385031215614a0a57614a0961400e565b5b6000614a188582860161425b565b9250506020614a298582860161425b565b9150509250929050565b7f4e487b7100000000000000000000000000000000000000000000000000000000600052602260045260246000fd5b60006002820490506001821680614a7a57607f821691505b602082108103614a8d57614a8c614a33565b5b50919050565b7f4552433732313a20617070726f76616c20746f2063757272656e74206f776e6560008201527f7200000000000000000000000000000000000000000000000000000000000000602082015250565b6000614aef6021836140de565b9150614afa82614a93565b604082019050919050565b60006020820190508181036000830152614b1e81614ae2565b9050919050565b7f4552433732313a20617070726f76652063616c6c6572206973206e6f7420746f60008201527f6b656e206f776e6572206f7220617070726f76656420666f7220616c6c000000602082015250565b6000614b81603d836140de565b9150614b8c82614b25565b604082019050919050565b60006020820190508181036000830152614bb081614b74565b9050919050565b7f4552433732313a2063616c6c6572206973206e6f7420746f6b656e206f776e6560008201527f72206f7220617070726f76656400000000000000000000000000000000000000602082015250565b6000614c13602d836140de565b9150614c1e82614bb7565b604082019050919050565b60006020820190508181036000830152614c4281614c06565b9050919050565b7f55736572206e6f7420726567697374657265642e000000000000000000000000600082015250565b6000614c7f6014836140de565b9150614c8a82614c49565b602082019050919050565b60006020820190508181036000830152614cae81614c72565b9050919050565b7f4e487b7100000000000000000000000000000000000000000000000000000000600052601160045260246000fd5b6000614cef82614185565b9150614cfa83614185565b9250828201905080821115614d1257614d11614cb5565b5b92915050565b7f4e487b7100000000000000000000000000000000000000000000000000000000600052603260045260246000fd5b6000614d5282614185565b91507fffffffffffffffffffffffffffffffffffffffffffffffffffffffffffffffff8203614d8457614d83614cb5565b5b600182019050919050565b7f4e6f74207468652072656e746572206f6620746865206974656d2e0000000000600082015250565b6000614dc5601b836140de565b9150614dd082614d8f565b602082019050919050565b60006020820190508181036000830152614df481614db8565b9050919050565b7f4974656d20616c7265616479206c697374656420666f722072656e742e000000600082015250565b6000614e31601d836140de565b9150614e3c82614dfb565b602082019050919050565b60006020820190508181036000830152614e6081614e24565b9050919050565b7f4552433732313a20696e76616c696420746f6b656e2049440000000000000000600082015250565b6000614e9d6018836140de565b9150614ea882614e67565b602082019050919050565b60006020820190508181036000830152614ecc81614e90565b9050919050565b7f5573657220616c726561647920726567697374657265642e0000000000000000600082015250565b6000614f096018836140de565b9150614f1482614ed3565b602082019050919050565b60006020820190508181036000830152614f3881614efc565b9050919050565b60008190508160005260206000209050919050565b60006020601f8301049050919050565b600082821b905092915050565b600060088302614fa17fffffffffffffffffffffffffffffffffffffffffffffffffffffffffffffffff82614f64565b614fab8683614f64565b95508019841693508086168417925050509392505050565b6000819050919050565b6000614fe8614fe3614fde84614185565b614fc3565b614185565b9050919050565b6000819050919050565b61500283614fcd565b61501661500e82614fef565b848454614f71565b825550505050565b600090565b61502b61501e565b615036818484614ff9565b505050565b5b8181101561505a5761504f600082615023565b60018101905061503c565b5050565b601f82111561509f5761507081614f3f565b61507984614f54565b81016020851015615088578190505b61509c61509485614f54565b83018261503b565b50505b505050565b600082821c905092915050565b60006150c2600019846008026150a4565b1980831691505092915050565b60006150db83836150b1565b9150826002028217905092915050565b6150f4826140d3565b67ffffffffffffffff81111561510d5761510c61458b565b5b6151178254614a62565b61512282828561505e565b600060209050601f8311600181146151555760008415615143578287015190505b61514d85826150cf565b8655506151b5565b601f19841661516386614f3f565b60005b8281101561518b57848901518255600182019150602085019450602081019050615166565b868310156151a857848901516151a4601f8916826150b1565b8355505b6001600288020188555050505b505050505050565b7f4552433732313a2061646472657373207a65726f206973206e6f74206120766160008201527f6c6964206f776e65720000000000000000000000000000000000000000000000602082015250565b60006152196029836140de565b9150615224826151bd565b604082019050919050565b600060208201905081810360008301526152488161520c565b9050919050565b600061525a82614185565b915061526583614185565b925082820261527381614185565b9150828204841483151761528a57615289614cb5565b5b5092915050565b7f4e487b7100000000000000000000000000000000000000000000000000000000600052601260045260246000fd5b60006152cb82614185565b91506152d683614185565b9250826152e6576152e5615291565b5b828204905092915050565b60006152fc82614185565b915061530783614185565b925082820390508181111561531f5761531e614cb5565b5b92915050565b7f4e487b7100000000000000000000000000000000000000000000000000000000600052603160045260246000fd5b7f4e6f7420746865206f776e6572206f6620746865206974656d2e000000000000600082015250565b600061538a601a836140de565b915061539582615354565b602082019050919050565b600060208201905081810360008301526153b98161537d565b9050919050565b600081905092915050565b60006153d6826140d3565b6153e081856153c0565b93506153f08185602086016140ef565b80840191505092915050565b600061540882856153cb565b915061541482846153cb565b91508190509392505050565b7f4974656d206e6f74206c697374656420666f722072656e742e00000000000000600082015250565b60006154566019836140de565b915061546182615420565b602082019050919050565b6000602082019050818103600083015261548581615449565b9050919050565b7f496e73756666696369656e742066756e64732e00000000000000000000000000600082015250565b60006154c26013836140de565b91506154cd8261548c565b602082019050919050565b600060208201905081810360008301526154f1816154b5565b9050919050565b7f43616e6e6f742072656e74206f776e206974656d2e0000000000000000000000600082015250565b600061552e6015836140de565b9150615539826154f8565b602082019050919050565b6000602082019050818103600083015261555d81615521565b9050919050565b7f4974656d20616c7265616479206c697374656420666f722073616c652e000000600082015250565b600061559a601d836140de565b91506155a582615564565b602082019050919050565b600060208201905081810360008301526155c98161558d565b9050919050565b7f4974656d206e6f74206c697374656420666f722073616c652e00000000000000600082015250565b60006156066019836140de565b9150615611826155d0565b602082019050919050565b60006020820190508181036000830152615635816155f9565b9050919050565b7f43616e6e6f7420627579206f776e206974656d2e000000000000000000000000600082015250565b60006156726014836140de565b915061567d8261563c565b602082019050919050565b600060208201905081810360008301526156a181615665565b9050919050565b7f4552433732313a207472616e736665722066726f6d20696e636f72726563742060008201527f6f776e6572000000000000000000000000000000000000000000000000000000602082015250565b60006157046025836140de565b915061570f826156a8565b604082019050919050565b60006020820190508181036000830152615733816156f7565b9050919050565b7f4552433732313a207472616e7366657220746f20746865207a65726f2061646460008201527f7265737300000000000000000000000000000000000000000000000000000000602082015250565b60006157966024836140de565b91506157a18261573a565b604082019050919050565b600060208201905081810360008301526157c581615789565b9050919050565b7f4552433732313a20617070726f766520746f2063616c6c657200000000000000600082015250565b60006158026019836140de565b915061580d826157cc565b602082019050919050565b60006020820190508181036000830152615831816157f5565b9050919050565b7f4552433732313a206d696e7420746f20746865207a65726f2061646472657373600082015250565b600061586e6020836140de565b915061587982615838565b602082019050919050565b6000602082019050818103600083015261589d81615861565b9050919050565b7f4552433732313a20746f6b656e20616c7265616479206d696e74656400000000600082015250565b60006158da601c836140de565b91506158e5826158a4565b602082019050919050565b60006020820190508181036000830152615909816158cd565b9050919050565b7f4552433732313a207472616e7366657220746f206e6f6e20455243373231526560008201527f63656976657220696d706c656d656e7465720000000000000000000000000000602082015250565b600061596c6032836140de565b915061597782615910565b604082019050919050565b6000602082019050818103600083015261599b8161595f565b9050919050565b600081519050919050565b600082825260208201905092915050565b60006159c9826159a2565b6159d381856159ad565b93506159e38185602086016140ef565b6159ec81614119565b840191505092915050565b6000608082019050615a0c600083018761421a565b615a19602083018661421a565b615a26604083018561452a565b8181036060830152615a3881846159be565b905095945050505050565b600081519050615a5281614044565b92915050565b600060208284031215615a6e57615a6d61400e565b5b6000615a7c84828501615a43565b9150509291505056fea2646970667358221220a20e0f187dd7eb960fd4359b8c5321be077e3ac9ff3a3afdd43dc4659537b70e64736f6c63430008130033",
  "immutableReferences": {},
  "source": "// SPDX-License-Identifier: MIT\npragma solidity ^0.8.0;\n\nimport \"@openzeppelin/contracts/token/ERC721/ERC721.sol\";\nimport \"@openzeppelin/contracts/utils/Counters.sol\";\n// import \"./Gamesrent.sol\";\n\ncontract GameItems is ERC721 {\n    using Counters for Counters.Counter;\n    Counters.Counter private _tokenIds;\n\n    address admin;\n\n    struct User {\n        address walletAddress;\n        string username;\n        uint256 balance;\n        uint256[] ownedItemIds;\n        uint256[] rentedItemIds;\n    }\n\n    struct Item {\n        uint256 itemId;\n        string name;\n        string description;\n        bool isAvailableForRent;\n        bool isAvailableForSale;\n        uint256 price;\n        uint256 rentPrice;\n        address owner;\n        address renteraddr;\n    }\n\n    mapping(address => User) public users;\n    mapping(uint256 => Item) public items;\n\n\n\n\n    constructor(string memory _username) ERC721(\"GameItems\", \"GI\") payable {\n        admin = msg.sender;\n        users[msg.sender] = User(msg.sender, _username, msg.value, new uint256[](0), new uint256[](0));\n    }\n\n    modifier onlyRegistered() {\n        require(users[msg.sender].walletAddress != address(0),\"User not registered.\");\n        _;\n    }\n\n    modifier onlyOwner(uint256 _itemId) {\n        require(ownerOf(_itemId) == msg.sender, \"Not the owner of the item.\");\n        _;\n    }\n\n    modifier onlyAdmin() {\n        require(admin==msg.sender,\"Only Admin operations\");\n        _;\n    }\n\n    function getUser(address useraddr) public view returns  (string memory){\n        require(users[useraddr].walletAddress != address(0), \"User not registered.\");\n        string memory userA = users[useraddr].username;\n        return userA;\n    }\n\n    function getItemsByUser() public view onlyRegistered returns (Item[] memory) {\n        uint256[] memory itemslist = users[msg.sender].ownedItemIds;\n        uint256 index=0;\n        Item[] memory result = new Item[](itemslist.length+1);\n        for (uint i=0; i<itemslist.length; i++) {\n            result[index++] = items[itemslist[i]];\n        }\n        return result;\n    }\n\n    // function getRentedItemsByUser() public view onlyRegistered returns (Item[] memory) {\n    //     uint256[] memory itemslist = users[msg.sender].rentedItemIds;\n    //     uint256 index=0;\n    //     Item[] memory result = new Item[](itemslist.length+1);\n    //     for (uint i=0; i<itemslist.length; i++) {\n    //         result[index++] = items[itemslist[i]];\n    //     }\n    //     return result;\n    // }\n\n    function getAllItems() public onlyRegistered returns (Item[] memory){\n        uint256 index=0;\n        uint itemC = _tokenIds.current();\n\n        Item[] memory result = new Item[](itemC);\n        for (uint i=1; i<=itemC; i++) {\n            result[index++] = items[i];\n        }\n        return result;\n    }\n\n    function registerUser(string memory _username) public payable {\n        require(users[msg.sender].walletAddress == address(0), \"User already registered.\");\n        users[msg.sender] = User(msg.sender, _username, msg.value, new uint256[](0), new uint256[](0));\n    }\n\n    function addItem(string memory _name,uint256 price, string memory _description) public onlyRegistered returns (uint256) {\n        _tokenIds.increment();\n        uint256 newItemId = _tokenIds.current();\n        _mint(msg.sender, newItemId);\n        items[newItemId] = Item(newItemId,_name,_description,false,false,price,price*2/10,msg.sender,address(0));\n        users[msg.sender].ownedItemIds.push(newItemId);\n        return newItemId;\n    }\n    // Sale related functions\n\n    function listItemForSale(uint256 _itemId) public onlyOwner(_itemId) returns (bool){\n        // require(ownerOf(_itemId) == msg.sender, \"Not the owner of the item.\");\n        require(!isItemForSale(_itemId), \"Item already listed for sale.\");\n        uint256 _price = items[_itemId].price;\n        // listings[_itemId] = SaleListing(_itemId, msg.sender, _price);\n        items[_itemId].isAvailableForSale = true;\n        return true;\n    }\n\n    function isItemForSale(uint256 _itemId) public view returns (bool) {\n        return items[_itemId].isAvailableForSale;\n    }\n\n    function buyItem(uint256 _itemId) public payable {\n        require(isItemForSale(_itemId), \"Item not listed for sale.\");\n        require(msg.value >= items[_itemId].price, \"Insufficient funds.\");\n        address seller = items[_itemId].owner;\n        require(seller != msg.sender, \"Cannot buy own item.\");\n        require(users[msg.sender].walletAddress != address(0),\"User not registered.\");\n\n        _transfer(seller, msg.sender, _itemId);\n        users[msg.sender].ownedItemIds.push(_itemId);\n\n        for (uint i = 0; i < users[seller].ownedItemIds.length; i++) {\n            if (users[seller].ownedItemIds[i] == _itemId) {\n                users[seller].ownedItemIds[i] = users[seller].ownedItemIds[users[seller].ownedItemIds.length - 1];\n                users[seller].ownedItemIds.pop();\n                break;\n            }\n        }\n\n        items[_itemId].owner = msg.sender;\n        items[_itemId].isAvailableForSale = false;\n        users[seller].balance += items[_itemId].price;\n        users[msg.sender].balance -= items[_itemId].price;\n        payable(seller).transfer(items[_itemId].price);\n        // delete listings[_itemId];\n    }\n \n    // rent related functions\n\n    function listItemForRent(uint256 _itemId) public {\n        require(ownerOf(_itemId) == msg.sender, \"Not the owner of the item.\");\n        require(!isItemForRent(_itemId), \"Item already listed for rent.\");\n        // uint256 _gameRentPrice = items[_itemId].price * 2 / 10;\n        // rentListings[_itemId] = RentListing(_itemId, msg.sender, _gameRentPrice);\n        items[_itemId].isAvailableForRent = true;\n    }\n\n    function isItemForRent(uint256 _itemId) public view returns (bool) {\n        return items[_itemId].isAvailableForRent;\n    }\n\n\n    function rentItem(uint256 _itemId) public payable {\n        require(isItemForRent(_itemId), \"Item not listed for rent.\");\n        uint256 totalRentPrice = items[_itemId].rentPrice;\n        require(msg.value >= totalRentPrice, \"Insufficient funds.\");\n        address owner = items[_itemId].owner;\n        require(owner != msg.sender, \"Cannot rent own item.\");\n        require(users[msg.sender].walletAddress != address(0),\"User not registered.\");\n        // users[msg.sender].rentedItemIds.push(_itemId)\n        // items[_itemId].renter = msg.sender;\n        users[msg.sender].rentedItemIds.push(_itemId);\n        users[owner].balance += totalRentPrice;\n        users[msg.sender].balance -= totalRentPrice;\n        payable(owner).transfer(totalRentPrice);\n        items[_itemId].isAvailableForRent = false;\n        items[_itemId].renteraddr = msg.sender;\n        // delete rentListings[_itemId];\n    }\n\n    function isUserRentingItem(address user, uint256 _itemId) internal view returns (bool) {\n        for (uint i = 0; i < users[user].rentedItemIds.length; i++) {\n            if (users[user].rentedItemIds[i] == _itemId) {\n                return true;\n            }\n        }\n        return false;\n    }\n\n\n    function playGame(uint256 _itemId) public returns (uint256){\n        require(isUserRentingItem(msg.sender,_itemId),\"Not the renter of the item.\");\n        // require(items[_itemId].renter != msg.sender, \"Not the renter of the item.\");\n        // require(ownerOf(_itemId) == msg.sender, \"Not the owner of the item.\");\n        require(!isItemForRent(_itemId), \"Item already listed for rent.\");\n        // require(rating>=0 && rating<=5, \"Give valid rating between 0 and 5\");\n\n        // uint256 _gameRentPrice = items[_itemId].price * 2 / 10;\n        items[_itemId].isAvailableForRent = false;\n        items[_itemId].renteraddr = address(0);\n\n        // rentListings[_itemId] = RentListing(_itemId, msg.sender, _gameRentPrice);\n\n        returnRentedItem(_itemId);\n        return 1;\n        // cancelRentListing(_itemId);\n    }\n\n    function returnRentedItem(uint256 _itemId) public {\n        require(isUserRentingItem(msg.sender,_itemId), \"Not the renter of the item.\");\n\n        for (uint i = 0; i < users[msg.sender].rentedItemIds.length; i++) {\n            if (users[msg.sender].rentedItemIds[i] == _itemId) {\n                users[msg.sender].rentedItemIds[i] = users[msg.sender].rentedItemIds[users[msg.sender].rentedItemIds.length - 1];\n                users[msg.sender].rentedItemIds.pop();\n                break;\n            }\n        }\n    }\n}",
  "sourcePath": "/home/ganesh/Documents/Blockchain_final/bloackchain-dapp/App-contract/contracts/Games.sol",
  "compiler": {
    "name": "solc",
    "version": "0.8.19+commit.7dd6d404.Emscripten.clang"
  },
  "schemaVersion": "3.4.13",
  "updatedAt": "2023-04-28T02:12:11.926Z",
  "networkType": "ethereum",
  "devdoc": {
    "events": {
      "Approval(address,address,uint256)": {
        "details": "Emitted when `owner` enables `approved` to manage the `tokenId` token."
      },
      "ApprovalForAll(address,address,bool)": {
        "details": "Emitted when `owner` enables or disables (`approved`) `operator` to manage all of its assets."
      },
      "Transfer(address,address,uint256)": {
        "details": "Emitted when `tokenId` token is transferred from `from` to `to`."
      }
    },
    "kind": "dev",
    "methods": {
      "approve(address,uint256)": {
        "details": "See {IERC721-approve}."
      },
      "balanceOf(address)": {
        "details": "See {IERC721-balanceOf}."
      },
      "getApproved(uint256)": {
        "details": "See {IERC721-getApproved}."
      },
      "isApprovedForAll(address,address)": {
        "details": "See {IERC721-isApprovedForAll}."
      },
      "name()": {
        "details": "See {IERC721Metadata-name}."
      },
      "ownerOf(uint256)": {
        "details": "See {IERC721-ownerOf}."
      },
      "safeTransferFrom(address,address,uint256)": {
        "details": "See {IERC721-safeTransferFrom}."
      },
      "safeTransferFrom(address,address,uint256,bytes)": {
        "details": "See {IERC721-safeTransferFrom}."
      },
      "setApprovalForAll(address,bool)": {
        "details": "See {IERC721-setApprovalForAll}."
      },
      "supportsInterface(bytes4)": {
        "details": "See {IERC165-supportsInterface}."
      },
      "symbol()": {
        "details": "See {IERC721Metadata-symbol}."
      },
      "tokenURI(uint256)": {
        "details": "See {IERC721Metadata-tokenURI}."
      },
      "transferFrom(address,address,uint256)": {
        "details": "See {IERC721-transferFrom}."
      }
    },
    "version": 1
  },
  "userdoc": {
    "kind": "user",
    "methods": {},
    "version": 1
  }
}