{
  "contractName": "GameItems",
  "abi": [
    {
      "inputs": [
        {
          "internalType": "string",
          "name": "_username",
          "type": "string"
        }
      ],
      "stateMutability": "payable",
      "type": "constructor",
      "payable": true
    },
    {
      "anonymous": false,
      "inputs": [
        {
          "indexed": true,
          "internalType": "address",
          "name": "owner",
          "type": "address"
        },
        {
          "indexed": true,
          "internalType": "address",
          "name": "approved",
          "type": "address"
        },
        {
          "indexed": true,
          "internalType": "uint256",
          "name": "tokenId",
          "type": "uint256"
        }
      ],
      "name": "Approval",
      "type": "event"
    },
    {
      "anonymous": false,
      "inputs": [
        {
          "indexed": true,
          "internalType": "address",
          "name": "owner",
          "type": "address"
        },
        {
          "indexed": true,
          "internalType": "address",
          "name": "operator",
          "type": "address"
        },
        {
          "indexed": false,
          "internalType": "bool",
          "name": "approved",
          "type": "bool"
        }
      ],
      "name": "ApprovalForAll",
      "type": "event"
    },
    {
      "anonymous": false,
      "inputs": [
        {
          "indexed": true,
          "internalType": "address",
          "name": "from",
          "type": "address"
        },
        {
          "indexed": true,
          "internalType": "address",
          "name": "to",
          "type": "address"
        },
        {
          "indexed": true,
          "internalType": "uint256",
          "name": "tokenId",
          "type": "uint256"
        }
      ],
      "name": "Transfer",
      "type": "event"
    },
    {
      "inputs": [
        {
          "internalType": "address",
          "name": "to",
          "type": "address"
        },
        {
          "internalType": "uint256",
          "name": "tokenId",
          "type": "uint256"
        }
      ],
      "name": "approve",
      "outputs": [],
      "stateMutability": "nonpayable",
      "type": "function"
    },
    {
      "inputs": [
        {
          "internalType": "address",
          "name": "owner",
          "type": "address"
        }
      ],
      "name": "balanceOf",
      "outputs": [
        {
          "internalType": "uint256",
          "name": "",
          "type": "uint256"
        }
      ],
      "stateMutability": "view",
      "type": "function",
      "constant": true
    },
    {
      "inputs": [
        {
          "internalType": "uint256",
          "name": "tokenId",
          "type": "uint256"
        }
      ],
      "name": "getApproved",
      "outputs": [
        {
          "internalType": "address",
          "name": "",
          "type": "address"
        }
      ],
      "stateMutability": "view",
      "type": "function",
      "constant": true
    },
    {
      "inputs": [
        {
          "internalType": "address",
          "name": "owner",
          "type": "address"
        },
        {
          "internalType": "address",
          "name": "operator",
          "type": "address"
        }
      ],
      "name": "isApprovedForAll",
      "outputs": [
        {
          "internalType": "bool",
          "name": "",
          "type": "bool"
        }
      ],
      "stateMutability": "view",
      "type": "function",
      "constant": true
    },
    {
      "inputs": [
        {
          "internalType": "uint256",
          "name": "",
          "type": "uint256"
        }
      ],
      "name": "items",
      "outputs": [
        {
          "internalType": "uint256",
          "name": "itemId",
          "type": "uint256"
        },
        {
          "internalType": "string",
          "name": "name",
          "type": "string"
        },
        {
          "internalType": "string",
          "name": "description",
          "type": "string"
        },
        {
          "internalType": "bool",
          "name": "isAvailableForRent",
          "type": "bool"
        },
        {
          "internalType": "bool",
          "name": "isAvailableForSale",
          "type": "bool"
        },
        {
          "internalType": "uint256",
          "name": "price",
          "type": "uint256"
        },
        {
          "internalType": "address",
          "name": "owner",
          "type": "address"
        }
      ],
      "stateMutability": "view",
      "type": "function",
      "constant": true
    },
    {
      "inputs": [
        {
          "internalType": "uint256",
          "name": "",
          "type": "uint256"
        }
      ],
      "name": "listings",
      "outputs": [
        {
          "internalType": "uint256",
          "name": "itemId",
          "type": "uint256"
        },
        {
          "internalType": "address",
          "name": "seller",
          "type": "address"
        },
        {
          "internalType": "uint256",
          "name": "price",
          "type": "uint256"
        }
      ],
      "stateMutability": "view",
      "type": "function",
      "constant": true
    },
    {
      "inputs": [],
      "name": "name",
      "outputs": [
        {
          "internalType": "string",
          "name": "",
          "type": "string"
        }
      ],
      "stateMutability": "view",
      "type": "function",
      "constant": true
    },
    {
      "inputs": [
        {
          "internalType": "uint256",
          "name": "tokenId",
          "type": "uint256"
        }
      ],
      "name": "ownerOf",
      "outputs": [
        {
          "internalType": "address",
          "name": "",
          "type": "address"
        }
      ],
      "stateMutability": "view",
      "type": "function",
      "constant": true
    },
    {
      "inputs": [
        {
          "internalType": "uint256",
          "name": "",
          "type": "uint256"
        }
      ],
      "name": "rentListings",
      "outputs": [
        {
          "internalType": "uint256",
          "name": "itemId",
          "type": "uint256"
        },
        {
          "internalType": "address",
          "name": "owner",
          "type": "address"
        },
        {
          "internalType": "uint256",
          "name": "gameRentPrice",
          "type": "uint256"
        }
      ],
      "stateMutability": "view",
      "type": "function",
      "constant": true
    },
    {
      "inputs": [
        {
          "internalType": "address",
          "name": "from",
          "type": "address"
        },
        {
          "internalType": "address",
          "name": "to",
          "type": "address"
        },
        {
          "internalType": "uint256",
          "name": "tokenId",
          "type": "uint256"
        }
      ],
      "name": "safeTransferFrom",
      "outputs": [],
      "stateMutability": "nonpayable",
      "type": "function"
    },
    {
      "inputs": [
        {
          "internalType": "address",
          "name": "from",
          "type": "address"
        },
        {
          "internalType": "address",
          "name": "to",
          "type": "address"
        },
        {
          "internalType": "uint256",
          "name": "tokenId",
          "type": "uint256"
        },
        {
          "internalType": "bytes",
          "name": "data",
          "type": "bytes"
        }
      ],
      "name": "safeTransferFrom",
      "outputs": [],
      "stateMutability": "nonpayable",
      "type": "function"
    },
    {
      "inputs": [
        {
          "internalType": "address",
          "name": "operator",
          "type": "address"
        },
        {
          "internalType": "bool",
          "name": "approved",
          "type": "bool"
        }
      ],
      "name": "setApprovalForAll",
      "outputs": [],
      "stateMutability": "nonpayable",
      "type": "function"
    },
    {
      "inputs": [
        {
          "internalType": "bytes4",
          "name": "interfaceId",
          "type": "bytes4"
        }
      ],
      "name": "supportsInterface",
      "outputs": [
        {
          "internalType": "bool",
          "name": "",
          "type": "bool"
        }
      ],
      "stateMutability": "view",
      "type": "function",
      "constant": true
    },
    {
      "inputs": [],
      "name": "symbol",
      "outputs": [
        {
          "internalType": "string",
          "name": "",
          "type": "string"
        }
      ],
      "stateMutability": "view",
      "type": "function",
      "constant": true
    },
    {
      "inputs": [
        {
          "internalType": "uint256",
          "name": "tokenId",
          "type": "uint256"
        }
      ],
      "name": "tokenURI",
      "outputs": [
        {
          "internalType": "string",
          "name": "",
          "type": "string"
        }
      ],
      "stateMutability": "view",
      "type": "function",
      "constant": true
    },
    {
      "inputs": [
        {
          "internalType": "address",
          "name": "from",
          "type": "address"
        },
        {
          "internalType": "address",
          "name": "to",
          "type": "address"
        },
        {
          "internalType": "uint256",
          "name": "tokenId",
          "type": "uint256"
        }
      ],
      "name": "transferFrom",
      "outputs": [],
      "stateMutability": "nonpayable",
      "type": "function"
    },
    {
      "inputs": [
        {
          "internalType": "address",
          "name": "",
          "type": "address"
        }
      ],
      "name": "users",
      "outputs": [
        {
          "internalType": "address",
          "name": "walletAddress",
          "type": "address"
        },
        {
          "internalType": "string",
          "name": "username",
          "type": "string"
        },
        {
          "internalType": "uint256",
          "name": "balance",
          "type": "uint256"
        }
      ],
      "stateMutability": "view",
      "type": "function",
      "constant": true
    },
    {
      "inputs": [
        {
          "internalType": "address",
          "name": "useraddr",
          "type": "address"
        }
      ],
      "name": "getUser",
      "outputs": [
        {
          "internalType": "string",
          "name": "",
          "type": "string"
        }
      ],
      "stateMutability": "nonpayable",
      "type": "function"
    },
    {
      "inputs": [],
      "name": "getItemsByUser",
      "outputs": [
        {
          "components": [
            {
              "internalType": "uint256",
              "name": "itemId",
              "type": "uint256"
            },
            {
              "internalType": "string",
              "name": "name",
              "type": "string"
            },
            {
              "internalType": "string",
              "name": "description",
              "type": "string"
            },
            {
              "internalType": "bool",
              "name": "isAvailableForRent",
              "type": "bool"
            },
            {
              "internalType": "bool",
              "name": "isAvailableForSale",
              "type": "bool"
            },
            {
              "internalType": "uint256",
              "name": "price",
              "type": "uint256"
            },
            {
              "internalType": "address",
              "name": "owner",
              "type": "address"
            }
          ],
          "internalType": "struct GameItems.Item[]",
          "name": "",
          "type": "tuple[]"
        }
      ],
      "stateMutability": "nonpayable",
      "type": "function"
    },
    {
      "inputs": [],
      "name": "getAllItems",
      "outputs": [
        {
          "components": [
            {
              "internalType": "uint256",
              "name": "itemId",
              "type": "uint256"
            },
            {
              "internalType": "string",
              "name": "name",
              "type": "string"
            },
            {
              "internalType": "string",
              "name": "description",
              "type": "string"
            },
            {
              "internalType": "bool",
              "name": "isAvailableForRent",
              "type": "bool"
            },
            {
              "internalType": "bool",
              "name": "isAvailableForSale",
              "type": "bool"
            },
            {
              "internalType": "uint256",
              "name": "price",
              "type": "uint256"
            },
            {
              "internalType": "address",
              "name": "owner",
              "type": "address"
            }
          ],
          "internalType": "struct GameItems.Item[]",
          "name": "",
          "type": "tuple[]"
        }
      ],
      "stateMutability": "nonpayable",
      "type": "function"
    },
    {
      "inputs": [
        {
          "internalType": "string",
          "name": "_username",
          "type": "string"
        }
      ],
      "name": "registerUser",
      "outputs": [],
      "stateMutability": "payable",
      "type": "function",
      "payable": true
    },
    {
      "inputs": [
        {
          "internalType": "string",
          "name": "_name",
          "type": "string"
        },
        {
          "internalType": "uint256",
          "name": "price",
          "type": "uint256"
        },
        {
          "internalType": "string",
          "name": "_description",
          "type": "string"
        }
      ],
      "name": "addItem",
      "outputs": [
        {
          "internalType": "uint256",
          "name": "",
          "type": "uint256"
        }
      ],
      "stateMutability": "nonpayable",
      "type": "function"
    },
    {
      "inputs": [
        {
          "internalType": "uint256",
          "name": "_itemId",
          "type": "uint256"
        }
      ],
      "name": "listItemForSale",
      "outputs": [
        {
          "internalType": "bool",
          "name": "",
          "type": "bool"
        }
      ],
      "stateMutability": "nonpayable",
      "type": "function"
    },
    {
      "inputs": [
        {
          "internalType": "uint256",
          "name": "_itemId",
          "type": "uint256"
        }
      ],
      "name": "isItemForSale",
      "outputs": [
        {
          "internalType": "bool",
          "name": "",
          "type": "bool"
        }
      ],
      "stateMutability": "view",
      "type": "function",
      "constant": true
    },
    {
      "inputs": [
        {
          "internalType": "uint256",
          "name": "_itemId",
          "type": "uint256"
        }
      ],
      "name": "buyItem",
      "outputs": [],
      "stateMutability": "payable",
      "type": "function",
      "payable": true
    },
    {
      "inputs": [
        {
          "internalType": "uint256",
          "name": "_itemId",
          "type": "uint256"
        }
      ],
      "name": "cancelListing",
      "outputs": [],
      "stateMutability": "nonpayable",
      "type": "function"
    },
    {
      "inputs": [
        {
          "internalType": "uint256",
          "name": "_itemId",
          "type": "uint256"
        }
      ],
      "name": "listItemForRent",
      "outputs": [],
      "stateMutability": "nonpayable",
      "type": "function"
    },
    {
      "inputs": [
        {
          "internalType": "uint256",
          "name": "_itemId",
          "type": "uint256"
        }
      ],
      "name": "isItemForRent",
      "outputs": [
        {
          "internalType": "bool",
          "name": "",
          "type": "bool"
        }
      ],
      "stateMutability": "view",
      "type": "function",
      "constant": true
    },
    {
      "inputs": [
        {
          "internalType": "uint256",
          "name": "_itemId",
          "type": "uint256"
        }
      ],
      "name": "rentItem",
      "outputs": [],
      "stateMutability": "payable",
      "type": "function",
      "payable": true
    },
    {
      "inputs": [
        {
          "internalType": "uint256",
          "name": "_itemId",
          "type": "uint256"
        }
      ],
      "name": "playGame",
      "outputs": [],
      "stateMutability": "nonpayable",
      "type": "function"
    },
    {
      "inputs": [
        {
          "internalType": "uint256",
          "name": "_itemId",
          "type": "uint256"
        }
      ],
      "name": "returnRentedItem",
      "outputs": [],
      "stateMutability": "nonpayable",
      "type": "function"
    },
    {
      "inputs": [],
      "name": "close",
      "outputs": [],
      "stateMutability": "nonpayable",
      "type": "function"
    }
  ],
  "bytecode": "0x6080604052604051620067be380380620067be8339818101604052810190620000299190620004c7565b6040518060400160405280600981526020017f47616d654974656d7300000000000000000000000000000000000000000000008152506040518060400160405280600281526020017f47490000000000000000000000000000000000000000000000000000000000008152508160009081620000a6919062000763565b508060019081620000b8919062000763565b50505033600760006101000a81548173ffffffffffffffffffffffffffffffffffffffff021916908373ffffffffffffffffffffffffffffffffffffffff1602179055506040518060a001604052803373ffffffffffffffffffffffffffffffffffffffff168152602001828152602001348152602001600067ffffffffffffffff8111156200014d576200014c62000363565b5b6040519080825280602002602001820160405280156200017c5781602001602082028036833780820191505090505b508152602001600067ffffffffffffffff811115620001a0576200019f62000363565b5b604051908082528060200260200182016040528015620001cf5781602001602082028036833780820191505090505b50815250600860003373ffffffffffffffffffffffffffffffffffffffff1673ffffffffffffffffffffffffffffffffffffffff16815260200190815260200160002060008201518160000160006101000a81548173ffffffffffffffffffffffffffffffffffffffff021916908373ffffffffffffffffffffffffffffffffffffffff160217905550602082015181600101908162000270919062000763565b5060408201518160020155606082015181600301908051906020019062000299929190620002c3565b506080820151816004019080519060200190620002b8929190620002c3565b50905050506200084a565b82805482825590600052602060002090810192821562000302579160200282015b8281111562000301578251825591602001919060010190620002e4565b5b50905062000311919062000315565b5090565b5b808211156200033057600081600090555060010162000316565b5090565b6000604051905090565b600080fd5b600080fd5b600080fd5b600080fd5b6000601f19601f8301169050919050565b7f4e487b7100000000000000000000000000000000000000000000000000000000600052604160045260246000fd5b6200039d8262000352565b810181811067ffffffffffffffff82111715620003bf57620003be62000363565b5b80604052505050565b6000620003d462000334565b9050620003e2828262000392565b919050565b600067ffffffffffffffff82111562000405576200040462000363565b5b620004108262000352565b9050602081019050919050565b60005b838110156200043d57808201518184015260208101905062000420565b60008484015250505050565b6000620004606200045a84620003e7565b620003c8565b9050828152602081018484840111156200047f576200047e6200034d565b5b6200048c8482856200041d565b509392505050565b600082601f830112620004ac57620004ab62000348565b5b8151620004be84826020860162000449565b91505092915050565b600060208284031215620004e057620004df6200033e565b5b600082015167ffffffffffffffff81111562000501576200050062000343565b5b6200050f8482850162000494565b91505092915050565b600081519050919050565b7f4e487b7100000000000000000000000000000000000000000000000000000000600052602260045260246000fd5b600060028204905060018216806200056b57607f821691505b60208210810362000581576200058062000523565b5b50919050565b60008190508160005260206000209050919050565b60006020601f8301049050919050565b600082821b905092915050565b600060088302620005eb7fffffffffffffffffffffffffffffffffffffffffffffffffffffffffffffffff82620005ac565b620005f78683620005ac565b95508019841693508086168417925050509392505050565b6000819050919050565b6000819050919050565b6000620006446200063e62000638846200060f565b62000619565b6200060f565b9050919050565b6000819050919050565b620006608362000623565b620006786200066f826200064b565b848454620005b9565b825550505050565b600090565b6200068f62000680565b6200069c81848462000655565b505050565b5b81811015620006c457620006b860008262000685565b600181019050620006a2565b5050565b601f8211156200071357620006dd8162000587565b620006e8846200059c565b81016020851015620006f8578190505b6200071062000707856200059c565b830182620006a1565b50505b505050565b600082821c905092915050565b6000620007386000198460080262000718565b1980831691505092915050565b600062000753838362000725565b9150826002028217905092915050565b6200076e8262000518565b67ffffffffffffffff8111156200078a576200078962000363565b5b62000796825462000552565b620007a3828285620006c8565b600060209050601f831160018114620007db5760008415620007c6578287015190505b620007d2858262000745565b86555062000842565b601f198416620007eb8662000587565b60005b828110156200081557848901518255600182019150602085019450602081019050620007ee565b8683101562000835578489015162000831601f89168262000725565b8355505b6001600288020188555050505b505050505050565b615f64806200085a6000396000f3fe6080604052600436106101e35760003560e01c8063a22cb46511610102578063cdf2722311610095578063de74e57b11610064578063de74e57b1461073a578063e7846b6614610779578063e7fb74c7146107b6578063e985e9c5146107d2576101e3565b8063cdf2722314610665578063ce0958c4146106a4578063d78d3852146106e1578063d92ed60b146106fd576101e3565b8063b36d8d8b116100d1578063b36d8d8b14610593578063b88d4fde146105bc578063bfb231d2146105e5578063c87b56dd14610628576101e3565b8063a22cb465146104c5578063a3e54b3e146104ee578063a87430ba1461052b578063a8cffa221461056a576101e3565b806343d726d61161017a5780636f77926b116101495780636f77926b14610404578063704f1b941461044157806370a082311461045d57806395d89b411461049a576101e3565b806343d726d61461035c5780634ba1d6aa146103735780635873533d1461039e5780636352211e146103c7576101e3565b806323b872dd116101b657806323b872dd146102b6578063305a67a8146102df5780633923f5901461030857806342842e0e14610333576101e3565b806301ffc9a7146101e857806306fdde0314610225578063081812fc14610250578063095ea7b31461028d575b600080fd5b3480156101f457600080fd5b5061020f600480360381019061020a91906144bd565b61080f565b60405161021c9190614505565b60405180910390f35b34801561023157600080fd5b5061023a6108f1565b60405161024791906145b0565b60405180910390f35b34801561025c57600080fd5b5061027760048036038101906102729190614608565b610983565b6040516102849190614676565b60405180910390f35b34801561029957600080fd5b506102b460048036038101906102af91906146bd565b6109c9565b005b3480156102c257600080fd5b506102dd60048036038101906102d891906146fd565b610ae0565b005b3480156102eb57600080fd5b5061030660048036038101906103019190614608565b610b40565b005b34801561031457600080fd5b5061031d610c7c565b60405161032a919061492c565b60405180910390f35b34801561033f57600080fd5b5061035a600480360381019061035591906146fd565b611099565b005b34801561036857600080fd5b506103716110b9565b005b34801561037f57600080fd5b50610388611162565b604051610395919061492c565b60405180910390f35b3480156103aa57600080fd5b506103c560048036038101906103c09190614608565b6114d3565b005b3480156103d357600080fd5b506103ee60048036038101906103e99190614608565b611647565b6040516103fb9190614676565b60405180910390f35b34801561041057600080fd5b5061042b6004803603810190610426919061494e565b6116cd565b60405161043891906145b0565b60405180910390f35b61045b60048036038101906104569190614ab0565b611878565b005b34801561046957600080fd5b50610484600480360381019061047f919061494e565b611afe565b6040516104919190614b08565b60405180910390f35b3480156104a657600080fd5b506104af611bb5565b6040516104bc91906145b0565b60405180910390f35b3480156104d157600080fd5b506104ec60048036038101906104e79190614b4f565b611c47565b005b3480156104fa57600080fd5b5061051560048036038101906105109190614b8f565b611c5d565b6040516105229190614b08565b60405180910390f35b34801561053757600080fd5b50610552600480360381019061054d919061494e565b611ef1565b60405161056193929190614c1a565b60405180910390f35b34801561057657600080fd5b50610591600480360381019061058c9190614608565b611fc3565b005b34801561059f57600080fd5b506105ba60048036038101906105b59190614608565b612257565b005b3480156105c857600080fd5b506105e360048036038101906105de9190614cf9565b61241e565b005b3480156105f157600080fd5b5061060c60048036038101906106079190614608565b612480565b60405161061f9796959493929190614d7c565b60405180910390f35b34801561063457600080fd5b5061064f600480360381019061064a9190614608565b61260c565b60405161065c91906145b0565b60405180910390f35b34801561067157600080fd5b5061068c60048036038101906106879190614608565b612674565b60405161069b93929190614df9565b60405180910390f35b3480156106b057600080fd5b506106cb60048036038101906106c69190614608565b6126be565b6040516106d89190614505565b60405180910390f35b6106fb60048036038101906106f69190614608565b612750565b005b34801561070957600080fd5b50610724600480360381019061071f9190614608565b612b24565b6040516107319190614505565b60405180910390f35b34801561074657600080fd5b50610761600480360381019061075c9190614608565b612cdd565b60405161077093929190614df9565b60405180910390f35b34801561078557600080fd5b506107a0600480360381019061079b9190614608565b612d27565b6040516107ad9190614505565b60405180910390f35b6107d060048036038101906107cb9190614608565b612db9565b005b3480156107de57600080fd5b506107f960048036038101906107f49190614e30565b6134a0565b6040516108069190614505565b60405180910390f35b60007f80ac58cd000000000000000000000000000000000000000000000000000000007bffffffffffffffffffffffffffffffffffffffffffffffffffffffff1916827bffffffffffffffffffffffffffffffffffffffffffffffffffffffff191614806108da57507f5b5e139f000000000000000000000000000000000000000000000000000000007bffffffffffffffffffffffffffffffffffffffffffffffffffffffff1916827bffffffffffffffffffffffffffffffffffffffffffffffffffffffff1916145b806108ea57506108e982613534565b5b9050919050565b60606000805461090090614e9f565b80601f016020809104026020016040519081016040528092919081815260200182805461092c90614e9f565b80156109795780601f1061094e57610100808354040283529160200191610979565b820191906000526020600020905b81548152906001019060200180831161095c57829003601f168201915b5050505050905090565b600061098e8261359e565b6004600083815260200190815260200160002060009054906101000a900473ffffffffffffffffffffffffffffffffffffffff169050919050565b60006109d482611647565b90508073ffffffffffffffffffffffffffffffffffffffff168373ffffffffffffffffffffffffffffffffffffffff1603610a44576040517f08c379a0000000000000000000000000000000000000000000000000000000008152600401610a3b90614f42565b60405180910390fd5b8073ffffffffffffffffffffffffffffffffffffffff16610a636135e9565b73ffffffffffffffffffffffffffffffffffffffff161480610a925750610a9181610a8c6135e9565b6134a0565b5b610ad1576040517f08c379a0000000000000000000000000000000000000000000000000000000008152600401610ac890614fd4565b60405180910390fd5b610adb83836135f1565b505050565b610af1610aeb6135e9565b826136aa565b610b30576040517f08c379a0000000000000000000000000000000000000000000000000000000008152600401610b2790615066565b60405180910390fd5b610b3b83838361373f565b505050565b610b4981612d27565b610b88576040517f08c379a0000000000000000000000000000000000000000000000000000000008152600401610b7f906150d2565b60405180910390fd5b3373ffffffffffffffffffffffffffffffffffffffff16600a600083815260200190815260200160002060010160009054906101000a900473ffffffffffffffffffffffffffffffffffffffff1673ffffffffffffffffffffffffffffffffffffffff1614610c2c576040517f08c379a0000000000000000000000000000000000000000000000000000000008152600401610c239061513e565b60405180910390fd5b600a60008281526020019081526020016000206000808201600090556001820160006101000a81549073ffffffffffffffffffffffffffffffffffffffff02191690556002820160009055505050565b6060600073ffffffffffffffffffffffffffffffffffffffff16600860003373ffffffffffffffffffffffffffffffffffffffff1673ffffffffffffffffffffffffffffffffffffffff16815260200190815260200160002060000160009054906101000a900473ffffffffffffffffffffffffffffffffffffffff1673ffffffffffffffffffffffffffffffffffffffff1603610d4f576040517f08c379a0000000000000000000000000000000000000000000000000000000008152600401610d46906151aa565b60405180910390fd5b6000600860003373ffffffffffffffffffffffffffffffffffffffff1673ffffffffffffffffffffffffffffffffffffffff168152602001908152602001600020600301805480602002602001604051908101604052809291908181526020018280548015610ddd57602002820191906000526020600020905b815481526020019060010190808311610dc9575b5050505050905060008060018351610df591906151f9565b67ffffffffffffffff811115610e0e57610e0d614985565b5b604051908082528060200260200182016040528015610e4757816020015b610e34614390565b815260200190600190039081610e2c5790505b50905060005b835181101561108f5760096000858381518110610e6d57610e6c61522d565b5b602002602001015181526020019081526020016000206040518060e001604052908160008201548152602001600182018054610ea890614e9f565b80601f0160208091040260200160405190810160405280929190818152602001828054610ed490614e9f565b8015610f215780601f10610ef657610100808354040283529160200191610f21565b820191906000526020600020905b815481529060010190602001808311610f0457829003601f168201915b50505050508152602001600282018054610f3a90614e9f565b80601f0160208091040260200160405190810160405280929190818152602001828054610f6690614e9f565b8015610fb35780601f10610f8857610100808354040283529160200191610fb3565b820191906000526020600020905b815481529060010190602001808311610f9657829003601f168201915b505050505081526020016003820160009054906101000a900460ff161515151581526020016003820160019054906101000a900460ff16151515158152602001600482015481526020016005820160009054906101000a900473ffffffffffffffffffffffffffffffffffffffff1673ffffffffffffffffffffffffffffffffffffffff1673ffffffffffffffffffffffffffffffffffffffff168152505082848061105e9061525c565b9550815181106110715761107061522d565b5b602002602001018190525080806110879061525c565b915050610e4d565b5080935050505090565b6110b48383836040518060200160405280600081525061241e565b505050565b3373ffffffffffffffffffffffffffffffffffffffff16600760009054906101000a900473ffffffffffffffffffffffffffffffffffffffff1673ffffffffffffffffffffffffffffffffffffffff1614611149576040517f08c379a0000000000000000000000000000000000000000000000000000000008152600401611140906152f0565b60405180910390fd5b3373ffffffffffffffffffffffffffffffffffffffff16ff5b6060600073ffffffffffffffffffffffffffffffffffffffff16600860003373ffffffffffffffffffffffffffffffffffffffff1673ffffffffffffffffffffffffffffffffffffffff16815260200190815260200160002060000160009054906101000a900473ffffffffffffffffffffffffffffffffffffffff1673ffffffffffffffffffffffffffffffffffffffff1603611235576040517f08c379a000000000000000000000000000000000000000000000000000000000815260040161122c906151aa565b60405180910390fd5b6000806112426006613a38565b905060008167ffffffffffffffff8111156112605761125f614985565b5b60405190808252806020026020018201604052801561129957816020015b611286614390565b81526020019060019003908161127e5790505b5090506000600190505b8281116114c957600960008281526020019081526020016000206040518060e0016040529081600082015481526020016001820180546112e290614e9f565b80601f016020809104026020016040519081016040528092919081815260200182805461130e90614e9f565b801561135b5780601f106113305761010080835404028352916020019161135b565b820191906000526020600020905b81548152906001019060200180831161133e57829003601f168201915b5050505050815260200160028201805461137490614e9f565b80601f01602080910402602001604051908101604052809291908181526020018280546113a090614e9f565b80156113ed5780601f106113c2576101008083540402835291602001916113ed565b820191906000526020600020905b8154815290600101906020018083116113d057829003601f168201915b505050505081526020016003820160009054906101000a900460ff161515151581526020016003820160019054906101000a900460ff16151515158152602001600482015481526020016005820160009054906101000a900473ffffffffffffffffffffffffffffffffffffffff1673ffffffffffffffffffffffffffffffffffffffff1673ffffffffffffffffffffffffffffffffffffffff16815250508285806114989061525c565b9650815181106114ab576114aa61522d565b5b602002602001018190525080806114c19061525c565b9150506112a3565b5080935050505090565b6114dd3382613a46565b61151c576040517f08c379a00000000000000000000000000000000000000000000000000000000081526004016115139061535c565b60405180910390fd5b611525816126be565b15611565576040517f08c379a000000000000000000000000000000000000000000000000000000000815260040161155c906153c8565b60405180910390fd5b6000600a6002600960008581526020019081526020016000206004015461158c91906153e8565b6115969190615459565b905060405180606001604052808381526020013373ffffffffffffffffffffffffffffffffffffffff16815260200182815250600b60008481526020019081526020016000206000820151816000015560208201518160010160006101000a81548173ffffffffffffffffffffffffffffffffffffffff021916908373ffffffffffffffffffffffffffffffffffffffff1602179055506040820151816002015590505061164382611fc3565b5050565b60008061165383613b29565b9050600073ffffffffffffffffffffffffffffffffffffffff168173ffffffffffffffffffffffffffffffffffffffff16036116c4576040517f08c379a00000000000000000000000000000000000000000000000000000000081526004016116bb906154d6565b60405180910390fd5b80915050919050565b6060600073ffffffffffffffffffffffffffffffffffffffff16600860008473ffffffffffffffffffffffffffffffffffffffff1673ffffffffffffffffffffffffffffffffffffffff16815260200190815260200160002060000160009054906101000a900473ffffffffffffffffffffffffffffffffffffffff1673ffffffffffffffffffffffffffffffffffffffff16036117a0576040517f08c379a0000000000000000000000000000000000000000000000000000000008152600401611797906151aa565b60405180910390fd5b6000600860008473ffffffffffffffffffffffffffffffffffffffff1673ffffffffffffffffffffffffffffffffffffffff16815260200190815260200160002060010180546117ef90614e9f565b80601f016020809104026020016040519081016040528092919081815260200182805461181b90614e9f565b80156118685780601f1061183d57610100808354040283529160200191611868565b820191906000526020600020905b81548152906001019060200180831161184b57829003601f168201915b5050505050905080915050919050565b600073ffffffffffffffffffffffffffffffffffffffff16600860003373ffffffffffffffffffffffffffffffffffffffff1673ffffffffffffffffffffffffffffffffffffffff16815260200190815260200160002060000160009054906101000a900473ffffffffffffffffffffffffffffffffffffffff1673ffffffffffffffffffffffffffffffffffffffff1614611949576040517f08c379a000000000000000000000000000000000000000000000000000000000815260040161194090615542565b60405180910390fd5b6040518060a001604052803373ffffffffffffffffffffffffffffffffffffffff168152602001828152602001348152602001600067ffffffffffffffff81111561199757611996614985565b5b6040519080825280602002602001820160405280156119c55781602001602082028036833780820191505090505b508152602001600067ffffffffffffffff8111156119e6576119e5614985565b5b604051908082528060200260200182016040528015611a145781602001602082028036833780820191505090505b50815250600860003373ffffffffffffffffffffffffffffffffffffffff1673ffffffffffffffffffffffffffffffffffffffff16815260200190815260200160002060008201518160000160006101000a81548173ffffffffffffffffffffffffffffffffffffffff021916908373ffffffffffffffffffffffffffffffffffffffff1602179055506020820151816001019081611ab3919061570e565b50604082015181600201556060820151816003019080519060200190611ada9291906143e7565b506080820151816004019080519060200190611af79291906143e7565b5090505050565b60008073ffffffffffffffffffffffffffffffffffffffff168273ffffffffffffffffffffffffffffffffffffffff1603611b6e576040517f08c379a0000000000000000000000000000000000000000000000000000000008152600401611b6590615852565b60405180910390fd5b600360008373ffffffffffffffffffffffffffffffffffffffff1673ffffffffffffffffffffffffffffffffffffffff168152602001908152602001600020549050919050565b606060018054611bc490614e9f565b80601f0160208091040260200160405190810160405280929190818152602001828054611bf090614e9f565b8015611c3d5780601f10611c1257610100808354040283529160200191611c3d565b820191906000526020600020905b815481529060010190602001808311611c2057829003601f168201915b5050505050905090565b611c59611c526135e9565b8383613b66565b5050565b60008073ffffffffffffffffffffffffffffffffffffffff16600860003373ffffffffffffffffffffffffffffffffffffffff1673ffffffffffffffffffffffffffffffffffffffff16815260200190815260200160002060000160009054906101000a900473ffffffffffffffffffffffffffffffffffffffff1673ffffffffffffffffffffffffffffffffffffffff1603611d2f576040517f08c379a0000000000000000000000000000000000000000000000000000000008152600401611d26906151aa565b60405180910390fd5b611d396006613cd2565b6000611d456006613a38565b9050611d513382613ce8565b6040518060e001604052808281526020018681526020018481526020016000151581526020016000151581526020018581526020013373ffffffffffffffffffffffffffffffffffffffff1681525060096000838152602001908152602001600020600082015181600001556020820151816001019081611dd2919061570e565b506040820151816002019081611de8919061570e565b5060608201518160030160006101000a81548160ff02191690831515021790555060808201518160030160016101000a81548160ff02191690831515021790555060a0820151816004015560c08201518160050160006101000a81548173ffffffffffffffffffffffffffffffffffffffff021916908373ffffffffffffffffffffffffffffffffffffffff160217905550905050600860003373ffffffffffffffffffffffffffffffffffffffff1673ffffffffffffffffffffffffffffffffffffffff168152602001908152602001600020600301819080600181540180825580915050600190039060005260206000200160009091909190915055809150509392505050565b60086020528060005260406000206000915090508060000160009054906101000a900473ffffffffffffffffffffffffffffffffffffffff1690806001018054611f3a90614e9f565b80601f0160208091040260200160405190810160405280929190818152602001828054611f6690614e9f565b8015611fb35780601f10611f8857610100808354040283529160200191611fb3565b820191906000526020600020905b815481529060010190602001808311611f9657829003601f168201915b5050505050908060020154905083565b611fcd3382613a46565b61200c576040517f08c379a00000000000000000000000000000000000000000000000000000000081526004016120039061535c565b60405180910390fd5b60005b600860003373ffffffffffffffffffffffffffffffffffffffff1673ffffffffffffffffffffffffffffffffffffffff168152602001908152602001600020600401805490508110156122535781600860003373ffffffffffffffffffffffffffffffffffffffff1673ffffffffffffffffffffffffffffffffffffffff16815260200190815260200160002060040182815481106120b1576120b061522d565b5b90600052602060002001540361224057600860003373ffffffffffffffffffffffffffffffffffffffff1673ffffffffffffffffffffffffffffffffffffffff1681526020019081526020016000206004016001600860003373ffffffffffffffffffffffffffffffffffffffff1673ffffffffffffffffffffffffffffffffffffffff168152602001908152602001600020600401805490506121559190615872565b815481106121665761216561522d565b5b9060005260206000200154600860003373ffffffffffffffffffffffffffffffffffffffff1673ffffffffffffffffffffffffffffffffffffffff16815260200190815260200160002060040182815481106121c5576121c461522d565b5b9060005260206000200181905550600860003373ffffffffffffffffffffffffffffffffffffffff1673ffffffffffffffffffffffffffffffffffffffff168152602001908152602001600020600401805480612225576122246158a6565b5b60019003818190600052602060002001600090559055612253565b808061224b9061525c565b91505061200f565b5050565b3373ffffffffffffffffffffffffffffffffffffffff1661227782611647565b73ffffffffffffffffffffffffffffffffffffffff16146122cd576040517f08c379a00000000000000000000000000000000000000000000000000000000081526004016122c49061513e565b60405180910390fd5b6122d6816126be565b15612316576040517f08c379a000000000000000000000000000000000000000000000000000000000815260040161230d906153c8565b60405180910390fd5b6000600a6002600960008581526020019081526020016000206004015461233d91906153e8565b6123479190615459565b905060405180606001604052808381526020013373ffffffffffffffffffffffffffffffffffffffff16815260200182815250600b60008481526020019081526020016000206000820151816000015560208201518160010160006101000a81548173ffffffffffffffffffffffffffffffffffffffff021916908373ffffffffffffffffffffffffffffffffffffffff1602179055506040820151816002015590505060016009600084815260200190815260200160002060030160006101000a81548160ff0219169083151502179055505050565b61242f6124296135e9565b836136aa565b61246e576040517f08c379a000000000000000000000000000000000000000000000000000000000815260040161246590615066565b60405180910390fd5b61247a84848484613f05565b50505050565b60096020528060005260406000206000915090508060000154908060010180546124a990614e9f565b80601f01602080910402602001604051908101604052809291908181526020018280546124d590614e9f565b80156125225780601f106124f757610100808354040283529160200191612522565b820191906000526020600020905b81548152906001019060200180831161250557829003601f168201915b50505050509080600201805461253790614e9f565b80601f016020809104026020016040519081016040528092919081815260200182805461256390614e9f565b80156125b05780601f10612585576101008083540402835291602001916125b0565b820191906000526020600020905b81548152906001019060200180831161259357829003601f168201915b5050505050908060030160009054906101000a900460ff16908060030160019054906101000a900460ff16908060040154908060050160009054906101000a900473ffffffffffffffffffffffffffffffffffffffff16905087565b60606126178261359e565b6000612621613f61565b90506000815111612641576040518060200160405280600081525061266c565b8061264b84613f78565b60405160200161265c929190615911565b6040516020818303038152906040525b915050919050565b600b6020528060005260406000206000915090508060000154908060010160009054906101000a900473ffffffffffffffffffffffffffffffffffffffff16908060020154905083565b600080600b600084815260200190815260200160002060000154141580156127495750600073ffffffffffffffffffffffffffffffffffffffff16600b600084815260200190815260200160002060010160009054906101000a900473ffffffffffffffffffffffffffffffffffffffff1673ffffffffffffffffffffffffffffffffffffffff1614155b9050919050565b612759816126be565b612798576040517f08c379a000000000000000000000000000000000000000000000000000000000815260040161278f90615981565b60405180910390fd5b6000600b6000838152602001908152602001600020600201549050803410156127f6576040517f08c379a00000000000000000000000000000000000000000000000000000000081526004016127ed906159ed565b60405180910390fd5b6000600b600084815260200190815260200160002060010160009054906101000a900473ffffffffffffffffffffffffffffffffffffffff1690503373ffffffffffffffffffffffffffffffffffffffff168173ffffffffffffffffffffffffffffffffffffffff160361289f576040517f08c379a000000000000000000000000000000000000000000000000000000000815260040161289690615a59565b60405180910390fd5b600073ffffffffffffffffffffffffffffffffffffffff16600860003373ffffffffffffffffffffffffffffffffffffffff1673ffffffffffffffffffffffffffffffffffffffff16815260200190815260200160002060000160009054906101000a900473ffffffffffffffffffffffffffffffffffffffff1673ffffffffffffffffffffffffffffffffffffffff1603612970576040517f08c379a0000000000000000000000000000000000000000000000000000000008152600401612967906151aa565b60405180910390fd5b600860003373ffffffffffffffffffffffffffffffffffffffff1673ffffffffffffffffffffffffffffffffffffffff16815260200190815260200160002060040183908060018154018082558091505060019003906000526020600020016000909190919091505581600860008373ffffffffffffffffffffffffffffffffffffffff1673ffffffffffffffffffffffffffffffffffffffff1681526020019081526020016000206002016000828254612a2b91906151f9565b9250508190555081600860003373ffffffffffffffffffffffffffffffffffffffff1673ffffffffffffffffffffffffffffffffffffffff1681526020019081526020016000206002016000828254612a849190615872565b925050819055508073ffffffffffffffffffffffffffffffffffffffff166108fc839081150290604051600060405180830381858888f19350505050158015612ad1573d6000803e3d6000fd5b50600b60008481526020019081526020016000206000808201600090556001820160006101000a81549073ffffffffffffffffffffffffffffffffffffffff021916905560028201600090555050505050565b6000813373ffffffffffffffffffffffffffffffffffffffff16612b4782611647565b73ffffffffffffffffffffffffffffffffffffffff1614612b9d576040517f08c379a0000000000000000000000000000000000000000000000000000000008152600401612b949061513e565b60405180910390fd5b612ba683612d27565b15612be6576040517f08c379a0000000000000000000000000000000000000000000000000000000008152600401612bdd90615ac5565b60405180910390fd5b60006009600085815260200190815260200160002060040154905060405180606001604052808581526020013373ffffffffffffffffffffffffffffffffffffffff16815260200182815250600a60008681526020019081526020016000206000820151816000015560208201518160010160006101000a81548173ffffffffffffffffffffffffffffffffffffffff021916908373ffffffffffffffffffffffffffffffffffffffff1602179055506040820151816002015590505060016009600086815260200190815260200160002060030160016101000a81548160ff021916908315150217905550600192505050919050565b600a6020528060005260406000206000915090508060000154908060010160009054906101000a900473ffffffffffffffffffffffffffffffffffffffff16908060020154905083565b600080600a60008481526020019081526020016000206000015414158015612db25750600073ffffffffffffffffffffffffffffffffffffffff16600a600084815260200190815260200160002060010160009054906101000a900473ffffffffffffffffffffffffffffffffffffffff1673ffffffffffffffffffffffffffffffffffffffff1614155b9050919050565b612dc281612d27565b612e01576040517f08c379a0000000000000000000000000000000000000000000000000000000008152600401612df8906150d2565b60405180910390fd5b600a600082815260200190815260200160002060020154341015612e5a576040517f08c379a0000000000000000000000000000000000000000000000000000000008152600401612e51906159ed565b60405180910390fd5b6000600a600083815260200190815260200160002060010160009054906101000a900473ffffffffffffffffffffffffffffffffffffffff1690503373ffffffffffffffffffffffffffffffffffffffff168173ffffffffffffffffffffffffffffffffffffffff1603612f03576040517f08c379a0000000000000000000000000000000000000000000000000000000008152600401612efa90615b31565b60405180910390fd5b600073ffffffffffffffffffffffffffffffffffffffff16600860003373ffffffffffffffffffffffffffffffffffffffff1673ffffffffffffffffffffffffffffffffffffffff16815260200190815260200160002060000160009054906101000a900473ffffffffffffffffffffffffffffffffffffffff1673ffffffffffffffffffffffffffffffffffffffff1603612fd4576040517f08c379a0000000000000000000000000000000000000000000000000000000008152600401612fcb906151aa565b60405180910390fd5b612fdf81338461373f565b600860003373ffffffffffffffffffffffffffffffffffffffff1673ffffffffffffffffffffffffffffffffffffffff16815260200190815260200160002060030182908060018154018082558091505060019003906000526020600020016000909190919091505560005b600860008373ffffffffffffffffffffffffffffffffffffffff1673ffffffffffffffffffffffffffffffffffffffff1681526020019081526020016000206003018054905081101561328f5782600860008473ffffffffffffffffffffffffffffffffffffffff1673ffffffffffffffffffffffffffffffffffffffff16815260200190815260200160002060030182815481106130ed576130ec61522d565b5b90600052602060002001540361327c57600860008373ffffffffffffffffffffffffffffffffffffffff1673ffffffffffffffffffffffffffffffffffffffff1681526020019081526020016000206003016001600860008573ffffffffffffffffffffffffffffffffffffffff1673ffffffffffffffffffffffffffffffffffffffff168152602001908152602001600020600301805490506131919190615872565b815481106131a2576131a161522d565b5b9060005260206000200154600860008473ffffffffffffffffffffffffffffffffffffffff1673ffffffffffffffffffffffffffffffffffffffff16815260200190815260200160002060030182815481106132015761320061522d565b5b9060005260206000200181905550600860008373ffffffffffffffffffffffffffffffffffffffff1673ffffffffffffffffffffffffffffffffffffffff168152602001908152602001600020600301805480613261576132606158a6565b5b6001900381819060005260206000200160009055905561328f565b80806132879061525c565b91505061304b565b50336009600084815260200190815260200160002060050160006101000a81548173ffffffffffffffffffffffffffffffffffffffff021916908373ffffffffffffffffffffffffffffffffffffffff16021790555060006009600084815260200190815260200160002060030160016101000a81548160ff021916908315150217905550600a600083815260200190815260200160002060020154600860008373ffffffffffffffffffffffffffffffffffffffff1673ffffffffffffffffffffffffffffffffffffffff168152602001908152602001600020600201600082825461337c91906151f9565b92505081905550600a600083815260200190815260200160002060020154600860003373ffffffffffffffffffffffffffffffffffffffff1673ffffffffffffffffffffffffffffffffffffffff16815260200190815260200160002060020160008282546133eb9190615872565b925050819055508073ffffffffffffffffffffffffffffffffffffffff166108fc600a6000858152602001908152602001600020600201549081150290604051600060405180830381858888f1935050505015801561344e573d6000803e3d6000fd5b50600a60008381526020019081526020016000206000808201600090556001820160006101000a81549073ffffffffffffffffffffffffffffffffffffffff0219169055600282016000905550505050565b6000600560008473ffffffffffffffffffffffffffffffffffffffff1673ffffffffffffffffffffffffffffffffffffffff16815260200190815260200160002060008373ffffffffffffffffffffffffffffffffffffffff1673ffffffffffffffffffffffffffffffffffffffff16815260200190815260200160002060009054906101000a900460ff16905092915050565b60007f01ffc9a7000000000000000000000000000000000000000000000000000000007bffffffffffffffffffffffffffffffffffffffffffffffffffffffff1916827bffffffffffffffffffffffffffffffffffffffffffffffffffffffff1916149050919050565b6135a781614046565b6135e6576040517f08c379a00000000000000000000000000000000000000000000000000000000081526004016135dd906154d6565b60405180910390fd5b50565b600033905090565b816004600083815260200190815260200160002060006101000a81548173ffffffffffffffffffffffffffffffffffffffff021916908373ffffffffffffffffffffffffffffffffffffffff160217905550808273ffffffffffffffffffffffffffffffffffffffff1661366483611647565b73ffffffffffffffffffffffffffffffffffffffff167f8c5be1e5ebec7d5bd14f71427d1e84f3dd0314c0f7b2291e5b200ac8c7c3b92560405160405180910390a45050565b6000806136b683611647565b90508073ffffffffffffffffffffffffffffffffffffffff168473ffffffffffffffffffffffffffffffffffffffff1614806136f857506136f781856134a0565b5b8061373657508373ffffffffffffffffffffffffffffffffffffffff1661371e84610983565b73ffffffffffffffffffffffffffffffffffffffff16145b91505092915050565b8273ffffffffffffffffffffffffffffffffffffffff1661375f82611647565b73ffffffffffffffffffffffffffffffffffffffff16146137b5576040517f08c379a00000000000000000000000000000000000000000000000000000000081526004016137ac90615bc3565b60405180910390fd5b600073ffffffffffffffffffffffffffffffffffffffff168273ffffffffffffffffffffffffffffffffffffffff1603613824576040517f08c379a000000000000000000000000000000000000000000000000000000000815260040161381b90615c55565b60405180910390fd5b6138318383836001614087565b8273ffffffffffffffffffffffffffffffffffffffff1661385182611647565b73ffffffffffffffffffffffffffffffffffffffff16146138a7576040517f08c379a000000000000000000000000000000000000000000000000000000000815260040161389e90615bc3565b60405180910390fd5b6004600082815260200190815260200160002060006101000a81549073ffffffffffffffffffffffffffffffffffffffff02191690556001600360008573ffffffffffffffffffffffffffffffffffffffff1673ffffffffffffffffffffffffffffffffffffffff168152602001908152602001600020600082825403925050819055506001600360008473ffffffffffffffffffffffffffffffffffffffff1673ffffffffffffffffffffffffffffffffffffffff16815260200190815260200160002060008282540192505081905550816002600083815260200190815260200160002060006101000a81548173ffffffffffffffffffffffffffffffffffffffff021916908373ffffffffffffffffffffffffffffffffffffffff160217905550808273ffffffffffffffffffffffffffffffffffffffff168473ffffffffffffffffffffffffffffffffffffffff167fddf252ad1be2c89b69c2b068fc378daa952ba7f163c4a11628f55a4df523b3ef60405160405180910390a4613a33838383600161408d565b505050565b600081600001549050919050565b600080600090505b600860008573ffffffffffffffffffffffffffffffffffffffff1673ffffffffffffffffffffffffffffffffffffffff16815260200190815260200160002060040180549050811015613b1d5782600860008673ffffffffffffffffffffffffffffffffffffffff1673ffffffffffffffffffffffffffffffffffffffff1681526020019081526020016000206004018281548110613af057613aef61522d565b5b906000526020600020015403613b0a576001915050613b23565b8080613b159061525c565b915050613a4e565b50600090505b92915050565b60006002600083815260200190815260200160002060009054906101000a900473ffffffffffffffffffffffffffffffffffffffff169050919050565b8173ffffffffffffffffffffffffffffffffffffffff168373ffffffffffffffffffffffffffffffffffffffff1603613bd4576040517f08c379a0000000000000000000000000000000000000000000000000000000008152600401613bcb90615cc1565b60405180910390fd5b80600560008573ffffffffffffffffffffffffffffffffffffffff1673ffffffffffffffffffffffffffffffffffffffff16815260200190815260200160002060008473ffffffffffffffffffffffffffffffffffffffff1673ffffffffffffffffffffffffffffffffffffffff16815260200190815260200160002060006101000a81548160ff0219169083151502179055508173ffffffffffffffffffffffffffffffffffffffff168373ffffffffffffffffffffffffffffffffffffffff167f17307eab39ab6107e8899845ad3d59bd9653f200f220920489ca2b5937696c3183604051613cc59190614505565b60405180910390a3505050565b6001816000016000828254019250508190555050565b600073ffffffffffffffffffffffffffffffffffffffff168273ffffffffffffffffffffffffffffffffffffffff1603613d57576040517f08c379a0000000000000000000000000000000000000000000000000000000008152600401613d4e90615d2d565b60405180910390fd5b613d6081614046565b15613da0576040517f08c379a0000000000000000000000000000000000000000000000000000000008152600401613d9790615d99565b60405180910390fd5b613dae600083836001614087565b613db781614046565b15613df7576040517f08c379a0000000000000000000000000000000000000000000000000000000008152600401613dee90615d99565b60405180910390fd5b6001600360008473ffffffffffffffffffffffffffffffffffffffff1673ffffffffffffffffffffffffffffffffffffffff16815260200190815260200160002060008282540192505081905550816002600083815260200190815260200160002060006101000a81548173ffffffffffffffffffffffffffffffffffffffff021916908373ffffffffffffffffffffffffffffffffffffffff160217905550808273ffffffffffffffffffffffffffffffffffffffff16600073ffffffffffffffffffffffffffffffffffffffff167fddf252ad1be2c89b69c2b068fc378daa952ba7f163c4a11628f55a4df523b3ef60405160405180910390a4613f0160008383600161408d565b5050565b613f1084848461373f565b613f1c84848484614093565b613f5b576040517f08c379a0000000000000000000000000000000000000000000000000000000008152600401613f5290615e2b565b60405180910390fd5b50505050565b606060405180602001604052806000815250905090565b606060006001613f878461421a565b01905060008167ffffffffffffffff811115613fa657613fa5614985565b5b6040519080825280601f01601f191660200182016040528015613fd85781602001600182028036833780820191505090505b509050600082602001820190505b60011561403b578080600190039150507f3031323334353637383961626364656600000000000000000000000000000000600a86061a8153600a858161402f5761402e61542a565b5b04945060008503613fe6575b819350505050919050565b60008073ffffffffffffffffffffffffffffffffffffffff1661406883613b29565b73ffffffffffffffffffffffffffffffffffffffff1614159050919050565b50505050565b50505050565b60006140b48473ffffffffffffffffffffffffffffffffffffffff1661436d565b1561420d578373ffffffffffffffffffffffffffffffffffffffff1663150b7a026140dd6135e9565b8786866040518563ffffffff1660e01b81526004016140ff9493929190615ea0565b6020604051808303816000875af192505050801561413b57506040513d601f19601f820116820180604052508101906141389190615f01565b60015b6141bd573d806000811461416b576040519150601f19603f3d011682016040523d82523d6000602084013e614170565b606091505b5060008151036141b5576040517f08c379a00000000000000000000000000000000000000000000000000000000081526004016141ac90615e2b565b60405180910390fd5b805181602001fd5b63150b7a0260e01b7bffffffffffffffffffffffffffffffffffffffffffffffffffffffff1916817bffffffffffffffffffffffffffffffffffffffffffffffffffffffff191614915050614212565b600190505b949350505050565b600080600090507a184f03e93ff9f4daa797ed6e38ed64bf6a1f0100000000000000008310614278577a184f03e93ff9f4daa797ed6e38ed64bf6a1f010000000000000000838161426e5761426d61542a565b5b0492506040810190505b6d04ee2d6d415b85acef810000000083106142b5576d04ee2d6d415b85acef810000000083816142ab576142aa61542a565b5b0492506020810190505b662386f26fc1000083106142e457662386f26fc1000083816142da576142d961542a565b5b0492506010810190505b6305f5e100831061430d576305f5e10083816143035761430261542a565b5b0492506008810190505b61271083106143325761271083816143285761432761542a565b5b0492506004810190505b60648310614355576064838161434b5761434a61542a565b5b0492506002810190505b600a8310614364576001810190505b80915050919050565b6000808273ffffffffffffffffffffffffffffffffffffffff163b119050919050565b6040518060e0016040528060008152602001606081526020016060815260200160001515815260200160001515815260200160008152602001600073ffffffffffffffffffffffffffffffffffffffff1681525090565b828054828255906000526020600020908101928215614423579160200282015b82811115614422578251825591602001919060010190614407565b5b5090506144309190614434565b5090565b5b8082111561444d576000816000905550600101614435565b5090565b6000604051905090565b600080fd5b600080fd5b60007fffffffff0000000000000000000000000000000000000000000000000000000082169050919050565b61449a81614465565b81146144a557600080fd5b50565b6000813590506144b781614491565b92915050565b6000602082840312156144d3576144d261445b565b5b60006144e1848285016144a8565b91505092915050565b60008115159050919050565b6144ff816144ea565b82525050565b600060208201905061451a60008301846144f6565b92915050565b600081519050919050565b600082825260208201905092915050565b60005b8381101561455a57808201518184015260208101905061453f565b60008484015250505050565b6000601f19601f8301169050919050565b600061458282614520565b61458c818561452b565b935061459c81856020860161453c565b6145a581614566565b840191505092915050565b600060208201905081810360008301526145ca8184614577565b905092915050565b6000819050919050565b6145e5816145d2565b81146145f057600080fd5b50565b600081359050614602816145dc565b92915050565b60006020828403121561461e5761461d61445b565b5b600061462c848285016145f3565b91505092915050565b600073ffffffffffffffffffffffffffffffffffffffff82169050919050565b600061466082614635565b9050919050565b61467081614655565b82525050565b600060208201905061468b6000830184614667565b92915050565b61469a81614655565b81146146a557600080fd5b50565b6000813590506146b781614691565b92915050565b600080604083850312156146d4576146d361445b565b5b60006146e2858286016146a8565b92505060206146f3858286016145f3565b9150509250929050565b6000806000606084860312156147165761471561445b565b5b6000614724868287016146a8565b9350506020614735868287016146a8565b9250506040614746868287016145f3565b9150509250925092565b600081519050919050565b600082825260208201905092915050565b6000819050602082019050919050565b614785816145d2565b82525050565b600082825260208201905092915050565b60006147a782614520565b6147b1818561478b565b93506147c181856020860161453c565b6147ca81614566565b840191505092915050565b6147de816144ea565b82525050565b6147ed81614655565b82525050565b600060e08301600083015161480b600086018261477c565b5060208301518482036020860152614823828261479c565b9150506040830151848203604086015261483d828261479c565b915050606083015161485260608601826147d5565b50608083015161486560808601826147d5565b5060a083015161487860a086018261477c565b5060c083015161488b60c08601826147e4565b508091505092915050565b60006148a283836147f3565b905092915050565b6000602082019050919050565b60006148c282614750565b6148cc818561475b565b9350836020820285016148de8561476c565b8060005b8581101561491a57848403895281516148fb8582614896565b9450614906836148aa565b925060208a019950506001810190506148e2565b50829750879550505050505092915050565b6000602082019050818103600083015261494681846148b7565b905092915050565b6000602082840312156149645761496361445b565b5b6000614972848285016146a8565b91505092915050565b600080fd5b600080fd5b7f4e487b7100000000000000000000000000000000000000000000000000000000600052604160045260246000fd5b6149bd82614566565b810181811067ffffffffffffffff821117156149dc576149db614985565b5b80604052505050565b60006149ef614451565b90506149fb82826149b4565b919050565b600067ffffffffffffffff821115614a1b57614a1a614985565b5b614a2482614566565b9050602081019050919050565b82818337600083830152505050565b6000614a53614a4e84614a00565b6149e5565b905082815260208101848484011115614a6f57614a6e614980565b5b614a7a848285614a31565b509392505050565b600082601f830112614a9757614a9661497b565b5b8135614aa7848260208601614a40565b91505092915050565b600060208284031215614ac657614ac561445b565b5b600082013567ffffffffffffffff811115614ae457614ae3614460565b5b614af084828501614a82565b91505092915050565b614b02816145d2565b82525050565b6000602082019050614b1d6000830184614af9565b92915050565b614b2c816144ea565b8114614b3757600080fd5b50565b600081359050614b4981614b23565b92915050565b60008060408385031215614b6657614b6561445b565b5b6000614b74858286016146a8565b9250506020614b8585828601614b3a565b9150509250929050565b600080600060608486031215614ba857614ba761445b565b5b600084013567ffffffffffffffff811115614bc657614bc5614460565b5b614bd286828701614a82565b9350506020614be3868287016145f3565b925050604084013567ffffffffffffffff811115614c0457614c03614460565b5b614c1086828701614a82565b9150509250925092565b6000606082019050614c2f6000830186614667565b8181036020830152614c418185614577565b9050614c506040830184614af9565b949350505050565b600067ffffffffffffffff821115614c7357614c72614985565b5b614c7c82614566565b9050602081019050919050565b6000614c9c614c9784614c58565b6149e5565b905082815260208101848484011115614cb857614cb7614980565b5b614cc3848285614a31565b509392505050565b600082601f830112614ce057614cdf61497b565b5b8135614cf0848260208601614c89565b91505092915050565b60008060008060808587031215614d1357614d1261445b565b5b6000614d21878288016146a8565b9450506020614d32878288016146a8565b9350506040614d43878288016145f3565b925050606085013567ffffffffffffffff811115614d6457614d63614460565b5b614d7087828801614ccb565b91505092959194509250565b600060e082019050614d91600083018a614af9565b8181036020830152614da38189614577565b90508181036040830152614db78188614577565b9050614dc660608301876144f6565b614dd360808301866144f6565b614de060a0830185614af9565b614ded60c0830184614667565b98975050505050505050565b6000606082019050614e0e6000830186614af9565b614e1b6020830185614667565b614e286040830184614af9565b949350505050565b60008060408385031215614e4757614e4661445b565b5b6000614e55858286016146a8565b9250506020614e66858286016146a8565b9150509250929050565b7f4e487b7100000000000000000000000000000000000000000000000000000000600052602260045260246000fd5b60006002820490506001821680614eb757607f821691505b602082108103614eca57614ec9614e70565b5b50919050565b7f4552433732313a20617070726f76616c20746f2063757272656e74206f776e6560008201527f7200000000000000000000000000000000000000000000000000000000000000602082015250565b6000614f2c60218361452b565b9150614f3782614ed0565b604082019050919050565b60006020820190508181036000830152614f5b81614f1f565b9050919050565b7f4552433732313a20617070726f76652063616c6c6572206973206e6f7420746f60008201527f6b656e206f776e6572206f7220617070726f76656420666f7220616c6c000000602082015250565b6000614fbe603d8361452b565b9150614fc982614f62565b604082019050919050565b60006020820190508181036000830152614fed81614fb1565b9050919050565b7f4552433732313a2063616c6c6572206973206e6f7420746f6b656e206f776e6560008201527f72206f7220617070726f76656400000000000000000000000000000000000000602082015250565b6000615050602d8361452b565b915061505b82614ff4565b604082019050919050565b6000602082019050818103600083015261507f81615043565b9050919050565b7f4974656d206e6f74206c697374656420666f722073616c652e00000000000000600082015250565b60006150bc60198361452b565b91506150c782615086565b602082019050919050565b600060208201905081810360008301526150eb816150af565b9050919050565b7f4e6f7420746865206f776e6572206f6620746865206974656d2e000000000000600082015250565b6000615128601a8361452b565b9150615133826150f2565b602082019050919050565b600060208201905081810360008301526151578161511b565b9050919050565b7f55736572206e6f7420726567697374657265642e000000000000000000000000600082015250565b600061519460148361452b565b915061519f8261515e565b602082019050919050565b600060208201905081810360008301526151c381615187565b9050919050565b7f4e487b7100000000000000000000000000000000000000000000000000000000600052601160045260246000fd5b6000615204826145d2565b915061520f836145d2565b9250828201905080821115615227576152266151ca565b5b92915050565b7f4e487b7100000000000000000000000000000000000000000000000000000000600052603260045260246000fd5b6000615267826145d2565b91507fffffffffffffffffffffffffffffffffffffffffffffffffffffffffffffffff8203615299576152986151ca565b5b600182019050919050565b7f4f6e6c792041646d696e206f7065726174696f6e730000000000000000000000600082015250565b60006152da60158361452b565b91506152e5826152a4565b602082019050919050565b60006020820190508181036000830152615309816152cd565b9050919050565b7f4e6f74207468652072656e746572206f6620746865206974656d2e0000000000600082015250565b6000615346601b8361452b565b915061535182615310565b602082019050919050565b6000602082019050818103600083015261537581615339565b9050919050565b7f4974656d20616c7265616479206c697374656420666f722072656e742e000000600082015250565b60006153b2601d8361452b565b91506153bd8261537c565b602082019050919050565b600060208201905081810360008301526153e1816153a5565b9050919050565b60006153f3826145d2565b91506153fe836145d2565b925082820261540c816145d2565b91508282048414831517615423576154226151ca565b5b5092915050565b7f4e487b7100000000000000000000000000000000000000000000000000000000600052601260045260246000fd5b6000615464826145d2565b915061546f836145d2565b92508261547f5761547e61542a565b5b828204905092915050565b7f4552433732313a20696e76616c696420746f6b656e2049440000000000000000600082015250565b60006154c060188361452b565b91506154cb8261548a565b602082019050919050565b600060208201905081810360008301526154ef816154b3565b9050919050565b7f5573657220616c726561647920726567697374657265642e0000000000000000600082015250565b600061552c60188361452b565b9150615537826154f6565b602082019050919050565b6000602082019050818103600083015261555b8161551f565b9050919050565b60008190508160005260206000209050919050565b60006020601f8301049050919050565b600082821b905092915050565b6000600883026155c47fffffffffffffffffffffffffffffffffffffffffffffffffffffffffffffffff82615587565b6155ce8683615587565b95508019841693508086168417925050509392505050565b6000819050919050565b600061560b615606615601846145d2565b6155e6565b6145d2565b9050919050565b6000819050919050565b615625836155f0565b61563961563182615612565b848454615594565b825550505050565b600090565b61564e615641565b61565981848461561c565b505050565b5b8181101561567d57615672600082615646565b60018101905061565f565b5050565b601f8211156156c25761569381615562565b61569c84615577565b810160208510156156ab578190505b6156bf6156b785615577565b83018261565e565b50505b505050565b600082821c905092915050565b60006156e5600019846008026156c7565b1980831691505092915050565b60006156fe83836156d4565b9150826002028217905092915050565b61571782614520565b67ffffffffffffffff8111156157305761572f614985565b5b61573a8254614e9f565b615745828285615681565b600060209050601f8311600181146157785760008415615766578287015190505b61577085826156f2565b8655506157d8565b601f19841661578686615562565b60005b828110156157ae57848901518255600182019150602085019450602081019050615789565b868310156157cb57848901516157c7601f8916826156d4565b8355505b6001600288020188555050505b505050505050565b7f4552433732313a2061646472657373207a65726f206973206e6f74206120766160008201527f6c6964206f776e65720000000000000000000000000000000000000000000000602082015250565b600061583c60298361452b565b9150615847826157e0565b604082019050919050565b6000602082019050818103600083015261586b8161582f565b9050919050565b600061587d826145d2565b9150615888836145d2565b92508282039050818111156158a05761589f6151ca565b5b92915050565b7f4e487b7100000000000000000000000000000000000000000000000000000000600052603160045260246000fd5b600081905092915050565b60006158eb82614520565b6158f581856158d5565b935061590581856020860161453c565b80840191505092915050565b600061591d82856158e0565b915061592982846158e0565b91508190509392505050565b7f4974656d206e6f74206c697374656420666f722072656e742e00000000000000600082015250565b600061596b60198361452b565b915061597682615935565b602082019050919050565b6000602082019050818103600083015261599a8161595e565b9050919050565b7f496e73756666696369656e742066756e64732e00000000000000000000000000600082015250565b60006159d760138361452b565b91506159e2826159a1565b602082019050919050565b60006020820190508181036000830152615a06816159ca565b9050919050565b7f43616e6e6f742072656e74206f776e206974656d2e0000000000000000000000600082015250565b6000615a4360158361452b565b9150615a4e82615a0d565b602082019050919050565b60006020820190508181036000830152615a7281615a36565b9050919050565b7f4974656d20616c7265616479206c697374656420666f722073616c652e000000600082015250565b6000615aaf601d8361452b565b9150615aba82615a79565b602082019050919050565b60006020820190508181036000830152615ade81615aa2565b9050919050565b7f43616e6e6f7420627579206f776e206974656d2e000000000000000000000000600082015250565b6000615b1b60148361452b565b9150615b2682615ae5565b602082019050919050565b60006020820190508181036000830152615b4a81615b0e565b9050919050565b7f4552433732313a207472616e736665722066726f6d20696e636f72726563742060008201527f6f776e6572000000000000000000000000000000000000000000000000000000602082015250565b6000615bad60258361452b565b9150615bb882615b51565b604082019050919050565b60006020820190508181036000830152615bdc81615ba0565b9050919050565b7f4552433732313a207472616e7366657220746f20746865207a65726f2061646460008201527f7265737300000000000000000000000000000000000000000000000000000000602082015250565b6000615c3f60248361452b565b9150615c4a82615be3565b604082019050919050565b60006020820190508181036000830152615c6e81615c32565b9050919050565b7f4552433732313a20617070726f766520746f2063616c6c657200000000000000600082015250565b6000615cab60198361452b565b9150615cb682615c75565b602082019050919050565b60006020820190508181036000830152615cda81615c9e565b9050919050565b7f4552433732313a206d696e7420746f20746865207a65726f2061646472657373600082015250565b6000615d1760208361452b565b9150615d2282615ce1565b602082019050919050565b60006020820190508181036000830152615d4681615d0a565b9050919050565b7f4552433732313a20746f6b656e20616c7265616479206d696e74656400000000600082015250565b6000615d83601c8361452b565b9150615d8e82615d4d565b602082019050919050565b60006020820190508181036000830152615db281615d76565b9050919050565b7f4552433732313a207472616e7366657220746f206e6f6e20455243373231526560008201527f63656976657220696d706c656d656e7465720000000000000000000000000000602082015250565b6000615e1560328361452b565b9150615e2082615db9565b604082019050919050565b60006020820190508181036000830152615e4481615e08565b9050919050565b600081519050919050565b600082825260208201905092915050565b6000615e7282615e4b565b615e7c8185615e56565b9350615e8c81856020860161453c565b615e9581614566565b840191505092915050565b6000608082019050615eb56000830187614667565b615ec26020830186614667565b615ecf6040830185614af9565b8181036060830152615ee18184615e67565b905095945050505050565b600081519050615efb81614491565b92915050565b600060208284031215615f1757615f1661445b565b5b6000615f2584828501615eec565b9150509291505056fea2646970667358221220348f090742f2de25baebebd2f1bc8e98bd1ea8210dc3ef437da7965875d4153564736f6c63430008130033",
  "immutableReferences": {},
  "source": "// SPDX-License-Identifier: MIT\npragma solidity ^0.8.0;\n\nimport \"@openzeppelin/contracts/token/ERC721/ERC721.sol\";\nimport \"@openzeppelin/contracts/utils/Counters.sol\";\n// import \"./Gamesrent.sol\";\n\ncontract GameItems is ERC721 {\n    using Counters for Counters.Counter;\n    Counters.Counter private _tokenIds;\n\n    address admin;\n\n    struct User {\n        address walletAddress;\n        string username;\n        uint256 balance;\n        uint256[] ownedItemIds;\n        uint256[] rentedItemIds;\n    }\n\n    struct Item {\n        uint256 itemId;\n        string name;\n        string description;\n        bool isAvailableForRent;\n        bool isAvailableForSale;\n        uint256 price;\n        address owner;\n    }\n\n    struct SaleListing {\n        uint256 itemId;\n        address seller;\n        uint256 price;\n    }\n\n    struct RentListing {\n        uint256 itemId;\n        address owner;\n        uint256 gameRentPrice;\n    }\n\n    mapping(address => User) public users;\n    mapping(uint256 => Item) public items;\n    mapping(uint256 => SaleListing) public listings;\n    mapping(uint256 => RentListing) public rentListings;\n\n\n\n    constructor(string memory _username) ERC721(\"GameItems\", \"GI\") payable {\n        admin = msg.sender;\n        users[msg.sender] = User(msg.sender, _username, msg.value, new uint256[](0), new uint256[](0));\n    }\n\n    modifier onlyRegistered() {\n        require(users[msg.sender].walletAddress != address(0),\"User not registered.\");\n        _;\n    }\n\n    modifier onlyOwner(uint256 _itemId) {\n        require(ownerOf(_itemId) == msg.sender, \"Not the owner of the item.\");\n        _;\n    }\n\n    modifier onlyAdmin() {\n        require(admin==msg.sender,\"Only Admin operations\");\n        _;\n    }\n\n    function getUser(address useraddr) public returns  (string memory){\n        require(users[useraddr].walletAddress != address(0), \"User not registered.\");\n        string memory userA = users[useraddr].username;\n        return userA;\n    }\n\n    function getItemsByUser() public onlyRegistered returns (Item[] memory) {\n        uint256[] memory itemslist = users[msg.sender].ownedItemIds;\n        uint256 index=0;\n        Item[] memory result = new Item[](itemslist.length+1);\n        for (uint i=0; i<itemslist.length; i++) {\n            result[index++] = items[itemslist[i]];\n        }\n        return result;\n    }\n\n    function getAllItems() public onlyRegistered returns (Item[] memory){\n        uint256 index=0;\n        uint itemC = _tokenIds.current();\n\n        Item[] memory result = new Item[](itemC);\n        for (uint i=1; i<=itemC; i++) {\n            result[index++] = items[i];\n        }\n        return result;\n    }\n\n    function registerUser(string memory _username) public payable {\n        require(users[msg.sender].walletAddress == address(0), \"User already registered.\");\n        users[msg.sender] = User(msg.sender, _username, msg.value, new uint256[](0), new uint256[](0));\n    }\n\n    function addItem(string memory _name,uint256 price, string memory _description) public onlyRegistered returns (uint256) {\n        _tokenIds.increment();\n        uint256 newItemId = _tokenIds.current();\n        _mint(msg.sender, newItemId);\n        items[newItemId] = Item(newItemId,_name,_description,false,false,price,msg.sender);\n        users[msg.sender].ownedItemIds.push(newItemId);\n        return newItemId;\n    }\n\n\n    // Sale related functions\n\n    function listItemForSale(uint256 _itemId) public onlyOwner(_itemId) returns (bool){\n        // require(ownerOf(_itemId) == msg.sender, \"Not the owner of the item.\");\n        require(!isItemForSale(_itemId), \"Item already listed for sale.\");\n        uint256 _price = items[_itemId].price;\n        listings[_itemId] = SaleListing(_itemId, msg.sender, _price);\n        items[_itemId].isAvailableForSale = true;\n        return true;\n    }\n\n    function isItemForSale(uint256 _itemId) public view returns (bool) {\n        return listings[_itemId].itemId != 0 && listings[_itemId].seller != address(0);\n    }\n\n    function buyItem(uint256 _itemId) public payable {\n        require(isItemForSale(_itemId), \"Item not listed for sale.\");\n        require(msg.value >= listings[_itemId].price, \"Insufficient funds.\");\n        address seller = listings[_itemId].seller;\n        require(seller != msg.sender, \"Cannot buy own item.\");\n        require(users[msg.sender].walletAddress != address(0),\"User not registered.\");\n\n        _transfer(seller, msg.sender, _itemId);\n        users[msg.sender].ownedItemIds.push(_itemId);\n\n        for (uint i = 0; i < users[seller].ownedItemIds.length; i++) {\n            if (users[seller].ownedItemIds[i] == _itemId) {\n                users[seller].ownedItemIds[i] = users[seller].ownedItemIds[users[seller].ownedItemIds.length - 1];\n                users[seller].ownedItemIds.pop();\n                break;\n            }\n        }\n\n        items[_itemId].owner = msg.sender;\n        items[_itemId].isAvailableForSale = false;\n        users[seller].balance += listings[_itemId].price;\n        users[msg.sender].balance -= listings[_itemId].price;\n        payable(seller).transfer(listings[_itemId].price);\n        delete listings[_itemId];\n    }\n\n    function cancelListing(uint256 _itemId) public {\n        require(isItemForSale(_itemId), \"Item not listed for sale.\");\n        require(listings[_itemId].seller == msg.sender, \"Not the owner of the item.\");\n        delete listings[_itemId];\n    }\n\n    // function changeSaleState(uint256 _itemId) public {\n    //     require(ownerOf(_itemId) == msg.sender, \"Not the owner of the item.\");\n    //     require(isItemForSale(_itemId), \"Item not listed for sale.\");\n\n    //     rentListings[_itemId] = RentListing(_itemId,msg.sender,items[_itemId].price*2/10);\n        \n    //     delete listings[_itemId];\n    // } \n    // rent related functions\n\n    function listItemForRent(uint256 _itemId) public {\n        require(ownerOf(_itemId) == msg.sender, \"Not the owner of the item.\");\n        require(!isItemForRent(_itemId), \"Item already listed for rent.\");\n        uint256 _gameRentPrice = items[_itemId].price * 2 / 10;\n        rentListings[_itemId] = RentListing(_itemId, msg.sender, _gameRentPrice);\n        items[_itemId].isAvailableForRent = true;\n    }\n\n    function isItemForRent(uint256 _itemId) public view returns (bool) {\n        return rentListings[_itemId].itemId != 0 && rentListings[_itemId].owner != address(0);\n    }\n\n\n    function rentItem(uint256 _itemId) public payable {\n        require(isItemForRent(_itemId), \"Item not listed for rent.\");\n        uint256 totalRentPrice = rentListings[_itemId].gameRentPrice;\n        require(msg.value >= totalRentPrice, \"Insufficient funds.\");\n\n        address owner = rentListings[_itemId].owner;\n        require(owner != msg.sender, \"Cannot rent own item.\");\n        require(users[msg.sender].walletAddress != address(0),\"User not registered.\");\n        // users[msg.sender].rentedItemIds.push(_itemId)\n        // items[_itemId].renter = msg.sender;\n        users[msg.sender].rentedItemIds.push(_itemId);\n        users[owner].balance += totalRentPrice;\n        users[msg.sender].balance -= totalRentPrice;\n        payable(owner).transfer(totalRentPrice);\n        delete rentListings[_itemId];\n    }\n\n    function isUserRentingItem(address user, uint256 _itemId) internal view returns (bool) {\n        for (uint i = 0; i < users[user].rentedItemIds.length; i++) {\n            if (users[user].rentedItemIds[i] == _itemId) {\n                return true;\n            }\n        }\n        return false;\n    }\n\n\n    function playGame(uint256 _itemId) public {\n        require(isUserRentingItem(msg.sender,_itemId),\"Not the renter of the item.\");\n        // require(items[_itemId].renter != msg.sender, \"Not the renter of the item.\");\n        // require(ownerOf(_itemId) == msg.sender, \"Not the owner of the item.\");\n        require(!isItemForRent(_itemId), \"Item already listed for rent.\");\n\n        uint256 _gameRentPrice = items[_itemId].price * 2 / 10;\n\n        rentListings[_itemId] = RentListing(_itemId, msg.sender, _gameRentPrice);\n\n        returnRentedItem(_itemId);\n        // cancelRentListing(_itemId);\n    }\n\n    function returnRentedItem(uint256 _itemId) public {\n        require(isUserRentingItem(msg.sender,_itemId), \"Not the renter of the item.\");\n\n        for (uint i = 0; i < users[msg.sender].rentedItemIds.length; i++) {\n            if (users[msg.sender].rentedItemIds[i] == _itemId) {\n                users[msg.sender].rentedItemIds[i] = users[msg.sender].rentedItemIds[users[msg.sender].rentedItemIds.length - 1];\n                users[msg.sender].rentedItemIds.pop();\n                break;\n            }\n        }\n    }\n    // function cancelRentListing(uint256 _itemId) public {\n    //     require(isItemForRent(_itemId), \"Item not listed for rent.\");\n    //     require(rentListings[_itemId].owner == msg.sender, \"Not the owner of the item.\");\n    //     delete rentListings[_itemId];\n    // }\n\n    // function changeRentState(uint256 _itemId) public {\n    //     require(ownerOf(_itemId) == msg.sender, \"Not the owner of the item.\");\n    //     require(isItemForRent(_itemId), \"Item not listed for sale.\");\n\n    //     listings[_itemId] = SaleListing(_itemId,msg.sender,items[_itemId].price);\n\n    //     delete rentListings[_itemId];\n    // } \n    // function getRentListings() public onlyRegistered returns (RentListing[] memory){\n    //     uint256 index=0;\n    //     uint itemC = _tokenIds.current();\n\n    //     RentListing[] memory result = new RentListing[](itemC);\n    //     for (uint i=1; i<=itemC; i++) {\n    //         if(rentListings[i].owner == address(0)){\n\n    //         } else {\n    //             result[index++] = rentListings[i];\n    //         }\n\n    //     }\n    //     return result;\n    // }\n\n\n    function close() public onlyAdmin {\n        selfdestruct(payable(msg.sender));   \n    }\n}",
  "sourcePath": "/home/ganesh/Desktop/bloackchain-dapp/App-contract/contracts/Games.sol",
  "compiler": {
    "name": "solc",
    "version": "0.8.19+commit.7dd6d404.Emscripten.clang"
  },
  "schemaVersion": "3.4.13",
  "updatedAt": "2023-04-26T17:33:36.708Z",
  "networkType": "ethereum",
  "devdoc": {
    "events": {
      "Approval(address,address,uint256)": {
        "details": "Emitted when `owner` enables `approved` to manage the `tokenId` token."
      },
      "ApprovalForAll(address,address,bool)": {
        "details": "Emitted when `owner` enables or disables (`approved`) `operator` to manage all of its assets."
      },
      "Transfer(address,address,uint256)": {
        "details": "Emitted when `tokenId` token is transferred from `from` to `to`."
      }
    },
    "kind": "dev",
    "methods": {
      "approve(address,uint256)": {
        "details": "See {IERC721-approve}."
      },
      "balanceOf(address)": {
        "details": "See {IERC721-balanceOf}."
      },
      "getApproved(uint256)": {
        "details": "See {IERC721-getApproved}."
      },
      "isApprovedForAll(address,address)": {
        "details": "See {IERC721-isApprovedForAll}."
      },
      "name()": {
        "details": "See {IERC721Metadata-name}."
      },
      "ownerOf(uint256)": {
        "details": "See {IERC721-ownerOf}."
      },
      "safeTransferFrom(address,address,uint256)": {
        "details": "See {IERC721-safeTransferFrom}."
      },
      "safeTransferFrom(address,address,uint256,bytes)": {
        "details": "See {IERC721-safeTransferFrom}."
      },
      "setApprovalForAll(address,bool)": {
        "details": "See {IERC721-setApprovalForAll}."
      },
      "supportsInterface(bytes4)": {
        "details": "See {IERC165-supportsInterface}."
      },
      "symbol()": {
        "details": "See {IERC721Metadata-symbol}."
      },
      "tokenURI(uint256)": {
        "details": "See {IERC721Metadata-tokenURI}."
      },
      "transferFrom(address,address,uint256)": {
        "details": "See {IERC721-transferFrom}."
      }
    },
    "version": 1
  },
  "userdoc": {
    "kind": "user",
    "methods": {},
    "version": 1
  }
}