{
  "contractName": "HelperContractForRent",
  "abi": [
    {
      "inputs": [
        {
          "internalType": "uint256",
          "name": "",
          "type": "uint256"
        }
      ],
      "name": "items",
      "outputs": [
        {
          "internalType": "uint256",
          "name": "itemId",
          "type": "uint256"
        },
        {
          "internalType": "string",
          "name": "name",
          "type": "string"
        },
        {
          "internalType": "string",
          "name": "description",
          "type": "string"
        },
        {
          "internalType": "bool",
          "name": "isAvailableForRent",
          "type": "bool"
        },
        {
          "internalType": "bool",
          "name": "isAvailableForSale",
          "type": "bool"
        },
        {
          "internalType": "uint256",
          "name": "price",
          "type": "uint256"
        },
        {
          "internalType": "address",
          "name": "owner",
          "type": "address"
        }
      ],
      "stateMutability": "view",
      "type": "function"
    },
    {
      "inputs": [
        {
          "internalType": "uint256",
          "name": "",
          "type": "uint256"
        }
      ],
      "name": "listings",
      "outputs": [
        {
          "internalType": "uint256",
          "name": "itemId",
          "type": "uint256"
        },
        {
          "internalType": "address",
          "name": "seller",
          "type": "address"
        },
        {
          "internalType": "uint256",
          "name": "price",
          "type": "uint256"
        }
      ],
      "stateMutability": "view",
      "type": "function"
    },
    {
      "inputs": [
        {
          "internalType": "uint256",
          "name": "",
          "type": "uint256"
        }
      ],
      "name": "rentListings",
      "outputs": [
        {
          "internalType": "uint256",
          "name": "itemId",
          "type": "uint256"
        },
        {
          "internalType": "address",
          "name": "owner",
          "type": "address"
        },
        {
          "internalType": "uint256",
          "name": "gameRentPrice",
          "type": "uint256"
        }
      ],
      "stateMutability": "view",
      "type": "function"
    },
    {
      "inputs": [
        {
          "internalType": "address",
          "name": "",
          "type": "address"
        }
      ],
      "name": "users",
      "outputs": [
        {
          "internalType": "address",
          "name": "walletAddress",
          "type": "address"
        },
        {
          "internalType": "string",
          "name": "username",
          "type": "string"
        },
        {
          "internalType": "uint256",
          "name": "balance",
          "type": "uint256"
        }
      ],
      "stateMutability": "view",
      "type": "function"
    },
    {
      "inputs": [],
      "name": "getRentListings",
      "outputs": [
        {
          "components": [
            {
              "internalType": "uint256",
              "name": "itemId",
              "type": "uint256"
            },
            {
              "internalType": "address",
              "name": "owner",
              "type": "address"
            },
            {
              "internalType": "uint256",
              "name": "gameRentPrice",
              "type": "uint256"
            }
          ],
          "internalType": "struct HelperContractForRent.RentListing[]",
          "name": "",
          "type": "tuple[]"
        }
      ],
      "stateMutability": "nonpayable",
      "type": "function"
    }
  ],
  "bytecode": "0x608060405234801561001057600080fd5b50610cb6806100206000396000f3fe608060405234801561001057600080fd5b50600436106100575760003560e01c8063789df8db1461005c578063a87430ba1461007a578063bfb231d2146100ac578063cdf27223146100e2578063de74e57b14610114575b600080fd5b610064610146565b604051610071919061084b565b60405180910390f35b610094600480360381019061008f919061089e565b6103c9565b6040516100a393929190610979565b60405180910390f35b6100c660048036038101906100c191906109e3565b61049b565b6040516100d99796959493929190610a2b565b60405180910390f35b6100fc60048036038101906100f791906109e3565b610627565b60405161010b93929190610aa8565b60405180910390f35b61012e600480360381019061012991906109e3565b610671565b60405161013d93929190610aa8565b60405180910390f35b6060600073ffffffffffffffffffffffffffffffffffffffff16600160003373ffffffffffffffffffffffffffffffffffffffff1673ffffffffffffffffffffffffffffffffffffffff16815260200190815260200160002060000160009054906101000a900473ffffffffffffffffffffffffffffffffffffffff1673ffffffffffffffffffffffffffffffffffffffff1603610219576040517f08c379a000000000000000000000000000000000000000000000000000000000815260040161021090610b2b565b60405180910390fd5b60008061022660006106bb565b905060008167ffffffffffffffff81111561024457610243610b4b565b5b60405190808252806020026020018201604052801561027d57816020015b61026a6106c9565b8152602001906001900390816102625790505b5090506000600190505b8281116103bf57600073ffffffffffffffffffffffffffffffffffffffff166004600083815260200190815260200160002060010160009054906101000a900473ffffffffffffffffffffffffffffffffffffffff1673ffffffffffffffffffffffffffffffffffffffff1603156103ac5760046000828152602001908152602001600020604051806060016040529081600082015481526020016001820160009054906101000a900473ffffffffffffffffffffffffffffffffffffffff1673ffffffffffffffffffffffffffffffffffffffff1673ffffffffffffffffffffffffffffffffffffffff16815260200160028201548152505082858061038d90610ba9565b9650815181106103a05761039f610bf1565b5b60200260200101819052505b80806103b790610ba9565b915050610287565b5080935050505090565b60016020528060005260406000206000915090508060000160009054906101000a900473ffffffffffffffffffffffffffffffffffffffff169080600101805461041290610c4f565b80601f016020809104026020016040519081016040528092919081815260200182805461043e90610c4f565b801561048b5780601f106104605761010080835404028352916020019161048b565b820191906000526020600020905b81548152906001019060200180831161046e57829003601f168201915b5050505050908060020154905083565b60026020528060005260406000206000915090508060000154908060010180546104c490610c4f565b80601f01602080910402602001604051908101604052809291908181526020018280546104f090610c4f565b801561053d5780601f106105125761010080835404028352916020019161053d565b820191906000526020600020905b81548152906001019060200180831161052057829003601f168201915b50505050509080600201805461055290610c4f565b80601f016020809104026020016040519081016040528092919081815260200182805461057e90610c4f565b80156105cb5780601f106105a0576101008083540402835291602001916105cb565b820191906000526020600020905b8154815290600101906020018083116105ae57829003601f168201915b5050505050908060030160009054906101000a900460ff16908060030160019054906101000a900460ff16908060040154908060050160009054906101000a900473ffffffffffffffffffffffffffffffffffffffff16905087565b60046020528060005260406000206000915090508060000154908060010160009054906101000a900473ffffffffffffffffffffffffffffffffffffffff16908060020154905083565b60036020528060005260406000206000915090508060000154908060010160009054906101000a900473ffffffffffffffffffffffffffffffffffffffff16908060020154905083565b600081600001549050919050565b604051806060016040528060008152602001600073ffffffffffffffffffffffffffffffffffffffff168152602001600081525090565b600081519050919050565b600082825260208201905092915050565b6000819050602082019050919050565b6000819050919050565b61073f8161072c565b82525050565b600073ffffffffffffffffffffffffffffffffffffffff82169050919050565b600061077082610745565b9050919050565b61078081610765565b82525050565b60608201600082015161079c6000850182610736565b5060208201516107af6020850182610777565b5060408201516107c26040850182610736565b50505050565b60006107d48383610786565b60608301905092915050565b6000602082019050919050565b60006107f882610700565b610802818561070b565b935061080d8361071c565b8060005b8381101561083e57815161082588826107c8565b9750610830836107e0565b925050600181019050610811565b5085935050505092915050565b6000602082019050818103600083015261086581846107ed565b905092915050565b600080fd5b61087b81610765565b811461088657600080fd5b50565b60008135905061089881610872565b92915050565b6000602082840312156108b4576108b361086d565b5b60006108c284828501610889565b91505092915050565b6108d481610765565b82525050565b600081519050919050565b600082825260208201905092915050565b60005b838110156109145780820151818401526020810190506108f9565b60008484015250505050565b6000601f19601f8301169050919050565b600061093c826108da565b61094681856108e5565b93506109568185602086016108f6565b61095f81610920565b840191505092915050565b6109738161072c565b82525050565b600060608201905061098e60008301866108cb565b81810360208301526109a08185610931565b90506109af604083018461096a565b949350505050565b6109c08161072c565b81146109cb57600080fd5b50565b6000813590506109dd816109b7565b92915050565b6000602082840312156109f9576109f861086d565b5b6000610a07848285016109ce565b91505092915050565b60008115159050919050565b610a2581610a10565b82525050565b600060e082019050610a40600083018a61096a565b8181036020830152610a528189610931565b90508181036040830152610a668188610931565b9050610a756060830187610a1c565b610a826080830186610a1c565b610a8f60a083018561096a565b610a9c60c08301846108cb565b98975050505050505050565b6000606082019050610abd600083018661096a565b610aca60208301856108cb565b610ad7604083018461096a565b949350505050565b7f55736572206e6f7420726567697374657265642e000000000000000000000000600082015250565b6000610b156014836108e5565b9150610b2082610adf565b602082019050919050565b60006020820190508181036000830152610b4481610b08565b9050919050565b7f4e487b7100000000000000000000000000000000000000000000000000000000600052604160045260246000fd5b7f4e487b7100000000000000000000000000000000000000000000000000000000600052601160045260246000fd5b6000610bb48261072c565b91507fffffffffffffffffffffffffffffffffffffffffffffffffffffffffffffffff8203610be657610be5610b7a565b5b600182019050919050565b7f4e487b7100000000000000000000000000000000000000000000000000000000600052603260045260246000fd5b7f4e487b7100000000000000000000000000000000000000000000000000000000600052602260045260246000fd5b60006002820490506001821680610c6757607f821691505b602082108103610c7a57610c79610c20565b5b5091905056fea264697066735822122051b787c06754b3ecef445772ead452cf23f7a46c32414535dbced0841b17133664736f6c63430008130033",
  "immutableReferences": {},
  "source": "// SPDX-License-Identifier: MIT\npragma solidity ^0.8.0;\n\n// import \"@openzeppelin/contracts/token/ERC721/ERC721.sol\";\nimport \"@openzeppelin/contracts/utils/Counters.sol\";\n\n\ncontract HelperContractForRent {\n    using Counters for Counters.Counter;\n    Counters.Counter private _tokenIds;\n    struct User {\n        address walletAddress;\n        string username;\n        uint256 balance;\n        uint256[] ownedItemIds;\n        uint256[] rentedItemIds;\n    }\n\n    struct Item {\n        uint256 itemId;\n        string name;\n        string description;\n        bool isAvailableForRent;\n        bool isAvailableForSale;\n        uint256 price;\n        address owner;\n    }\n\n    struct SaleListing {\n        uint256 itemId;\n        address seller;\n        uint256 price;\n    }\n\n    struct RentListing {\n        uint256 itemId;\n        address owner;\n        uint256 gameRentPrice;\n    }\n\n    mapping(address => User) public users;\n    mapping(uint256 => Item) public items;\n    mapping(uint256 => SaleListing) public listings;\n    mapping(uint256 => RentListing) public rentListings;\n\n    modifier onlyRegistered() {\n        require(users[msg.sender].walletAddress != address(0),\"User not registered.\");\n        _;\n    }\n\n\n    function getRentListings() public onlyRegistered returns (RentListing[] memory){\n        uint256 index=0;\n        uint itemC = _tokenIds.current();\n\n        RentListing[] memory result = new RentListing[](itemC);\n        for (uint i=1; i<=itemC; i++) {\n            if(rentListings[i].owner == address(0)){\n\n            } else {\n                result[index++] = rentListings[i];\n            }\n\n        }\n        return result;\n    }\n}\n",
  "sourcePath": "/home/ganesh/Desktop/bloackchain-dapp/App-contract/contracts/Gamesrent.sol",
  "compiler": {
    "name": "solc",
    "version": "0.8.19+commit.7dd6d404.Emscripten.clang"
  },
  "schemaVersion": "3.4.13",
  "updatedAt": "2023-04-26T17:21:17.838Z",
  "devdoc": {
    "kind": "dev",
    "methods": {},
    "version": 1
  },
  "userdoc": {
    "kind": "user",
    "methods": {},
    "version": 1
  }
}